{
	"contracts/LSTLendingAMM.sol": {
		"LSTLendingAMM": {
			"abi": [
				{
					"inputs": [
						{
							"internalType": "address",
							"name": "_lstToken",
							"type": "address"
						},
						{
							"internalType": "address",
							"name": "_borrowToken",
							"type": "address"
						},
						{
							"internalType": "address",
							"name": "_priceFeed",
							"type": "address"
						},
						{
							"internalType": "address",
							"name": "_treasury",
							"type": "address"
						}
					],
					"stateMutability": "nonpayable",
					"type": "constructor"
				},
				{
					"inputs": [],
					"name": "AccessControlBadConfirmation",
					"type": "error"
				},
				{
					"inputs": [
						{
							"internalType": "address",
							"name": "account",
							"type": "address"
						},
						{
							"internalType": "bytes32",
							"name": "neededRole",
							"type": "bytes32"
						}
					],
					"name": "AccessControlUnauthorizedAccount",
					"type": "error"
				},
				{
					"anonymous": false,
					"inputs": [
						{
							"indexed": true,
							"internalType": "address",
							"name": "user",
							"type": "address"
						},
						{
							"indexed": false,
							"internalType": "uint256",
							"name": "amount",
							"type": "uint256"
						}
					],
					"name": "AssetBorrowed",
					"type": "event"
				},
				{
					"anonymous": false,
					"inputs": [
						{
							"indexed": true,
							"internalType": "address",
							"name": "user",
							"type": "address"
						},
						{
							"indexed": false,
							"internalType": "uint256",
							"name": "amount",
							"type": "uint256"
						}
					],
					"name": "CollateralDeposited",
					"type": "event"
				},
				{
					"anonymous": false,
					"inputs": [
						{
							"indexed": true,
							"internalType": "address",
							"name": "borrower",
							"type": "address"
						},
						{
							"indexed": true,
							"internalType": "address",
							"name": "liquidator",
							"type": "address"
						},
						{
							"indexed": false,
							"internalType": "uint256",
							"name": "amount",
							"type": "uint256"
						}
					],
					"name": "PositionLiquidated",
					"type": "event"
				},
				{
					"anonymous": false,
					"inputs": [
						{
							"indexed": true,
							"internalType": "bytes32",
							"name": "role",
							"type": "bytes32"
						},
						{
							"indexed": true,
							"internalType": "bytes32",
							"name": "previousAdminRole",
							"type": "bytes32"
						},
						{
							"indexed": true,
							"internalType": "bytes32",
							"name": "newAdminRole",
							"type": "bytes32"
						}
					],
					"name": "RoleAdminChanged",
					"type": "event"
				},
				{
					"anonymous": false,
					"inputs": [
						{
							"indexed": true,
							"internalType": "bytes32",
							"name": "role",
							"type": "bytes32"
						},
						{
							"indexed": true,
							"internalType": "address",
							"name": "account",
							"type": "address"
						},
						{
							"indexed": true,
							"internalType": "address",
							"name": "sender",
							"type": "address"
						}
					],
					"name": "RoleGranted",
					"type": "event"
				},
				{
					"anonymous": false,
					"inputs": [
						{
							"indexed": true,
							"internalType": "bytes32",
							"name": "role",
							"type": "bytes32"
						},
						{
							"indexed": true,
							"internalType": "address",
							"name": "account",
							"type": "address"
						},
						{
							"indexed": true,
							"internalType": "address",
							"name": "sender",
							"type": "address"
						}
					],
					"name": "RoleRevoked",
					"type": "event"
				},
				{
					"anonymous": false,
					"inputs": [
						{
							"indexed": true,
							"internalType": "address",
							"name": "sender",
							"type": "address"
						},
						{
							"indexed": false,
							"internalType": "uint256",
							"name": "amount",
							"type": "uint256"
						}
					],
					"name": "TreasuryFunded",
					"type": "event"
				},
				{
					"inputs": [],
					"name": "ADMIN_ROLE",
					"outputs": [
						{
							"internalType": "bytes32",
							"name": "",
							"type": "bytes32"
						}
					],
					"stateMutability": "view",
					"type": "function"
				},
				{
					"inputs": [],
					"name": "DEFAULT_ADMIN_ROLE",
					"outputs": [
						{
							"internalType": "bytes32",
							"name": "",
							"type": "bytes32"
						}
					],
					"stateMutability": "view",
					"type": "function"
				},
				{
					"inputs": [],
					"name": "LIQUIDATOR_ROLE",
					"outputs": [
						{
							"internalType": "bytes32",
							"name": "",
							"type": "bytes32"
						}
					],
					"stateMutability": "view",
					"type": "function"
				},
				{
					"inputs": [
						{
							"internalType": "uint256",
							"name": "borrowAmount",
							"type": "uint256"
						}
					],
					"name": "borrow",
					"outputs": [],
					"stateMutability": "nonpayable",
					"type": "function"
				},
				{
					"inputs": [],
					"name": "borrowCooldown",
					"outputs": [
						{
							"internalType": "uint256",
							"name": "",
							"type": "uint256"
						}
					],
					"stateMutability": "view",
					"type": "function"
				},
				{
					"inputs": [],
					"name": "borrowToken",
					"outputs": [
						{
							"internalType": "contract IERC20",
							"name": "",
							"type": "address"
						}
					],
					"stateMutability": "view",
					"type": "function"
				},
				{
					"inputs": [
						{
							"internalType": "uint256",
							"name": "collateralValue",
							"type": "uint256"
						},
						{
							"internalType": "uint256",
							"name": "debtValue",
							"type": "uint256"
						}
					],
					"name": "calculateHealthFactor",
					"outputs": [
						{
							"internalType": "uint256",
							"name": "",
							"type": "uint256"
						}
					],
					"stateMutability": "pure",
					"type": "function"
				},
				{
					"inputs": [
						{
							"internalType": "uint256",
							"name": "utilization",
							"type": "uint256"
						}
					],
					"name": "calculateInterestRate",
					"outputs": [
						{
							"internalType": "uint256",
							"name": "",
							"type": "uint256"
						}
					],
					"stateMutability": "pure",
					"type": "function"
				},
				{
					"inputs": [
						{
							"internalType": "address",
							"name": "",
							"type": "address"
						}
					],
					"name": "collateralAccounts",
					"outputs": [
						{
							"internalType": "uint256",
							"name": "collateralAmount",
							"type": "uint256"
						},
						{
							"internalType": "uint256",
							"name": "lastBorrowTimestamp",
							"type": "uint256"
						}
					],
					"stateMutability": "view",
					"type": "function"
				},
				{
					"inputs": [
						{
							"internalType": "address",
							"name": "",
							"type": "address"
						}
					],
					"name": "debtAccounts",
					"outputs": [
						{
							"internalType": "uint256",
							"name": "debtAmount",
							"type": "uint256"
						}
					],
					"stateMutability": "view",
					"type": "function"
				},
				{
					"inputs": [
						{
							"internalType": "uint256",
							"name": "amount",
							"type": "uint256"
						}
					],
					"name": "depositCollateral",
					"outputs": [],
					"stateMutability": "nonpayable",
					"type": "function"
				},
				{
					"inputs": [
						{
							"internalType": "uint256",
							"name": "amount",
							"type": "uint256"
						}
					],
					"name": "emergencyWithdraw",
					"outputs": [],
					"stateMutability": "nonpayable",
					"type": "function"
				},
				{
					"inputs": [
						{
							"internalType": "address",
							"name": "user",
							"type": "address"
						}
					],
					"name": "getCollateralValue",
					"outputs": [
						{
							"internalType": "uint256",
							"name": "",
							"type": "uint256"
						}
					],
					"stateMutability": "view",
					"type": "function"
				},
				{
					"inputs": [
						{
							"internalType": "bytes32",
							"name": "role",
							"type": "bytes32"
						}
					],
					"name": "getRoleAdmin",
					"outputs": [
						{
							"internalType": "bytes32",
							"name": "",
							"type": "bytes32"
						}
					],
					"stateMutability": "view",
					"type": "function"
				},
				{
					"inputs": [
						{
							"internalType": "bytes32",
							"name": "role",
							"type": "bytes32"
						},
						{
							"internalType": "address",
							"name": "account",
							"type": "address"
						}
					],
					"name": "grantRole",
					"outputs": [],
					"stateMutability": "nonpayable",
					"type": "function"
				},
				{
					"inputs": [
						{
							"internalType": "bytes32",
							"name": "role",
							"type": "bytes32"
						},
						{
							"internalType": "address",
							"name": "account",
							"type": "address"
						}
					],
					"name": "hasRole",
					"outputs": [
						{
							"internalType": "bool",
							"name": "",
							"type": "bool"
						}
					],
					"stateMutability": "view",
					"type": "function"
				},
				{
					"inputs": [
						{
							"internalType": "address",
							"name": "borrower",
							"type": "address"
						},
						{
							"internalType": "uint256",
							"name": "repayAmount",
							"type": "uint256"
						}
					],
					"name": "liquidate",
					"outputs": [],
					"stateMutability": "nonpayable",
					"type": "function"
				},
				{
					"inputs": [],
					"name": "lstToken",
					"outputs": [
						{
							"internalType": "contract IERC20",
							"name": "",
							"type": "address"
						}
					],
					"stateMutability": "view",
					"type": "function"
				},
				{
					"inputs": [],
					"name": "minHealthFactor",
					"outputs": [
						{
							"internalType": "uint256",
							"name": "",
							"type": "uint256"
						}
					],
					"stateMutability": "view",
					"type": "function"
				},
				{
					"inputs": [],
					"name": "pauseProtocol",
					"outputs": [],
					"stateMutability": "nonpayable",
					"type": "function"
				},
				{
					"inputs": [],
					"name": "paused",
					"outputs": [
						{
							"internalType": "bool",
							"name": "",
							"type": "bool"
						}
					],
					"stateMutability": "view",
					"type": "function"
				},
				{
					"inputs": [],
					"name": "priceFeed",
					"outputs": [
						{
							"internalType": "contract AggregatorV3Interface",
							"name": "",
							"type": "address"
						}
					],
					"stateMutability": "view",
					"type": "function"
				},
				{
					"inputs": [],
					"name": "recoverOracleData",
					"outputs": [
						{
							"internalType": "int256",
							"name": "",
							"type": "int256"
						}
					],
					"stateMutability": "view",
					"type": "function"
				},
				{
					"inputs": [
						{
							"internalType": "bytes32",
							"name": "role",
							"type": "bytes32"
						},
						{
							"internalType": "address",
							"name": "callerConfirmation",
							"type": "address"
						}
					],
					"name": "renounceRole",
					"outputs": [],
					"stateMutability": "nonpayable",
					"type": "function"
				},
				{
					"inputs": [
						{
							"internalType": "bytes32",
							"name": "role",
							"type": "bytes32"
						},
						{
							"internalType": "address",
							"name": "account",
							"type": "address"
						}
					],
					"name": "revokeRole",
					"outputs": [],
					"stateMutability": "nonpayable",
					"type": "function"
				},
				{
					"inputs": [
						{
							"internalType": "uint256",
							"name": "_cooldownPeriod",
							"type": "uint256"
						}
					],
					"name": "setCooldownPeriod",
					"outputs": [],
					"stateMutability": "nonpayable",
					"type": "function"
				},
				{
					"inputs": [
						{
							"internalType": "uint256",
							"name": "_minHealthFactor",
							"type": "uint256"
						}
					],
					"name": "setMinHealthFactor",
					"outputs": [],
					"stateMutability": "nonpayable",
					"type": "function"
				},
				{
					"inputs": [
						{
							"internalType": "address",
							"name": "_treasury",
							"type": "address"
						}
					],
					"name": "setTreasury",
					"outputs": [],
					"stateMutability": "nonpayable",
					"type": "function"
				},
				{
					"inputs": [
						{
							"internalType": "bytes4",
							"name": "interfaceId",
							"type": "bytes4"
						}
					],
					"name": "supportsInterface",
					"outputs": [
						{
							"internalType": "bool",
							"name": "",
							"type": "bool"
						}
					],
					"stateMutability": "view",
					"type": "function"
				},
				{
					"inputs": [],
					"name": "totalBorrowed",
					"outputs": [
						{
							"internalType": "uint256",
							"name": "",
							"type": "uint256"
						}
					],
					"stateMutability": "view",
					"type": "function"
				},
				{
					"inputs": [],
					"name": "totalCollateral",
					"outputs": [
						{
							"internalType": "uint256",
							"name": "",
							"type": "uint256"
						}
					],
					"stateMutability": "view",
					"type": "function"
				},
				{
					"inputs": [],
					"name": "treasury",
					"outputs": [
						{
							"internalType": "address",
							"name": "",
							"type": "address"
						}
					],
					"stateMutability": "view",
					"type": "function"
				},
				{
					"inputs": [],
					"name": "unpauseProtocol",
					"outputs": [],
					"stateMutability": "nonpayable",
					"type": "function"
				}
			],
			"devdoc": {
				"errors": {
					"AccessControlBadConfirmation()": [
						{
							"details": "The caller of a function is not the expected one. NOTE: Don't confuse with {AccessControlUnauthorizedAccount}."
						}
					],
					"AccessControlUnauthorizedAccount(address,bytes32)": [
						{
							"details": "The `account` is missing a role."
						}
					]
				},
				"events": {
					"RoleAdminChanged(bytes32,bytes32,bytes32)": {
						"details": "Emitted when `newAdminRole` is set as ``role``'s admin role, replacing `previousAdminRole` `DEFAULT_ADMIN_ROLE` is the starting admin for all roles, despite {RoleAdminChanged} not being emitted signaling this."
					},
					"RoleGranted(bytes32,address,address)": {
						"details": "Emitted when `account` is granted `role`. `sender` is the account that originated the contract call. This account bears the admin role (for the granted role). Expected in cases where the role was granted using the internal {AccessControl-_grantRole}."
					},
					"RoleRevoked(bytes32,address,address)": {
						"details": "Emitted when `account` is revoked `role`. `sender` is the account that originated the contract call:   - if using `revokeRole`, it is the admin role bearer   - if using `renounceRole`, it is the role bearer (i.e. `account`)"
					}
				},
				"kind": "dev",
				"methods": {
					"getRoleAdmin(bytes32)": {
						"details": "Returns the admin role that controls `role`. See {grantRole} and {revokeRole}. To change a role's admin, use {_setRoleAdmin}."
					},
					"grantRole(bytes32,address)": {
						"details": "Grants `role` to `account`. If `account` had not been already granted `role`, emits a {RoleGranted} event. Requirements: - the caller must have ``role``'s admin role. May emit a {RoleGranted} event."
					},
					"hasRole(bytes32,address)": {
						"details": "Returns `true` if `account` has been granted `role`."
					},
					"renounceRole(bytes32,address)": {
						"details": "Revokes `role` from the calling account. Roles are often managed via {grantRole} and {revokeRole}: this function's purpose is to provide a mechanism for accounts to lose their privileges if they are compromised (such as when a trusted device is misplaced). If the calling account had been revoked `role`, emits a {RoleRevoked} event. Requirements: - the caller must be `callerConfirmation`. May emit a {RoleRevoked} event."
					},
					"revokeRole(bytes32,address)": {
						"details": "Revokes `role` from `account`. If `account` had been granted `role`, emits a {RoleRevoked} event. Requirements: - the caller must have ``role``'s admin role. May emit a {RoleRevoked} event."
					},
					"supportsInterface(bytes4)": {
						"details": "See {IERC165-supportsInterface}."
					}
				},
				"title": "LST Lending AMM with Collateralized Swaps",
				"version": 1
			},
			"evm": {
				"assembly": "    /* \"contracts/LSTLendingAMM.sol\":369:8217  contract LSTLendingAMM is ReentrancyGuard, AccessControl {... */\n  mstore(0x40, 0x80)\n    /* \"contracts/LSTLendingAMM.sol\":685:689  1e18 */\n  0x0de0b6b3a7640000\n    /* \"contracts/LSTLendingAMM.sol\":652:689  uint256 public minHealthFactor = 1e18 */\n  0x03\n  sstore\n    /* \"contracts/LSTLendingAMM.sol\":771:777  1 days */\n  0x015180\n    /* \"contracts/LSTLendingAMM.sol\":739:777  uint256 public borrowCooldown = 1 days */\n  0x04\n  sstore\n    /* \"contracts/LSTLendingAMM.sol\":2269:2766  constructor(... */\n  callvalue\n  dup1\n  iszero\n  tag_1\n  jumpi\n  revert(0x00, 0x00)\ntag_1:\n  pop\n  mload(0x40)\n  sub(codesize, bytecodeSize)\n  dup1\n  bytecodeSize\n  dup4\n  codecopy\n  dup2\n  dup2\n  add\n  0x40\n  mstore\n  dup2\n  add\n  swap1\n  tag_2\n  swap2\n  swap1\n  tag_3\n  jump\t// in\ntag_2:\n    /* \"@openzeppelin/contracts/security/ReentrancyGuard.sol\":1716:1717  1 */\n  0x01\n    /* \"@openzeppelin/contracts/security/ReentrancyGuard.sol\":1821:1828  _status */\n  0x00\n    /* \"@openzeppelin/contracts/security/ReentrancyGuard.sol\":1821:1843  _status = _NOT_ENTERED */\n  dup2\n  swap1\n  sstore\n  pop\n    /* \"contracts/LSTLendingAMM.sol\":2507:2541  _grantRole(ADMIN_ROLE, msg.sender) */\n  tag_8\n    /* \"contracts/LSTLendingAMM.sol\":489:512  keccak256(\"ADMIN_ROLE\") */\n  0xa49807205ce4d355092ef5a8a18f56e8913cf4a201fbe287825b095693c21775\n    /* \"contracts/LSTLendingAMM.sol\":2530:2540  msg.sender */\n  caller\n    /* \"contracts/LSTLendingAMM.sol\":2507:2517  _grantRole */\n  shl(0x20, tag_9)\n    /* \"contracts/LSTLendingAMM.sol\":2507:2541  _grantRole(ADMIN_ROLE, msg.sender) */\n  0x20\n  shr\n  jump\t// in\ntag_8:\n  pop\n    /* \"contracts/LSTLendingAMM.sol\":2552:2591  _grantRole(LIQUIDATOR_ROLE, msg.sender) */\n  tag_10\n    /* \"contracts/LSTLendingAMM.sol\":560:588  keccak256(\"LIQUIDATOR_ROLE\") */\n  0x5e17fc5225d4a099df75359ce1f405503ca79498a8dc46a7d583235a0ee45c16\n    /* \"contracts/LSTLendingAMM.sol\":2580:2590  msg.sender */\n  caller\n    /* \"contracts/LSTLendingAMM.sol\":2552:2562  _grantRole */\n  shl(0x20, tag_9)\n    /* \"contracts/LSTLendingAMM.sol\":2552:2591  _grantRole(LIQUIDATOR_ROLE, msg.sender) */\n  0x20\n  shr\n  jump\t// in\ntag_10:\n  pop\n    /* \"contracts/LSTLendingAMM.sol\":2612:2621  _treasury */\n  dup1\n    /* \"contracts/LSTLendingAMM.sol\":2601:2609  treasury */\n  0x02\n  0x00\n    /* \"contracts/LSTLendingAMM.sol\":2601:2621  treasury = _treasury */\n  0x0100\n  exp\n  dup2\n  sload\n  dup2\n  0xffffffffffffffffffffffffffffffffffffffff\n  mul\n  not\n  and\n  swap1\n  dup4\n  0xffffffffffffffffffffffffffffffffffffffff\n  and\n  mul\n  or\n  swap1\n  sstore\n  pop\n    /* \"contracts/LSTLendingAMM.sol\":2650:2659  _lstToken */\n  dup4\n    /* \"contracts/LSTLendingAMM.sol\":2632:2640  lstToken */\n  0x05\n  0x00\n    /* \"contracts/LSTLendingAMM.sol\":2632:2660  lstToken = IERC20(_lstToken) */\n  0x0100\n  exp\n  dup2\n  sload\n  dup2\n  0xffffffffffffffffffffffffffffffffffffffff\n  mul\n  not\n  and\n  swap1\n  dup4\n  0xffffffffffffffffffffffffffffffffffffffff\n  and\n  mul\n  or\n  swap1\n  sstore\n  pop\n    /* \"contracts/LSTLendingAMM.sol\":2691:2703  _borrowToken */\n  dup3\n    /* \"contracts/LSTLendingAMM.sol\":2670:2681  borrowToken */\n  0x06\n  0x00\n    /* \"contracts/LSTLendingAMM.sol\":2670:2704  borrowToken = IERC20(_borrowToken) */\n  0x0100\n  exp\n  dup2\n  sload\n  dup2\n  0xffffffffffffffffffffffffffffffffffffffff\n  mul\n  not\n  and\n  swap1\n  dup4\n  0xffffffffffffffffffffffffffffffffffffffff\n  and\n  mul\n  or\n  swap1\n  sstore\n  pop\n    /* \"contracts/LSTLendingAMM.sol\":2748:2758  _priceFeed */\n  dup2\n    /* \"contracts/LSTLendingAMM.sol\":2714:2723  priceFeed */\n  0x07\n  0x00\n    /* \"contracts/LSTLendingAMM.sol\":2714:2759  priceFeed = AggregatorV3Interface(_priceFeed) */\n  0x0100\n  exp\n  dup2\n  sload\n  dup2\n  0xffffffffffffffffffffffffffffffffffffffff\n  mul\n  not\n  and\n  swap1\n  dup4\n  0xffffffffffffffffffffffffffffffffffffffff\n  and\n  mul\n  or\n  swap1\n  sstore\n  pop\n    /* \"contracts/LSTLendingAMM.sol\":2269:2766  constructor(... */\n  pop\n  pop\n  pop\n  pop\n    /* \"contracts/LSTLendingAMM.sol\":369:8217  contract LSTLendingAMM is ReentrancyGuard, AccessControl {... */\n  jump(tag_11)\n    /* \"@openzeppelin/contracts/access/AccessControl.sol\":6179:6495  function _grantRole(bytes32 role, address account) internal virtual returns (bool) {... */\ntag_9:\n    /* \"@openzeppelin/contracts/access/AccessControl.sol\":6256:6260  bool */\n  0x00\n    /* \"@openzeppelin/contracts/access/AccessControl.sol\":6277:6299  hasRole(role, account) */\n  tag_13\n    /* \"@openzeppelin/contracts/access/AccessControl.sol\":6285:6289  role */\n  dup4\n    /* \"@openzeppelin/contracts/access/AccessControl.sol\":6291:6298  account */\n  dup4\n    /* \"@openzeppelin/contracts/access/AccessControl.sol\":6277:6284  hasRole */\n  shl(0x20, tag_14)\n    /* \"@openzeppelin/contracts/access/AccessControl.sol\":6277:6299  hasRole(role, account) */\n  0x20\n  shr\n  jump\t// in\ntag_13:\n    /* \"@openzeppelin/contracts/access/AccessControl.sol\":6272:6489  if (!hasRole(role, account)) {... */\n  tag_15\n  jumpi\n    /* \"@openzeppelin/contracts/access/AccessControl.sol\":6347:6351  true */\n  0x01\n    /* \"@openzeppelin/contracts/access/AccessControl.sol\":6315:6321  _roles */\n  dup1\n    /* \"@openzeppelin/contracts/access/AccessControl.sol\":6315:6327  _roles[role] */\n  0x00\n    /* \"@openzeppelin/contracts/access/AccessControl.sol\":6322:6326  role */\n  dup6\n    /* \"@openzeppelin/contracts/access/AccessControl.sol\":6315:6327  _roles[role] */\n  dup2\n  mstore\n  0x20\n  add\n  swap1\n  dup2\n  mstore\n  0x20\n  add\n  0x00\n  keccak256\n    /* \"@openzeppelin/contracts/access/AccessControl.sol\":6315:6335  _roles[role].hasRole */\n  0x00\n  add\n    /* \"@openzeppelin/contracts/access/AccessControl.sol\":6315:6344  _roles[role].hasRole[account] */\n  0x00\n    /* \"@openzeppelin/contracts/access/AccessControl.sol\":6336:6343  account */\n  dup5\n    /* \"@openzeppelin/contracts/access/AccessControl.sol\":6315:6344  _roles[role].hasRole[account] */\n  0xffffffffffffffffffffffffffffffffffffffff\n  and\n  0xffffffffffffffffffffffffffffffffffffffff\n  and\n  dup2\n  mstore\n  0x20\n  add\n  swap1\n  dup2\n  mstore\n  0x20\n  add\n  0x00\n  keccak256\n  0x00\n    /* \"@openzeppelin/contracts/access/AccessControl.sol\":6315:6351  _roles[role].hasRole[account] = true */\n  0x0100\n  exp\n  dup2\n  sload\n  dup2\n  0xff\n  mul\n  not\n  and\n  swap1\n  dup4\n  iszero\n  iszero\n  mul\n  or\n  swap1\n  sstore\n  pop\n    /* \"@openzeppelin/contracts/access/AccessControl.sol\":6397:6409  _msgSender() */\n  tag_16\n    /* \"@openzeppelin/contracts/access/AccessControl.sol\":6397:6407  _msgSender */\n  shl(0x20, tag_17)\n    /* \"@openzeppelin/contracts/access/AccessControl.sol\":6397:6409  _msgSender() */\n  0x20\n  shr\n  jump\t// in\ntag_16:\n    /* \"@openzeppelin/contracts/access/AccessControl.sol\":6370:6410  RoleGranted(role, account, _msgSender()) */\n  0xffffffffffffffffffffffffffffffffffffffff\n  and\n    /* \"@openzeppelin/contracts/access/AccessControl.sol\":6388:6395  account */\n  dup3\n    /* \"@openzeppelin/contracts/access/AccessControl.sol\":6370:6410  RoleGranted(role, account, _msgSender()) */\n  0xffffffffffffffffffffffffffffffffffffffff\n  and\n    /* \"@openzeppelin/contracts/access/AccessControl.sol\":6382:6386  role */\n  dup5\n    /* \"@openzeppelin/contracts/access/AccessControl.sol\":6370:6410  RoleGranted(role, account, _msgSender()) */\n  0x2f8788117e7eff1d82e926ec794901d17c78024a50270940304540a733656f0d\n  mload(0x40)\n  mload(0x40)\n  dup1\n  swap2\n  sub\n  swap1\n  log4\n    /* \"@openzeppelin/contracts/access/AccessControl.sol\":6431:6435  true */\n  0x01\n    /* \"@openzeppelin/contracts/access/AccessControl.sol\":6424:6435  return true */\n  swap1\n  pop\n  jump(tag_12)\n    /* \"@openzeppelin/contracts/access/AccessControl.sol\":6272:6489  if (!hasRole(role, account)) {... */\ntag_15:\n    /* \"@openzeppelin/contracts/access/AccessControl.sol\":6473:6478  false */\n  0x00\n    /* \"@openzeppelin/contracts/access/AccessControl.sol\":6466:6478  return false */\n  swap1\n  pop\n    /* \"@openzeppelin/contracts/access/AccessControl.sol\":6179:6495  function _grantRole(bytes32 role, address account) internal virtual returns (bool) {... */\ntag_12:\n  swap3\n  swap2\n  pop\n  pop\n  jump\t// out\n    /* \"@openzeppelin/contracts/access/AccessControl.sol\":2854:2990  function hasRole(bytes32 role, address account) public view virtual returns (bool) {... */\ntag_14:\n    /* \"@openzeppelin/contracts/access/AccessControl.sol\":2931:2935  bool */\n  0x00\n    /* \"@openzeppelin/contracts/access/AccessControl.sol\":2954:2960  _roles */\n  0x01\n    /* \"@openzeppelin/contracts/access/AccessControl.sol\":2954:2966  _roles[role] */\n  0x00\n    /* \"@openzeppelin/contracts/access/AccessControl.sol\":2961:2965  role */\n  dup5\n    /* \"@openzeppelin/contracts/access/AccessControl.sol\":2954:2966  _roles[role] */\n  dup2\n  mstore\n  0x20\n  add\n  swap1\n  dup2\n  mstore\n  0x20\n  add\n  0x00\n  keccak256\n    /* \"@openzeppelin/contracts/access/AccessControl.sol\":2954:2974  _roles[role].hasRole */\n  0x00\n  add\n    /* \"@openzeppelin/contracts/access/AccessControl.sol\":2954:2983  _roles[role].hasRole[account] */\n  0x00\n    /* \"@openzeppelin/contracts/access/AccessControl.sol\":2975:2982  account */\n  dup4\n    /* \"@openzeppelin/contracts/access/AccessControl.sol\":2954:2983  _roles[role].hasRole[account] */\n  0xffffffffffffffffffffffffffffffffffffffff\n  and\n  0xffffffffffffffffffffffffffffffffffffffff\n  and\n  dup2\n  mstore\n  0x20\n  add\n  swap1\n  dup2\n  mstore\n  0x20\n  add\n  0x00\n  keccak256\n  0x00\n  swap1\n  sload\n  swap1\n  0x0100\n  exp\n  swap1\n  div\n  0xff\n  and\n    /* \"@openzeppelin/contracts/access/AccessControl.sol\":2947:2983  return _roles[role].hasRole[account] */\n  swap1\n  pop\n    /* \"@openzeppelin/contracts/access/AccessControl.sol\":2854:2990  function hasRole(bytes32 role, address account) public view virtual returns (bool) {... */\n  swap3\n  swap2\n  pop\n  pop\n  jump\t// out\n    /* \"@openzeppelin/contracts/utils/Context.sol\":656:752  function _msgSender() internal view virtual returns (address) {... */\ntag_17:\n    /* \"@openzeppelin/contracts/utils/Context.sol\":709:716  address */\n  0x00\n    /* \"@openzeppelin/contracts/utils/Context.sol\":735:745  msg.sender */\n  caller\n    /* \"@openzeppelin/contracts/utils/Context.sol\":728:745  return msg.sender */\n  swap1\n  pop\n    /* \"@openzeppelin/contracts/utils/Context.sol\":656:752  function _msgSender() internal view virtual returns (address) {... */\n  swap1\n  jump\t// out\n    /* \"#utility.yul\":88:205   */\ntag_22:\n    /* \"#utility.yul\":197:198   */\n  0x00\n    /* \"#utility.yul\":194:195   */\n  0x00\n    /* \"#utility.yul\":187:199   */\n  revert\n    /* \"#utility.yul\":334:460   */\ntag_24:\n    /* \"#utility.yul\":371:378   */\n  0x00\n    /* \"#utility.yul\":411:453   */\n  0xffffffffffffffffffffffffffffffffffffffff\n    /* \"#utility.yul\":404:409   */\n  dup3\n    /* \"#utility.yul\":400:454   */\n  and\n    /* \"#utility.yul\":389:454   */\n  swap1\n  pop\n    /* \"#utility.yul\":334:460   */\n  swap2\n  swap1\n  pop\n  jump\t// out\n    /* \"#utility.yul\":466:562   */\ntag_25:\n    /* \"#utility.yul\":503:510   */\n  0x00\n    /* \"#utility.yul\":532:556   */\n  tag_34\n    /* \"#utility.yul\":550:555   */\n  dup3\n    /* \"#utility.yul\":532:556   */\n  tag_24\n  jump\t// in\ntag_34:\n    /* \"#utility.yul\":521:556   */\n  swap1\n  pop\n    /* \"#utility.yul\":466:562   */\n  swap2\n  swap1\n  pop\n  jump\t// out\n    /* \"#utility.yul\":568:690   */\ntag_26:\n    /* \"#utility.yul\":641:665   */\n  tag_36\n    /* \"#utility.yul\":659:664   */\n  dup2\n    /* \"#utility.yul\":641:665   */\n  tag_25\n  jump\t// in\ntag_36:\n    /* \"#utility.yul\":634:639   */\n  dup2\n    /* \"#utility.yul\":631:666   */\n  eq\n    /* \"#utility.yul\":621:684   */\n  tag_37\n  jumpi\n    /* \"#utility.yul\":680:681   */\n  0x00\n    /* \"#utility.yul\":677:678   */\n  0x00\n    /* \"#utility.yul\":670:682   */\n  revert\n    /* \"#utility.yul\":621:684   */\ntag_37:\n    /* \"#utility.yul\":568:690   */\n  pop\n  jump\t// out\n    /* \"#utility.yul\":696:839   */\ntag_27:\n    /* \"#utility.yul\":753:758   */\n  0x00\n    /* \"#utility.yul\":784:790   */\n  dup2\n    /* \"#utility.yul\":778:791   */\n  mload\n    /* \"#utility.yul\":769:791   */\n  swap1\n  pop\n    /* \"#utility.yul\":800:833   */\n  tag_39\n    /* \"#utility.yul\":827:832   */\n  dup2\n    /* \"#utility.yul\":800:833   */\n  tag_26\n  jump\t// in\ntag_39:\n    /* \"#utility.yul\":696:839   */\n  swap3\n  swap2\n  pop\n  pop\n  jump\t// out\n    /* \"#utility.yul\":845:1665   */\ntag_3:\n    /* \"#utility.yul\":942:948   */\n  0x00\n    /* \"#utility.yul\":950:956   */\n  0x00\n    /* \"#utility.yul\":958:964   */\n  0x00\n    /* \"#utility.yul\":966:972   */\n  0x00\n    /* \"#utility.yul\":1015:1018   */\n  0x80\n    /* \"#utility.yul\":1003:1012   */\n  dup6\n    /* \"#utility.yul\":994:1001   */\n  dup8\n    /* \"#utility.yul\":990:1013   */\n  sub\n    /* \"#utility.yul\":986:1019   */\n  slt\n    /* \"#utility.yul\":983:1103   */\n  iszero\n  tag_41\n  jumpi\n    /* \"#utility.yul\":1022:1101   */\n  tag_42\n  tag_22\n  jump\t// in\ntag_42:\n    /* \"#utility.yul\":983:1103   */\ntag_41:\n    /* \"#utility.yul\":1142:1143   */\n  0x00\n    /* \"#utility.yul\":1167:1231   */\n  tag_43\n    /* \"#utility.yul\":1223:1230   */\n  dup8\n    /* \"#utility.yul\":1214:1220   */\n  dup3\n    /* \"#utility.yul\":1203:1212   */\n  dup9\n    /* \"#utility.yul\":1199:1221   */\n  add\n    /* \"#utility.yul\":1167:1231   */\n  tag_27\n  jump\t// in\ntag_43:\n    /* \"#utility.yul\":1157:1231   */\n  swap5\n  pop\n    /* \"#utility.yul\":1113:1241   */\n  pop\n    /* \"#utility.yul\":1280:1282   */\n  0x20\n    /* \"#utility.yul\":1306:1370   */\n  tag_44\n    /* \"#utility.yul\":1362:1369   */\n  dup8\n    /* \"#utility.yul\":1353:1359   */\n  dup3\n    /* \"#utility.yul\":1342:1351   */\n  dup9\n    /* \"#utility.yul\":1338:1360   */\n  add\n    /* \"#utility.yul\":1306:1370   */\n  tag_27\n  jump\t// in\ntag_44:\n    /* \"#utility.yul\":1296:1370   */\n  swap4\n  pop\n    /* \"#utility.yul\":1251:1380   */\n  pop\n    /* \"#utility.yul\":1419:1421   */\n  0x40\n    /* \"#utility.yul\":1445:1509   */\n  tag_45\n    /* \"#utility.yul\":1501:1508   */\n  dup8\n    /* \"#utility.yul\":1492:1498   */\n  dup3\n    /* \"#utility.yul\":1481:1490   */\n  dup9\n    /* \"#utility.yul\":1477:1499   */\n  add\n    /* \"#utility.yul\":1445:1509   */\n  tag_27\n  jump\t// in\ntag_45:\n    /* \"#utility.yul\":1435:1509   */\n  swap3\n  pop\n    /* \"#utility.yul\":1390:1519   */\n  pop\n    /* \"#utility.yul\":1558:1560   */\n  0x60\n    /* \"#utility.yul\":1584:1648   */\n  tag_46\n    /* \"#utility.yul\":1640:1647   */\n  dup8\n    /* \"#utility.yul\":1631:1637   */\n  dup3\n    /* \"#utility.yul\":1620:1629   */\n  dup9\n    /* \"#utility.yul\":1616:1638   */\n  add\n    /* \"#utility.yul\":1584:1648   */\n  tag_27\n  jump\t// in\ntag_46:\n    /* \"#utility.yul\":1574:1648   */\n  swap2\n  pop\n    /* \"#utility.yul\":1529:1658   */\n  pop\n    /* \"#utility.yul\":845:1665   */\n  swap3\n  swap6\n  swap2\n  swap5\n  pop\n  swap3\n  pop\n  jump\t// out\n    /* \"contracts/LSTLendingAMM.sol\":369:8217  contract LSTLendingAMM is ReentrancyGuard, AccessControl {... */\ntag_11:\n  dataSize(sub_0)\n  dup1\n  dataOffset(sub_0)\n  0x00\n  codecopy\n  0x00\n  return\nstop\n\nsub_0: assembly {\n        /* \"contracts/LSTLendingAMM.sol\":369:8217  contract LSTLendingAMM is ReentrancyGuard, AccessControl {... */\n      mstore(0x40, 0x80)\n      callvalue\n      dup1\n      iszero\n      tag_1\n      jumpi\n      revert(0x00, 0x00)\n    tag_1:\n      pop\n      jumpi(tag_2, lt(calldatasize, 0x04))\n      shr(0xe0, calldataload(0x00))\n      dup1\n      0x75b238fc\n      gt\n      tag_36\n      jumpi\n      dup1\n      0xbad4a01f\n      gt\n      tag_37\n      jumpi\n      dup1\n      0xdbf62489\n      gt\n      tag_38\n      jumpi\n      dup1\n      0xdbf62489\n      eq\n      tag_31\n      jumpi\n      dup1\n      0xe1b4264c\n      eq\n      tag_32\n      jumpi\n      dup1\n      0xf0f44260\n      eq\n      tag_33\n      jumpi\n      dup1\n      0xf41719aa\n      eq\n      tag_34\n      jumpi\n      dup1\n      0xf93b6be5\n      eq\n      tag_35\n      jumpi\n      jump(tag_2)\n    tag_38:\n      dup1\n      0xbad4a01f\n      eq\n      tag_27\n      jumpi\n      dup1\n      0xbcbaf487\n      eq\n      tag_28\n      jumpi\n      dup1\n      0xc5ebeaec\n      eq\n      tag_29\n      jumpi\n      dup1\n      0xd547741f\n      eq\n      tag_30\n      jumpi\n      jump(tag_2)\n    tag_37:\n      dup1\n      0x90d3b379\n      gt\n      tag_39\n      jumpi\n      dup1\n      0x90d3b379\n      eq\n      tag_23\n      jumpi\n      dup1\n      0x91d14854\n      eq\n      tag_24\n      jumpi\n      dup1\n      0x97904e42\n      eq\n      tag_25\n      jumpi\n      dup1\n      0xa217fddf\n      eq\n      tag_26\n      jumpi\n      jump(tag_2)\n    tag_39:\n      dup1\n      0x75b238fc\n      eq\n      tag_19\n      jumpi\n      dup1\n      0x80920718\n      eq\n      tag_20\n      jumpi\n      dup1\n      0x80ea3de1\n      eq\n      tag_21\n      jumpi\n      dup1\n      0x8c1b6820\n      eq\n      tag_22\n      jumpi\n      jump(tag_2)\n    tag_36:\n      dup1\n      0x456dc17a\n      gt\n      tag_40\n      jumpi\n      dup1\n      0x5c975abb\n      gt\n      tag_41\n      jumpi\n      dup1\n      0x5c975abb\n      eq\n      tag_15\n      jumpi\n      dup1\n      0x61d027b3\n      eq\n      tag_16\n      jumpi\n      dup1\n      0x6cbf7f91\n      eq\n      tag_17\n      jumpi\n      dup1\n      0x741bef1a\n      eq\n      tag_18\n      jumpi\n      jump(tag_2)\n    tag_41:\n      dup1\n      0x456dc17a\n      eq\n      tag_11\n      jumpi\n      dup1\n      0x4ac8eb5f\n      eq\n      tag_12\n      jumpi\n      dup1\n      0x4c19386c\n      eq\n      tag_13\n      jumpi\n      dup1\n      0x5312ea8e\n      eq\n      tag_14\n      jumpi\n      jump(tag_2)\n    tag_40:\n      dup1\n      0x248a9ca3\n      gt\n      tag_42\n      jumpi\n      dup1\n      0x248a9ca3\n      eq\n      tag_7\n      jumpi\n      dup1\n      0x2f2ff15d\n      eq\n      tag_8\n      jumpi\n      dup1\n      0x36568abe\n      eq\n      tag_9\n      jumpi\n      dup1\n      0x3eff4e03\n      eq\n      tag_10\n      jumpi\n      jump(tag_2)\n    tag_42:\n      dup1\n      0x01b08d58\n      eq\n      tag_3\n      jumpi\n      dup1\n      0x01f72884\n      eq\n      tag_4\n      jumpi\n      dup1\n      0x01ffc9a7\n      eq\n      tag_5\n      jumpi\n      dup1\n      0x16d8887a\n      eq\n      tag_6\n      jumpi\n    tag_2:\n      revert(0x00, 0x00)\n        /* \"contracts/LSTLendingAMM.sol\":7607:7731  function setMinHealthFactor(uint256 _minHealthFactor) external onlyAdmin {... */\n    tag_3:\n      tag_43\n      0x04\n      dup1\n      calldatasize\n      sub\n      dup2\n      add\n      swap1\n      tag_44\n      swap2\n      swap1\n      tag_45\n      jump\t// in\n    tag_44:\n      tag_46\n      jump\t// in\n    tag_43:\n      stop\n        /* \"contracts/LSTLendingAMM.sol\":6308:6559  function calculateHealthFactor(uint256 collateralValue, uint256 debtValue) public pure returns (uint256) {... */\n    tag_4:\n      tag_47\n      0x04\n      dup1\n      calldatasize\n      sub\n      dup2\n      add\n      swap1\n      tag_48\n      swap2\n      swap1\n      tag_49\n      jump\t// in\n    tag_48:\n      tag_50\n      jump\t// in\n    tag_47:\n      mload(0x40)\n      tag_51\n      swap2\n      swap1\n      tag_52\n      jump\t// in\n    tag_51:\n      mload(0x40)\n      dup1\n      swap2\n      sub\n      swap1\n      return\n        /* \"@openzeppelin/contracts/access/AccessControl.sol\":2565:2767  function supportsInterface(bytes4 interfaceId) public view virtual override returns (bool) {... */\n    tag_5:\n      tag_53\n      0x04\n      dup1\n      calldatasize\n      sub\n      dup2\n      add\n      swap1\n      tag_54\n      swap2\n      swap1\n      tag_55\n      jump\t// in\n    tag_54:\n      tag_56\n      jump\t// in\n    tag_53:\n      mload(0x40)\n      tag_57\n      swap2\n      swap1\n      tag_58\n      jump\t// in\n    tag_57:\n      mload(0x40)\n      dup1\n      swap2\n      sub\n      swap1\n      return\n        /* \"contracts/LSTLendingAMM.sol\":518:588  bytes32 public constant LIQUIDATOR_ROLE = keccak256(\"LIQUIDATOR_ROLE\") */\n    tag_6:\n      tag_59\n      tag_60\n      jump\t// in\n    tag_59:\n      mload(0x40)\n      tag_61\n      swap2\n      swap1\n      tag_62\n      jump\t// in\n    tag_61:\n      mload(0x40)\n      dup1\n      swap2\n      sub\n      swap1\n      return\n        /* \"@openzeppelin/contracts/access/AccessControl.sol\":3810:3930  function getRoleAdmin(bytes32 role) public view virtual returns (bytes32) {... */\n    tag_7:\n      tag_63\n      0x04\n      dup1\n      calldatasize\n      sub\n      dup2\n      add\n      swap1\n      tag_64\n      swap2\n      swap1\n      tag_65\n      jump\t// in\n    tag_64:\n      tag_66\n      jump\t// in\n    tag_63:\n      mload(0x40)\n      tag_67\n      swap2\n      swap1\n      tag_62\n      jump\t// in\n    tag_67:\n      mload(0x40)\n      dup1\n      swap2\n      sub\n      swap1\n      return\n        /* \"@openzeppelin/contracts/access/AccessControl.sol\":4226:4362  function grantRole(bytes32 role, address account) public virtual onlyRole(getRoleAdmin(role)) {... */\n    tag_8:\n      tag_68\n      0x04\n      dup1\n      calldatasize\n      sub\n      dup2\n      add\n      swap1\n      tag_69\n      swap2\n      swap1\n      tag_70\n      jump\t// in\n    tag_69:\n      tag_71\n      jump\t// in\n    tag_68:\n      stop\n        /* \"@openzeppelin/contracts/access/AccessControl.sol\":5328:5573  function renounceRole(bytes32 role, address callerConfirmation) public virtual {... */\n    tag_9:\n      tag_72\n      0x04\n      dup1\n      calldatasize\n      sub\n      dup2\n      add\n      swap1\n      tag_73\n      swap2\n      swap1\n      tag_70\n      jump\t// in\n    tag_73:\n      tag_74\n      jump\t// in\n    tag_72:\n      stop\n        /* \"contracts/LSTLendingAMM.sol\":1328:1379  mapping(address => DebtAccount) public debtAccounts */\n    tag_10:\n      tag_75\n      0x04\n      dup1\n      calldatasize\n      sub\n      dup2\n      add\n      swap1\n      tag_76\n      swap2\n      swap1\n      tag_77\n      jump\t// in\n    tag_76:\n      tag_78\n      jump\t// in\n    tag_75:\n      mload(0x40)\n      tag_79\n      swap2\n      swap1\n      tag_52\n      jump\t// in\n    tag_79:\n      mload(0x40)\n      dup1\n      swap2\n      sub\n      swap1\n      return\n        /* \"contracts/LSTLendingAMM.sol\":875:900  IERC20 public borrowToken */\n    tag_11:\n      tag_80\n      tag_81\n      jump\t// in\n    tag_80:\n      mload(0x40)\n      tag_82\n      swap2\n      swap1\n      tag_83\n      jump\t// in\n    tag_82:\n      mload(0x40)\n      dup1\n      swap2\n      sub\n      swap1\n      return\n        /* \"contracts/LSTLendingAMM.sol\":998:1028  uint256 public totalCollateral */\n    tag_12:\n      tag_84\n      tag_85\n      jump\t// in\n    tag_84:\n      mload(0x40)\n      tag_86\n      swap2\n      swap1\n      tag_52\n      jump\t// in\n    tag_86:\n      mload(0x40)\n      dup1\n      swap2\n      sub\n      swap1\n      return\n        /* \"contracts/LSTLendingAMM.sol\":1034:1062  uint256 public totalBorrowed */\n    tag_13:\n      tag_87\n      tag_88\n      jump\t// in\n    tag_87:\n      mload(0x40)\n      tag_89\n      swap2\n      swap1\n      tag_52\n      jump\t// in\n    tag_89:\n      mload(0x40)\n      dup1\n      swap2\n      sub\n      swap1\n      return\n        /* \"contracts/LSTLendingAMM.sol\":7168:7396  function emergencyWithdraw(uint256 amount) external onlyAdmin {... */\n    tag_14:\n      tag_90\n      0x04\n      dup1\n      calldatasize\n      sub\n      dup2\n      add\n      swap1\n      tag_91\n      swap2\n      swap1\n      tag_45\n      jump\t// in\n    tag_91:\n      tag_92\n      jump\t// in\n    tag_90:\n      stop\n        /* \"contracts/LSTLendingAMM.sol\":628:646  bool public paused */\n    tag_15:\n      tag_93\n      tag_94\n      jump\t// in\n    tag_93:\n      mload(0x40)\n      tag_95\n      swap2\n      swap1\n      tag_58\n      jump\t// in\n    tag_95:\n      mload(0x40)\n      dup1\n      swap2\n      sub\n      swap1\n      return\n        /* \"contracts/LSTLendingAMM.sol\":599:622  address public treasury */\n    tag_16:\n      tag_96\n      tag_97\n      jump\t// in\n    tag_96:\n      mload(0x40)\n      tag_98\n      swap2\n      swap1\n      tag_99\n      jump\t// in\n    tag_98:\n      mload(0x40)\n      dup1\n      swap2\n      sub\n      swap1\n      return\n        /* \"contracts/LSTLendingAMM.sol\":1259:1322  mapping(address => CollateralAccount) public collateralAccounts */\n    tag_17:\n      tag_100\n      0x04\n      dup1\n      calldatasize\n      sub\n      dup2\n      add\n      swap1\n      tag_101\n      swap2\n      swap1\n      tag_77\n      jump\t// in\n    tag_101:\n      tag_102\n      jump\t// in\n    tag_100:\n      mload(0x40)\n      tag_103\n      swap3\n      swap2\n      swap1\n      tag_104\n      jump\t// in\n    tag_103:\n      mload(0x40)\n      dup1\n      swap2\n      sub\n      swap1\n      return\n        /* \"contracts/LSTLendingAMM.sol\":931:969  AggregatorV3Interface public priceFeed */\n    tag_18:\n      tag_105\n      tag_106\n      jump\t// in\n    tag_105:\n      mload(0x40)\n      tag_107\n      swap2\n      swap1\n      tag_108\n      jump\t// in\n    tag_107:\n      mload(0x40)\n      dup1\n      swap2\n      sub\n      swap1\n      return\n        /* \"contracts/LSTLendingAMM.sol\":452:512  bytes32 public constant ADMIN_ROLE = keccak256(\"ADMIN_ROLE\") */\n    tag_19:\n      tag_109\n      tag_110\n      jump\t// in\n    tag_109:\n      mload(0x40)\n      tag_111\n      swap2\n      swap1\n      tag_62\n      jump\t// in\n    tag_111:\n      mload(0x40)\n      dup1\n      swap2\n      sub\n      swap1\n      return\n        /* \"contracts/LSTLendingAMM.sol\":847:869  IERC20 public lstToken */\n    tag_20:\n      tag_112\n      tag_113\n      jump\t// in\n    tag_112:\n      mload(0x40)\n      tag_114\n      swap2\n      swap1\n      tag_83\n      jump\t// in\n    tag_114:\n      mload(0x40)\n      dup1\n      swap2\n      sub\n      swap1\n      return\n        /* \"contracts/LSTLendingAMM.sol\":7791:7911  function setCooldownPeriod(uint256 _cooldownPeriod) external onlyAdmin {... */\n    tag_21:\n      tag_115\n      0x04\n      dup1\n      calldatasize\n      sub\n      dup2\n      add\n      swap1\n      tag_116\n      swap2\n      swap1\n      tag_45\n      jump\t// in\n    tag_116:\n      tag_117\n      jump\t// in\n    tag_115:\n      stop\n        /* \"contracts/LSTLendingAMM.sol\":739:777  uint256 public borrowCooldown = 1 days */\n    tag_22:\n      tag_118\n      tag_119\n      jump\t// in\n    tag_118:\n      mload(0x40)\n      tag_120\n      swap2\n      swap1\n      tag_52\n      jump\t// in\n    tag_120:\n      mload(0x40)\n      dup1\n      swap2\n      sub\n      swap1\n      return\n        /* \"contracts/LSTLendingAMM.sol\":6626:6876  function calculateInterestRate(uint256 utilization) public pure returns (uint256) {... */\n    tag_23:\n      tag_121\n      0x04\n      dup1\n      calldatasize\n      sub\n      dup2\n      add\n      swap1\n      tag_122\n      swap2\n      swap1\n      tag_45\n      jump\t// in\n    tag_122:\n      tag_123\n      jump\t// in\n    tag_121:\n      mload(0x40)\n      tag_124\n      swap2\n      swap1\n      tag_52\n      jump\t// in\n    tag_124:\n      mload(0x40)\n      dup1\n      swap2\n      sub\n      swap1\n      return\n        /* \"@openzeppelin/contracts/access/AccessControl.sol\":2854:2990  function hasRole(bytes32 role, address account) public view virtual returns (bool) {... */\n    tag_24:\n      tag_125\n      0x04\n      dup1\n      calldatasize\n      sub\n      dup2\n      add\n      swap1\n      tag_126\n      swap2\n      swap1\n      tag_70\n      jump\t// in\n    tag_126:\n      tag_127\n      jump\t// in\n    tag_125:\n      mload(0x40)\n      tag_128\n      swap2\n      swap1\n      tag_58\n      jump\t// in\n    tag_128:\n      mload(0x40)\n      dup1\n      swap2\n      sub\n      swap1\n      return\n        /* \"contracts/LSTLendingAMM.sol\":5917:6262  function getCollateralValue(address user) public view returns (uint256) {... */\n    tag_25:\n      tag_129\n      0x04\n      dup1\n      calldatasize\n      sub\n      dup2\n      add\n      swap1\n      tag_130\n      swap2\n      swap1\n      tag_77\n      jump\t// in\n    tag_130:\n      tag_131\n      jump\t// in\n    tag_129:\n      mload(0x40)\n      tag_132\n      swap2\n      swap1\n      tag_52\n      jump\t// in\n    tag_132:\n      mload(0x40)\n      dup1\n      swap2\n      sub\n      swap1\n      return\n        /* \"@openzeppelin/contracts/access/AccessControl.sol\":2187:2236  bytes32 public constant DEFAULT_ADMIN_ROLE = 0x00 */\n    tag_26:\n      tag_133\n      tag_134\n      jump\t// in\n    tag_133:\n      mload(0x40)\n      tag_135\n      swap2\n      swap1\n      tag_62\n      jump\t// in\n    tag_135:\n      mload(0x40)\n      dup1\n      swap2\n      sub\n      swap1\n      return\n        /* \"contracts/LSTLendingAMM.sol\":2814:3292  function depositCollateral(uint256 amount) external whenNotPaused {... */\n    tag_27:\n      tag_136\n      0x04\n      dup1\n      calldatasize\n      sub\n      dup2\n      add\n      swap1\n      tag_137\n      swap2\n      swap1\n      tag_45\n      jump\t// in\n    tag_137:\n      tag_138\n      jump\t// in\n    tag_136:\n      stop\n        /* \"contracts/LSTLendingAMM.sol\":4487:5865  function liquidate(address borrower, uint256 repayAmount) external whenNotPaused onlyLiquidator nonReentrant {... */\n    tag_28:\n      tag_139\n      0x04\n      dup1\n      calldatasize\n      sub\n      dup2\n      add\n      swap1\n      tag_140\n      swap2\n      swap1\n      tag_141\n      jump\t// in\n    tag_140:\n      tag_142\n      jump\t// in\n    tag_139:\n      stop\n        /* \"contracts/LSTLendingAMM.sol\":3349:4424  function borrow(uint256 borrowAmount) external whenNotPaused cooldownNotElapsed {... */\n    tag_29:\n      tag_143\n      0x04\n      dup1\n      calldatasize\n      sub\n      dup2\n      add\n      swap1\n      tag_144\n      swap2\n      swap1\n      tag_45\n      jump\t// in\n    tag_144:\n      tag_145\n      jump\t// in\n    tag_143:\n      stop\n        /* \"@openzeppelin/contracts/access/AccessControl.sol\":4642:4780  function revokeRole(bytes32 role, address account) public virtual onlyRole(getRoleAdmin(role)) {... */\n    tag_30:\n      tag_146\n      0x04\n      dup1\n      calldatasize\n      sub\n      dup2\n      add\n      swap1\n      tag_147\n      swap2\n      swap1\n      tag_70\n      jump\t// in\n    tag_147:\n      tag_148\n      jump\t// in\n    tag_146:\n      stop\n        /* \"contracts/LSTLendingAMM.sol\":6917:6991  function pauseProtocol() external onlyAdmin {... */\n    tag_31:\n      tag_149\n      tag_150\n      jump\t// in\n    tag_149:\n      stop\n        /* \"contracts/LSTLendingAMM.sol\":652:689  uint256 public minHealthFactor = 1e18 */\n    tag_32:\n      tag_151\n      tag_152\n      jump\t// in\n    tag_151:\n      mload(0x40)\n      tag_153\n      swap2\n      swap1\n      tag_52\n      jump\t// in\n    tag_153:\n      mload(0x40)\n      dup1\n      swap2\n      sub\n      swap1\n      return\n        /* \"contracts/LSTLendingAMM.sol\":7443:7539  function setTreasury(address _treasury) external onlyAdmin {... */\n    tag_33:\n      tag_154\n      0x04\n      dup1\n      calldatasize\n      sub\n      dup2\n      add\n      swap1\n      tag_155\n      swap2\n      swap1\n      tag_77\n      jump\t// in\n    tag_155:\n      tag_156\n      jump\t// in\n    tag_154:\n      stop\n        /* \"contracts/LSTLendingAMM.sol\":7982:8215  function recoverOracleData() external view returns (int256) {... */\n    tag_34:\n      tag_157\n      tag_158\n      jump\t// in\n    tag_157:\n      mload(0x40)\n      tag_159\n      swap2\n      swap1\n      tag_160\n      jump\t// in\n    tag_159:\n      mload(0x40)\n      dup1\n      swap2\n      sub\n      swap1\n      return\n        /* \"contracts/LSTLendingAMM.sol\":7034:7111  function unpauseProtocol() external onlyAdmin {... */\n    tag_35:\n      tag_161\n      tag_162\n      jump\t// in\n    tag_161:\n      stop\n        /* \"contracts/LSTLendingAMM.sol\":7607:7731  function setMinHealthFactor(uint256 _minHealthFactor) external onlyAdmin {... */\n    tag_46:\n        /* \"contracts/LSTLendingAMM.sol\":1849:1880  hasRole(ADMIN_ROLE, msg.sender) */\n      tag_164\n        /* \"contracts/LSTLendingAMM.sol\":489:512  keccak256(\"ADMIN_ROLE\") */\n      0xa49807205ce4d355092ef5a8a18f56e8913cf4a201fbe287825b095693c21775\n        /* \"contracts/LSTLendingAMM.sol\":1869:1879  msg.sender */\n      caller\n        /* \"contracts/LSTLendingAMM.sol\":1849:1856  hasRole */\n      tag_127\n        /* \"contracts/LSTLendingAMM.sol\":1849:1880  hasRole(ADMIN_ROLE, msg.sender) */\n      jump\t// in\n    tag_164:\n        /* \"contracts/LSTLendingAMM.sol\":1841:1894  require(hasRole(ADMIN_ROLE, msg.sender), \"Not admin\") */\n      tag_165\n      jumpi\n      mload(0x40)\n      0x08c379a000000000000000000000000000000000000000000000000000000000\n      dup2\n      mstore\n      0x04\n      add\n      tag_166\n      swap1\n      tag_167\n      jump\t// in\n    tag_166:\n      mload(0x40)\n      dup1\n      swap2\n      sub\n      swap1\n      revert\n    tag_165:\n        /* \"contracts/LSTLendingAMM.sol\":7708:7724  _minHealthFactor */\n      dup1\n        /* \"contracts/LSTLendingAMM.sol\":7690:7705  minHealthFactor */\n      0x03\n        /* \"contracts/LSTLendingAMM.sol\":7690:7724  minHealthFactor = _minHealthFactor */\n      dup2\n      swap1\n      sstore\n      pop\n        /* \"contracts/LSTLendingAMM.sol\":7607:7731  function setMinHealthFactor(uint256 _minHealthFactor) external onlyAdmin {... */\n      pop\n      jump\t// out\n        /* \"contracts/LSTLendingAMM.sol\":6308:6559  function calculateHealthFactor(uint256 collateralValue, uint256 debtValue) public pure returns (uint256) {... */\n    tag_50:\n        /* \"contracts/LSTLendingAMM.sol\":6404:6411  uint256 */\n      0x00\n        /* \"contracts/LSTLendingAMM.sol\":6440:6441  0 */\n      0x00\n        /* \"contracts/LSTLendingAMM.sol\":6427:6436  debtValue */\n      dup3\n        /* \"contracts/LSTLendingAMM.sol\":6427:6441  debtValue == 0 */\n      sub\n        /* \"contracts/LSTLendingAMM.sol\":6423:6492  if (debtValue == 0) {... */\n      tag_170\n      jumpi\n        /* \"contracts/LSTLendingAMM.sol\":6464:6481  type(uint256).max */\n      0xffffffffffffffffffffffffffffffffffffffffffffffffffffffffffffffff\n        /* \"contracts/LSTLendingAMM.sol\":6457:6481  return type(uint256).max */\n      swap1\n      pop\n      jump(tag_169)\n        /* \"contracts/LSTLendingAMM.sol\":6423:6492  if (debtValue == 0) {... */\n    tag_170:\n        /* \"contracts/LSTLendingAMM.sol\":6548:6551  200 */\n      0xc8\n        /* \"contracts/LSTLendingAMM.sol\":6536:6545  debtValue */\n      dup3\n        /* \"contracts/LSTLendingAMM.sol\":6536:6551  debtValue * 200 */\n      tag_171\n      swap2\n      swap1\n      tag_172\n      jump\t// in\n    tag_171:\n        /* \"contracts/LSTLendingAMM.sol\":6527:6531  1e18 */\n      0x0de0b6b3a7640000\n        /* \"contracts/LSTLendingAMM.sol\":6509:6524  collateralValue */\n      dup5\n        /* \"contracts/LSTLendingAMM.sol\":6509:6531  collateralValue * 1e18 */\n      tag_173\n      swap2\n      swap1\n      tag_172\n      jump\t// in\n    tag_173:\n        /* \"contracts/LSTLendingAMM.sol\":6508:6552  (collateralValue * 1e18) / (debtValue * 200) */\n      tag_174\n      swap2\n      swap1\n      tag_175\n      jump\t// in\n    tag_174:\n        /* \"contracts/LSTLendingAMM.sol\":6501:6552  return (collateralValue * 1e18) / (debtValue * 200) */\n      swap1\n      pop\n        /* \"contracts/LSTLendingAMM.sol\":6308:6559  function calculateHealthFactor(uint256 collateralValue, uint256 debtValue) public pure returns (uint256) {... */\n    tag_169:\n      swap3\n      swap2\n      pop\n      pop\n      jump\t// out\n        /* \"@openzeppelin/contracts/access/AccessControl.sol\":2565:2767  function supportsInterface(bytes4 interfaceId) public view virtual override returns (bool) {... */\n    tag_56:\n        /* \"@openzeppelin/contracts/access/AccessControl.sol\":2650:2654  bool */\n      0x00\n        /* \"@openzeppelin/contracts/access/AccessControl.sol\":2688:2720  type(IAccessControl).interfaceId */\n      0x7965db0b00000000000000000000000000000000000000000000000000000000\n        /* \"@openzeppelin/contracts/access/AccessControl.sol\":2673:2720  interfaceId == type(IAccessControl).interfaceId */\n      not(0xffffffffffffffffffffffffffffffffffffffffffffffffffffffff)\n      and\n        /* \"@openzeppelin/contracts/access/AccessControl.sol\":2673:2684  interfaceId */\n      dup3\n        /* \"@openzeppelin/contracts/access/AccessControl.sol\":2673:2720  interfaceId == type(IAccessControl).interfaceId */\n      not(0xffffffffffffffffffffffffffffffffffffffffffffffffffffffff)\n      and\n      eq\n        /* \"@openzeppelin/contracts/access/AccessControl.sol\":2673:2760  interfaceId == type(IAccessControl).interfaceId || super.supportsInterface(interfaceId) */\n      dup1\n      tag_177\n      jumpi\n      pop\n        /* \"@openzeppelin/contracts/access/AccessControl.sol\":2724:2760  super.supportsInterface(interfaceId) */\n      tag_178\n        /* \"@openzeppelin/contracts/access/AccessControl.sol\":2748:2759  interfaceId */\n      dup3\n        /* \"@openzeppelin/contracts/access/AccessControl.sol\":2724:2747  super.supportsInterface */\n      tag_179\n        /* \"@openzeppelin/contracts/access/AccessControl.sol\":2724:2760  super.supportsInterface(interfaceId) */\n      jump\t// in\n    tag_178:\n        /* \"@openzeppelin/contracts/access/AccessControl.sol\":2673:2760  interfaceId == type(IAccessControl).interfaceId || super.supportsInterface(interfaceId) */\n    tag_177:\n        /* \"@openzeppelin/contracts/access/AccessControl.sol\":2666:2760  return interfaceId == type(IAccessControl).interfaceId || super.supportsInterface(interfaceId) */\n      swap1\n      pop\n        /* \"@openzeppelin/contracts/access/AccessControl.sol\":2565:2767  function supportsInterface(bytes4 interfaceId) public view virtual override returns (bool) {... */\n      swap2\n      swap1\n      pop\n      jump\t// out\n        /* \"contracts/LSTLendingAMM.sol\":518:588  bytes32 public constant LIQUIDATOR_ROLE = keccak256(\"LIQUIDATOR_ROLE\") */\n    tag_60:\n        /* \"contracts/LSTLendingAMM.sol\":560:588  keccak256(\"LIQUIDATOR_ROLE\") */\n      0x5e17fc5225d4a099df75359ce1f405503ca79498a8dc46a7d583235a0ee45c16\n        /* \"contracts/LSTLendingAMM.sol\":518:588  bytes32 public constant LIQUIDATOR_ROLE = keccak256(\"LIQUIDATOR_ROLE\") */\n      dup2\n      jump\t// out\n        /* \"@openzeppelin/contracts/access/AccessControl.sol\":3810:3930  function getRoleAdmin(bytes32 role) public view virtual returns (bytes32) {... */\n    tag_66:\n        /* \"@openzeppelin/contracts/access/AccessControl.sol\":3875:3882  bytes32 */\n      0x00\n        /* \"@openzeppelin/contracts/access/AccessControl.sol\":3901:3907  _roles */\n      0x01\n        /* \"@openzeppelin/contracts/access/AccessControl.sol\":3901:3913  _roles[role] */\n      0x00\n        /* \"@openzeppelin/contracts/access/AccessControl.sol\":3908:3912  role */\n      dup4\n        /* \"@openzeppelin/contracts/access/AccessControl.sol\":3901:3913  _roles[role] */\n      dup2\n      mstore\n      0x20\n      add\n      swap1\n      dup2\n      mstore\n      0x20\n      add\n      0x00\n      keccak256\n        /* \"@openzeppelin/contracts/access/AccessControl.sol\":3901:3923  _roles[role].adminRole */\n      0x01\n      add\n      sload\n        /* \"@openzeppelin/contracts/access/AccessControl.sol\":3894:3923  return _roles[role].adminRole */\n      swap1\n      pop\n        /* \"@openzeppelin/contracts/access/AccessControl.sol\":3810:3930  function getRoleAdmin(bytes32 role) public view virtual returns (bytes32) {... */\n      swap2\n      swap1\n      pop\n      jump\t// out\n        /* \"@openzeppelin/contracts/access/AccessControl.sol\":4226:4362  function grantRole(bytes32 role, address account) public virtual onlyRole(getRoleAdmin(role)) {... */\n    tag_71:\n        /* \"@openzeppelin/contracts/access/AccessControl.sol\":4300:4318  getRoleAdmin(role) */\n      tag_181\n        /* \"@openzeppelin/contracts/access/AccessControl.sol\":4313:4317  role */\n      dup3\n        /* \"@openzeppelin/contracts/access/AccessControl.sol\":4300:4312  getRoleAdmin */\n      tag_66\n        /* \"@openzeppelin/contracts/access/AccessControl.sol\":4300:4318  getRoleAdmin(role) */\n      jump\t// in\n    tag_181:\n        /* \"@openzeppelin/contracts/access/AccessControl.sol\":2464:2480  _checkRole(role) */\n      tag_183\n        /* \"@openzeppelin/contracts/access/AccessControl.sol\":2475:2479  role */\n      dup2\n        /* \"@openzeppelin/contracts/access/AccessControl.sol\":2464:2474  _checkRole */\n      tag_184\n        /* \"@openzeppelin/contracts/access/AccessControl.sol\":2464:2480  _checkRole(role) */\n      jump\t// in\n    tag_183:\n        /* \"@openzeppelin/contracts/access/AccessControl.sol\":4330:4355  _grantRole(role, account) */\n      tag_186\n        /* \"@openzeppelin/contracts/access/AccessControl.sol\":4341:4345  role */\n      dup4\n        /* \"@openzeppelin/contracts/access/AccessControl.sol\":4347:4354  account */\n      dup4\n        /* \"@openzeppelin/contracts/access/AccessControl.sol\":4330:4340  _grantRole */\n      tag_187\n        /* \"@openzeppelin/contracts/access/AccessControl.sol\":4330:4355  _grantRole(role, account) */\n      jump\t// in\n    tag_186:\n      pop\n        /* \"@openzeppelin/contracts/access/AccessControl.sol\":4226:4362  function grantRole(bytes32 role, address account) public virtual onlyRole(getRoleAdmin(role)) {... */\n      pop\n      pop\n      pop\n      jump\t// out\n        /* \"@openzeppelin/contracts/access/AccessControl.sol\":5328:5573  function renounceRole(bytes32 role, address callerConfirmation) public virtual {... */\n    tag_74:\n        /* \"@openzeppelin/contracts/access/AccessControl.sol\":5443:5455  _msgSender() */\n      tag_189\n        /* \"@openzeppelin/contracts/access/AccessControl.sol\":5443:5453  _msgSender */\n      tag_190\n        /* \"@openzeppelin/contracts/access/AccessControl.sol\":5443:5455  _msgSender() */\n      jump\t// in\n    tag_189:\n        /* \"@openzeppelin/contracts/access/AccessControl.sol\":5421:5455  callerConfirmation != _msgSender() */\n      0xffffffffffffffffffffffffffffffffffffffff\n      and\n        /* \"@openzeppelin/contracts/access/AccessControl.sol\":5421:5439  callerConfirmation */\n      dup2\n        /* \"@openzeppelin/contracts/access/AccessControl.sol\":5421:5455  callerConfirmation != _msgSender() */\n      0xffffffffffffffffffffffffffffffffffffffff\n      and\n      eq\n        /* \"@openzeppelin/contracts/access/AccessControl.sol\":5417:5519  if (callerConfirmation != _msgSender()) {... */\n      tag_191\n      jumpi\n        /* \"@openzeppelin/contracts/access/AccessControl.sol\":5478:5508  AccessControlBadConfirmation() */\n      mload(0x40)\n      0x6697b23200000000000000000000000000000000000000000000000000000000\n      dup2\n      mstore\n      0x04\n      add\n      mload(0x40)\n      dup1\n      swap2\n      sub\n      swap1\n      revert\n        /* \"@openzeppelin/contracts/access/AccessControl.sol\":5417:5519  if (callerConfirmation != _msgSender()) {... */\n    tag_191:\n        /* \"@openzeppelin/contracts/access/AccessControl.sol\":5529:5566  _revokeRole(role, callerConfirmation) */\n      tag_192\n        /* \"@openzeppelin/contracts/access/AccessControl.sol\":5541:5545  role */\n      dup3\n        /* \"@openzeppelin/contracts/access/AccessControl.sol\":5547:5565  callerConfirmation */\n      dup3\n        /* \"@openzeppelin/contracts/access/AccessControl.sol\":5529:5540  _revokeRole */\n      tag_193\n        /* \"@openzeppelin/contracts/access/AccessControl.sol\":5529:5566  _revokeRole(role, callerConfirmation) */\n      jump\t// in\n    tag_192:\n      pop\n        /* \"@openzeppelin/contracts/access/AccessControl.sol\":5328:5573  function renounceRole(bytes32 role, address callerConfirmation) public virtual {... */\n      pop\n      pop\n      jump\t// out\n        /* \"contracts/LSTLendingAMM.sol\":1328:1379  mapping(address => DebtAccount) public debtAccounts */\n    tag_78:\n      mstore(0x20, 0x0b)\n      dup1\n      0x00\n      mstore\n      keccak256(0x00, 0x40)\n      0x00\n      swap2\n      pop\n      swap1\n      pop\n      dup1\n      0x00\n      add\n      sload\n      swap1\n      pop\n      dup2\n      jump\t// out\n        /* \"contracts/LSTLendingAMM.sol\":875:900  IERC20 public borrowToken */\n    tag_81:\n      0x06\n      0x00\n      swap1\n      sload\n      swap1\n      0x0100\n      exp\n      swap1\n      div\n      0xffffffffffffffffffffffffffffffffffffffff\n      and\n      dup2\n      jump\t// out\n        /* \"contracts/LSTLendingAMM.sol\":998:1028  uint256 public totalCollateral */\n    tag_85:\n      sload(0x08)\n      dup2\n      jump\t// out\n        /* \"contracts/LSTLendingAMM.sol\":1034:1062  uint256 public totalBorrowed */\n    tag_88:\n      sload(0x09)\n      dup2\n      jump\t// out\n        /* \"contracts/LSTLendingAMM.sol\":7168:7396  function emergencyWithdraw(uint256 amount) external onlyAdmin {... */\n    tag_92:\n        /* \"contracts/LSTLendingAMM.sol\":1849:1880  hasRole(ADMIN_ROLE, msg.sender) */\n      tag_195\n        /* \"contracts/LSTLendingAMM.sol\":489:512  keccak256(\"ADMIN_ROLE\") */\n      0xa49807205ce4d355092ef5a8a18f56e8913cf4a201fbe287825b095693c21775\n        /* \"contracts/LSTLendingAMM.sol\":1869:1879  msg.sender */\n      caller\n        /* \"contracts/LSTLendingAMM.sol\":1849:1856  hasRole */\n      tag_127\n        /* \"contracts/LSTLendingAMM.sol\":1849:1880  hasRole(ADMIN_ROLE, msg.sender) */\n      jump\t// in\n    tag_195:\n        /* \"contracts/LSTLendingAMM.sol\":1841:1894  require(hasRole(ADMIN_ROLE, msg.sender), \"Not admin\") */\n      tag_196\n      jumpi\n      mload(0x40)\n      0x08c379a000000000000000000000000000000000000000000000000000000000\n      dup2\n      mstore\n      0x04\n      add\n      tag_197\n      swap1\n      tag_167\n      jump\t// in\n    tag_197:\n      mload(0x40)\n      dup1\n      swap2\n      sub\n      swap1\n      revert\n    tag_196:\n        /* \"contracts/LSTLendingAMM.sol\":7258:7266  lstToken */\n      0x05\n      0x00\n      swap1\n      sload\n      swap1\n      0x0100\n      exp\n      swap1\n      div\n      0xffffffffffffffffffffffffffffffffffffffff\n      and\n        /* \"contracts/LSTLendingAMM.sol\":7258:7276  lstToken.balanceOf */\n      0xffffffffffffffffffffffffffffffffffffffff\n      and\n      0x70a08231\n        /* \"contracts/LSTLendingAMM.sol\":7285:7289  this */\n      address\n        /* \"contracts/LSTLendingAMM.sol\":7258:7291  lstToken.balanceOf(address(this)) */\n      mload(0x40)\n      dup3\n      0xffffffff\n      and\n      0xe0\n      shl\n      dup2\n      mstore\n      0x04\n      add\n      tag_199\n      swap2\n      swap1\n      tag_99\n      jump\t// in\n    tag_199:\n      0x20\n      mload(0x40)\n      dup1\n      dup4\n      sub\n      dup2\n      dup7\n      gas\n      staticcall\n      iszero\n      dup1\n      iszero\n      tag_201\n      jumpi\n      returndatacopy(0x00, 0x00, returndatasize)\n      revert(0x00, returndatasize)\n    tag_201:\n      pop\n      pop\n      pop\n      pop\n      mload(0x40)\n      returndatasize\n      not(0x1f)\n      0x1f\n      dup3\n      add\n      and\n      dup3\n      add\n      dup1\n      0x40\n      mstore\n      pop\n      dup2\n      add\n      swap1\n      tag_202\n      swap2\n      swap1\n      tag_203\n      jump\t// in\n    tag_202:\n        /* \"contracts/LSTLendingAMM.sol\":7248:7254  amount */\n      dup2\n        /* \"contracts/LSTLendingAMM.sol\":7248:7291  amount <= lstToken.balanceOf(address(this)) */\n      gt\n      iszero\n        /* \"contracts/LSTLendingAMM.sol\":7240:7314  require(amount <= lstToken.balanceOf(address(this)), \"Insufficient funds\") */\n      tag_204\n      jumpi\n      mload(0x40)\n      0x08c379a000000000000000000000000000000000000000000000000000000000\n      dup2\n      mstore\n      0x04\n      add\n      tag_205\n      swap1\n      tag_206\n      jump\t// in\n    tag_205:\n      mload(0x40)\n      dup1\n      swap2\n      sub\n      swap1\n      revert\n    tag_204:\n        /* \"contracts/LSTLendingAMM.sol\":7332:7340  lstToken */\n      0x05\n      0x00\n      swap1\n      sload\n      swap1\n      0x0100\n      exp\n      swap1\n      div\n      0xffffffffffffffffffffffffffffffffffffffff\n      and\n        /* \"contracts/LSTLendingAMM.sol\":7332:7349  lstToken.transfer */\n      0xffffffffffffffffffffffffffffffffffffffff\n      and\n      0xa9059cbb\n        /* \"contracts/LSTLendingAMM.sol\":7350:7360  msg.sender */\n      caller\n        /* \"contracts/LSTLendingAMM.sol\":7362:7368  amount */\n      dup4\n        /* \"contracts/LSTLendingAMM.sol\":7332:7369  lstToken.transfer(msg.sender, amount) */\n      mload(0x40)\n      dup4\n      0xffffffff\n      and\n      0xe0\n      shl\n      dup2\n      mstore\n      0x04\n      add\n      tag_207\n      swap3\n      swap2\n      swap1\n      tag_208\n      jump\t// in\n    tag_207:\n      0x20\n      mload(0x40)\n      dup1\n      dup4\n      sub\n      dup2\n      0x00\n      dup8\n      gas\n      call\n      iszero\n      dup1\n      iszero\n      tag_210\n      jumpi\n      returndatacopy(0x00, 0x00, returndatasize)\n      revert(0x00, returndatasize)\n    tag_210:\n      pop\n      pop\n      pop\n      pop\n      mload(0x40)\n      returndatasize\n      not(0x1f)\n      0x1f\n      dup3\n      add\n      and\n      dup3\n      add\n      dup1\n      0x40\n      mstore\n      pop\n      dup2\n      add\n      swap1\n      tag_211\n      swap2\n      swap1\n      tag_212\n      jump\t// in\n    tag_211:\n        /* \"contracts/LSTLendingAMM.sol\":7324:7389  require(lstToken.transfer(msg.sender, amount), \"Transfer failed\") */\n      tag_213\n      jumpi\n      mload(0x40)\n      0x08c379a000000000000000000000000000000000000000000000000000000000\n      dup2\n      mstore\n      0x04\n      add\n      tag_214\n      swap1\n      tag_215\n      jump\t// in\n    tag_214:\n      mload(0x40)\n      dup1\n      swap2\n      sub\n      swap1\n      revert\n    tag_213:\n        /* \"contracts/LSTLendingAMM.sol\":7168:7396  function emergencyWithdraw(uint256 amount) external onlyAdmin {... */\n      pop\n      jump\t// out\n        /* \"contracts/LSTLendingAMM.sol\":628:646  bool public paused */\n    tag_94:\n      0x02\n      0x14\n      swap1\n      sload\n      swap1\n      0x0100\n      exp\n      swap1\n      div\n      0xff\n      and\n      dup2\n      jump\t// out\n        /* \"contracts/LSTLendingAMM.sol\":599:622  address public treasury */\n    tag_97:\n      0x02\n      0x00\n      swap1\n      sload\n      swap1\n      0x0100\n      exp\n      swap1\n      div\n      0xffffffffffffffffffffffffffffffffffffffff\n      and\n      dup2\n      jump\t// out\n        /* \"contracts/LSTLendingAMM.sol\":1259:1322  mapping(address => CollateralAccount) public collateralAccounts */\n    tag_102:\n      mstore(0x20, 0x0a)\n      dup1\n      0x00\n      mstore\n      keccak256(0x00, 0x40)\n      0x00\n      swap2\n      pop\n      swap1\n      pop\n      dup1\n      0x00\n      add\n      sload\n      swap1\n      dup1\n      0x01\n      add\n      sload\n      swap1\n      pop\n      dup3\n      jump\t// out\n        /* \"contracts/LSTLendingAMM.sol\":931:969  AggregatorV3Interface public priceFeed */\n    tag_106:\n      0x07\n      0x00\n      swap1\n      sload\n      swap1\n      0x0100\n      exp\n      swap1\n      div\n      0xffffffffffffffffffffffffffffffffffffffff\n      and\n      dup2\n      jump\t// out\n        /* \"contracts/LSTLendingAMM.sol\":452:512  bytes32 public constant ADMIN_ROLE = keccak256(\"ADMIN_ROLE\") */\n    tag_110:\n        /* \"contracts/LSTLendingAMM.sol\":489:512  keccak256(\"ADMIN_ROLE\") */\n      0xa49807205ce4d355092ef5a8a18f56e8913cf4a201fbe287825b095693c21775\n        /* \"contracts/LSTLendingAMM.sol\":452:512  bytes32 public constant ADMIN_ROLE = keccak256(\"ADMIN_ROLE\") */\n      dup2\n      jump\t// out\n        /* \"contracts/LSTLendingAMM.sol\":847:869  IERC20 public lstToken */\n    tag_113:\n      0x05\n      0x00\n      swap1\n      sload\n      swap1\n      0x0100\n      exp\n      swap1\n      div\n      0xffffffffffffffffffffffffffffffffffffffff\n      and\n      dup2\n      jump\t// out\n        /* \"contracts/LSTLendingAMM.sol\":7791:7911  function setCooldownPeriod(uint256 _cooldownPeriod) external onlyAdmin {... */\n    tag_117:\n        /* \"contracts/LSTLendingAMM.sol\":1849:1880  hasRole(ADMIN_ROLE, msg.sender) */\n      tag_217\n        /* \"contracts/LSTLendingAMM.sol\":489:512  keccak256(\"ADMIN_ROLE\") */\n      0xa49807205ce4d355092ef5a8a18f56e8913cf4a201fbe287825b095693c21775\n        /* \"contracts/LSTLendingAMM.sol\":1869:1879  msg.sender */\n      caller\n        /* \"contracts/LSTLendingAMM.sol\":1849:1856  hasRole */\n      tag_127\n        /* \"contracts/LSTLendingAMM.sol\":1849:1880  hasRole(ADMIN_ROLE, msg.sender) */\n      jump\t// in\n    tag_217:\n        /* \"contracts/LSTLendingAMM.sol\":1841:1894  require(hasRole(ADMIN_ROLE, msg.sender), \"Not admin\") */\n      tag_218\n      jumpi\n      mload(0x40)\n      0x08c379a000000000000000000000000000000000000000000000000000000000\n      dup2\n      mstore\n      0x04\n      add\n      tag_219\n      swap1\n      tag_167\n      jump\t// in\n    tag_219:\n      mload(0x40)\n      dup1\n      swap2\n      sub\n      swap1\n      revert\n    tag_218:\n        /* \"contracts/LSTLendingAMM.sol\":7889:7904  _cooldownPeriod */\n      dup1\n        /* \"contracts/LSTLendingAMM.sol\":7872:7886  borrowCooldown */\n      0x04\n        /* \"contracts/LSTLendingAMM.sol\":7872:7904  borrowCooldown = _cooldownPeriod */\n      dup2\n      swap1\n      sstore\n      pop\n        /* \"contracts/LSTLendingAMM.sol\":7791:7911  function setCooldownPeriod(uint256 _cooldownPeriod) external onlyAdmin {... */\n      pop\n      jump\t// out\n        /* \"contracts/LSTLendingAMM.sol\":739:777  uint256 public borrowCooldown = 1 days */\n    tag_119:\n      sload(0x04)\n      dup2\n      jump\t// out\n        /* \"contracts/LSTLendingAMM.sol\":6626:6876  function calculateInterestRate(uint256 utilization) public pure returns (uint256) {... */\n    tag_123:\n        /* \"contracts/LSTLendingAMM.sol\":6699:6706  uint256 */\n      0x00\n        /* \"contracts/LSTLendingAMM.sol\":6736:6738  80 */\n      0x50\n        /* \"contracts/LSTLendingAMM.sol\":6722:6733  utilization */\n      dup3\n        /* \"contracts/LSTLendingAMM.sol\":6722:6738  utilization < 80 */\n      lt\n        /* \"contracts/LSTLendingAMM.sol\":6718:6870  if (utilization < 80) {... */\n      iszero\n      tag_222\n      jumpi\n        /* \"contracts/LSTLendingAMM.sol\":6761:6762  5 */\n      0x05\n        /* \"contracts/LSTLendingAMM.sol\":6754:6762  return 5 */\n      swap1\n      pop\n      jump(tag_221)\n        /* \"contracts/LSTLendingAMM.sol\":6718:6870  if (utilization < 80) {... */\n    tag_222:\n        /* \"contracts/LSTLendingAMM.sol\":6836:6838  80 */\n      0x50\n        /* \"contracts/LSTLendingAMM.sol\":6822:6833  utilization */\n      dup3\n        /* \"contracts/LSTLendingAMM.sol\":6822:6838  utilization - 80 */\n      tag_224\n      swap2\n      swap1\n      tag_225\n      jump\t// in\n    tag_224:\n        /* \"contracts/LSTLendingAMM.sol\":6816:6818  10 */\n      0x0a\n        /* \"contracts/LSTLendingAMM.sol\":6816:6839  10 + (utilization - 80) */\n      tag_226\n      swap2\n      swap1\n      tag_227\n      jump\t// in\n    tag_226:\n        /* \"contracts/LSTLendingAMM.sol\":6809:6839  return 10 + (utilization - 80) */\n      swap1\n      pop\n        /* \"contracts/LSTLendingAMM.sol\":6626:6876  function calculateInterestRate(uint256 utilization) public pure returns (uint256) {... */\n    tag_221:\n      swap2\n      swap1\n      pop\n      jump\t// out\n        /* \"@openzeppelin/contracts/access/AccessControl.sol\":2854:2990  function hasRole(bytes32 role, address account) public view virtual returns (bool) {... */\n    tag_127:\n        /* \"@openzeppelin/contracts/access/AccessControl.sol\":2931:2935  bool */\n      0x00\n        /* \"@openzeppelin/contracts/access/AccessControl.sol\":2954:2960  _roles */\n      0x01\n        /* \"@openzeppelin/contracts/access/AccessControl.sol\":2954:2966  _roles[role] */\n      0x00\n        /* \"@openzeppelin/contracts/access/AccessControl.sol\":2961:2965  role */\n      dup5\n        /* \"@openzeppelin/contracts/access/AccessControl.sol\":2954:2966  _roles[role] */\n      dup2\n      mstore\n      0x20\n      add\n      swap1\n      dup2\n      mstore\n      0x20\n      add\n      0x00\n      keccak256\n        /* \"@openzeppelin/contracts/access/AccessControl.sol\":2954:2974  _roles[role].hasRole */\n      0x00\n      add\n        /* \"@openzeppelin/contracts/access/AccessControl.sol\":2954:2983  _roles[role].hasRole[account] */\n      0x00\n        /* \"@openzeppelin/contracts/access/AccessControl.sol\":2975:2982  account */\n      dup4\n        /* \"@openzeppelin/contracts/access/AccessControl.sol\":2954:2983  _roles[role].hasRole[account] */\n      0xffffffffffffffffffffffffffffffffffffffff\n      and\n      0xffffffffffffffffffffffffffffffffffffffff\n      and\n      dup2\n      mstore\n      0x20\n      add\n      swap1\n      dup2\n      mstore\n      0x20\n      add\n      0x00\n      keccak256\n      0x00\n      swap1\n      sload\n      swap1\n      0x0100\n      exp\n      swap1\n      div\n      0xff\n      and\n        /* \"@openzeppelin/contracts/access/AccessControl.sol\":2947:2983  return _roles[role].hasRole[account] */\n      swap1\n      pop\n        /* \"@openzeppelin/contracts/access/AccessControl.sol\":2854:2990  function hasRole(bytes32 role, address account) public view virtual returns (bool) {... */\n      swap3\n      swap2\n      pop\n      pop\n      jump\t// out\n        /* \"contracts/LSTLendingAMM.sol\":5917:6262  function getCollateralValue(address user) public view returns (uint256) {... */\n    tag_131:\n        /* \"contracts/LSTLendingAMM.sol\":5980:5987  uint256 */\n      0x00\n        /* \"contracts/LSTLendingAMM.sol\":5999:6016  uint256 lstAmount */\n      0x00\n        /* \"contracts/LSTLendingAMM.sol\":6019:6037  collateralAccounts */\n      0x0a\n        /* \"contracts/LSTLendingAMM.sol\":6019:6043  collateralAccounts[user] */\n      0x00\n        /* \"contracts/LSTLendingAMM.sol\":6038:6042  user */\n      dup5\n        /* \"contracts/LSTLendingAMM.sol\":6019:6043  collateralAccounts[user] */\n      0xffffffffffffffffffffffffffffffffffffffff\n      and\n      0xffffffffffffffffffffffffffffffffffffffff\n      and\n      dup2\n      mstore\n      0x20\n      add\n      swap1\n      dup2\n      mstore\n      0x20\n      add\n      0x00\n      keccak256\n        /* \"contracts/LSTLendingAMM.sol\":6019:6060  collateralAccounts[user].collateralAmount */\n      0x00\n      add\n      sload\n        /* \"contracts/LSTLendingAMM.sol\":5999:6060  uint256 lstAmount = collateralAccounts[user].collateralAmount */\n      swap1\n      pop\n        /* \"contracts/LSTLendingAMM.sol\":6073:6085  int256 price */\n      0x00\n        /* \"contracts/LSTLendingAMM.sol\":6095:6104  priceFeed */\n      0x07\n      0x00\n      swap1\n      sload\n      swap1\n      0x0100\n      exp\n      swap1\n      div\n      0xffffffffffffffffffffffffffffffffffffffff\n      and\n        /* \"contracts/LSTLendingAMM.sol\":6095:6120  priceFeed.latestRoundData */\n      0xffffffffffffffffffffffffffffffffffffffff\n      and\n      0xfeaf968c\n        /* \"contracts/LSTLendingAMM.sol\":6095:6122  priceFeed.latestRoundData() */\n      mload(0x40)\n      dup2\n      0xffffffff\n      and\n      0xe0\n      shl\n      dup2\n      mstore\n      0x04\n      add\n      0xa0\n      mload(0x40)\n      dup1\n      dup4\n      sub\n      dup2\n      dup7\n      gas\n      staticcall\n      iszero\n      dup1\n      iszero\n      tag_231\n      jumpi\n      returndatacopy(0x00, 0x00, returndatasize)\n      revert(0x00, returndatasize)\n    tag_231:\n      pop\n      pop\n      pop\n      pop\n      mload(0x40)\n      returndatasize\n      not(0x1f)\n      0x1f\n      dup3\n      add\n      and\n      dup3\n      add\n      dup1\n      0x40\n      mstore\n      pop\n      dup2\n      add\n      swap1\n      tag_232\n      swap2\n      swap1\n      tag_233\n      jump\t// in\n    tag_232:\n        /* \"contracts/LSTLendingAMM.sol\":6070:6122  (, int256 price, , , ) = priceFeed.latestRoundData() */\n      pop\n      pop\n      pop\n      swap2\n      pop\n      pop\n        /* \"contracts/LSTLendingAMM.sol\":6148:6149  0 */\n      0x00\n        /* \"contracts/LSTLendingAMM.sol\":6140:6145  price */\n      dup2\n        /* \"contracts/LSTLendingAMM.sol\":6140:6149  price > 0 */\n      sgt\n        /* \"contracts/LSTLendingAMM.sol\":6132:6172  require(price > 0, \"Invalid price feed\") */\n      tag_234\n      jumpi\n      mload(0x40)\n      0x08c379a000000000000000000000000000000000000000000000000000000000\n      dup2\n      mstore\n      0x04\n      add\n      tag_235\n      swap1\n      tag_236\n      jump\t// in\n    tag_235:\n      mload(0x40)\n      dup1\n      swap2\n      sub\n      swap1\n      revert\n    tag_234:\n        /* \"contracts/LSTLendingAMM.sol\":6218:6221  1e8 */\n      0x05f5e100\n        /* \"contracts/LSTLendingAMM.sol\":6209:6214  price */\n      dup2\n        /* \"contracts/LSTLendingAMM.sol\":6189:6198  lstAmount */\n      dup4\n        /* \"contracts/LSTLendingAMM.sol\":6189:6215  lstAmount * uint256(price) */\n      tag_237\n      swap2\n      swap1\n      tag_172\n      jump\t// in\n    tag_237:\n        /* \"contracts/LSTLendingAMM.sol\":6189:6221  lstAmount * uint256(price) / 1e8 */\n      tag_238\n      swap2\n      swap1\n      tag_175\n      jump\t// in\n    tag_238:\n        /* \"contracts/LSTLendingAMM.sol\":6182:6221  return lstAmount * uint256(price) / 1e8 */\n      swap3\n      pop\n      pop\n      pop\n        /* \"contracts/LSTLendingAMM.sol\":5917:6262  function getCollateralValue(address user) public view returns (uint256) {... */\n      swap2\n      swap1\n      pop\n      jump\t// out\n        /* \"@openzeppelin/contracts/access/AccessControl.sol\":2187:2236  bytes32 public constant DEFAULT_ADMIN_ROLE = 0x00 */\n    tag_134:\n        /* \"@openzeppelin/contracts/access/AccessControl.sol\":2232:2236  0x00 */\n      0x00\n        /* \"@openzeppelin/contracts/access/AccessControl.sol\":2187:2236  bytes32 public constant DEFAULT_ADMIN_ROLE = 0x00 */\n      0x00\n      shl\n      dup2\n      jump\t// out\n        /* \"contracts/LSTLendingAMM.sol\":2814:3292  function depositCollateral(uint256 amount) external whenNotPaused {... */\n    tag_138:\n        /* \"contracts/LSTLendingAMM.sol\":1760:1766  paused */\n      0x02\n      0x14\n      swap1\n      sload\n      swap1\n      0x0100\n      exp\n      swap1\n      div\n      0xff\n      and\n        /* \"contracts/LSTLendingAMM.sol\":1759:1766  !paused */\n      iszero\n        /* \"contracts/LSTLendingAMM.sol\":1751:1786  require(!paused, \"Protocol paused\") */\n      tag_240\n      jumpi\n      mload(0x40)\n      0x08c379a000000000000000000000000000000000000000000000000000000000\n      dup2\n      mstore\n      0x04\n      add\n      tag_241\n      swap1\n      tag_242\n      jump\t// in\n    tag_241:\n      mload(0x40)\n      dup1\n      swap2\n      sub\n      swap1\n      revert\n    tag_240:\n        /* \"contracts/LSTLendingAMM.sol\":2907:2908  0 */\n      0x00\n        /* \"contracts/LSTLendingAMM.sol\":2898:2904  amount */\n      dup2\n        /* \"contracts/LSTLendingAMM.sol\":2898:2908  amount > 0 */\n      gt\n        /* \"contracts/LSTLendingAMM.sol\":2890:2942  require(amount > 0, \"Amount must be greater than 0\") */\n      tag_244\n      jumpi\n      mload(0x40)\n      0x08c379a000000000000000000000000000000000000000000000000000000000\n      dup2\n      mstore\n      0x04\n      add\n      tag_245\n      swap1\n      tag_246\n      jump\t// in\n    tag_245:\n      mload(0x40)\n      dup1\n      swap2\n      sub\n      swap1\n      revert\n    tag_244:\n        /* \"contracts/LSTLendingAMM.sol\":3014:3022  lstToken */\n      0x05\n      0x00\n      swap1\n      sload\n      swap1\n      0x0100\n      exp\n      swap1\n      div\n      0xffffffffffffffffffffffffffffffffffffffff\n      and\n        /* \"contracts/LSTLendingAMM.sol\":3014:3035  lstToken.transferFrom */\n      0xffffffffffffffffffffffffffffffffffffffff\n      and\n      0x23b872dd\n        /* \"contracts/LSTLendingAMM.sol\":3036:3046  msg.sender */\n      caller\n        /* \"contracts/LSTLendingAMM.sol\":3056:3060  this */\n      address\n        /* \"contracts/LSTLendingAMM.sol\":3063:3069  amount */\n      dup5\n        /* \"contracts/LSTLendingAMM.sol\":3014:3070  lstToken.transferFrom(msg.sender, address(this), amount) */\n      mload(0x40)\n      dup5\n      0xffffffff\n      and\n      0xe0\n      shl\n      dup2\n      mstore\n      0x04\n      add\n      tag_247\n      swap4\n      swap3\n      swap2\n      swap1\n      tag_248\n      jump\t// in\n    tag_247:\n      0x20\n      mload(0x40)\n      dup1\n      dup4\n      sub\n      dup2\n      0x00\n      dup8\n      gas\n      call\n      iszero\n      dup1\n      iszero\n      tag_250\n      jumpi\n      returndatacopy(0x00, 0x00, returndatasize)\n      revert(0x00, returndatasize)\n    tag_250:\n      pop\n      pop\n      pop\n      pop\n      mload(0x40)\n      returndatasize\n      not(0x1f)\n      0x1f\n      dup3\n      add\n      and\n      dup3\n      add\n      dup1\n      0x40\n      mstore\n      pop\n      dup2\n      add\n      swap1\n      tag_251\n      swap2\n      swap1\n      tag_212\n      jump\t// in\n    tag_251:\n        /* \"contracts/LSTLendingAMM.sol\":3006:3090  require(lstToken.transferFrom(msg.sender, address(this), amount), \"Transfer failed\") */\n      tag_252\n      jumpi\n      mload(0x40)\n      0x08c379a000000000000000000000000000000000000000000000000000000000\n      dup2\n      mstore\n      0x04\n      add\n      tag_253\n      swap1\n      tag_215\n      jump\t// in\n    tag_253:\n      mload(0x40)\n      dup1\n      swap2\n      sub\n      swap1\n      revert\n    tag_252:\n        /* \"contracts/LSTLendingAMM.sol\":3189:3195  amount */\n      dup1\n        /* \"contracts/LSTLendingAMM.sol\":3138:3156  collateralAccounts */\n      0x0a\n        /* \"contracts/LSTLendingAMM.sol\":3138:3168  collateralAccounts[msg.sender] */\n      0x00\n        /* \"contracts/LSTLendingAMM.sol\":3157:3167  msg.sender */\n      caller\n        /* \"contracts/LSTLendingAMM.sol\":3138:3168  collateralAccounts[msg.sender] */\n      0xffffffffffffffffffffffffffffffffffffffff\n      and\n      0xffffffffffffffffffffffffffffffffffffffff\n      and\n      dup2\n      mstore\n      0x20\n      add\n      swap1\n      dup2\n      mstore\n      0x20\n      add\n      0x00\n      keccak256\n        /* \"contracts/LSTLendingAMM.sol\":3138:3185  collateralAccounts[msg.sender].collateralAmount */\n      0x00\n      add\n      0x00\n        /* \"contracts/LSTLendingAMM.sol\":3138:3195  collateralAccounts[msg.sender].collateralAmount += amount */\n      dup3\n      dup3\n      sload\n      tag_254\n      swap2\n      swap1\n      tag_227\n      jump\t// in\n    tag_254:\n      swap3\n      pop\n      pop\n      dup2\n      swap1\n      sstore\n      pop\n        /* \"contracts/LSTLendingAMM.sol\":3224:3230  amount */\n      dup1\n        /* \"contracts/LSTLendingAMM.sol\":3205:3220  totalCollateral */\n      0x08\n      0x00\n        /* \"contracts/LSTLendingAMM.sol\":3205:3230  totalCollateral += amount */\n      dup3\n      dup3\n      sload\n      tag_255\n      swap2\n      swap1\n      tag_227\n      jump\t// in\n    tag_255:\n      swap3\n      pop\n      pop\n      dup2\n      swap1\n      sstore\n      pop\n        /* \"contracts/LSTLendingAMM.sol\":3266:3276  msg.sender */\n      caller\n        /* \"contracts/LSTLendingAMM.sol\":3246:3285  CollateralDeposited(msg.sender, amount) */\n      0xffffffffffffffffffffffffffffffffffffffff\n      and\n      0xd7243f6f8212d5188fd054141cf6ea89cfc0d91facb8c3afe2f88a1358480142\n        /* \"contracts/LSTLendingAMM.sol\":3278:3284  amount */\n      dup3\n        /* \"contracts/LSTLendingAMM.sol\":3246:3285  CollateralDeposited(msg.sender, amount) */\n      mload(0x40)\n      tag_256\n      swap2\n      swap1\n      tag_52\n      jump\t// in\n    tag_256:\n      mload(0x40)\n      dup1\n      swap2\n      sub\n      swap1\n      log2\n        /* \"contracts/LSTLendingAMM.sol\":2814:3292  function depositCollateral(uint256 amount) external whenNotPaused {... */\n      pop\n      jump\t// out\n        /* \"contracts/LSTLendingAMM.sol\":4487:5865  function liquidate(address borrower, uint256 repayAmount) external whenNotPaused onlyLiquidator nonReentrant {... */\n    tag_142:\n        /* \"contracts/LSTLendingAMM.sol\":1760:1766  paused */\n      0x02\n      0x14\n      swap1\n      sload\n      swap1\n      0x0100\n      exp\n      swap1\n      div\n      0xff\n      and\n        /* \"contracts/LSTLendingAMM.sol\":1759:1766  !paused */\n      iszero\n        /* \"contracts/LSTLendingAMM.sol\":1751:1786  require(!paused, \"Protocol paused\") */\n      tag_258\n      jumpi\n      mload(0x40)\n      0x08c379a000000000000000000000000000000000000000000000000000000000\n      dup2\n      mstore\n      0x04\n      add\n      tag_259\n      swap1\n      tag_242\n      jump\t// in\n    tag_259:\n      mload(0x40)\n      dup1\n      swap2\n      sub\n      swap1\n      revert\n    tag_258:\n        /* \"contracts/LSTLendingAMM.sol\":1962:1998  hasRole(LIQUIDATOR_ROLE, msg.sender) */\n      tag_261\n        /* \"contracts/LSTLendingAMM.sol\":560:588  keccak256(\"LIQUIDATOR_ROLE\") */\n      0x5e17fc5225d4a099df75359ce1f405503ca79498a8dc46a7d583235a0ee45c16\n        /* \"contracts/LSTLendingAMM.sol\":1987:1997  msg.sender */\n      caller\n        /* \"contracts/LSTLendingAMM.sol\":1962:1969  hasRole */\n      tag_127\n        /* \"contracts/LSTLendingAMM.sol\":1962:1998  hasRole(LIQUIDATOR_ROLE, msg.sender) */\n      jump\t// in\n    tag_261:\n        /* \"contracts/LSTLendingAMM.sol\":1954:2017  require(hasRole(LIQUIDATOR_ROLE, msg.sender), \"Not liquidator\") */\n      tag_262\n      jumpi\n      mload(0x40)\n      0x08c379a000000000000000000000000000000000000000000000000000000000\n      dup2\n      mstore\n      0x04\n      add\n      tag_263\n      swap1\n      tag_264\n      jump\t// in\n    tag_263:\n      mload(0x40)\n      dup1\n      swap2\n      sub\n      swap1\n      revert\n    tag_262:\n        /* \"@openzeppelin/contracts/security/ReentrancyGuard.sol\":2261:2282  _nonReentrantBefore() */\n      tag_266\n        /* \"@openzeppelin/contracts/security/ReentrancyGuard.sol\":2261:2280  _nonReentrantBefore */\n      tag_267\n        /* \"@openzeppelin/contracts/security/ReentrancyGuard.sol\":2261:2282  _nonReentrantBefore() */\n      jump\t// in\n    tag_266:\n        /* \"contracts/LSTLendingAMM.sol\":4628:4629  0 */\n      0x00\n        /* \"contracts/LSTLendingAMM.sol\":4614:4625  repayAmount */\n      dup2\n        /* \"contracts/LSTLendingAMM.sol\":4614:4629  repayAmount > 0 */\n      gt\n        /* \"contracts/LSTLendingAMM.sol\":4606:4669  require(repayAmount > 0, \"Repay amount must be greater than 0\") */\n      tag_269\n      jumpi\n      mload(0x40)\n      0x08c379a000000000000000000000000000000000000000000000000000000000\n      dup2\n      mstore\n      0x04\n      add\n      tag_270\n      swap1\n      tag_271\n      jump\t// in\n    tag_270:\n      mload(0x40)\n      dup1\n      swap2\n      sub\n      swap1\n      revert\n    tag_269:\n        /* \"contracts/LSTLendingAMM.sol\":4680:4701  uint256 lstValueInUSD */\n      0x00\n        /* \"contracts/LSTLendingAMM.sol\":4704:4732  getCollateralValue(borrower) */\n      tag_272\n        /* \"contracts/LSTLendingAMM.sol\":4723:4731  borrower */\n      dup4\n        /* \"contracts/LSTLendingAMM.sol\":4704:4722  getCollateralValue */\n      tag_131\n        /* \"contracts/LSTLendingAMM.sol\":4704:4732  getCollateralValue(borrower) */\n      jump\t// in\n    tag_272:\n        /* \"contracts/LSTLendingAMM.sol\":4680:4732  uint256 lstValueInUSD = getCollateralValue(borrower) */\n      swap1\n      pop\n        /* \"contracts/LSTLendingAMM.sol\":4742:4759  uint256 debtValue */\n      0x00\n        /* \"contracts/LSTLendingAMM.sol\":4762:4774  debtAccounts */\n      0x0b\n        /* \"contracts/LSTLendingAMM.sol\":4762:4784  debtAccounts[borrower] */\n      0x00\n        /* \"contracts/LSTLendingAMM.sol\":4775:4783  borrower */\n      dup6\n        /* \"contracts/LSTLendingAMM.sol\":4762:4784  debtAccounts[borrower] */\n      0xffffffffffffffffffffffffffffffffffffffff\n      and\n      0xffffffffffffffffffffffffffffffffffffffff\n      and\n      dup2\n      mstore\n      0x20\n      add\n      swap1\n      dup2\n      mstore\n      0x20\n      add\n      0x00\n      keccak256\n        /* \"contracts/LSTLendingAMM.sol\":4762:4795  debtAccounts[borrower].debtAmount */\n      0x00\n      add\n      sload\n        /* \"contracts/LSTLendingAMM.sol\":4742:4795  uint256 debtValue = debtAccounts[borrower].debtAmount */\n      swap1\n      pop\n        /* \"contracts/LSTLendingAMM.sol\":4806:4826  uint256 healthFactor */\n      0x00\n        /* \"contracts/LSTLendingAMM.sol\":4829:4876  calculateHealthFactor(lstValueInUSD, debtValue) */\n      tag_273\n        /* \"contracts/LSTLendingAMM.sol\":4851:4864  lstValueInUSD */\n      dup4\n        /* \"contracts/LSTLendingAMM.sol\":4866:4875  debtValue */\n      dup4\n        /* \"contracts/LSTLendingAMM.sol\":4829:4850  calculateHealthFactor */\n      tag_50\n        /* \"contracts/LSTLendingAMM.sol\":4829:4876  calculateHealthFactor(lstValueInUSD, debtValue) */\n      jump\t// in\n    tag_273:\n        /* \"contracts/LSTLendingAMM.sol\":4806:4876  uint256 healthFactor = calculateHealthFactor(lstValueInUSD, debtValue) */\n      swap1\n      pop\n        /* \"contracts/LSTLendingAMM.sol\":4909:4924  minHealthFactor */\n      sload(0x03)\n        /* \"contracts/LSTLendingAMM.sol\":4894:4906  healthFactor */\n      dup2\n        /* \"contracts/LSTLendingAMM.sol\":4894:4924  healthFactor < minHealthFactor */\n      lt\n        /* \"contracts/LSTLendingAMM.sol\":4886:4948  require(healthFactor < minHealthFactor, \"Position still safe\") */\n      tag_274\n      jumpi\n      mload(0x40)\n      0x08c379a000000000000000000000000000000000000000000000000000000000\n      dup2\n      mstore\n      0x04\n      add\n      tag_275\n      swap1\n      tag_276\n      jump\t// in\n    tag_275:\n      mload(0x40)\n      dup1\n      swap2\n      sub\n      swap1\n      revert\n    tag_274:\n        /* \"contracts/LSTLendingAMM.sol\":4959:4984  uint256 liquidationAmount */\n      0x00\n        /* \"contracts/LSTLendingAMM.sol\":5001:5010  debtValue */\n      dup3\n        /* \"contracts/LSTLendingAMM.sol\":4987:4998  repayAmount */\n      dup6\n        /* \"contracts/LSTLendingAMM.sol\":4987:5010  repayAmount < debtValue */\n      lt\n        /* \"contracts/LSTLendingAMM.sol\":4987:5036  repayAmount < debtValue ? repayAmount : debtValue */\n      tag_277\n      jumpi\n        /* \"contracts/LSTLendingAMM.sol\":5027:5036  debtValue */\n      dup3\n        /* \"contracts/LSTLendingAMM.sol\":4987:5036  repayAmount < debtValue ? repayAmount : debtValue */\n      jump(tag_278)\n    tag_277:\n        /* \"contracts/LSTLendingAMM.sol\":5013:5024  repayAmount */\n      dup5\n        /* \"contracts/LSTLendingAMM.sol\":4987:5036  repayAmount < debtValue ? repayAmount : debtValue */\n    tag_278:\n        /* \"contracts/LSTLendingAMM.sol\":4959:5036  uint256 liquidationAmount = repayAmount < debtValue ? repayAmount : debtValue */\n      swap1\n      pop\n        /* \"contracts/LSTLendingAMM.sol\":5115:5123  lstToken */\n      0x05\n      0x00\n      swap1\n      sload\n      swap1\n      0x0100\n      exp\n      swap1\n      div\n      0xffffffffffffffffffffffffffffffffffffffff\n      and\n        /* \"contracts/LSTLendingAMM.sol\":5115:5132  lstToken.transfer */\n      0xffffffffffffffffffffffffffffffffffffffff\n      and\n      0xa9059cbb\n        /* \"contracts/LSTLendingAMM.sol\":5133:5143  msg.sender */\n      caller\n        /* \"contracts/LSTLendingAMM.sol\":5145:5162  liquidationAmount */\n      dup4\n        /* \"contracts/LSTLendingAMM.sol\":5115:5163  lstToken.transfer(msg.sender, liquidationAmount) */\n      mload(0x40)\n      dup4\n      0xffffffff\n      and\n      0xe0\n      shl\n      dup2\n      mstore\n      0x04\n      add\n      tag_279\n      swap3\n      swap2\n      swap1\n      tag_208\n      jump\t// in\n    tag_279:\n      0x20\n      mload(0x40)\n      dup1\n      dup4\n      sub\n      dup2\n      0x00\n      dup8\n      gas\n      call\n      iszero\n      dup1\n      iszero\n      tag_281\n      jumpi\n      returndatacopy(0x00, 0x00, returndatasize)\n      revert(0x00, returndatasize)\n    tag_281:\n      pop\n      pop\n      pop\n      pop\n      mload(0x40)\n      returndatasize\n      not(0x1f)\n      0x1f\n      dup3\n      add\n      and\n      dup3\n      add\n      dup1\n      0x40\n      mstore\n      pop\n      dup2\n      add\n      swap1\n      tag_282\n      swap2\n      swap1\n      tag_212\n      jump\t// in\n    tag_282:\n        /* \"contracts/LSTLendingAMM.sol\":5094:5216  require(... */\n      tag_283\n      jumpi\n      mload(0x40)\n      0x08c379a000000000000000000000000000000000000000000000000000000000\n      dup2\n      mstore\n      0x04\n      add\n      tag_284\n      swap1\n      tag_285\n      jump\t// in\n    tag_284:\n      mload(0x40)\n      dup1\n      swap2\n      sub\n      swap1\n      revert\n    tag_283:\n        /* \"contracts/LSTLendingAMM.sol\":5257:5276  uint256 treasuryFee */\n      0x00\n        /* \"contracts/LSTLendingAMM.sol\":5299:5301  10 */\n      0x0a\n        /* \"contracts/LSTLendingAMM.sol\":5279:5296  liquidationAmount */\n      dup3\n        /* \"contracts/LSTLendingAMM.sol\":5279:5301  liquidationAmount / 10 */\n      tag_286\n      swap2\n      swap1\n      tag_175\n      jump\t// in\n    tag_286:\n        /* \"contracts/LSTLendingAMM.sol\":5257:5301  uint256 treasuryFee = liquidationAmount / 10 */\n      swap1\n      pop\n        /* \"contracts/LSTLendingAMM.sol\":5332:5340  lstToken */\n      0x05\n      0x00\n      swap1\n      sload\n      swap1\n      0x0100\n      exp\n      swap1\n      div\n      0xffffffffffffffffffffffffffffffffffffffff\n      and\n        /* \"contracts/LSTLendingAMM.sol\":5332:5349  lstToken.transfer */\n      0xffffffffffffffffffffffffffffffffffffffff\n      and\n      0xa9059cbb\n        /* \"contracts/LSTLendingAMM.sol\":5350:5358  treasury */\n      0x02\n      0x00\n      swap1\n      sload\n      swap1\n      0x0100\n      exp\n      swap1\n      div\n      0xffffffffffffffffffffffffffffffffffffffff\n      and\n        /* \"contracts/LSTLendingAMM.sol\":5360:5371  treasuryFee */\n      dup4\n        /* \"contracts/LSTLendingAMM.sol\":5332:5372  lstToken.transfer(treasury, treasuryFee) */\n      mload(0x40)\n      dup4\n      0xffffffff\n      and\n      0xe0\n      shl\n      dup2\n      mstore\n      0x04\n      add\n      tag_287\n      swap3\n      swap2\n      swap1\n      tag_208\n      jump\t// in\n    tag_287:\n      0x20\n      mload(0x40)\n      dup1\n      dup4\n      sub\n      dup2\n      0x00\n      dup8\n      gas\n      call\n      iszero\n      dup1\n      iszero\n      tag_289\n      jumpi\n      returndatacopy(0x00, 0x00, returndatasize)\n      revert(0x00, returndatasize)\n    tag_289:\n      pop\n      pop\n      pop\n      pop\n      mload(0x40)\n      returndatasize\n      not(0x1f)\n      0x1f\n      dup3\n      add\n      and\n      dup3\n      add\n      dup1\n      0x40\n      mstore\n      pop\n      dup2\n      add\n      swap1\n      tag_290\n      swap2\n      swap1\n      tag_212\n      jump\t// in\n    tag_290:\n        /* \"contracts/LSTLendingAMM.sol\":5311:5422  require(... */\n      tag_291\n      jumpi\n      mload(0x40)\n      0x08c379a000000000000000000000000000000000000000000000000000000000\n      dup2\n      mstore\n      0x04\n      add\n      tag_292\n      swap1\n      tag_293\n      jump\t// in\n    tag_292:\n      mload(0x40)\n      dup1\n      swap2\n      sub\n      swap1\n      revert\n    tag_291:\n        /* \"contracts/LSTLendingAMM.sol\":5470:5487  liquidationAmount */\n      dup2\n        /* \"contracts/LSTLendingAMM.sol\":5433:5445  debtAccounts */\n      0x0b\n        /* \"contracts/LSTLendingAMM.sol\":5433:5455  debtAccounts[borrower] */\n      0x00\n        /* \"contracts/LSTLendingAMM.sol\":5446:5454  borrower */\n      dup10\n        /* \"contracts/LSTLendingAMM.sol\":5433:5455  debtAccounts[borrower] */\n      0xffffffffffffffffffffffffffffffffffffffff\n      and\n      0xffffffffffffffffffffffffffffffffffffffff\n      and\n      dup2\n      mstore\n      0x20\n      add\n      swap1\n      dup2\n      mstore\n      0x20\n      add\n      0x00\n      keccak256\n        /* \"contracts/LSTLendingAMM.sol\":5433:5466  debtAccounts[borrower].debtAmount */\n      0x00\n      add\n      0x00\n        /* \"contracts/LSTLendingAMM.sol\":5433:5487  debtAccounts[borrower].debtAmount -= liquidationAmount */\n      dup3\n      dup3\n      sload\n      tag_294\n      swap2\n      swap1\n      tag_225\n      jump\t// in\n    tag_294:\n      swap3\n      pop\n      pop\n      dup2\n      swap1\n      sstore\n      pop\n        /* \"contracts/LSTLendingAMM.sol\":5546:5563  liquidationAmount */\n      dup2\n        /* \"contracts/LSTLendingAMM.sol\":5497:5515  collateralAccounts */\n      0x0a\n        /* \"contracts/LSTLendingAMM.sol\":5497:5525  collateralAccounts[borrower] */\n      0x00\n        /* \"contracts/LSTLendingAMM.sol\":5516:5524  borrower */\n      dup10\n        /* \"contracts/LSTLendingAMM.sol\":5497:5525  collateralAccounts[borrower] */\n      0xffffffffffffffffffffffffffffffffffffffff\n      and\n      0xffffffffffffffffffffffffffffffffffffffff\n      and\n      dup2\n      mstore\n      0x20\n      add\n      swap1\n      dup2\n      mstore\n      0x20\n      add\n      0x00\n      keccak256\n        /* \"contracts/LSTLendingAMM.sol\":5497:5542  collateralAccounts[borrower].collateralAmount */\n      0x00\n      add\n      0x00\n        /* \"contracts/LSTLendingAMM.sol\":5497:5563  collateralAccounts[borrower].collateralAmount -= liquidationAmount */\n      dup3\n      dup3\n      sload\n      tag_295\n      swap2\n      swap1\n      tag_225\n      jump\t// in\n    tag_295:\n      swap3\n      pop\n      pop\n      dup2\n      swap1\n      sstore\n      pop\n        /* \"contracts/LSTLendingAMM.sol\":5608:5632  uint256 liquidationBonus */\n      0x00\n        /* \"contracts/LSTLendingAMM.sol\":5655:5658  100 */\n      0x64\n        /* \"contracts/LSTLendingAMM.sol\":5635:5652  liquidationAmount */\n      dup4\n        /* \"contracts/LSTLendingAMM.sol\":5635:5658  liquidationAmount / 100 */\n      tag_296\n      swap2\n      swap1\n      tag_175\n      jump\t// in\n    tag_296:\n        /* \"contracts/LSTLendingAMM.sol\":5608:5658  uint256 liquidationBonus = liquidationAmount / 100 */\n      swap1\n      pop\n        /* \"contracts/LSTLendingAMM.sol\":5689:5697  lstToken */\n      0x05\n      0x00\n      swap1\n      sload\n      swap1\n      0x0100\n      exp\n      swap1\n      div\n      0xffffffffffffffffffffffffffffffffffffffff\n      and\n        /* \"contracts/LSTLendingAMM.sol\":5689:5706  lstToken.transfer */\n      0xffffffffffffffffffffffffffffffffffffffff\n      and\n      0xa9059cbb\n        /* \"contracts/LSTLendingAMM.sol\":5707:5717  msg.sender */\n      caller\n        /* \"contracts/LSTLendingAMM.sol\":5719:5735  liquidationBonus */\n      dup4\n        /* \"contracts/LSTLendingAMM.sol\":5689:5736  lstToken.transfer(msg.sender, liquidationBonus) */\n      mload(0x40)\n      dup4\n      0xffffffff\n      and\n      0xe0\n      shl\n      dup2\n      mstore\n      0x04\n      add\n      tag_297\n      swap3\n      swap2\n      swap1\n      tag_208\n      jump\t// in\n    tag_297:\n      0x20\n      mload(0x40)\n      dup1\n      dup4\n      sub\n      dup2\n      0x00\n      dup8\n      gas\n      call\n      iszero\n      dup1\n      iszero\n      tag_299\n      jumpi\n      returndatacopy(0x00, 0x00, returndatasize)\n      revert(0x00, returndatasize)\n    tag_299:\n      pop\n      pop\n      pop\n      pop\n      mload(0x40)\n      returndatasize\n      not(0x1f)\n      0x1f\n      dup3\n      add\n      and\n      dup3\n      add\n      dup1\n      0x40\n      mstore\n      pop\n      dup2\n      add\n      swap1\n      tag_300\n      swap2\n      swap1\n      tag_212\n      jump\t// in\n    tag_300:\n        /* \"contracts/LSTLendingAMM.sol\":5668:5783  require(... */\n      tag_301\n      jumpi\n      mload(0x40)\n      0x08c379a000000000000000000000000000000000000000000000000000000000\n      dup2\n      mstore\n      0x04\n      add\n      tag_302\n      swap1\n      tag_303\n      jump\t// in\n    tag_302:\n      mload(0x40)\n      dup1\n      swap2\n      sub\n      swap1\n      revert\n    tag_301:\n        /* \"contracts/LSTLendingAMM.sol\":5828:5838  msg.sender */\n      caller\n        /* \"contracts/LSTLendingAMM.sol\":5799:5858  PositionLiquidated(borrower, msg.sender, liquidationAmount) */\n      0xffffffffffffffffffffffffffffffffffffffff\n      and\n        /* \"contracts/LSTLendingAMM.sol\":5818:5826  borrower */\n      dup9\n        /* \"contracts/LSTLendingAMM.sol\":5799:5858  PositionLiquidated(borrower, msg.sender, liquidationAmount) */\n      0xffffffffffffffffffffffffffffffffffffffff\n      and\n      0xf2f51441117ac1865376b3f32be7c7b7f01c5a67fbcf4e44f3ae8bacc03b5a90\n        /* \"contracts/LSTLendingAMM.sol\":5840:5857  liquidationAmount */\n      dup6\n        /* \"contracts/LSTLendingAMM.sol\":5799:5858  PositionLiquidated(borrower, msg.sender, liquidationAmount) */\n      mload(0x40)\n      tag_304\n      swap2\n      swap1\n      tag_52\n      jump\t// in\n    tag_304:\n      mload(0x40)\n      dup1\n      swap2\n      sub\n      swap1\n      log3\n        /* \"contracts/LSTLendingAMM.sol\":4596:5865  {... */\n      pop\n      pop\n      pop\n      pop\n      pop\n      pop\n        /* \"@openzeppelin/contracts/security/ReentrancyGuard.sol\":2303:2323  _nonReentrantAfter() */\n      tag_305\n        /* \"@openzeppelin/contracts/security/ReentrancyGuard.sol\":2303:2321  _nonReentrantAfter */\n      tag_306\n        /* \"@openzeppelin/contracts/security/ReentrancyGuard.sol\":2303:2323  _nonReentrantAfter() */\n      jump\t// in\n    tag_305:\n        /* \"contracts/LSTLendingAMM.sol\":4487:5865  function liquidate(address borrower, uint256 repayAmount) external whenNotPaused onlyLiquidator nonReentrant {... */\n      pop\n      pop\n      jump\t// out\n        /* \"contracts/LSTLendingAMM.sol\":3349:4424  function borrow(uint256 borrowAmount) external whenNotPaused cooldownNotElapsed {... */\n    tag_145:\n        /* \"contracts/LSTLendingAMM.sol\":1760:1766  paused */\n      0x02\n      0x14\n      swap1\n      sload\n      swap1\n      0x0100\n      exp\n      swap1\n      div\n      0xff\n      and\n        /* \"contracts/LSTLendingAMM.sol\":1759:1766  !paused */\n      iszero\n        /* \"contracts/LSTLendingAMM.sol\":1751:1786  require(!paused, \"Protocol paused\") */\n      tag_308\n      jumpi\n      mload(0x40)\n      0x08c379a000000000000000000000000000000000000000000000000000000000\n      dup2\n      mstore\n      0x04\n      add\n      tag_309\n      swap1\n      tag_242\n      jump\t// in\n    tag_309:\n      mload(0x40)\n      dup1\n      swap2\n      sub\n      swap1\n      revert\n    tag_308:\n        /* \"contracts/LSTLendingAMM.sol\":2174:2188  borrowCooldown */\n      sload(0x04)\n        /* \"contracts/LSTLendingAMM.sol\":2121:2139  collateralAccounts */\n      0x0a\n        /* \"contracts/LSTLendingAMM.sol\":2121:2151  collateralAccounts[msg.sender] */\n      0x00\n        /* \"contracts/LSTLendingAMM.sol\":2140:2150  msg.sender */\n      caller\n        /* \"contracts/LSTLendingAMM.sol\":2121:2151  collateralAccounts[msg.sender] */\n      0xffffffffffffffffffffffffffffffffffffffff\n      and\n      0xffffffffffffffffffffffffffffffffffffffff\n      and\n      dup2\n      mstore\n      0x20\n      add\n      swap1\n      dup2\n      mstore\n      0x20\n      add\n      0x00\n      keccak256\n        /* \"contracts/LSTLendingAMM.sol\":2121:2171  collateralAccounts[msg.sender].lastBorrowTimestamp */\n      0x01\n      add\n      sload\n        /* \"contracts/LSTLendingAMM.sol\":2121:2188  collateralAccounts[msg.sender].lastBorrowTimestamp + borrowCooldown */\n      tag_311\n      swap2\n      swap1\n      tag_227\n      jump\t// in\n    tag_311:\n        /* \"contracts/LSTLendingAMM.sol\":2102:2117  block.timestamp */\n      timestamp\n        /* \"contracts/LSTLendingAMM.sol\":2102:2188  block.timestamp >= collateralAccounts[msg.sender].lastBorrowTimestamp + borrowCooldown */\n      lt\n      iszero\n        /* \"contracts/LSTLendingAMM.sol\":2081:2245  require(... */\n      tag_312\n      jumpi\n      mload(0x40)\n      0x08c379a000000000000000000000000000000000000000000000000000000000\n      dup2\n      mstore\n      0x04\n      add\n      tag_313\n      swap1\n      tag_314\n      jump\t// in\n    tag_313:\n      mload(0x40)\n      dup1\n      swap2\n      sub\n      swap1\n      revert\n    tag_312:\n        /* \"contracts/LSTLendingAMM.sol\":3462:3463  0 */\n      0x00\n        /* \"contracts/LSTLendingAMM.sol\":3447:3459  borrowAmount */\n      dup2\n        /* \"contracts/LSTLendingAMM.sol\":3447:3463  borrowAmount > 0 */\n      gt\n        /* \"contracts/LSTLendingAMM.sol\":3439:3504  require(borrowAmount > 0, \"Borrow amount must be greater than 0\") */\n      tag_316\n      jumpi\n      mload(0x40)\n      0x08c379a000000000000000000000000000000000000000000000000000000000\n      dup2\n      mstore\n      0x04\n      add\n      tag_317\n      swap1\n      tag_318\n      jump\t// in\n    tag_317:\n      mload(0x40)\n      dup1\n      swap2\n      sub\n      swap1\n      revert\n    tag_316:\n        /* \"contracts/LSTLendingAMM.sol\":3515:3536  uint256 lstValueInUSD */\n      0x00\n        /* \"contracts/LSTLendingAMM.sol\":3539:3569  getCollateralValue(msg.sender) */\n      tag_319\n        /* \"contracts/LSTLendingAMM.sol\":3558:3568  msg.sender */\n      caller\n        /* \"contracts/LSTLendingAMM.sol\":3539:3557  getCollateralValue */\n      tag_131\n        /* \"contracts/LSTLendingAMM.sol\":3539:3569  getCollateralValue(msg.sender) */\n      jump\t// in\n    tag_319:\n        /* \"contracts/LSTLendingAMM.sol\":3515:3569  uint256 lstValueInUSD = getCollateralValue(msg.sender) */\n      swap1\n      pop\n        /* \"contracts/LSTLendingAMM.sol\":3579:3605  uint256 requiredCollateral */\n      0x00\n        /* \"contracts/LSTLendingAMM.sol\":3623:3624  2 */\n      0x02\n        /* \"contracts/LSTLendingAMM.sol\":3608:3620  borrowAmount */\n      dup4\n        /* \"contracts/LSTLendingAMM.sol\":3608:3624  borrowAmount * 2 */\n      tag_320\n      swap2\n      swap1\n      tag_172\n      jump\t// in\n    tag_320:\n        /* \"contracts/LSTLendingAMM.sol\":3579:3624  uint256 requiredCollateral = borrowAmount * 2 */\n      swap1\n      pop\n        /* \"contracts/LSTLendingAMM.sol\":3686:3704  requiredCollateral */\n      dup1\n        /* \"contracts/LSTLendingAMM.sol\":3669:3682  lstValueInUSD */\n      dup3\n        /* \"contracts/LSTLendingAMM.sol\":3669:3704  lstValueInUSD >= requiredCollateral */\n      lt\n      iszero\n        /* \"contracts/LSTLendingAMM.sol\":3661:3732  require(lstValueInUSD >= requiredCollateral, \"Insufficient collateral\") */\n      tag_321\n      jumpi\n      mload(0x40)\n      0x08c379a000000000000000000000000000000000000000000000000000000000\n      dup2\n      mstore\n      0x04\n      add\n      tag_322\n      swap1\n      tag_323\n      jump\t// in\n    tag_322:\n      mload(0x40)\n      dup1\n      swap2\n      sub\n      swap1\n      revert\n    tag_321:\n        /* \"contracts/LSTLendingAMM.sol\":3793:3812  uint256 utilization */\n      0x00\n        /* \"contracts/LSTLendingAMM.sol\":3839:3854  totalCollateral */\n      sload(0x08)\n        /* \"contracts/LSTLendingAMM.sol\":3832:3835  100 */\n      0x64\n        /* \"contracts/LSTLendingAMM.sol\":3816:3829  totalBorrowed */\n      sload(0x09)\n        /* \"contracts/LSTLendingAMM.sol\":3816:3835  totalBorrowed * 100 */\n      tag_324\n      swap2\n      swap1\n      tag_172\n      jump\t// in\n    tag_324:\n        /* \"contracts/LSTLendingAMM.sol\":3815:3854  (totalBorrowed * 100) / totalCollateral */\n      tag_325\n      swap2\n      swap1\n      tag_175\n      jump\t// in\n    tag_325:\n        /* \"contracts/LSTLendingAMM.sol\":3793:3854  uint256 utilization = (totalBorrowed * 100) / totalCollateral */\n      swap1\n      pop\n        /* \"contracts/LSTLendingAMM.sol\":3864:3884  uint256 interestRate */\n      0x00\n        /* \"contracts/LSTLendingAMM.sol\":3887:3921  calculateInterestRate(utilization) */\n      tag_326\n        /* \"contracts/LSTLendingAMM.sol\":3909:3920  utilization */\n      dup3\n        /* \"contracts/LSTLendingAMM.sol\":3887:3908  calculateInterestRate */\n      tag_123\n        /* \"contracts/LSTLendingAMM.sol\":3887:3921  calculateInterestRate(utilization) */\n      jump\t// in\n    tag_326:\n        /* \"contracts/LSTLendingAMM.sol\":3864:3921  uint256 interestRate = calculateInterestRate(utilization) */\n      swap1\n      pop\n        /* \"contracts/LSTLendingAMM.sol\":3931:3949  uint256 debtAmount */\n      0x00\n        /* \"contracts/LSTLendingAMM.sol\":3998:4001  100 */\n      0x64\n        /* \"contracts/LSTLendingAMM.sol\":3983:3995  interestRate */\n      dup3\n        /* \"contracts/LSTLendingAMM.sol\":3968:3980  borrowAmount */\n      dup8\n        /* \"contracts/LSTLendingAMM.sol\":3968:3995  borrowAmount * interestRate */\n      tag_327\n      swap2\n      swap1\n      tag_172\n      jump\t// in\n    tag_327:\n        /* \"contracts/LSTLendingAMM.sol\":3968:4001  borrowAmount * interestRate / 100 */\n      tag_328\n      swap2\n      swap1\n      tag_175\n      jump\t// in\n    tag_328:\n        /* \"contracts/LSTLendingAMM.sol\":3952:3964  borrowAmount */\n      dup7\n        /* \"contracts/LSTLendingAMM.sol\":3952:4002  borrowAmount + (borrowAmount * interestRate / 100) */\n      tag_329\n      swap2\n      swap1\n      tag_227\n      jump\t// in\n    tag_329:\n        /* \"contracts/LSTLendingAMM.sol\":3931:4002  uint256 debtAmount = borrowAmount + (borrowAmount * interestRate / 100) */\n      swap1\n      pop\n        /* \"contracts/LSTLendingAMM.sol\":4065:4076  borrowToken */\n      0x06\n      0x00\n      swap1\n      sload\n      swap1\n      0x0100\n      exp\n      swap1\n      div\n      0xffffffffffffffffffffffffffffffffffffffff\n      and\n        /* \"contracts/LSTLendingAMM.sol\":4065:4085  borrowToken.transfer */\n      0xffffffffffffffffffffffffffffffffffffffff\n      and\n      0xa9059cbb\n        /* \"contracts/LSTLendingAMM.sol\":4086:4096  msg.sender */\n      caller\n        /* \"contracts/LSTLendingAMM.sol\":4098:4110  borrowAmount */\n      dup9\n        /* \"contracts/LSTLendingAMM.sol\":4065:4111  borrowToken.transfer(msg.sender, borrowAmount) */\n      mload(0x40)\n      dup4\n      0xffffffff\n      and\n      0xe0\n      shl\n      dup2\n      mstore\n      0x04\n      add\n      tag_330\n      swap3\n      swap2\n      swap1\n      tag_208\n      jump\t// in\n    tag_330:\n      0x20\n      mload(0x40)\n      dup1\n      dup4\n      sub\n      dup2\n      0x00\n      dup8\n      gas\n      call\n      iszero\n      dup1\n      iszero\n      tag_332\n      jumpi\n      returndatacopy(0x00, 0x00, returndatasize)\n      revert(0x00, returndatasize)\n    tag_332:\n      pop\n      pop\n      pop\n      pop\n      mload(0x40)\n      returndatasize\n      not(0x1f)\n      0x1f\n      dup3\n      add\n      and\n      dup3\n      add\n      dup1\n      0x40\n      mstore\n      pop\n      dup2\n      add\n      swap1\n      tag_333\n      swap2\n      swap1\n      tag_212\n      jump\t// in\n    tag_333:\n        /* \"contracts/LSTLendingAMM.sol\":4057:4138  require(borrowToken.transfer(msg.sender, borrowAmount), \"Borrow transfer failed\") */\n      tag_334\n      jumpi\n      mload(0x40)\n      0x08c379a000000000000000000000000000000000000000000000000000000000\n      dup2\n      mstore\n      0x04\n      add\n      tag_335\n      swap1\n      tag_336\n      jump\t// in\n    tag_335:\n      mload(0x40)\n      dup1\n      swap2\n      sub\n      swap1\n      revert\n    tag_334:\n        /* \"contracts/LSTLendingAMM.sol\":4235:4245  debtAmount */\n      dup1\n        /* \"contracts/LSTLendingAMM.sol\":4196:4208  debtAccounts */\n      0x0b\n        /* \"contracts/LSTLendingAMM.sol\":4196:4220  debtAccounts[msg.sender] */\n      0x00\n        /* \"contracts/LSTLendingAMM.sol\":4209:4219  msg.sender */\n      caller\n        /* \"contracts/LSTLendingAMM.sol\":4196:4220  debtAccounts[msg.sender] */\n      0xffffffffffffffffffffffffffffffffffffffff\n      and\n      0xffffffffffffffffffffffffffffffffffffffff\n      and\n      dup2\n      mstore\n      0x20\n      add\n      swap1\n      dup2\n      mstore\n      0x20\n      add\n      0x00\n      keccak256\n        /* \"contracts/LSTLendingAMM.sol\":4196:4231  debtAccounts[msg.sender].debtAmount */\n      0x00\n      add\n      0x00\n        /* \"contracts/LSTLendingAMM.sol\":4196:4245  debtAccounts[msg.sender].debtAmount += debtAmount */\n      dup3\n      dup3\n      sload\n      tag_337\n      swap2\n      swap1\n      tag_227\n      jump\t// in\n    tag_337:\n      swap3\n      pop\n      pop\n      dup2\n      swap1\n      sstore\n      pop\n        /* \"contracts/LSTLendingAMM.sol\":4272:4284  borrowAmount */\n      dup6\n        /* \"contracts/LSTLendingAMM.sol\":4255:4268  totalBorrowed */\n      0x09\n      0x00\n        /* \"contracts/LSTLendingAMM.sol\":4255:4284  totalBorrowed += borrowAmount */\n      dup3\n      dup3\n      sload\n      tag_338\n      swap2\n      swap1\n      tag_227\n      jump\t// in\n    tag_338:\n      swap3\n      pop\n      pop\n      dup2\n      swap1\n      sstore\n      pop\n        /* \"contracts/LSTLendingAMM.sol\":4347:4362  block.timestamp */\n      timestamp\n        /* \"contracts/LSTLendingAMM.sol\":4294:4312  collateralAccounts */\n      0x0a\n        /* \"contracts/LSTLendingAMM.sol\":4294:4324  collateralAccounts[msg.sender] */\n      0x00\n        /* \"contracts/LSTLendingAMM.sol\":4313:4323  msg.sender */\n      caller\n        /* \"contracts/LSTLendingAMM.sol\":4294:4324  collateralAccounts[msg.sender] */\n      0xffffffffffffffffffffffffffffffffffffffff\n      and\n      0xffffffffffffffffffffffffffffffffffffffff\n      and\n      dup2\n      mstore\n      0x20\n      add\n      swap1\n      dup2\n      mstore\n      0x20\n      add\n      0x00\n      keccak256\n        /* \"contracts/LSTLendingAMM.sol\":4294:4344  collateralAccounts[msg.sender].lastBorrowTimestamp */\n      0x01\n      add\n        /* \"contracts/LSTLendingAMM.sol\":4294:4362  collateralAccounts[msg.sender].lastBorrowTimestamp = block.timestamp */\n      dup2\n      swap1\n      sstore\n      pop\n        /* \"contracts/LSTLendingAMM.sol\":4392:4402  msg.sender */\n      caller\n        /* \"contracts/LSTLendingAMM.sol\":4378:4417  AssetBorrowed(msg.sender, borrowAmount) */\n      0xffffffffffffffffffffffffffffffffffffffff\n      and\n      0x03c44a7ddb65ca5f1bbeffda35ba96457c370e957138d14005ff3e55551ab50f\n        /* \"contracts/LSTLendingAMM.sol\":4404:4416  borrowAmount */\n      dup8\n        /* \"contracts/LSTLendingAMM.sol\":4378:4417  AssetBorrowed(msg.sender, borrowAmount) */\n      mload(0x40)\n      tag_339\n      swap2\n      swap1\n      tag_52\n      jump\t// in\n    tag_339:\n      mload(0x40)\n      dup1\n      swap2\n      sub\n      swap1\n      log2\n        /* \"contracts/LSTLendingAMM.sol\":3429:4424  {... */\n      pop\n      pop\n      pop\n      pop\n      pop\n        /* \"contracts/LSTLendingAMM.sol\":3349:4424  function borrow(uint256 borrowAmount) external whenNotPaused cooldownNotElapsed {... */\n      pop\n      jump\t// out\n        /* \"@openzeppelin/contracts/access/AccessControl.sol\":4642:4780  function revokeRole(bytes32 role, address account) public virtual onlyRole(getRoleAdmin(role)) {... */\n    tag_148:\n        /* \"@openzeppelin/contracts/access/AccessControl.sol\":4717:4735  getRoleAdmin(role) */\n      tag_340\n        /* \"@openzeppelin/contracts/access/AccessControl.sol\":4730:4734  role */\n      dup3\n        /* \"@openzeppelin/contracts/access/AccessControl.sol\":4717:4729  getRoleAdmin */\n      tag_66\n        /* \"@openzeppelin/contracts/access/AccessControl.sol\":4717:4735  getRoleAdmin(role) */\n      jump\t// in\n    tag_340:\n        /* \"@openzeppelin/contracts/access/AccessControl.sol\":2464:2480  _checkRole(role) */\n      tag_342\n        /* \"@openzeppelin/contracts/access/AccessControl.sol\":2475:2479  role */\n      dup2\n        /* \"@openzeppelin/contracts/access/AccessControl.sol\":2464:2474  _checkRole */\n      tag_184\n        /* \"@openzeppelin/contracts/access/AccessControl.sol\":2464:2480  _checkRole(role) */\n      jump\t// in\n    tag_342:\n        /* \"@openzeppelin/contracts/access/AccessControl.sol\":4747:4773  _revokeRole(role, account) */\n      tag_344\n        /* \"@openzeppelin/contracts/access/AccessControl.sol\":4759:4763  role */\n      dup4\n        /* \"@openzeppelin/contracts/access/AccessControl.sol\":4765:4772  account */\n      dup4\n        /* \"@openzeppelin/contracts/access/AccessControl.sol\":4747:4758  _revokeRole */\n      tag_193\n        /* \"@openzeppelin/contracts/access/AccessControl.sol\":4747:4773  _revokeRole(role, account) */\n      jump\t// in\n    tag_344:\n      pop\n        /* \"@openzeppelin/contracts/access/AccessControl.sol\":4642:4780  function revokeRole(bytes32 role, address account) public virtual onlyRole(getRoleAdmin(role)) {... */\n      pop\n      pop\n      pop\n      jump\t// out\n        /* \"contracts/LSTLendingAMM.sol\":6917:6991  function pauseProtocol() external onlyAdmin {... */\n    tag_150:\n        /* \"contracts/LSTLendingAMM.sol\":1849:1880  hasRole(ADMIN_ROLE, msg.sender) */\n      tag_346\n        /* \"contracts/LSTLendingAMM.sol\":489:512  keccak256(\"ADMIN_ROLE\") */\n      0xa49807205ce4d355092ef5a8a18f56e8913cf4a201fbe287825b095693c21775\n        /* \"contracts/LSTLendingAMM.sol\":1869:1879  msg.sender */\n      caller\n        /* \"contracts/LSTLendingAMM.sol\":1849:1856  hasRole */\n      tag_127\n        /* \"contracts/LSTLendingAMM.sol\":1849:1880  hasRole(ADMIN_ROLE, msg.sender) */\n      jump\t// in\n    tag_346:\n        /* \"contracts/LSTLendingAMM.sol\":1841:1894  require(hasRole(ADMIN_ROLE, msg.sender), \"Not admin\") */\n      tag_347\n      jumpi\n      mload(0x40)\n      0x08c379a000000000000000000000000000000000000000000000000000000000\n      dup2\n      mstore\n      0x04\n      add\n      tag_348\n      swap1\n      tag_167\n      jump\t// in\n    tag_348:\n      mload(0x40)\n      dup1\n      swap2\n      sub\n      swap1\n      revert\n    tag_347:\n        /* \"contracts/LSTLendingAMM.sol\":6980:6984  true */\n      0x01\n        /* \"contracts/LSTLendingAMM.sol\":6971:6977  paused */\n      0x02\n      0x14\n        /* \"contracts/LSTLendingAMM.sol\":6971:6984  paused = true */\n      0x0100\n      exp\n      dup2\n      sload\n      dup2\n      0xff\n      mul\n      not\n      and\n      swap1\n      dup4\n      iszero\n      iszero\n      mul\n      or\n      swap1\n      sstore\n      pop\n        /* \"contracts/LSTLendingAMM.sol\":6917:6991  function pauseProtocol() external onlyAdmin {... */\n      jump\t// out\n        /* \"contracts/LSTLendingAMM.sol\":652:689  uint256 public minHealthFactor = 1e18 */\n    tag_152:\n      sload(0x03)\n      dup2\n      jump\t// out\n        /* \"contracts/LSTLendingAMM.sol\":7443:7539  function setTreasury(address _treasury) external onlyAdmin {... */\n    tag_156:\n        /* \"contracts/LSTLendingAMM.sol\":1849:1880  hasRole(ADMIN_ROLE, msg.sender) */\n      tag_351\n        /* \"contracts/LSTLendingAMM.sol\":489:512  keccak256(\"ADMIN_ROLE\") */\n      0xa49807205ce4d355092ef5a8a18f56e8913cf4a201fbe287825b095693c21775\n        /* \"contracts/LSTLendingAMM.sol\":1869:1879  msg.sender */\n      caller\n        /* \"contracts/LSTLendingAMM.sol\":1849:1856  hasRole */\n      tag_127\n        /* \"contracts/LSTLendingAMM.sol\":1849:1880  hasRole(ADMIN_ROLE, msg.sender) */\n      jump\t// in\n    tag_351:\n        /* \"contracts/LSTLendingAMM.sol\":1841:1894  require(hasRole(ADMIN_ROLE, msg.sender), \"Not admin\") */\n      tag_352\n      jumpi\n      mload(0x40)\n      0x08c379a000000000000000000000000000000000000000000000000000000000\n      dup2\n      mstore\n      0x04\n      add\n      tag_353\n      swap1\n      tag_167\n      jump\t// in\n    tag_353:\n      mload(0x40)\n      dup1\n      swap2\n      sub\n      swap1\n      revert\n    tag_352:\n        /* \"contracts/LSTLendingAMM.sol\":7523:7532  _treasury */\n      dup1\n        /* \"contracts/LSTLendingAMM.sol\":7512:7520  treasury */\n      0x02\n      0x00\n        /* \"contracts/LSTLendingAMM.sol\":7512:7532  treasury = _treasury */\n      0x0100\n      exp\n      dup2\n      sload\n      dup2\n      0xffffffffffffffffffffffffffffffffffffffff\n      mul\n      not\n      and\n      swap1\n      dup4\n      0xffffffffffffffffffffffffffffffffffffffff\n      and\n      mul\n      or\n      swap1\n      sstore\n      pop\n        /* \"contracts/LSTLendingAMM.sol\":7443:7539  function setTreasury(address _treasury) external onlyAdmin {... */\n      pop\n      jump\t// out\n        /* \"contracts/LSTLendingAMM.sol\":7982:8215  function recoverOracleData() external view returns (int256) {... */\n    tag_158:\n        /* \"contracts/LSTLendingAMM.sol\":8034:8040  int256 */\n      0x00\n        /* \"contracts/LSTLendingAMM.sol\":8055:8067  int256 price */\n      0x00\n        /* \"contracts/LSTLendingAMM.sol\":8077:8086  priceFeed */\n      0x07\n      0x00\n      swap1\n      sload\n      swap1\n      0x0100\n      exp\n      swap1\n      div\n      0xffffffffffffffffffffffffffffffffffffffff\n      and\n        /* \"contracts/LSTLendingAMM.sol\":8077:8102  priceFeed.latestRoundData */\n      0xffffffffffffffffffffffffffffffffffffffff\n      and\n      0xfeaf968c\n        /* \"contracts/LSTLendingAMM.sol\":8077:8104  priceFeed.latestRoundData() */\n      mload(0x40)\n      dup2\n      0xffffffff\n      and\n      0xe0\n      shl\n      dup2\n      mstore\n      0x04\n      add\n      0xa0\n      mload(0x40)\n      dup1\n      dup4\n      sub\n      dup2\n      dup7\n      gas\n      staticcall\n      iszero\n      dup1\n      iszero\n      tag_357\n      jumpi\n      returndatacopy(0x00, 0x00, returndatasize)\n      revert(0x00, returndatasize)\n    tag_357:\n      pop\n      pop\n      pop\n      pop\n      mload(0x40)\n      returndatasize\n      not(0x1f)\n      0x1f\n      dup3\n      add\n      and\n      dup3\n      add\n      dup1\n      0x40\n      mstore\n      pop\n      dup2\n      add\n      swap1\n      tag_358\n      swap2\n      swap1\n      tag_233\n      jump\t// in\n    tag_358:\n        /* \"contracts/LSTLendingAMM.sol\":8052:8104  (, int256 price, , , ) = priceFeed.latestRoundData() */\n      pop\n      pop\n      pop\n      swap2\n      pop\n      pop\n        /* \"contracts/LSTLendingAMM.sol\":8127:8128  0 */\n      0x00\n        /* \"contracts/LSTLendingAMM.sol\":8118:8123  price */\n      dup2\n        /* \"contracts/LSTLendingAMM.sol\":8118:8128  price <= 0 */\n      sgt\n        /* \"contracts/LSTLendingAMM.sol\":8114:8187  if (price <= 0) {... */\n      tag_359\n      jumpi\n        /* \"contracts/LSTLendingAMM.sol\":8144:8176  revert(\"Oracle data is invalid\") */\n      mload(0x40)\n      0x08c379a000000000000000000000000000000000000000000000000000000000\n      dup2\n      mstore\n      0x04\n      add\n      tag_360\n      swap1\n      tag_361\n      jump\t// in\n    tag_360:\n      mload(0x40)\n      dup1\n      swap2\n      sub\n      swap1\n      revert\n        /* \"contracts/LSTLendingAMM.sol\":8114:8187  if (price <= 0) {... */\n    tag_359:\n        /* \"contracts/LSTLendingAMM.sol\":8203:8208  price */\n      dup1\n        /* \"contracts/LSTLendingAMM.sol\":8196:8208  return price */\n      swap2\n      pop\n      pop\n        /* \"contracts/LSTLendingAMM.sol\":7982:8215  function recoverOracleData() external view returns (int256) {... */\n      swap1\n      jump\t// out\n        /* \"contracts/LSTLendingAMM.sol\":7034:7111  function unpauseProtocol() external onlyAdmin {... */\n    tag_162:\n        /* \"contracts/LSTLendingAMM.sol\":1849:1880  hasRole(ADMIN_ROLE, msg.sender) */\n      tag_363\n        /* \"contracts/LSTLendingAMM.sol\":489:512  keccak256(\"ADMIN_ROLE\") */\n      0xa49807205ce4d355092ef5a8a18f56e8913cf4a201fbe287825b095693c21775\n        /* \"contracts/LSTLendingAMM.sol\":1869:1879  msg.sender */\n      caller\n        /* \"contracts/LSTLendingAMM.sol\":1849:1856  hasRole */\n      tag_127\n        /* \"contracts/LSTLendingAMM.sol\":1849:1880  hasRole(ADMIN_ROLE, msg.sender) */\n      jump\t// in\n    tag_363:\n        /* \"contracts/LSTLendingAMM.sol\":1841:1894  require(hasRole(ADMIN_ROLE, msg.sender), \"Not admin\") */\n      tag_364\n      jumpi\n      mload(0x40)\n      0x08c379a000000000000000000000000000000000000000000000000000000000\n      dup2\n      mstore\n      0x04\n      add\n      tag_365\n      swap1\n      tag_167\n      jump\t// in\n    tag_365:\n      mload(0x40)\n      dup1\n      swap2\n      sub\n      swap1\n      revert\n    tag_364:\n        /* \"contracts/LSTLendingAMM.sol\":7099:7104  false */\n      0x00\n        /* \"contracts/LSTLendingAMM.sol\":7090:7096  paused */\n      0x02\n      0x14\n        /* \"contracts/LSTLendingAMM.sol\":7090:7104  paused = false */\n      0x0100\n      exp\n      dup2\n      sload\n      dup2\n      0xff\n      mul\n      not\n      and\n      swap1\n      dup4\n      iszero\n      iszero\n      mul\n      or\n      swap1\n      sstore\n      pop\n        /* \"contracts/LSTLendingAMM.sol\":7034:7111  function unpauseProtocol() external onlyAdmin {... */\n      jump\t// out\n        /* \"@openzeppelin/contracts/utils/introspection/ERC165.sol\":763:909  function supportsInterface(bytes4 interfaceId) public view virtual returns (bool) {... */\n    tag_179:\n        /* \"@openzeppelin/contracts/utils/introspection/ERC165.sol\":839:843  bool */\n      0x00\n        /* \"@openzeppelin/contracts/utils/introspection/ERC165.sol\":877:902  type(IERC165).interfaceId */\n      0x01ffc9a700000000000000000000000000000000000000000000000000000000\n        /* \"@openzeppelin/contracts/utils/introspection/ERC165.sol\":862:902  interfaceId == type(IERC165).interfaceId */\n      not(0xffffffffffffffffffffffffffffffffffffffffffffffffffffffff)\n      and\n        /* \"@openzeppelin/contracts/utils/introspection/ERC165.sol\":862:873  interfaceId */\n      dup3\n        /* \"@openzeppelin/contracts/utils/introspection/ERC165.sol\":862:902  interfaceId == type(IERC165).interfaceId */\n      not(0xffffffffffffffffffffffffffffffffffffffffffffffffffffffff)\n      and\n      eq\n        /* \"@openzeppelin/contracts/utils/introspection/ERC165.sol\":855:902  return interfaceId == type(IERC165).interfaceId */\n      swap1\n      pop\n        /* \"@openzeppelin/contracts/utils/introspection/ERC165.sol\":763:909  function supportsInterface(bytes4 interfaceId) public view virtual returns (bool) {... */\n      swap2\n      swap1\n      pop\n      jump\t// out\n        /* \"@openzeppelin/contracts/access/AccessControl.sol\":3199:3302  function _checkRole(bytes32 role) internal view virtual {... */\n    tag_184:\n        /* \"@openzeppelin/contracts/access/AccessControl.sol\":3265:3295  _checkRole(role, _msgSender()) */\n      tag_369\n        /* \"@openzeppelin/contracts/access/AccessControl.sol\":3276:3280  role */\n      dup2\n        /* \"@openzeppelin/contracts/access/AccessControl.sol\":3282:3294  _msgSender() */\n      tag_370\n        /* \"@openzeppelin/contracts/access/AccessControl.sol\":3282:3292  _msgSender */\n      tag_190\n        /* \"@openzeppelin/contracts/access/AccessControl.sol\":3282:3294  _msgSender() */\n      jump\t// in\n    tag_370:\n        /* \"@openzeppelin/contracts/access/AccessControl.sol\":3265:3275  _checkRole */\n      tag_371\n        /* \"@openzeppelin/contracts/access/AccessControl.sol\":3265:3295  _checkRole(role, _msgSender()) */\n      jump\t// in\n    tag_369:\n        /* \"@openzeppelin/contracts/access/AccessControl.sol\":3199:3302  function _checkRole(bytes32 role) internal view virtual {... */\n      pop\n      jump\t// out\n        /* \"@openzeppelin/contracts/access/AccessControl.sol\":6179:6495  function _grantRole(bytes32 role, address account) internal virtual returns (bool) {... */\n    tag_187:\n        /* \"@openzeppelin/contracts/access/AccessControl.sol\":6256:6260  bool */\n      0x00\n        /* \"@openzeppelin/contracts/access/AccessControl.sol\":6277:6299  hasRole(role, account) */\n      tag_373\n        /* \"@openzeppelin/contracts/access/AccessControl.sol\":6285:6289  role */\n      dup4\n        /* \"@openzeppelin/contracts/access/AccessControl.sol\":6291:6298  account */\n      dup4\n        /* \"@openzeppelin/contracts/access/AccessControl.sol\":6277:6284  hasRole */\n      tag_127\n        /* \"@openzeppelin/contracts/access/AccessControl.sol\":6277:6299  hasRole(role, account) */\n      jump\t// in\n    tag_373:\n        /* \"@openzeppelin/contracts/access/AccessControl.sol\":6272:6489  if (!hasRole(role, account)) {... */\n      tag_374\n      jumpi\n        /* \"@openzeppelin/contracts/access/AccessControl.sol\":6347:6351  true */\n      0x01\n        /* \"@openzeppelin/contracts/access/AccessControl.sol\":6315:6321  _roles */\n      dup1\n        /* \"@openzeppelin/contracts/access/AccessControl.sol\":6315:6327  _roles[role] */\n      0x00\n        /* \"@openzeppelin/contracts/access/AccessControl.sol\":6322:6326  role */\n      dup6\n        /* \"@openzeppelin/contracts/access/AccessControl.sol\":6315:6327  _roles[role] */\n      dup2\n      mstore\n      0x20\n      add\n      swap1\n      dup2\n      mstore\n      0x20\n      add\n      0x00\n      keccak256\n        /* \"@openzeppelin/contracts/access/AccessControl.sol\":6315:6335  _roles[role].hasRole */\n      0x00\n      add\n        /* \"@openzeppelin/contracts/access/AccessControl.sol\":6315:6344  _roles[role].hasRole[account] */\n      0x00\n        /* \"@openzeppelin/contracts/access/AccessControl.sol\":6336:6343  account */\n      dup5\n        /* \"@openzeppelin/contracts/access/AccessControl.sol\":6315:6344  _roles[role].hasRole[account] */\n      0xffffffffffffffffffffffffffffffffffffffff\n      and\n      0xffffffffffffffffffffffffffffffffffffffff\n      and\n      dup2\n      mstore\n      0x20\n      add\n      swap1\n      dup2\n      mstore\n      0x20\n      add\n      0x00\n      keccak256\n      0x00\n        /* \"@openzeppelin/contracts/access/AccessControl.sol\":6315:6351  _roles[role].hasRole[account] = true */\n      0x0100\n      exp\n      dup2\n      sload\n      dup2\n      0xff\n      mul\n      not\n      and\n      swap1\n      dup4\n      iszero\n      iszero\n      mul\n      or\n      swap1\n      sstore\n      pop\n        /* \"@openzeppelin/contracts/access/AccessControl.sol\":6397:6409  _msgSender() */\n      tag_375\n        /* \"@openzeppelin/contracts/access/AccessControl.sol\":6397:6407  _msgSender */\n      tag_190\n        /* \"@openzeppelin/contracts/access/AccessControl.sol\":6397:6409  _msgSender() */\n      jump\t// in\n    tag_375:\n        /* \"@openzeppelin/contracts/access/AccessControl.sol\":6370:6410  RoleGranted(role, account, _msgSender()) */\n      0xffffffffffffffffffffffffffffffffffffffff\n      and\n        /* \"@openzeppelin/contracts/access/AccessControl.sol\":6388:6395  account */\n      dup3\n        /* \"@openzeppelin/contracts/access/AccessControl.sol\":6370:6410  RoleGranted(role, account, _msgSender()) */\n      0xffffffffffffffffffffffffffffffffffffffff\n      and\n        /* \"@openzeppelin/contracts/access/AccessControl.sol\":6382:6386  role */\n      dup5\n        /* \"@openzeppelin/contracts/access/AccessControl.sol\":6370:6410  RoleGranted(role, account, _msgSender()) */\n      0x2f8788117e7eff1d82e926ec794901d17c78024a50270940304540a733656f0d\n      mload(0x40)\n      mload(0x40)\n      dup1\n      swap2\n      sub\n      swap1\n      log4\n        /* \"@openzeppelin/contracts/access/AccessControl.sol\":6431:6435  true */\n      0x01\n        /* \"@openzeppelin/contracts/access/AccessControl.sol\":6424:6435  return true */\n      swap1\n      pop\n      jump(tag_372)\n        /* \"@openzeppelin/contracts/access/AccessControl.sol\":6272:6489  if (!hasRole(role, account)) {... */\n    tag_374:\n        /* \"@openzeppelin/contracts/access/AccessControl.sol\":6473:6478  false */\n      0x00\n        /* \"@openzeppelin/contracts/access/AccessControl.sol\":6466:6478  return false */\n      swap1\n      pop\n        /* \"@openzeppelin/contracts/access/AccessControl.sol\":6179:6495  function _grantRole(bytes32 role, address account) internal virtual returns (bool) {... */\n    tag_372:\n      swap3\n      swap2\n      pop\n      pop\n      jump\t// out\n        /* \"@openzeppelin/contracts/utils/Context.sol\":656:752  function _msgSender() internal view virtual returns (address) {... */\n    tag_190:\n        /* \"@openzeppelin/contracts/utils/Context.sol\":709:716  address */\n      0x00\n        /* \"@openzeppelin/contracts/utils/Context.sol\":735:745  msg.sender */\n      caller\n        /* \"@openzeppelin/contracts/utils/Context.sol\":728:745  return msg.sender */\n      swap1\n      pop\n        /* \"@openzeppelin/contracts/utils/Context.sol\":656:752  function _msgSender() internal view virtual returns (address) {... */\n      swap1\n      jump\t// out\n        /* \"@openzeppelin/contracts/access/AccessControl.sol\":6730:7047  function _revokeRole(bytes32 role, address account) internal virtual returns (bool) {... */\n    tag_193:\n        /* \"@openzeppelin/contracts/access/AccessControl.sol\":6808:6812  bool */\n      0x00\n        /* \"@openzeppelin/contracts/access/AccessControl.sol\":6828:6850  hasRole(role, account) */\n      tag_379\n        /* \"@openzeppelin/contracts/access/AccessControl.sol\":6836:6840  role */\n      dup4\n        /* \"@openzeppelin/contracts/access/AccessControl.sol\":6842:6849  account */\n      dup4\n        /* \"@openzeppelin/contracts/access/AccessControl.sol\":6828:6835  hasRole */\n      tag_127\n        /* \"@openzeppelin/contracts/access/AccessControl.sol\":6828:6850  hasRole(role, account) */\n      jump\t// in\n    tag_379:\n        /* \"@openzeppelin/contracts/access/AccessControl.sol\":6824:7041  if (hasRole(role, account)) {... */\n      iszero\n      tag_380\n      jumpi\n        /* \"@openzeppelin/contracts/access/AccessControl.sol\":6898:6903  false */\n      0x00\n        /* \"@openzeppelin/contracts/access/AccessControl.sol\":6866:6872  _roles */\n      0x01\n        /* \"@openzeppelin/contracts/access/AccessControl.sol\":6866:6878  _roles[role] */\n      0x00\n        /* \"@openzeppelin/contracts/access/AccessControl.sol\":6873:6877  role */\n      dup6\n        /* \"@openzeppelin/contracts/access/AccessControl.sol\":6866:6878  _roles[role] */\n      dup2\n      mstore\n      0x20\n      add\n      swap1\n      dup2\n      mstore\n      0x20\n      add\n      0x00\n      keccak256\n        /* \"@openzeppelin/contracts/access/AccessControl.sol\":6866:6886  _roles[role].hasRole */\n      0x00\n      add\n        /* \"@openzeppelin/contracts/access/AccessControl.sol\":6866:6895  _roles[role].hasRole[account] */\n      0x00\n        /* \"@openzeppelin/contracts/access/AccessControl.sol\":6887:6894  account */\n      dup5\n        /* \"@openzeppelin/contracts/access/AccessControl.sol\":6866:6895  _roles[role].hasRole[account] */\n      0xffffffffffffffffffffffffffffffffffffffff\n      and\n      0xffffffffffffffffffffffffffffffffffffffff\n      and\n      dup2\n      mstore\n      0x20\n      add\n      swap1\n      dup2\n      mstore\n      0x20\n      add\n      0x00\n      keccak256\n      0x00\n        /* \"@openzeppelin/contracts/access/AccessControl.sol\":6866:6903  _roles[role].hasRole[account] = false */\n      0x0100\n      exp\n      dup2\n      sload\n      dup2\n      0xff\n      mul\n      not\n      and\n      swap1\n      dup4\n      iszero\n      iszero\n      mul\n      or\n      swap1\n      sstore\n      pop\n        /* \"@openzeppelin/contracts/access/AccessControl.sol\":6949:6961  _msgSender() */\n      tag_381\n        /* \"@openzeppelin/contracts/access/AccessControl.sol\":6949:6959  _msgSender */\n      tag_190\n        /* \"@openzeppelin/contracts/access/AccessControl.sol\":6949:6961  _msgSender() */\n      jump\t// in\n    tag_381:\n        /* \"@openzeppelin/contracts/access/AccessControl.sol\":6922:6962  RoleRevoked(role, account, _msgSender()) */\n      0xffffffffffffffffffffffffffffffffffffffff\n      and\n        /* \"@openzeppelin/contracts/access/AccessControl.sol\":6940:6947  account */\n      dup3\n        /* \"@openzeppelin/contracts/access/AccessControl.sol\":6922:6962  RoleRevoked(role, account, _msgSender()) */\n      0xffffffffffffffffffffffffffffffffffffffff\n      and\n        /* \"@openzeppelin/contracts/access/AccessControl.sol\":6934:6938  role */\n      dup5\n        /* \"@openzeppelin/contracts/access/AccessControl.sol\":6922:6962  RoleRevoked(role, account, _msgSender()) */\n      0xf6391f5c32d9c69d2a47ea670b442974b53935d1edc7fd64eb21e047a839171b\n      mload(0x40)\n      mload(0x40)\n      dup1\n      swap2\n      sub\n      swap1\n      log4\n        /* \"@openzeppelin/contracts/access/AccessControl.sol\":6983:6987  true */\n      0x01\n        /* \"@openzeppelin/contracts/access/AccessControl.sol\":6976:6987  return true */\n      swap1\n      pop\n      jump(tag_378)\n        /* \"@openzeppelin/contracts/access/AccessControl.sol\":6824:7041  if (hasRole(role, account)) {... */\n    tag_380:\n        /* \"@openzeppelin/contracts/access/AccessControl.sol\":7025:7030  false */\n      0x00\n        /* \"@openzeppelin/contracts/access/AccessControl.sol\":7018:7030  return false */\n      swap1\n      pop\n        /* \"@openzeppelin/contracts/access/AccessControl.sol\":6730:7047  function _revokeRole(bytes32 role, address account) internal virtual returns (bool) {... */\n    tag_378:\n      swap3\n      swap2\n      pop\n      pop\n      jump\t// out\n        /* \"@openzeppelin/contracts/security/ReentrancyGuard.sol\":2336:2623  function _nonReentrantBefore() private {... */\n    tag_267:\n        /* \"@openzeppelin/contracts/security/ReentrancyGuard.sol\":1759:1760  2 */\n      0x02\n        /* \"@openzeppelin/contracts/security/ReentrancyGuard.sol\":2468:2475  _status */\n      sload(0x00)\n        /* \"@openzeppelin/contracts/security/ReentrancyGuard.sol\":2468:2487  _status != _ENTERED */\n      sub\n        /* \"@openzeppelin/contracts/security/ReentrancyGuard.sol\":2460:2523  require(_status != _ENTERED, \"ReentrancyGuard: reentrant call\") */\n      tag_384\n      jumpi\n      mload(0x40)\n      0x08c379a000000000000000000000000000000000000000000000000000000000\n      dup2\n      mstore\n      0x04\n      add\n      tag_385\n      swap1\n      tag_386\n      jump\t// in\n    tag_385:\n      mload(0x40)\n      dup1\n      swap2\n      sub\n      swap1\n      revert\n    tag_384:\n        /* \"@openzeppelin/contracts/security/ReentrancyGuard.sol\":1759:1760  2 */\n      0x02\n        /* \"@openzeppelin/contracts/security/ReentrancyGuard.sol\":2598:2605  _status */\n      0x00\n        /* \"@openzeppelin/contracts/security/ReentrancyGuard.sol\":2598:2616  _status = _ENTERED */\n      dup2\n      swap1\n      sstore\n      pop\n        /* \"@openzeppelin/contracts/security/ReentrancyGuard.sol\":2336:2623  function _nonReentrantBefore() private {... */\n      jump\t// out\n        /* \"@openzeppelin/contracts/security/ReentrancyGuard.sol\":2629:2838  function _nonReentrantAfter() private {... */\n    tag_306:\n        /* \"@openzeppelin/contracts/security/ReentrancyGuard.sol\":1716:1717  1 */\n      0x01\n        /* \"@openzeppelin/contracts/security/ReentrancyGuard.sol\":2809:2816  _status */\n      0x00\n        /* \"@openzeppelin/contracts/security/ReentrancyGuard.sol\":2809:2831  _status = _NOT_ENTERED */\n      dup2\n      swap1\n      sstore\n      pop\n        /* \"@openzeppelin/contracts/security/ReentrancyGuard.sol\":2629:2838  function _nonReentrantAfter() private {... */\n      jump\t// out\n        /* \"@openzeppelin/contracts/access/AccessControl.sol\":3432:3629  function _checkRole(bytes32 role, address account) internal view virtual {... */\n    tag_371:\n        /* \"@openzeppelin/contracts/access/AccessControl.sol\":3520:3542  hasRole(role, account) */\n      tag_389\n        /* \"@openzeppelin/contracts/access/AccessControl.sol\":3528:3532  role */\n      dup3\n        /* \"@openzeppelin/contracts/access/AccessControl.sol\":3534:3541  account */\n      dup3\n        /* \"@openzeppelin/contracts/access/AccessControl.sol\":3520:3527  hasRole */\n      tag_127\n        /* \"@openzeppelin/contracts/access/AccessControl.sol\":3520:3542  hasRole(role, account) */\n      jump\t// in\n    tag_389:\n        /* \"@openzeppelin/contracts/access/AccessControl.sol\":3515:3623  if (!hasRole(role, account)) {... */\n      tag_390\n      jumpi\n        /* \"@openzeppelin/contracts/access/AccessControl.sol\":3598:3605  account */\n      dup1\n        /* \"@openzeppelin/contracts/access/AccessControl.sol\":3607:3611  role */\n      dup3\n        /* \"@openzeppelin/contracts/access/AccessControl.sol\":3565:3612  AccessControlUnauthorizedAccount(account, role) */\n      mload(0x40)\n      0xe2517d3f00000000000000000000000000000000000000000000000000000000\n      dup2\n      mstore\n      0x04\n      add\n      tag_391\n      swap3\n      swap2\n      swap1\n      tag_392\n      jump\t// in\n    tag_391:\n      mload(0x40)\n      dup1\n      swap2\n      sub\n      swap1\n      revert\n        /* \"@openzeppelin/contracts/access/AccessControl.sol\":3515:3623  if (!hasRole(role, account)) {... */\n    tag_390:\n        /* \"@openzeppelin/contracts/access/AccessControl.sol\":3432:3629  function _checkRole(bytes32 role, address account) internal view virtual {... */\n      pop\n      pop\n      jump\t// out\n        /* \"#utility.yul\":88:205   */\n    tag_394:\n        /* \"#utility.yul\":197:198   */\n      0x00\n        /* \"#utility.yul\":194:195   */\n      0x00\n        /* \"#utility.yul\":187:199   */\n      revert\n        /* \"#utility.yul\":334:411   */\n    tag_396:\n        /* \"#utility.yul\":371:378   */\n      0x00\n        /* \"#utility.yul\":400:405   */\n      dup2\n        /* \"#utility.yul\":389:405   */\n      swap1\n      pop\n        /* \"#utility.yul\":334:411   */\n      swap2\n      swap1\n      pop\n      jump\t// out\n        /* \"#utility.yul\":417:539   */\n    tag_397:\n        /* \"#utility.yul\":490:514   */\n      tag_476\n        /* \"#utility.yul\":508:513   */\n      dup2\n        /* \"#utility.yul\":490:514   */\n      tag_396\n      jump\t// in\n    tag_476:\n        /* \"#utility.yul\":483:488   */\n      dup2\n        /* \"#utility.yul\":480:515   */\n      eq\n        /* \"#utility.yul\":470:533   */\n      tag_477\n      jumpi\n        /* \"#utility.yul\":529:530   */\n      0x00\n        /* \"#utility.yul\":526:527   */\n      0x00\n        /* \"#utility.yul\":519:531   */\n      revert\n        /* \"#utility.yul\":470:533   */\n    tag_477:\n        /* \"#utility.yul\":417:539   */\n      pop\n      jump\t// out\n        /* \"#utility.yul\":545:684   */\n    tag_398:\n        /* \"#utility.yul\":591:596   */\n      0x00\n        /* \"#utility.yul\":629:635   */\n      dup2\n        /* \"#utility.yul\":616:636   */\n      calldataload\n        /* \"#utility.yul\":607:636   */\n      swap1\n      pop\n        /* \"#utility.yul\":645:678   */\n      tag_479\n        /* \"#utility.yul\":672:677   */\n      dup2\n        /* \"#utility.yul\":645:678   */\n      tag_397\n      jump\t// in\n    tag_479:\n        /* \"#utility.yul\":545:684   */\n      swap3\n      swap2\n      pop\n      pop\n      jump\t// out\n        /* \"#utility.yul\":690:1019   */\n    tag_45:\n        /* \"#utility.yul\":749:755   */\n      0x00\n        /* \"#utility.yul\":798:800   */\n      0x20\n        /* \"#utility.yul\":786:795   */\n      dup3\n        /* \"#utility.yul\":777:784   */\n      dup5\n        /* \"#utility.yul\":773:796   */\n      sub\n        /* \"#utility.yul\":769:801   */\n      slt\n        /* \"#utility.yul\":766:885   */\n      iszero\n      tag_481\n      jumpi\n        /* \"#utility.yul\":804:883   */\n      tag_482\n      tag_394\n      jump\t// in\n    tag_482:\n        /* \"#utility.yul\":766:885   */\n    tag_481:\n        /* \"#utility.yul\":924:925   */\n      0x00\n        /* \"#utility.yul\":949:1002   */\n      tag_483\n        /* \"#utility.yul\":994:1001   */\n      dup5\n        /* \"#utility.yul\":985:991   */\n      dup3\n        /* \"#utility.yul\":974:983   */\n      dup6\n        /* \"#utility.yul\":970:992   */\n      add\n        /* \"#utility.yul\":949:1002   */\n      tag_398\n      jump\t// in\n    tag_483:\n        /* \"#utility.yul\":939:1002   */\n      swap2\n      pop\n        /* \"#utility.yul\":895:1012   */\n      pop\n        /* \"#utility.yul\":690:1019   */\n      swap3\n      swap2\n      pop\n      pop\n      jump\t// out\n        /* \"#utility.yul\":1025:1499   */\n    tag_49:\n        /* \"#utility.yul\":1093:1099   */\n      0x00\n        /* \"#utility.yul\":1101:1107   */\n      0x00\n        /* \"#utility.yul\":1150:1152   */\n      0x40\n        /* \"#utility.yul\":1138:1147   */\n      dup4\n        /* \"#utility.yul\":1129:1136   */\n      dup6\n        /* \"#utility.yul\":1125:1148   */\n      sub\n        /* \"#utility.yul\":1121:1153   */\n      slt\n        /* \"#utility.yul\":1118:1237   */\n      iszero\n      tag_485\n      jumpi\n        /* \"#utility.yul\":1156:1235   */\n      tag_486\n      tag_394\n      jump\t// in\n    tag_486:\n        /* \"#utility.yul\":1118:1237   */\n    tag_485:\n        /* \"#utility.yul\":1276:1277   */\n      0x00\n        /* \"#utility.yul\":1301:1354   */\n      tag_487\n        /* \"#utility.yul\":1346:1353   */\n      dup6\n        /* \"#utility.yul\":1337:1343   */\n      dup3\n        /* \"#utility.yul\":1326:1335   */\n      dup7\n        /* \"#utility.yul\":1322:1344   */\n      add\n        /* \"#utility.yul\":1301:1354   */\n      tag_398\n      jump\t// in\n    tag_487:\n        /* \"#utility.yul\":1291:1354   */\n      swap3\n      pop\n        /* \"#utility.yul\":1247:1364   */\n      pop\n        /* \"#utility.yul\":1403:1405   */\n      0x20\n        /* \"#utility.yul\":1429:1482   */\n      tag_488\n        /* \"#utility.yul\":1474:1481   */\n      dup6\n        /* \"#utility.yul\":1465:1471   */\n      dup3\n        /* \"#utility.yul\":1454:1463   */\n      dup7\n        /* \"#utility.yul\":1450:1472   */\n      add\n        /* \"#utility.yul\":1429:1482   */\n      tag_398\n      jump\t// in\n    tag_488:\n        /* \"#utility.yul\":1419:1482   */\n      swap2\n      pop\n        /* \"#utility.yul\":1374:1492   */\n      pop\n        /* \"#utility.yul\":1025:1499   */\n      swap3\n      pop\n      swap3\n      swap1\n      pop\n      jump\t// out\n        /* \"#utility.yul\":1505:1623   */\n    tag_399:\n        /* \"#utility.yul\":1592:1616   */\n      tag_490\n        /* \"#utility.yul\":1610:1615   */\n      dup2\n        /* \"#utility.yul\":1592:1616   */\n      tag_396\n      jump\t// in\n    tag_490:\n        /* \"#utility.yul\":1587:1590   */\n      dup3\n        /* \"#utility.yul\":1580:1617   */\n      mstore\n        /* \"#utility.yul\":1505:1623   */\n      pop\n      pop\n      jump\t// out\n        /* \"#utility.yul\":1629:1851   */\n    tag_52:\n        /* \"#utility.yul\":1722:1726   */\n      0x00\n        /* \"#utility.yul\":1760:1762   */\n      0x20\n        /* \"#utility.yul\":1749:1758   */\n      dup3\n        /* \"#utility.yul\":1745:1763   */\n      add\n        /* \"#utility.yul\":1737:1763   */\n      swap1\n      pop\n        /* \"#utility.yul\":1773:1844   */\n      tag_492\n        /* \"#utility.yul\":1841:1842   */\n      0x00\n        /* \"#utility.yul\":1830:1839   */\n      dup4\n        /* \"#utility.yul\":1826:1843   */\n      add\n        /* \"#utility.yul\":1817:1823   */\n      dup5\n        /* \"#utility.yul\":1773:1844   */\n      tag_399\n      jump\t// in\n    tag_492:\n        /* \"#utility.yul\":1629:1851   */\n      swap3\n      swap2\n      pop\n      pop\n      jump\t// out\n        /* \"#utility.yul\":1857:2006   */\n    tag_400:\n        /* \"#utility.yul\":1893:1900   */\n      0x00\n        /* \"#utility.yul\":1933:1999   */\n      0xffffffff00000000000000000000000000000000000000000000000000000000\n        /* \"#utility.yul\":1926:1931   */\n      dup3\n        /* \"#utility.yul\":1922:2000   */\n      and\n        /* \"#utility.yul\":1911:2000   */\n      swap1\n      pop\n        /* \"#utility.yul\":1857:2006   */\n      swap2\n      swap1\n      pop\n      jump\t// out\n        /* \"#utility.yul\":2012:2132   */\n    tag_401:\n        /* \"#utility.yul\":2084:2107   */\n      tag_495\n        /* \"#utility.yul\":2101:2106   */\n      dup2\n        /* \"#utility.yul\":2084:2107   */\n      tag_400\n      jump\t// in\n    tag_495:\n        /* \"#utility.yul\":2077:2082   */\n      dup2\n        /* \"#utility.yul\":2074:2108   */\n      eq\n        /* \"#utility.yul\":2064:2126   */\n      tag_496\n      jumpi\n        /* \"#utility.yul\":2122:2123   */\n      0x00\n        /* \"#utility.yul\":2119:2120   */\n      0x00\n        /* \"#utility.yul\":2112:2124   */\n      revert\n        /* \"#utility.yul\":2064:2126   */\n    tag_496:\n        /* \"#utility.yul\":2012:2132   */\n      pop\n      jump\t// out\n        /* \"#utility.yul\":2138:2275   */\n    tag_402:\n        /* \"#utility.yul\":2183:2188   */\n      0x00\n        /* \"#utility.yul\":2221:2227   */\n      dup2\n        /* \"#utility.yul\":2208:2228   */\n      calldataload\n        /* \"#utility.yul\":2199:2228   */\n      swap1\n      pop\n        /* \"#utility.yul\":2237:2269   */\n      tag_498\n        /* \"#utility.yul\":2263:2268   */\n      dup2\n        /* \"#utility.yul\":2237:2269   */\n      tag_401\n      jump\t// in\n    tag_498:\n        /* \"#utility.yul\":2138:2275   */\n      swap3\n      swap2\n      pop\n      pop\n      jump\t// out\n        /* \"#utility.yul\":2281:2608   */\n    tag_55:\n        /* \"#utility.yul\":2339:2345   */\n      0x00\n        /* \"#utility.yul\":2388:2390   */\n      0x20\n        /* \"#utility.yul\":2376:2385   */\n      dup3\n        /* \"#utility.yul\":2367:2374   */\n      dup5\n        /* \"#utility.yul\":2363:2386   */\n      sub\n        /* \"#utility.yul\":2359:2391   */\n      slt\n        /* \"#utility.yul\":2356:2475   */\n      iszero\n      tag_500\n      jumpi\n        /* \"#utility.yul\":2394:2473   */\n      tag_501\n      tag_394\n      jump\t// in\n    tag_501:\n        /* \"#utility.yul\":2356:2475   */\n    tag_500:\n        /* \"#utility.yul\":2514:2515   */\n      0x00\n        /* \"#utility.yul\":2539:2591   */\n      tag_502\n        /* \"#utility.yul\":2583:2590   */\n      dup5\n        /* \"#utility.yul\":2574:2580   */\n      dup3\n        /* \"#utility.yul\":2563:2572   */\n      dup6\n        /* \"#utility.yul\":2559:2581   */\n      add\n        /* \"#utility.yul\":2539:2591   */\n      tag_402\n      jump\t// in\n    tag_502:\n        /* \"#utility.yul\":2529:2591   */\n      swap2\n      pop\n        /* \"#utility.yul\":2485:2601   */\n      pop\n        /* \"#utility.yul\":2281:2608   */\n      swap3\n      swap2\n      pop\n      pop\n      jump\t// out\n        /* \"#utility.yul\":2614:2704   */\n    tag_403:\n        /* \"#utility.yul\":2648:2655   */\n      0x00\n        /* \"#utility.yul\":2691:2696   */\n      dup2\n        /* \"#utility.yul\":2684:2697   */\n      iszero\n        /* \"#utility.yul\":2677:2698   */\n      iszero\n        /* \"#utility.yul\":2666:2698   */\n      swap1\n      pop\n        /* \"#utility.yul\":2614:2704   */\n      swap2\n      swap1\n      pop\n      jump\t// out\n        /* \"#utility.yul\":2710:2819   */\n    tag_404:\n        /* \"#utility.yul\":2791:2812   */\n      tag_505\n        /* \"#utility.yul\":2806:2811   */\n      dup2\n        /* \"#utility.yul\":2791:2812   */\n      tag_403\n      jump\t// in\n    tag_505:\n        /* \"#utility.yul\":2786:2789   */\n      dup3\n        /* \"#utility.yul\":2779:2813   */\n      mstore\n        /* \"#utility.yul\":2710:2819   */\n      pop\n      pop\n      jump\t// out\n        /* \"#utility.yul\":2825:3035   */\n    tag_58:\n        /* \"#utility.yul\":2912:2916   */\n      0x00\n        /* \"#utility.yul\":2950:2952   */\n      0x20\n        /* \"#utility.yul\":2939:2948   */\n      dup3\n        /* \"#utility.yul\":2935:2953   */\n      add\n        /* \"#utility.yul\":2927:2953   */\n      swap1\n      pop\n        /* \"#utility.yul\":2963:3028   */\n      tag_507\n        /* \"#utility.yul\":3025:3026   */\n      0x00\n        /* \"#utility.yul\":3014:3023   */\n      dup4\n        /* \"#utility.yul\":3010:3027   */\n      add\n        /* \"#utility.yul\":3001:3007   */\n      dup5\n        /* \"#utility.yul\":2963:3028   */\n      tag_404\n      jump\t// in\n    tag_507:\n        /* \"#utility.yul\":2825:3035   */\n      swap3\n      swap2\n      pop\n      pop\n      jump\t// out\n        /* \"#utility.yul\":3041:3118   */\n    tag_405:\n        /* \"#utility.yul\":3078:3085   */\n      0x00\n        /* \"#utility.yul\":3107:3112   */\n      dup2\n        /* \"#utility.yul\":3096:3112   */\n      swap1\n      pop\n        /* \"#utility.yul\":3041:3118   */\n      swap2\n      swap1\n      pop\n      jump\t// out\n        /* \"#utility.yul\":3124:3242   */\n    tag_406:\n        /* \"#utility.yul\":3211:3235   */\n      tag_510\n        /* \"#utility.yul\":3229:3234   */\n      dup2\n        /* \"#utility.yul\":3211:3235   */\n      tag_405\n      jump\t// in\n    tag_510:\n        /* \"#utility.yul\":3206:3209   */\n      dup3\n        /* \"#utility.yul\":3199:3236   */\n      mstore\n        /* \"#utility.yul\":3124:3242   */\n      pop\n      pop\n      jump\t// out\n        /* \"#utility.yul\":3248:3470   */\n    tag_62:\n        /* \"#utility.yul\":3341:3345   */\n      0x00\n        /* \"#utility.yul\":3379:3381   */\n      0x20\n        /* \"#utility.yul\":3368:3377   */\n      dup3\n        /* \"#utility.yul\":3364:3382   */\n      add\n        /* \"#utility.yul\":3356:3382   */\n      swap1\n      pop\n        /* \"#utility.yul\":3392:3463   */\n      tag_512\n        /* \"#utility.yul\":3460:3461   */\n      0x00\n        /* \"#utility.yul\":3449:3458   */\n      dup4\n        /* \"#utility.yul\":3445:3462   */\n      add\n        /* \"#utility.yul\":3436:3442   */\n      dup5\n        /* \"#utility.yul\":3392:3463   */\n      tag_406\n      jump\t// in\n    tag_512:\n        /* \"#utility.yul\":3248:3470   */\n      swap3\n      swap2\n      pop\n      pop\n      jump\t// out\n        /* \"#utility.yul\":3476:3598   */\n    tag_407:\n        /* \"#utility.yul\":3549:3573   */\n      tag_514\n        /* \"#utility.yul\":3567:3572   */\n      dup2\n        /* \"#utility.yul\":3549:3573   */\n      tag_405\n      jump\t// in\n    tag_514:\n        /* \"#utility.yul\":3542:3547   */\n      dup2\n        /* \"#utility.yul\":3539:3574   */\n      eq\n        /* \"#utility.yul\":3529:3592   */\n      tag_515\n      jumpi\n        /* \"#utility.yul\":3588:3589   */\n      0x00\n        /* \"#utility.yul\":3585:3586   */\n      0x00\n        /* \"#utility.yul\":3578:3590   */\n      revert\n        /* \"#utility.yul\":3529:3592   */\n    tag_515:\n        /* \"#utility.yul\":3476:3598   */\n      pop\n      jump\t// out\n        /* \"#utility.yul\":3604:3743   */\n    tag_408:\n        /* \"#utility.yul\":3650:3655   */\n      0x00\n        /* \"#utility.yul\":3688:3694   */\n      dup2\n        /* \"#utility.yul\":3675:3695   */\n      calldataload\n        /* \"#utility.yul\":3666:3695   */\n      swap1\n      pop\n        /* \"#utility.yul\":3704:3737   */\n      tag_517\n        /* \"#utility.yul\":3731:3736   */\n      dup2\n        /* \"#utility.yul\":3704:3737   */\n      tag_407\n      jump\t// in\n    tag_517:\n        /* \"#utility.yul\":3604:3743   */\n      swap3\n      swap2\n      pop\n      pop\n      jump\t// out\n        /* \"#utility.yul\":3749:4078   */\n    tag_65:\n        /* \"#utility.yul\":3808:3814   */\n      0x00\n        /* \"#utility.yul\":3857:3859   */\n      0x20\n        /* \"#utility.yul\":3845:3854   */\n      dup3\n        /* \"#utility.yul\":3836:3843   */\n      dup5\n        /* \"#utility.yul\":3832:3855   */\n      sub\n        /* \"#utility.yul\":3828:3860   */\n      slt\n        /* \"#utility.yul\":3825:3944   */\n      iszero\n      tag_519\n      jumpi\n        /* \"#utility.yul\":3863:3942   */\n      tag_520\n      tag_394\n      jump\t// in\n    tag_520:\n        /* \"#utility.yul\":3825:3944   */\n    tag_519:\n        /* \"#utility.yul\":3983:3984   */\n      0x00\n        /* \"#utility.yul\":4008:4061   */\n      tag_521\n        /* \"#utility.yul\":4053:4060   */\n      dup5\n        /* \"#utility.yul\":4044:4050   */\n      dup3\n        /* \"#utility.yul\":4033:4042   */\n      dup6\n        /* \"#utility.yul\":4029:4051   */\n      add\n        /* \"#utility.yul\":4008:4061   */\n      tag_408\n      jump\t// in\n    tag_521:\n        /* \"#utility.yul\":3998:4061   */\n      swap2\n      pop\n        /* \"#utility.yul\":3954:4071   */\n      pop\n        /* \"#utility.yul\":3749:4078   */\n      swap3\n      swap2\n      pop\n      pop\n      jump\t// out\n        /* \"#utility.yul\":4084:4210   */\n    tag_409:\n        /* \"#utility.yul\":4121:4128   */\n      0x00\n        /* \"#utility.yul\":4161:4203   */\n      0xffffffffffffffffffffffffffffffffffffffff\n        /* \"#utility.yul\":4154:4159   */\n      dup3\n        /* \"#utility.yul\":4150:4204   */\n      and\n        /* \"#utility.yul\":4139:4204   */\n      swap1\n      pop\n        /* \"#utility.yul\":4084:4210   */\n      swap2\n      swap1\n      pop\n      jump\t// out\n        /* \"#utility.yul\":4216:4312   */\n    tag_410:\n        /* \"#utility.yul\":4253:4260   */\n      0x00\n        /* \"#utility.yul\":4282:4306   */\n      tag_524\n        /* \"#utility.yul\":4300:4305   */\n      dup3\n        /* \"#utility.yul\":4282:4306   */\n      tag_409\n      jump\t// in\n    tag_524:\n        /* \"#utility.yul\":4271:4306   */\n      swap1\n      pop\n        /* \"#utility.yul\":4216:4312   */\n      swap2\n      swap1\n      pop\n      jump\t// out\n        /* \"#utility.yul\":4318:4440   */\n    tag_411:\n        /* \"#utility.yul\":4391:4415   */\n      tag_526\n        /* \"#utility.yul\":4409:4414   */\n      dup2\n        /* \"#utility.yul\":4391:4415   */\n      tag_410\n      jump\t// in\n    tag_526:\n        /* \"#utility.yul\":4384:4389   */\n      dup2\n        /* \"#utility.yul\":4381:4416   */\n      eq\n        /* \"#utility.yul\":4371:4434   */\n      tag_527\n      jumpi\n        /* \"#utility.yul\":4430:4431   */\n      0x00\n        /* \"#utility.yul\":4427:4428   */\n      0x00\n        /* \"#utility.yul\":4420:4432   */\n      revert\n        /* \"#utility.yul\":4371:4434   */\n    tag_527:\n        /* \"#utility.yul\":4318:4440   */\n      pop\n      jump\t// out\n        /* \"#utility.yul\":4446:4585   */\n    tag_412:\n        /* \"#utility.yul\":4492:4497   */\n      0x00\n        /* \"#utility.yul\":4530:4536   */\n      dup2\n        /* \"#utility.yul\":4517:4537   */\n      calldataload\n        /* \"#utility.yul\":4508:4537   */\n      swap1\n      pop\n        /* \"#utility.yul\":4546:4579   */\n      tag_529\n        /* \"#utility.yul\":4573:4578   */\n      dup2\n        /* \"#utility.yul\":4546:4579   */\n      tag_411\n      jump\t// in\n    tag_529:\n        /* \"#utility.yul\":4446:4585   */\n      swap3\n      swap2\n      pop\n      pop\n      jump\t// out\n        /* \"#utility.yul\":4591:5065   */\n    tag_70:\n        /* \"#utility.yul\":4659:4665   */\n      0x00\n        /* \"#utility.yul\":4667:4673   */\n      0x00\n        /* \"#utility.yul\":4716:4718   */\n      0x40\n        /* \"#utility.yul\":4704:4713   */\n      dup4\n        /* \"#utility.yul\":4695:4702   */\n      dup6\n        /* \"#utility.yul\":4691:4714   */\n      sub\n        /* \"#utility.yul\":4687:4719   */\n      slt\n        /* \"#utility.yul\":4684:4803   */\n      iszero\n      tag_531\n      jumpi\n        /* \"#utility.yul\":4722:4801   */\n      tag_532\n      tag_394\n      jump\t// in\n    tag_532:\n        /* \"#utility.yul\":4684:4803   */\n    tag_531:\n        /* \"#utility.yul\":4842:4843   */\n      0x00\n        /* \"#utility.yul\":4867:4920   */\n      tag_533\n        /* \"#utility.yul\":4912:4919   */\n      dup6\n        /* \"#utility.yul\":4903:4909   */\n      dup3\n        /* \"#utility.yul\":4892:4901   */\n      dup7\n        /* \"#utility.yul\":4888:4910   */\n      add\n        /* \"#utility.yul\":4867:4920   */\n      tag_408\n      jump\t// in\n    tag_533:\n        /* \"#utility.yul\":4857:4920   */\n      swap3\n      pop\n        /* \"#utility.yul\":4813:4930   */\n      pop\n        /* \"#utility.yul\":4969:4971   */\n      0x20\n        /* \"#utility.yul\":4995:5048   */\n      tag_534\n        /* \"#utility.yul\":5040:5047   */\n      dup6\n        /* \"#utility.yul\":5031:5037   */\n      dup3\n        /* \"#utility.yul\":5020:5029   */\n      dup7\n        /* \"#utility.yul\":5016:5038   */\n      add\n        /* \"#utility.yul\":4995:5048   */\n      tag_412\n      jump\t// in\n    tag_534:\n        /* \"#utility.yul\":4985:5048   */\n      swap2\n      pop\n        /* \"#utility.yul\":4940:5058   */\n      pop\n        /* \"#utility.yul\":4591:5065   */\n      swap3\n      pop\n      swap3\n      swap1\n      pop\n      jump\t// out\n        /* \"#utility.yul\":5071:5400   */\n    tag_77:\n        /* \"#utility.yul\":5130:5136   */\n      0x00\n        /* \"#utility.yul\":5179:5181   */\n      0x20\n        /* \"#utility.yul\":5167:5176   */\n      dup3\n        /* \"#utility.yul\":5158:5165   */\n      dup5\n        /* \"#utility.yul\":5154:5177   */\n      sub\n        /* \"#utility.yul\":5150:5182   */\n      slt\n        /* \"#utility.yul\":5147:5266   */\n      iszero\n      tag_536\n      jumpi\n        /* \"#utility.yul\":5185:5264   */\n      tag_537\n      tag_394\n      jump\t// in\n    tag_537:\n        /* \"#utility.yul\":5147:5266   */\n    tag_536:\n        /* \"#utility.yul\":5305:5306   */\n      0x00\n        /* \"#utility.yul\":5330:5383   */\n      tag_538\n        /* \"#utility.yul\":5375:5382   */\n      dup5\n        /* \"#utility.yul\":5366:5372   */\n      dup3\n        /* \"#utility.yul\":5355:5364   */\n      dup6\n        /* \"#utility.yul\":5351:5373   */\n      add\n        /* \"#utility.yul\":5330:5383   */\n      tag_412\n      jump\t// in\n    tag_538:\n        /* \"#utility.yul\":5320:5383   */\n      swap2\n      pop\n        /* \"#utility.yul\":5276:5393   */\n      pop\n        /* \"#utility.yul\":5071:5400   */\n      swap3\n      swap2\n      pop\n      pop\n      jump\t// out\n        /* \"#utility.yul\":5406:5466   */\n    tag_413:\n        /* \"#utility.yul\":5434:5437   */\n      0x00\n        /* \"#utility.yul\":5455:5460   */\n      dup2\n        /* \"#utility.yul\":5448:5460   */\n      swap1\n      pop\n        /* \"#utility.yul\":5406:5466   */\n      swap2\n      swap1\n      pop\n      jump\t// out\n        /* \"#utility.yul\":5472:5614   */\n    tag_414:\n        /* \"#utility.yul\":5522:5531   */\n      0x00\n        /* \"#utility.yul\":5555:5608   */\n      tag_541\n        /* \"#utility.yul\":5573:5607   */\n      tag_542\n        /* \"#utility.yul\":5582:5606   */\n      tag_543\n        /* \"#utility.yul\":5600:5605   */\n      dup5\n        /* \"#utility.yul\":5582:5606   */\n      tag_409\n      jump\t// in\n    tag_543:\n        /* \"#utility.yul\":5573:5607   */\n      tag_413\n      jump\t// in\n    tag_542:\n        /* \"#utility.yul\":5555:5608   */\n      tag_409\n      jump\t// in\n    tag_541:\n        /* \"#utility.yul\":5542:5608   */\n      swap1\n      pop\n        /* \"#utility.yul\":5472:5614   */\n      swap2\n      swap1\n      pop\n      jump\t// out\n        /* \"#utility.yul\":5620:5746   */\n    tag_415:\n        /* \"#utility.yul\":5670:5679   */\n      0x00\n        /* \"#utility.yul\":5703:5740   */\n      tag_545\n        /* \"#utility.yul\":5734:5739   */\n      dup3\n        /* \"#utility.yul\":5703:5740   */\n      tag_414\n      jump\t// in\n    tag_545:\n        /* \"#utility.yul\":5690:5740   */\n      swap1\n      pop\n        /* \"#utility.yul\":5620:5746   */\n      swap2\n      swap1\n      pop\n      jump\t// out\n        /* \"#utility.yul\":5752:5892   */\n    tag_416:\n        /* \"#utility.yul\":5816:5825   */\n      0x00\n        /* \"#utility.yul\":5849:5886   */\n      tag_547\n        /* \"#utility.yul\":5880:5885   */\n      dup3\n        /* \"#utility.yul\":5849:5886   */\n      tag_415\n      jump\t// in\n    tag_547:\n        /* \"#utility.yul\":5836:5886   */\n      swap1\n      pop\n        /* \"#utility.yul\":5752:5892   */\n      swap2\n      swap1\n      pop\n      jump\t// out\n        /* \"#utility.yul\":5898:6057   */\n    tag_417:\n        /* \"#utility.yul\":5999:6050   */\n      tag_549\n        /* \"#utility.yul\":6044:6049   */\n      dup2\n        /* \"#utility.yul\":5999:6050   */\n      tag_416\n      jump\t// in\n    tag_549:\n        /* \"#utility.yul\":5994:5997   */\n      dup3\n        /* \"#utility.yul\":5987:6051   */\n      mstore\n        /* \"#utility.yul\":5898:6057   */\n      pop\n      pop\n      jump\t// out\n        /* \"#utility.yul\":6063:6313   */\n    tag_83:\n        /* \"#utility.yul\":6170:6174   */\n      0x00\n        /* \"#utility.yul\":6208:6210   */\n      0x20\n        /* \"#utility.yul\":6197:6206   */\n      dup3\n        /* \"#utility.yul\":6193:6211   */\n      add\n        /* \"#utility.yul\":6185:6211   */\n      swap1\n      pop\n        /* \"#utility.yul\":6221:6306   */\n      tag_551\n        /* \"#utility.yul\":6303:6304   */\n      0x00\n        /* \"#utility.yul\":6292:6301   */\n      dup4\n        /* \"#utility.yul\":6288:6305   */\n      add\n        /* \"#utility.yul\":6279:6285   */\n      dup5\n        /* \"#utility.yul\":6221:6306   */\n      tag_417\n      jump\t// in\n    tag_551:\n        /* \"#utility.yul\":6063:6313   */\n      swap3\n      swap2\n      pop\n      pop\n      jump\t// out\n        /* \"#utility.yul\":6319:6437   */\n    tag_418:\n        /* \"#utility.yul\":6406:6430   */\n      tag_553\n        /* \"#utility.yul\":6424:6429   */\n      dup2\n        /* \"#utility.yul\":6406:6430   */\n      tag_410\n      jump\t// in\n    tag_553:\n        /* \"#utility.yul\":6401:6404   */\n      dup3\n        /* \"#utility.yul\":6394:6431   */\n      mstore\n        /* \"#utility.yul\":6319:6437   */\n      pop\n      pop\n      jump\t// out\n        /* \"#utility.yul\":6443:6665   */\n    tag_99:\n        /* \"#utility.yul\":6536:6540   */\n      0x00\n        /* \"#utility.yul\":6574:6576   */\n      0x20\n        /* \"#utility.yul\":6563:6572   */\n      dup3\n        /* \"#utility.yul\":6559:6577   */\n      add\n        /* \"#utility.yul\":6551:6577   */\n      swap1\n      pop\n        /* \"#utility.yul\":6587:6658   */\n      tag_555\n        /* \"#utility.yul\":6655:6656   */\n      0x00\n        /* \"#utility.yul\":6644:6653   */\n      dup4\n        /* \"#utility.yul\":6640:6657   */\n      add\n        /* \"#utility.yul\":6631:6637   */\n      dup5\n        /* \"#utility.yul\":6587:6658   */\n      tag_418\n      jump\t// in\n    tag_555:\n        /* \"#utility.yul\":6443:6665   */\n      swap3\n      swap2\n      pop\n      pop\n      jump\t// out\n        /* \"#utility.yul\":6671:7003   */\n    tag_104:\n        /* \"#utility.yul\":6792:6796   */\n      0x00\n        /* \"#utility.yul\":6830:6832   */\n      0x40\n        /* \"#utility.yul\":6819:6828   */\n      dup3\n        /* \"#utility.yul\":6815:6833   */\n      add\n        /* \"#utility.yul\":6807:6833   */\n      swap1\n      pop\n        /* \"#utility.yul\":6843:6914   */\n      tag_557\n        /* \"#utility.yul\":6911:6912   */\n      0x00\n        /* \"#utility.yul\":6900:6909   */\n      dup4\n        /* \"#utility.yul\":6896:6913   */\n      add\n        /* \"#utility.yul\":6887:6893   */\n      dup6\n        /* \"#utility.yul\":6843:6914   */\n      tag_399\n      jump\t// in\n    tag_557:\n        /* \"#utility.yul\":6924:6996   */\n      tag_558\n        /* \"#utility.yul\":6992:6994   */\n      0x20\n        /* \"#utility.yul\":6981:6990   */\n      dup4\n        /* \"#utility.yul\":6977:6995   */\n      add\n        /* \"#utility.yul\":6968:6974   */\n      dup5\n        /* \"#utility.yul\":6924:6996   */\n      tag_399\n      jump\t// in\n    tag_558:\n        /* \"#utility.yul\":6671:7003   */\n      swap4\n      swap3\n      pop\n      pop\n      pop\n      jump\t// out\n        /* \"#utility.yul\":7009:7163   */\n    tag_419:\n        /* \"#utility.yul\":7087:7096   */\n      0x00\n        /* \"#utility.yul\":7120:7157   */\n      tag_560\n        /* \"#utility.yul\":7151:7156   */\n      dup3\n        /* \"#utility.yul\":7120:7157   */\n      tag_415\n      jump\t// in\n    tag_560:\n        /* \"#utility.yul\":7107:7157   */\n      swap1\n      pop\n        /* \"#utility.yul\":7009:7163   */\n      swap2\n      swap1\n      pop\n      jump\t// out\n        /* \"#utility.yul\":7169:7356   */\n    tag_420:\n        /* \"#utility.yul\":7284:7349   */\n      tag_562\n        /* \"#utility.yul\":7343:7348   */\n      dup2\n        /* \"#utility.yul\":7284:7349   */\n      tag_419\n      jump\t// in\n    tag_562:\n        /* \"#utility.yul\":7279:7282   */\n      dup3\n        /* \"#utility.yul\":7272:7350   */\n      mstore\n        /* \"#utility.yul\":7169:7356   */\n      pop\n      pop\n      jump\t// out\n        /* \"#utility.yul\":7362:7640   */\n    tag_108:\n        /* \"#utility.yul\":7483:7487   */\n      0x00\n        /* \"#utility.yul\":7521:7523   */\n      0x20\n        /* \"#utility.yul\":7510:7519   */\n      dup3\n        /* \"#utility.yul\":7506:7524   */\n      add\n        /* \"#utility.yul\":7498:7524   */\n      swap1\n      pop\n        /* \"#utility.yul\":7534:7633   */\n      tag_564\n        /* \"#utility.yul\":7630:7631   */\n      0x00\n        /* \"#utility.yul\":7619:7628   */\n      dup4\n        /* \"#utility.yul\":7615:7632   */\n      add\n        /* \"#utility.yul\":7606:7612   */\n      dup5\n        /* \"#utility.yul\":7534:7633   */\n      tag_420\n      jump\t// in\n    tag_564:\n        /* \"#utility.yul\":7362:7640   */\n      swap3\n      swap2\n      pop\n      pop\n      jump\t// out\n        /* \"#utility.yul\":7646:8120   */\n    tag_141:\n        /* \"#utility.yul\":7714:7720   */\n      0x00\n        /* \"#utility.yul\":7722:7728   */\n      0x00\n        /* \"#utility.yul\":7771:7773   */\n      0x40\n        /* \"#utility.yul\":7759:7768   */\n      dup4\n        /* \"#utility.yul\":7750:7757   */\n      dup6\n        /* \"#utility.yul\":7746:7769   */\n      sub\n        /* \"#utility.yul\":7742:7774   */\n      slt\n        /* \"#utility.yul\":7739:7858   */\n      iszero\n      tag_566\n      jumpi\n        /* \"#utility.yul\":7777:7856   */\n      tag_567\n      tag_394\n      jump\t// in\n    tag_567:\n        /* \"#utility.yul\":7739:7858   */\n    tag_566:\n        /* \"#utility.yul\":7897:7898   */\n      0x00\n        /* \"#utility.yul\":7922:7975   */\n      tag_568\n        /* \"#utility.yul\":7967:7974   */\n      dup6\n        /* \"#utility.yul\":7958:7964   */\n      dup3\n        /* \"#utility.yul\":7947:7956   */\n      dup7\n        /* \"#utility.yul\":7943:7965   */\n      add\n        /* \"#utility.yul\":7922:7975   */\n      tag_412\n      jump\t// in\n    tag_568:\n        /* \"#utility.yul\":7912:7975   */\n      swap3\n      pop\n        /* \"#utility.yul\":7868:7985   */\n      pop\n        /* \"#utility.yul\":8024:8026   */\n      0x20\n        /* \"#utility.yul\":8050:8103   */\n      tag_569\n        /* \"#utility.yul\":8095:8102   */\n      dup6\n        /* \"#utility.yul\":8086:8092   */\n      dup3\n        /* \"#utility.yul\":8075:8084   */\n      dup7\n        /* \"#utility.yul\":8071:8093   */\n      add\n        /* \"#utility.yul\":8050:8103   */\n      tag_398\n      jump\t// in\n    tag_569:\n        /* \"#utility.yul\":8040:8103   */\n      swap2\n      pop\n        /* \"#utility.yul\":7995:8113   */\n      pop\n        /* \"#utility.yul\":7646:8120   */\n      swap3\n      pop\n      swap3\n      swap1\n      pop\n      jump\t// out\n        /* \"#utility.yul\":8126:8202   */\n    tag_421:\n        /* \"#utility.yul\":8162:8169   */\n      0x00\n        /* \"#utility.yul\":8191:8196   */\n      dup2\n        /* \"#utility.yul\":8180:8196   */\n      swap1\n      pop\n        /* \"#utility.yul\":8126:8202   */\n      swap2\n      swap1\n      pop\n      jump\t// out\n        /* \"#utility.yul\":8208:8323   */\n    tag_422:\n        /* \"#utility.yul\":8293:8316   */\n      tag_572\n        /* \"#utility.yul\":8310:8315   */\n      dup2\n        /* \"#utility.yul\":8293:8316   */\n      tag_421\n      jump\t// in\n    tag_572:\n        /* \"#utility.yul\":8288:8291   */\n      dup3\n        /* \"#utility.yul\":8281:8317   */\n      mstore\n        /* \"#utility.yul\":8208:8323   */\n      pop\n      pop\n      jump\t// out\n        /* \"#utility.yul\":8329:8547   */\n    tag_160:\n        /* \"#utility.yul\":8420:8424   */\n      0x00\n        /* \"#utility.yul\":8458:8460   */\n      0x20\n        /* \"#utility.yul\":8447:8456   */\n      dup3\n        /* \"#utility.yul\":8443:8461   */\n      add\n        /* \"#utility.yul\":8435:8461   */\n      swap1\n      pop\n        /* \"#utility.yul\":8471:8540   */\n      tag_574\n        /* \"#utility.yul\":8537:8538   */\n      0x00\n        /* \"#utility.yul\":8526:8535   */\n      dup4\n        /* \"#utility.yul\":8522:8539   */\n      add\n        /* \"#utility.yul\":8513:8519   */\n      dup5\n        /* \"#utility.yul\":8471:8540   */\n      tag_422\n      jump\t// in\n    tag_574:\n        /* \"#utility.yul\":8329:8547   */\n      swap3\n      swap2\n      pop\n      pop\n      jump\t// out\n        /* \"#utility.yul\":8553:8722   */\n    tag_423:\n        /* \"#utility.yul\":8637:8648   */\n      0x00\n        /* \"#utility.yul\":8671:8677   */\n      dup3\n        /* \"#utility.yul\":8666:8669   */\n      dup3\n        /* \"#utility.yul\":8659:8678   */\n      mstore\n        /* \"#utility.yul\":8711:8715   */\n      0x20\n        /* \"#utility.yul\":8706:8709   */\n      dup3\n        /* \"#utility.yul\":8702:8716   */\n      add\n        /* \"#utility.yul\":8687:8716   */\n      swap1\n      pop\n        /* \"#utility.yul\":8553:8722   */\n      swap3\n      swap2\n      pop\n      pop\n      jump\t// out\n        /* \"#utility.yul\":8728:8887   */\n    tag_424:\n        /* \"#utility.yul\":8868:8879   */\n      0x4e6f742061646d696e0000000000000000000000000000000000000000000000\n        /* \"#utility.yul\":8864:8865   */\n      0x00\n        /* \"#utility.yul\":8856:8862   */\n      dup3\n        /* \"#utility.yul\":8852:8866   */\n      add\n        /* \"#utility.yul\":8845:8880   */\n      mstore\n        /* \"#utility.yul\":8728:8887   */\n      pop\n      jump\t// out\n        /* \"#utility.yul\":8893:9258   */\n    tag_425:\n        /* \"#utility.yul\":9035:9038   */\n      0x00\n        /* \"#utility.yul\":9056:9122   */\n      tag_578\n        /* \"#utility.yul\":9120:9121   */\n      0x09\n        /* \"#utility.yul\":9115:9118   */\n      dup4\n        /* \"#utility.yul\":9056:9122   */\n      tag_423\n      jump\t// in\n    tag_578:\n        /* \"#utility.yul\":9049:9122   */\n      swap2\n      pop\n        /* \"#utility.yul\":9131:9224   */\n      tag_579\n        /* \"#utility.yul\":9220:9223   */\n      dup3\n        /* \"#utility.yul\":9131:9224   */\n      tag_424\n      jump\t// in\n    tag_579:\n        /* \"#utility.yul\":9249:9251   */\n      0x20\n        /* \"#utility.yul\":9244:9247   */\n      dup3\n        /* \"#utility.yul\":9240:9252   */\n      add\n        /* \"#utility.yul\":9233:9252   */\n      swap1\n      pop\n        /* \"#utility.yul\":8893:9258   */\n      swap2\n      swap1\n      pop\n      jump\t// out\n        /* \"#utility.yul\":9264:9683   */\n    tag_167:\n        /* \"#utility.yul\":9430:9434   */\n      0x00\n        /* \"#utility.yul\":9468:9470   */\n      0x20\n        /* \"#utility.yul\":9457:9466   */\n      dup3\n        /* \"#utility.yul\":9453:9471   */\n      add\n        /* \"#utility.yul\":9445:9471   */\n      swap1\n      pop\n        /* \"#utility.yul\":9517:9526   */\n      dup2\n        /* \"#utility.yul\":9511:9515   */\n      dup2\n        /* \"#utility.yul\":9507:9527   */\n      sub\n        /* \"#utility.yul\":9503:9504   */\n      0x00\n        /* \"#utility.yul\":9492:9501   */\n      dup4\n        /* \"#utility.yul\":9488:9505   */\n      add\n        /* \"#utility.yul\":9481:9528   */\n      mstore\n        /* \"#utility.yul\":9545:9676   */\n      tag_581\n        /* \"#utility.yul\":9671:9675   */\n      dup2\n        /* \"#utility.yul\":9545:9676   */\n      tag_425\n      jump\t// in\n    tag_581:\n        /* \"#utility.yul\":9537:9676   */\n      swap1\n      pop\n        /* \"#utility.yul\":9264:9683   */\n      swap2\n      swap1\n      pop\n      jump\t// out\n        /* \"#utility.yul\":9689:9869   */\n    tag_426:\n        /* \"#utility.yul\":9737:9814   */\n      0x4e487b7100000000000000000000000000000000000000000000000000000000\n        /* \"#utility.yul\":9734:9735   */\n      0x00\n        /* \"#utility.yul\":9727:9815   */\n      mstore\n        /* \"#utility.yul\":9834:9838   */\n      0x11\n        /* \"#utility.yul\":9831:9832   */\n      0x04\n        /* \"#utility.yul\":9824:9839   */\n      mstore\n        /* \"#utility.yul\":9858:9862   */\n      0x24\n        /* \"#utility.yul\":9855:9856   */\n      0x00\n        /* \"#utility.yul\":9848:9863   */\n      revert\n        /* \"#utility.yul\":9875:10285   */\n    tag_172:\n        /* \"#utility.yul\":9915:9922   */\n      0x00\n        /* \"#utility.yul\":9938:9958   */\n      tag_584\n        /* \"#utility.yul\":9956:9957   */\n      dup3\n        /* \"#utility.yul\":9938:9958   */\n      tag_396\n      jump\t// in\n    tag_584:\n        /* \"#utility.yul\":9933:9958   */\n      swap2\n      pop\n        /* \"#utility.yul\":9972:9992   */\n      tag_585\n        /* \"#utility.yul\":9990:9991   */\n      dup4\n        /* \"#utility.yul\":9972:9992   */\n      tag_396\n      jump\t// in\n    tag_585:\n        /* \"#utility.yul\":9967:9992   */\n      swap3\n      pop\n        /* \"#utility.yul\":10027:10028   */\n      dup3\n        /* \"#utility.yul\":10024:10025   */\n      dup3\n        /* \"#utility.yul\":10020:10029   */\n      mul\n        /* \"#utility.yul\":10049:10079   */\n      tag_586\n        /* \"#utility.yul\":10067:10078   */\n      dup2\n        /* \"#utility.yul\":10049:10079   */\n      tag_396\n      jump\t// in\n    tag_586:\n        /* \"#utility.yul\":10038:10079   */\n      swap2\n      pop\n        /* \"#utility.yul\":10228:10229   */\n      dup3\n        /* \"#utility.yul\":10219:10226   */\n      dup3\n        /* \"#utility.yul\":10215:10230   */\n      div\n        /* \"#utility.yul\":10212:10213   */\n      dup5\n        /* \"#utility.yul\":10209:10231   */\n      eq\n        /* \"#utility.yul\":10189:10190   */\n      dup4\n        /* \"#utility.yul\":10182:10191   */\n      iszero\n        /* \"#utility.yul\":10162:10245   */\n      or\n        /* \"#utility.yul\":10139:10278   */\n      tag_587\n      jumpi\n        /* \"#utility.yul\":10258:10276   */\n      tag_588\n      tag_426\n      jump\t// in\n    tag_588:\n        /* \"#utility.yul\":10139:10278   */\n    tag_587:\n        /* \"#utility.yul\":9923:10285   */\n      pop\n        /* \"#utility.yul\":9875:10285   */\n      swap3\n      swap2\n      pop\n      pop\n      jump\t// out\n        /* \"#utility.yul\":10291:10471   */\n    tag_427:\n        /* \"#utility.yul\":10339:10416   */\n      0x4e487b7100000000000000000000000000000000000000000000000000000000\n        /* \"#utility.yul\":10336:10337   */\n      0x00\n        /* \"#utility.yul\":10329:10417   */\n      mstore\n        /* \"#utility.yul\":10436:10440   */\n      0x12\n        /* \"#utility.yul\":10433:10434   */\n      0x04\n        /* \"#utility.yul\":10426:10441   */\n      mstore\n        /* \"#utility.yul\":10460:10464   */\n      0x24\n        /* \"#utility.yul\":10457:10458   */\n      0x00\n        /* \"#utility.yul\":10450:10465   */\n      revert\n        /* \"#utility.yul\":10477:10662   */\n    tag_175:\n        /* \"#utility.yul\":10517:10518   */\n      0x00\n        /* \"#utility.yul\":10534:10554   */\n      tag_591\n        /* \"#utility.yul\":10552:10553   */\n      dup3\n        /* \"#utility.yul\":10534:10554   */\n      tag_396\n      jump\t// in\n    tag_591:\n        /* \"#utility.yul\":10529:10554   */\n      swap2\n      pop\n        /* \"#utility.yul\":10568:10588   */\n      tag_592\n        /* \"#utility.yul\":10586:10587   */\n      dup4\n        /* \"#utility.yul\":10568:10588   */\n      tag_396\n      jump\t// in\n    tag_592:\n        /* \"#utility.yul\":10563:10588   */\n      swap3\n      pop\n        /* \"#utility.yul\":10607:10608   */\n      dup3\n        /* \"#utility.yul\":10597:10632   */\n      tag_593\n      jumpi\n        /* \"#utility.yul\":10612:10630   */\n      tag_594\n      tag_427\n      jump\t// in\n    tag_594:\n        /* \"#utility.yul\":10597:10632   */\n    tag_593:\n        /* \"#utility.yul\":10654:10655   */\n      dup3\n        /* \"#utility.yul\":10651:10652   */\n      dup3\n        /* \"#utility.yul\":10647:10656   */\n      div\n        /* \"#utility.yul\":10642:10656   */\n      swap1\n      pop\n        /* \"#utility.yul\":10477:10662   */\n      swap3\n      swap2\n      pop\n      pop\n      jump\t// out\n        /* \"#utility.yul\":10668:10811   */\n    tag_428:\n        /* \"#utility.yul\":10725:10730   */\n      0x00\n        /* \"#utility.yul\":10756:10762   */\n      dup2\n        /* \"#utility.yul\":10750:10763   */\n      mload\n        /* \"#utility.yul\":10741:10763   */\n      swap1\n      pop\n        /* \"#utility.yul\":10772:10805   */\n      tag_596\n        /* \"#utility.yul\":10799:10804   */\n      dup2\n        /* \"#utility.yul\":10772:10805   */\n      tag_397\n      jump\t// in\n    tag_596:\n        /* \"#utility.yul\":10668:10811   */\n      swap3\n      swap2\n      pop\n      pop\n      jump\t// out\n        /* \"#utility.yul\":10817:11168   */\n    tag_203:\n        /* \"#utility.yul\":10887:10893   */\n      0x00\n        /* \"#utility.yul\":10936:10938   */\n      0x20\n        /* \"#utility.yul\":10924:10933   */\n      dup3\n        /* \"#utility.yul\":10915:10922   */\n      dup5\n        /* \"#utility.yul\":10911:10934   */\n      sub\n        /* \"#utility.yul\":10907:10939   */\n      slt\n        /* \"#utility.yul\":10904:11023   */\n      iszero\n      tag_598\n      jumpi\n        /* \"#utility.yul\":10942:11021   */\n      tag_599\n      tag_394\n      jump\t// in\n    tag_599:\n        /* \"#utility.yul\":10904:11023   */\n    tag_598:\n        /* \"#utility.yul\":11062:11063   */\n      0x00\n        /* \"#utility.yul\":11087:11151   */\n      tag_600\n        /* \"#utility.yul\":11143:11150   */\n      dup5\n        /* \"#utility.yul\":11134:11140   */\n      dup3\n        /* \"#utility.yul\":11123:11132   */\n      dup6\n        /* \"#utility.yul\":11119:11141   */\n      add\n        /* \"#utility.yul\":11087:11151   */\n      tag_428\n      jump\t// in\n    tag_600:\n        /* \"#utility.yul\":11077:11151   */\n      swap2\n      pop\n        /* \"#utility.yul\":11033:11161   */\n      pop\n        /* \"#utility.yul\":10817:11168   */\n      swap3\n      swap2\n      pop\n      pop\n      jump\t// out\n        /* \"#utility.yul\":11174:11342   */\n    tag_429:\n        /* \"#utility.yul\":11314:11334   */\n      0x496e73756666696369656e742066756e64730000000000000000000000000000\n        /* \"#utility.yul\":11310:11311   */\n      0x00\n        /* \"#utility.yul\":11302:11308   */\n      dup3\n        /* \"#utility.yul\":11298:11312   */\n      add\n        /* \"#utility.yul\":11291:11335   */\n      mstore\n        /* \"#utility.yul\":11174:11342   */\n      pop\n      jump\t// out\n        /* \"#utility.yul\":11348:11714   */\n    tag_430:\n        /* \"#utility.yul\":11490:11493   */\n      0x00\n        /* \"#utility.yul\":11511:11578   */\n      tag_603\n        /* \"#utility.yul\":11575:11577   */\n      0x12\n        /* \"#utility.yul\":11570:11573   */\n      dup4\n        /* \"#utility.yul\":11511:11578   */\n      tag_423\n      jump\t// in\n    tag_603:\n        /* \"#utility.yul\":11504:11578   */\n      swap2\n      pop\n        /* \"#utility.yul\":11587:11680   */\n      tag_604\n        /* \"#utility.yul\":11676:11679   */\n      dup3\n        /* \"#utility.yul\":11587:11680   */\n      tag_429\n      jump\t// in\n    tag_604:\n        /* \"#utility.yul\":11705:11707   */\n      0x20\n        /* \"#utility.yul\":11700:11703   */\n      dup3\n        /* \"#utility.yul\":11696:11708   */\n      add\n        /* \"#utility.yul\":11689:11708   */\n      swap1\n      pop\n        /* \"#utility.yul\":11348:11714   */\n      swap2\n      swap1\n      pop\n      jump\t// out\n        /* \"#utility.yul\":11720:12139   */\n    tag_206:\n        /* \"#utility.yul\":11886:11890   */\n      0x00\n        /* \"#utility.yul\":11924:11926   */\n      0x20\n        /* \"#utility.yul\":11913:11922   */\n      dup3\n        /* \"#utility.yul\":11909:11927   */\n      add\n        /* \"#utility.yul\":11901:11927   */\n      swap1\n      pop\n        /* \"#utility.yul\":11973:11982   */\n      dup2\n        /* \"#utility.yul\":11967:11971   */\n      dup2\n        /* \"#utility.yul\":11963:11983   */\n      sub\n        /* \"#utility.yul\":11959:11960   */\n      0x00\n        /* \"#utility.yul\":11948:11957   */\n      dup4\n        /* \"#utility.yul\":11944:11961   */\n      add\n        /* \"#utility.yul\":11937:11984   */\n      mstore\n        /* \"#utility.yul\":12001:12132   */\n      tag_606\n        /* \"#utility.yul\":12127:12131   */\n      dup2\n        /* \"#utility.yul\":12001:12132   */\n      tag_430\n      jump\t// in\n    tag_606:\n        /* \"#utility.yul\":11993:12132   */\n      swap1\n      pop\n        /* \"#utility.yul\":11720:12139   */\n      swap2\n      swap1\n      pop\n      jump\t// out\n        /* \"#utility.yul\":12145:12477   */\n    tag_208:\n        /* \"#utility.yul\":12266:12270   */\n      0x00\n        /* \"#utility.yul\":12304:12306   */\n      0x40\n        /* \"#utility.yul\":12293:12302   */\n      dup3\n        /* \"#utility.yul\":12289:12307   */\n      add\n        /* \"#utility.yul\":12281:12307   */\n      swap1\n      pop\n        /* \"#utility.yul\":12317:12388   */\n      tag_608\n        /* \"#utility.yul\":12385:12386   */\n      0x00\n        /* \"#utility.yul\":12374:12383   */\n      dup4\n        /* \"#utility.yul\":12370:12387   */\n      add\n        /* \"#utility.yul\":12361:12367   */\n      dup6\n        /* \"#utility.yul\":12317:12388   */\n      tag_418\n      jump\t// in\n    tag_608:\n        /* \"#utility.yul\":12398:12470   */\n      tag_609\n        /* \"#utility.yul\":12466:12468   */\n      0x20\n        /* \"#utility.yul\":12455:12464   */\n      dup4\n        /* \"#utility.yul\":12451:12469   */\n      add\n        /* \"#utility.yul\":12442:12448   */\n      dup5\n        /* \"#utility.yul\":12398:12470   */\n      tag_399\n      jump\t// in\n    tag_609:\n        /* \"#utility.yul\":12145:12477   */\n      swap4\n      swap3\n      pop\n      pop\n      pop\n      jump\t// out\n        /* \"#utility.yul\":12483:12599   */\n    tag_431:\n        /* \"#utility.yul\":12553:12574   */\n      tag_611\n        /* \"#utility.yul\":12568:12573   */\n      dup2\n        /* \"#utility.yul\":12553:12574   */\n      tag_403\n      jump\t// in\n    tag_611:\n        /* \"#utility.yul\":12546:12551   */\n      dup2\n        /* \"#utility.yul\":12543:12575   */\n      eq\n        /* \"#utility.yul\":12533:12593   */\n      tag_612\n      jumpi\n        /* \"#utility.yul\":12589:12590   */\n      0x00\n        /* \"#utility.yul\":12586:12587   */\n      0x00\n        /* \"#utility.yul\":12579:12591   */\n      revert\n        /* \"#utility.yul\":12533:12593   */\n    tag_612:\n        /* \"#utility.yul\":12483:12599   */\n      pop\n      jump\t// out\n        /* \"#utility.yul\":12605:12742   */\n    tag_432:\n        /* \"#utility.yul\":12659:12664   */\n      0x00\n        /* \"#utility.yul\":12690:12696   */\n      dup2\n        /* \"#utility.yul\":12684:12697   */\n      mload\n        /* \"#utility.yul\":12675:12697   */\n      swap1\n      pop\n        /* \"#utility.yul\":12706:12736   */\n      tag_614\n        /* \"#utility.yul\":12730:12735   */\n      dup2\n        /* \"#utility.yul\":12706:12736   */\n      tag_431\n      jump\t// in\n    tag_614:\n        /* \"#utility.yul\":12605:12742   */\n      swap3\n      swap2\n      pop\n      pop\n      jump\t// out\n        /* \"#utility.yul\":12748:13093   */\n    tag_212:\n        /* \"#utility.yul\":12815:12821   */\n      0x00\n        /* \"#utility.yul\":12864:12866   */\n      0x20\n        /* \"#utility.yul\":12852:12861   */\n      dup3\n        /* \"#utility.yul\":12843:12850   */\n      dup5\n        /* \"#utility.yul\":12839:12862   */\n      sub\n        /* \"#utility.yul\":12835:12867   */\n      slt\n        /* \"#utility.yul\":12832:12951   */\n      iszero\n      tag_616\n      jumpi\n        /* \"#utility.yul\":12870:12949   */\n      tag_617\n      tag_394\n      jump\t// in\n    tag_617:\n        /* \"#utility.yul\":12832:12951   */\n    tag_616:\n        /* \"#utility.yul\":12990:12991   */\n      0x00\n        /* \"#utility.yul\":13015:13076   */\n      tag_618\n        /* \"#utility.yul\":13068:13075   */\n      dup5\n        /* \"#utility.yul\":13059:13065   */\n      dup3\n        /* \"#utility.yul\":13048:13057   */\n      dup6\n        /* \"#utility.yul\":13044:13066   */\n      add\n        /* \"#utility.yul\":13015:13076   */\n      tag_432\n      jump\t// in\n    tag_618:\n        /* \"#utility.yul\":13005:13076   */\n      swap2\n      pop\n        /* \"#utility.yul\":12961:13086   */\n      pop\n        /* \"#utility.yul\":12748:13093   */\n      swap3\n      swap2\n      pop\n      pop\n      jump\t// out\n        /* \"#utility.yul\":13099:13264   */\n    tag_433:\n        /* \"#utility.yul\":13239:13256   */\n      0x5472616e73666572206661696c65640000000000000000000000000000000000\n        /* \"#utility.yul\":13235:13236   */\n      0x00\n        /* \"#utility.yul\":13227:13233   */\n      dup3\n        /* \"#utility.yul\":13223:13237   */\n      add\n        /* \"#utility.yul\":13216:13257   */\n      mstore\n        /* \"#utility.yul\":13099:13264   */\n      pop\n      jump\t// out\n        /* \"#utility.yul\":13270:13636   */\n    tag_434:\n        /* \"#utility.yul\":13412:13415   */\n      0x00\n        /* \"#utility.yul\":13433:13500   */\n      tag_621\n        /* \"#utility.yul\":13497:13499   */\n      0x0f\n        /* \"#utility.yul\":13492:13495   */\n      dup4\n        /* \"#utility.yul\":13433:13500   */\n      tag_423\n      jump\t// in\n    tag_621:\n        /* \"#utility.yul\":13426:13500   */\n      swap2\n      pop\n        /* \"#utility.yul\":13509:13602   */\n      tag_622\n        /* \"#utility.yul\":13598:13601   */\n      dup3\n        /* \"#utility.yul\":13509:13602   */\n      tag_433\n      jump\t// in\n    tag_622:\n        /* \"#utility.yul\":13627:13629   */\n      0x20\n        /* \"#utility.yul\":13622:13625   */\n      dup3\n        /* \"#utility.yul\":13618:13630   */\n      add\n        /* \"#utility.yul\":13611:13630   */\n      swap1\n      pop\n        /* \"#utility.yul\":13270:13636   */\n      swap2\n      swap1\n      pop\n      jump\t// out\n        /* \"#utility.yul\":13642:14061   */\n    tag_215:\n        /* \"#utility.yul\":13808:13812   */\n      0x00\n        /* \"#utility.yul\":13846:13848   */\n      0x20\n        /* \"#utility.yul\":13835:13844   */\n      dup3\n        /* \"#utility.yul\":13831:13849   */\n      add\n        /* \"#utility.yul\":13823:13849   */\n      swap1\n      pop\n        /* \"#utility.yul\":13895:13904   */\n      dup2\n        /* \"#utility.yul\":13889:13893   */\n      dup2\n        /* \"#utility.yul\":13885:13905   */\n      sub\n        /* \"#utility.yul\":13881:13882   */\n      0x00\n        /* \"#utility.yul\":13870:13879   */\n      dup4\n        /* \"#utility.yul\":13866:13883   */\n      add\n        /* \"#utility.yul\":13859:13906   */\n      mstore\n        /* \"#utility.yul\":13923:14054   */\n      tag_624\n        /* \"#utility.yul\":14049:14053   */\n      dup2\n        /* \"#utility.yul\":13923:14054   */\n      tag_434\n      jump\t// in\n    tag_624:\n        /* \"#utility.yul\":13915:14054   */\n      swap1\n      pop\n        /* \"#utility.yul\":13642:14061   */\n      swap2\n      swap1\n      pop\n      jump\t// out\n        /* \"#utility.yul\":14067:14261   */\n    tag_225:\n        /* \"#utility.yul\":14107:14111   */\n      0x00\n        /* \"#utility.yul\":14127:14147   */\n      tag_626\n        /* \"#utility.yul\":14145:14146   */\n      dup3\n        /* \"#utility.yul\":14127:14147   */\n      tag_396\n      jump\t// in\n    tag_626:\n        /* \"#utility.yul\":14122:14147   */\n      swap2\n      pop\n        /* \"#utility.yul\":14161:14181   */\n      tag_627\n        /* \"#utility.yul\":14179:14180   */\n      dup4\n        /* \"#utility.yul\":14161:14181   */\n      tag_396\n      jump\t// in\n    tag_627:\n        /* \"#utility.yul\":14156:14181   */\n      swap3\n      pop\n        /* \"#utility.yul\":14205:14206   */\n      dup3\n        /* \"#utility.yul\":14202:14203   */\n      dup3\n        /* \"#utility.yul\":14198:14207   */\n      sub\n        /* \"#utility.yul\":14190:14207   */\n      swap1\n      pop\n        /* \"#utility.yul\":14229:14230   */\n      dup2\n        /* \"#utility.yul\":14223:14227   */\n      dup2\n        /* \"#utility.yul\":14220:14231   */\n      gt\n        /* \"#utility.yul\":14217:14254   */\n      iszero\n      tag_628\n      jumpi\n        /* \"#utility.yul\":14234:14252   */\n      tag_629\n      tag_426\n      jump\t// in\n    tag_629:\n        /* \"#utility.yul\":14217:14254   */\n    tag_628:\n        /* \"#utility.yul\":14067:14261   */\n      swap3\n      swap2\n      pop\n      pop\n      jump\t// out\n        /* \"#utility.yul\":14267:14458   */\n    tag_227:\n        /* \"#utility.yul\":14307:14310   */\n      0x00\n        /* \"#utility.yul\":14326:14346   */\n      tag_631\n        /* \"#utility.yul\":14344:14345   */\n      dup3\n        /* \"#utility.yul\":14326:14346   */\n      tag_396\n      jump\t// in\n    tag_631:\n        /* \"#utility.yul\":14321:14346   */\n      swap2\n      pop\n        /* \"#utility.yul\":14360:14380   */\n      tag_632\n        /* \"#utility.yul\":14378:14379   */\n      dup4\n        /* \"#utility.yul\":14360:14380   */\n      tag_396\n      jump\t// in\n    tag_632:\n        /* \"#utility.yul\":14355:14380   */\n      swap3\n      pop\n        /* \"#utility.yul\":14403:14404   */\n      dup3\n        /* \"#utility.yul\":14400:14401   */\n      dup3\n        /* \"#utility.yul\":14396:14405   */\n      add\n        /* \"#utility.yul\":14389:14405   */\n      swap1\n      pop\n        /* \"#utility.yul\":14424:14427   */\n      dup1\n        /* \"#utility.yul\":14421:14422   */\n      dup3\n        /* \"#utility.yul\":14418:14428   */\n      gt\n        /* \"#utility.yul\":14415:14451   */\n      iszero\n      tag_633\n      jumpi\n        /* \"#utility.yul\":14431:14449   */\n      tag_634\n      tag_426\n      jump\t// in\n    tag_634:\n        /* \"#utility.yul\":14415:14451   */\n    tag_633:\n        /* \"#utility.yul\":14267:14458   */\n      swap3\n      swap2\n      pop\n      pop\n      jump\t// out\n        /* \"#utility.yul\":14464:14569   */\n    tag_435:\n        /* \"#utility.yul\":14500:14507   */\n      0x00\n        /* \"#utility.yul\":14540:14562   */\n      0xffffffffffffffffffff\n        /* \"#utility.yul\":14533:14538   */\n      dup3\n        /* \"#utility.yul\":14529:14563   */\n      and\n        /* \"#utility.yul\":14518:14563   */\n      swap1\n      pop\n        /* \"#utility.yul\":14464:14569   */\n      swap2\n      swap1\n      pop\n      jump\t// out\n        /* \"#utility.yul\":14575:14695   */\n    tag_436:\n        /* \"#utility.yul\":14647:14670   */\n      tag_637\n        /* \"#utility.yul\":14664:14669   */\n      dup2\n        /* \"#utility.yul\":14647:14670   */\n      tag_435\n      jump\t// in\n    tag_637:\n        /* \"#utility.yul\":14640:14645   */\n      dup2\n        /* \"#utility.yul\":14637:14671   */\n      eq\n        /* \"#utility.yul\":14627:14689   */\n      tag_638\n      jumpi\n        /* \"#utility.yul\":14685:14686   */\n      0x00\n        /* \"#utility.yul\":14682:14683   */\n      0x00\n        /* \"#utility.yul\":14675:14687   */\n      revert\n        /* \"#utility.yul\":14627:14689   */\n    tag_638:\n        /* \"#utility.yul\":14575:14695   */\n      pop\n      jump\t// out\n        /* \"#utility.yul\":14701:14842   */\n    tag_437:\n        /* \"#utility.yul\":14757:14762   */\n      0x00\n        /* \"#utility.yul\":14788:14794   */\n      dup2\n        /* \"#utility.yul\":14782:14795   */\n      mload\n        /* \"#utility.yul\":14773:14795   */\n      swap1\n      pop\n        /* \"#utility.yul\":14804:14836   */\n      tag_640\n        /* \"#utility.yul\":14830:14835   */\n      dup2\n        /* \"#utility.yul\":14804:14836   */\n      tag_436\n      jump\t// in\n    tag_640:\n        /* \"#utility.yul\":14701:14842   */\n      swap3\n      swap2\n      pop\n      pop\n      jump\t// out\n        /* \"#utility.yul\":14848:14968   */\n    tag_438:\n        /* \"#utility.yul\":14920:14943   */\n      tag_642\n        /* \"#utility.yul\":14937:14942   */\n      dup2\n        /* \"#utility.yul\":14920:14943   */\n      tag_421\n      jump\t// in\n    tag_642:\n        /* \"#utility.yul\":14913:14918   */\n      dup2\n        /* \"#utility.yul\":14910:14944   */\n      eq\n        /* \"#utility.yul\":14900:14962   */\n      tag_643\n      jumpi\n        /* \"#utility.yul\":14958:14959   */\n      0x00\n        /* \"#utility.yul\":14955:14956   */\n      0x00\n        /* \"#utility.yul\":14948:14960   */\n      revert\n        /* \"#utility.yul\":14900:14962   */\n    tag_643:\n        /* \"#utility.yul\":14848:14968   */\n      pop\n      jump\t// out\n        /* \"#utility.yul\":14974:15115   */\n    tag_439:\n        /* \"#utility.yul\":15030:15035   */\n      0x00\n        /* \"#utility.yul\":15061:15067   */\n      dup2\n        /* \"#utility.yul\":15055:15068   */\n      mload\n        /* \"#utility.yul\":15046:15068   */\n      swap1\n      pop\n        /* \"#utility.yul\":15077:15109   */\n      tag_645\n        /* \"#utility.yul\":15103:15108   */\n      dup2\n        /* \"#utility.yul\":15077:15109   */\n      tag_438\n      jump\t// in\n    tag_645:\n        /* \"#utility.yul\":14974:15115   */\n      swap3\n      swap2\n      pop\n      pop\n      jump\t// out\n        /* \"#utility.yul\":15121:16092   */\n    tag_233:\n        /* \"#utility.yul\":15224:15230   */\n      0x00\n        /* \"#utility.yul\":15232:15238   */\n      0x00\n        /* \"#utility.yul\":15240:15246   */\n      0x00\n        /* \"#utility.yul\":15248:15254   */\n      0x00\n        /* \"#utility.yul\":15256:15262   */\n      0x00\n        /* \"#utility.yul\":15305:15308   */\n      0xa0\n        /* \"#utility.yul\":15293:15302   */\n      dup7\n        /* \"#utility.yul\":15284:15291   */\n      dup9\n        /* \"#utility.yul\":15280:15303   */\n      sub\n        /* \"#utility.yul\":15276:15309   */\n      slt\n        /* \"#utility.yul\":15273:15393   */\n      iszero\n      tag_647\n      jumpi\n        /* \"#utility.yul\":15312:15391   */\n      tag_648\n      tag_394\n      jump\t// in\n    tag_648:\n        /* \"#utility.yul\":15273:15393   */\n    tag_647:\n        /* \"#utility.yul\":15432:15433   */\n      0x00\n        /* \"#utility.yul\":15457:15520   */\n      tag_649\n        /* \"#utility.yul\":15512:15519   */\n      dup9\n        /* \"#utility.yul\":15503:15509   */\n      dup3\n        /* \"#utility.yul\":15492:15501   */\n      dup10\n        /* \"#utility.yul\":15488:15510   */\n      add\n        /* \"#utility.yul\":15457:15520   */\n      tag_437\n      jump\t// in\n    tag_649:\n        /* \"#utility.yul\":15447:15520   */\n      swap6\n      pop\n        /* \"#utility.yul\":15403:15530   */\n      pop\n        /* \"#utility.yul\":15569:15571   */\n      0x20\n        /* \"#utility.yul\":15595:15658   */\n      tag_650\n        /* \"#utility.yul\":15650:15657   */\n      dup9\n        /* \"#utility.yul\":15641:15647   */\n      dup3\n        /* \"#utility.yul\":15630:15639   */\n      dup10\n        /* \"#utility.yul\":15626:15648   */\n      add\n        /* \"#utility.yul\":15595:15658   */\n      tag_439\n      jump\t// in\n    tag_650:\n        /* \"#utility.yul\":15585:15658   */\n      swap5\n      pop\n        /* \"#utility.yul\":15540:15668   */\n      pop\n        /* \"#utility.yul\":15707:15709   */\n      0x40\n        /* \"#utility.yul\":15733:15797   */\n      tag_651\n        /* \"#utility.yul\":15789:15796   */\n      dup9\n        /* \"#utility.yul\":15780:15786   */\n      dup3\n        /* \"#utility.yul\":15769:15778   */\n      dup10\n        /* \"#utility.yul\":15765:15787   */\n      add\n        /* \"#utility.yul\":15733:15797   */\n      tag_428\n      jump\t// in\n    tag_651:\n        /* \"#utility.yul\":15723:15797   */\n      swap4\n      pop\n        /* \"#utility.yul\":15678:15807   */\n      pop\n        /* \"#utility.yul\":15846:15848   */\n      0x60\n        /* \"#utility.yul\":15872:15936   */\n      tag_652\n        /* \"#utility.yul\":15928:15935   */\n      dup9\n        /* \"#utility.yul\":15919:15925   */\n      dup3\n        /* \"#utility.yul\":15908:15917   */\n      dup10\n        /* \"#utility.yul\":15904:15926   */\n      add\n        /* \"#utility.yul\":15872:15936   */\n      tag_428\n      jump\t// in\n    tag_652:\n        /* \"#utility.yul\":15862:15936   */\n      swap3\n      pop\n        /* \"#utility.yul\":15817:15946   */\n      pop\n        /* \"#utility.yul\":15985:15988   */\n      0x80\n        /* \"#utility.yul\":16012:16075   */\n      tag_653\n        /* \"#utility.yul\":16067:16074   */\n      dup9\n        /* \"#utility.yul\":16058:16064   */\n      dup3\n        /* \"#utility.yul\":16047:16056   */\n      dup10\n        /* \"#utility.yul\":16043:16065   */\n      add\n        /* \"#utility.yul\":16012:16075   */\n      tag_437\n      jump\t// in\n    tag_653:\n        /* \"#utility.yul\":16002:16075   */\n      swap2\n      pop\n        /* \"#utility.yul\":15956:16085   */\n      pop\n        /* \"#utility.yul\":15121:16092   */\n      swap3\n      swap6\n      pop\n      swap3\n      swap6\n      swap1\n      swap4\n      pop\n      jump\t// out\n        /* \"#utility.yul\":16098:16266   */\n    tag_440:\n        /* \"#utility.yul\":16238:16258   */\n      0x496e76616c696420707269636520666565640000000000000000000000000000\n        /* \"#utility.yul\":16234:16235   */\n      0x00\n        /* \"#utility.yul\":16226:16232   */\n      dup3\n        /* \"#utility.yul\":16222:16236   */\n      add\n        /* \"#utility.yul\":16215:16259   */\n      mstore\n        /* \"#utility.yul\":16098:16266   */\n      pop\n      jump\t// out\n        /* \"#utility.yul\":16272:16638   */\n    tag_441:\n        /* \"#utility.yul\":16414:16417   */\n      0x00\n        /* \"#utility.yul\":16435:16502   */\n      tag_656\n        /* \"#utility.yul\":16499:16501   */\n      0x12\n        /* \"#utility.yul\":16494:16497   */\n      dup4\n        /* \"#utility.yul\":16435:16502   */\n      tag_423\n      jump\t// in\n    tag_656:\n        /* \"#utility.yul\":16428:16502   */\n      swap2\n      pop\n        /* \"#utility.yul\":16511:16604   */\n      tag_657\n        /* \"#utility.yul\":16600:16603   */\n      dup3\n        /* \"#utility.yul\":16511:16604   */\n      tag_440\n      jump\t// in\n    tag_657:\n        /* \"#utility.yul\":16629:16631   */\n      0x20\n        /* \"#utility.yul\":16624:16627   */\n      dup3\n        /* \"#utility.yul\":16620:16632   */\n      add\n        /* \"#utility.yul\":16613:16632   */\n      swap1\n      pop\n        /* \"#utility.yul\":16272:16638   */\n      swap2\n      swap1\n      pop\n      jump\t// out\n        /* \"#utility.yul\":16644:17063   */\n    tag_236:\n        /* \"#utility.yul\":16810:16814   */\n      0x00\n        /* \"#utility.yul\":16848:16850   */\n      0x20\n        /* \"#utility.yul\":16837:16846   */\n      dup3\n        /* \"#utility.yul\":16833:16851   */\n      add\n        /* \"#utility.yul\":16825:16851   */\n      swap1\n      pop\n        /* \"#utility.yul\":16897:16906   */\n      dup2\n        /* \"#utility.yul\":16891:16895   */\n      dup2\n        /* \"#utility.yul\":16887:16907   */\n      sub\n        /* \"#utility.yul\":16883:16884   */\n      0x00\n        /* \"#utility.yul\":16872:16881   */\n      dup4\n        /* \"#utility.yul\":16868:16885   */\n      add\n        /* \"#utility.yul\":16861:16908   */\n      mstore\n        /* \"#utility.yul\":16925:17056   */\n      tag_659\n        /* \"#utility.yul\":17051:17055   */\n      dup2\n        /* \"#utility.yul\":16925:17056   */\n      tag_441\n      jump\t// in\n    tag_659:\n        /* \"#utility.yul\":16917:17056   */\n      swap1\n      pop\n        /* \"#utility.yul\":16644:17063   */\n      swap2\n      swap1\n      pop\n      jump\t// out\n        /* \"#utility.yul\":17069:17234   */\n    tag_442:\n        /* \"#utility.yul\":17209:17226   */\n      0x50726f746f636f6c207061757365640000000000000000000000000000000000\n        /* \"#utility.yul\":17205:17206   */\n      0x00\n        /* \"#utility.yul\":17197:17203   */\n      dup3\n        /* \"#utility.yul\":17193:17207   */\n      add\n        /* \"#utility.yul\":17186:17227   */\n      mstore\n        /* \"#utility.yul\":17069:17234   */\n      pop\n      jump\t// out\n        /* \"#utility.yul\":17240:17606   */\n    tag_443:\n        /* \"#utility.yul\":17382:17385   */\n      0x00\n        /* \"#utility.yul\":17403:17470   */\n      tag_662\n        /* \"#utility.yul\":17467:17469   */\n      0x0f\n        /* \"#utility.yul\":17462:17465   */\n      dup4\n        /* \"#utility.yul\":17403:17470   */\n      tag_423\n      jump\t// in\n    tag_662:\n        /* \"#utility.yul\":17396:17470   */\n      swap2\n      pop\n        /* \"#utility.yul\":17479:17572   */\n      tag_663\n        /* \"#utility.yul\":17568:17571   */\n      dup3\n        /* \"#utility.yul\":17479:17572   */\n      tag_442\n      jump\t// in\n    tag_663:\n        /* \"#utility.yul\":17597:17599   */\n      0x20\n        /* \"#utility.yul\":17592:17595   */\n      dup3\n        /* \"#utility.yul\":17588:17600   */\n      add\n        /* \"#utility.yul\":17581:17600   */\n      swap1\n      pop\n        /* \"#utility.yul\":17240:17606   */\n      swap2\n      swap1\n      pop\n      jump\t// out\n        /* \"#utility.yul\":17612:18031   */\n    tag_242:\n        /* \"#utility.yul\":17778:17782   */\n      0x00\n        /* \"#utility.yul\":17816:17818   */\n      0x20\n        /* \"#utility.yul\":17805:17814   */\n      dup3\n        /* \"#utility.yul\":17801:17819   */\n      add\n        /* \"#utility.yul\":17793:17819   */\n      swap1\n      pop\n        /* \"#utility.yul\":17865:17874   */\n      dup2\n        /* \"#utility.yul\":17859:17863   */\n      dup2\n        /* \"#utility.yul\":17855:17875   */\n      sub\n        /* \"#utility.yul\":17851:17852   */\n      0x00\n        /* \"#utility.yul\":17840:17849   */\n      dup4\n        /* \"#utility.yul\":17836:17853   */\n      add\n        /* \"#utility.yul\":17829:17876   */\n      mstore\n        /* \"#utility.yul\":17893:18024   */\n      tag_665\n        /* \"#utility.yul\":18019:18023   */\n      dup2\n        /* \"#utility.yul\":17893:18024   */\n      tag_443\n      jump\t// in\n    tag_665:\n        /* \"#utility.yul\":17885:18024   */\n      swap1\n      pop\n        /* \"#utility.yul\":17612:18031   */\n      swap2\n      swap1\n      pop\n      jump\t// out\n        /* \"#utility.yul\":18037:18216   */\n    tag_444:\n        /* \"#utility.yul\":18177:18208   */\n      0x416d6f756e74206d7573742062652067726561746572207468616e2030000000\n        /* \"#utility.yul\":18173:18174   */\n      0x00\n        /* \"#utility.yul\":18165:18171   */\n      dup3\n        /* \"#utility.yul\":18161:18175   */\n      add\n        /* \"#utility.yul\":18154:18209   */\n      mstore\n        /* \"#utility.yul\":18037:18216   */\n      pop\n      jump\t// out\n        /* \"#utility.yul\":18222:18588   */\n    tag_445:\n        /* \"#utility.yul\":18364:18367   */\n      0x00\n        /* \"#utility.yul\":18385:18452   */\n      tag_668\n        /* \"#utility.yul\":18449:18451   */\n      0x1d\n        /* \"#utility.yul\":18444:18447   */\n      dup4\n        /* \"#utility.yul\":18385:18452   */\n      tag_423\n      jump\t// in\n    tag_668:\n        /* \"#utility.yul\":18378:18452   */\n      swap2\n      pop\n        /* \"#utility.yul\":18461:18554   */\n      tag_669\n        /* \"#utility.yul\":18550:18553   */\n      dup3\n        /* \"#utility.yul\":18461:18554   */\n      tag_444\n      jump\t// in\n    tag_669:\n        /* \"#utility.yul\":18579:18581   */\n      0x20\n        /* \"#utility.yul\":18574:18577   */\n      dup3\n        /* \"#utility.yul\":18570:18582   */\n      add\n        /* \"#utility.yul\":18563:18582   */\n      swap1\n      pop\n        /* \"#utility.yul\":18222:18588   */\n      swap2\n      swap1\n      pop\n      jump\t// out\n        /* \"#utility.yul\":18594:19013   */\n    tag_246:\n        /* \"#utility.yul\":18760:18764   */\n      0x00\n        /* \"#utility.yul\":18798:18800   */\n      0x20\n        /* \"#utility.yul\":18787:18796   */\n      dup3\n        /* \"#utility.yul\":18783:18801   */\n      add\n        /* \"#utility.yul\":18775:18801   */\n      swap1\n      pop\n        /* \"#utility.yul\":18847:18856   */\n      dup2\n        /* \"#utility.yul\":18841:18845   */\n      dup2\n        /* \"#utility.yul\":18837:18857   */\n      sub\n        /* \"#utility.yul\":18833:18834   */\n      0x00\n        /* \"#utility.yul\":18822:18831   */\n      dup4\n        /* \"#utility.yul\":18818:18835   */\n      add\n        /* \"#utility.yul\":18811:18858   */\n      mstore\n        /* \"#utility.yul\":18875:19006   */\n      tag_671\n        /* \"#utility.yul\":19001:19005   */\n      dup2\n        /* \"#utility.yul\":18875:19006   */\n      tag_445\n      jump\t// in\n    tag_671:\n        /* \"#utility.yul\":18867:19006   */\n      swap1\n      pop\n        /* \"#utility.yul\":18594:19013   */\n      swap2\n      swap1\n      pop\n      jump\t// out\n        /* \"#utility.yul\":19019:19461   */\n    tag_248:\n        /* \"#utility.yul\":19168:19172   */\n      0x00\n        /* \"#utility.yul\":19206:19208   */\n      0x60\n        /* \"#utility.yul\":19195:19204   */\n      dup3\n        /* \"#utility.yul\":19191:19209   */\n      add\n        /* \"#utility.yul\":19183:19209   */\n      swap1\n      pop\n        /* \"#utility.yul\":19219:19290   */\n      tag_673\n        /* \"#utility.yul\":19287:19288   */\n      0x00\n        /* \"#utility.yul\":19276:19285   */\n      dup4\n        /* \"#utility.yul\":19272:19289   */\n      add\n        /* \"#utility.yul\":19263:19269   */\n      dup7\n        /* \"#utility.yul\":19219:19290   */\n      tag_418\n      jump\t// in\n    tag_673:\n        /* \"#utility.yul\":19300:19372   */\n      tag_674\n        /* \"#utility.yul\":19368:19370   */\n      0x20\n        /* \"#utility.yul\":19357:19366   */\n      dup4\n        /* \"#utility.yul\":19353:19371   */\n      add\n        /* \"#utility.yul\":19344:19350   */\n      dup6\n        /* \"#utility.yul\":19300:19372   */\n      tag_418\n      jump\t// in\n    tag_674:\n        /* \"#utility.yul\":19382:19454   */\n      tag_675\n        /* \"#utility.yul\":19450:19452   */\n      0x40\n        /* \"#utility.yul\":19439:19448   */\n      dup4\n        /* \"#utility.yul\":19435:19453   */\n      add\n        /* \"#utility.yul\":19426:19432   */\n      dup5\n        /* \"#utility.yul\":19382:19454   */\n      tag_399\n      jump\t// in\n    tag_675:\n        /* \"#utility.yul\":19019:19461   */\n      swap5\n      swap4\n      pop\n      pop\n      pop\n      pop\n      jump\t// out\n        /* \"#utility.yul\":19467:19631   */\n    tag_446:\n        /* \"#utility.yul\":19607:19623   */\n      0x4e6f74206c697175696461746f72000000000000000000000000000000000000\n        /* \"#utility.yul\":19603:19604   */\n      0x00\n        /* \"#utility.yul\":19595:19601   */\n      dup3\n        /* \"#utility.yul\":19591:19605   */\n      add\n        /* \"#utility.yul\":19584:19624   */\n      mstore\n        /* \"#utility.yul\":19467:19631   */\n      pop\n      jump\t// out\n        /* \"#utility.yul\":19637:20003   */\n    tag_447:\n        /* \"#utility.yul\":19779:19782   */\n      0x00\n        /* \"#utility.yul\":19800:19867   */\n      tag_678\n        /* \"#utility.yul\":19864:19866   */\n      0x0e\n        /* \"#utility.yul\":19859:19862   */\n      dup4\n        /* \"#utility.yul\":19800:19867   */\n      tag_423\n      jump\t// in\n    tag_678:\n        /* \"#utility.yul\":19793:19867   */\n      swap2\n      pop\n        /* \"#utility.yul\":19876:19969   */\n      tag_679\n        /* \"#utility.yul\":19965:19968   */\n      dup3\n        /* \"#utility.yul\":19876:19969   */\n      tag_446\n      jump\t// in\n    tag_679:\n        /* \"#utility.yul\":19994:19996   */\n      0x20\n        /* \"#utility.yul\":19989:19992   */\n      dup3\n        /* \"#utility.yul\":19985:19997   */\n      add\n        /* \"#utility.yul\":19978:19997   */\n      swap1\n      pop\n        /* \"#utility.yul\":19637:20003   */\n      swap2\n      swap1\n      pop\n      jump\t// out\n        /* \"#utility.yul\":20009:20428   */\n    tag_264:\n        /* \"#utility.yul\":20175:20179   */\n      0x00\n        /* \"#utility.yul\":20213:20215   */\n      0x20\n        /* \"#utility.yul\":20202:20211   */\n      dup3\n        /* \"#utility.yul\":20198:20216   */\n      add\n        /* \"#utility.yul\":20190:20216   */\n      swap1\n      pop\n        /* \"#utility.yul\":20262:20271   */\n      dup2\n        /* \"#utility.yul\":20256:20260   */\n      dup2\n        /* \"#utility.yul\":20252:20272   */\n      sub\n        /* \"#utility.yul\":20248:20249   */\n      0x00\n        /* \"#utility.yul\":20237:20246   */\n      dup4\n        /* \"#utility.yul\":20233:20250   */\n      add\n        /* \"#utility.yul\":20226:20273   */\n      mstore\n        /* \"#utility.yul\":20290:20421   */\n      tag_681\n        /* \"#utility.yul\":20416:20420   */\n      dup2\n        /* \"#utility.yul\":20290:20421   */\n      tag_447\n      jump\t// in\n    tag_681:\n        /* \"#utility.yul\":20282:20421   */\n      swap1\n      pop\n        /* \"#utility.yul\":20009:20428   */\n      swap2\n      swap1\n      pop\n      jump\t// out\n        /* \"#utility.yul\":20434:20656   */\n    tag_448:\n        /* \"#utility.yul\":20574:20608   */\n      0x526570617920616d6f756e74206d757374206265206772656174657220746861\n        /* \"#utility.yul\":20570:20571   */\n      0x00\n        /* \"#utility.yul\":20562:20568   */\n      dup3\n        /* \"#utility.yul\":20558:20572   */\n      add\n        /* \"#utility.yul\":20551:20609   */\n      mstore\n        /* \"#utility.yul\":20643:20648   */\n      0x6e20300000000000000000000000000000000000000000000000000000000000\n        /* \"#utility.yul\":20638:20640   */\n      0x20\n        /* \"#utility.yul\":20630:20636   */\n      dup3\n        /* \"#utility.yul\":20626:20641   */\n      add\n        /* \"#utility.yul\":20619:20649   */\n      mstore\n        /* \"#utility.yul\":20434:20656   */\n      pop\n      jump\t// out\n        /* \"#utility.yul\":20662:21028   */\n    tag_449:\n        /* \"#utility.yul\":20804:20807   */\n      0x00\n        /* \"#utility.yul\":20825:20892   */\n      tag_684\n        /* \"#utility.yul\":20889:20891   */\n      0x23\n        /* \"#utility.yul\":20884:20887   */\n      dup4\n        /* \"#utility.yul\":20825:20892   */\n      tag_423\n      jump\t// in\n    tag_684:\n        /* \"#utility.yul\":20818:20892   */\n      swap2\n      pop\n        /* \"#utility.yul\":20901:20994   */\n      tag_685\n        /* \"#utility.yul\":20990:20993   */\n      dup3\n        /* \"#utility.yul\":20901:20994   */\n      tag_448\n      jump\t// in\n    tag_685:\n        /* \"#utility.yul\":21019:21021   */\n      0x40\n        /* \"#utility.yul\":21014:21017   */\n      dup3\n        /* \"#utility.yul\":21010:21022   */\n      add\n        /* \"#utility.yul\":21003:21022   */\n      swap1\n      pop\n        /* \"#utility.yul\":20662:21028   */\n      swap2\n      swap1\n      pop\n      jump\t// out\n        /* \"#utility.yul\":21034:21453   */\n    tag_271:\n        /* \"#utility.yul\":21200:21204   */\n      0x00\n        /* \"#utility.yul\":21238:21240   */\n      0x20\n        /* \"#utility.yul\":21227:21236   */\n      dup3\n        /* \"#utility.yul\":21223:21241   */\n      add\n        /* \"#utility.yul\":21215:21241   */\n      swap1\n      pop\n        /* \"#utility.yul\":21287:21296   */\n      dup2\n        /* \"#utility.yul\":21281:21285   */\n      dup2\n        /* \"#utility.yul\":21277:21297   */\n      sub\n        /* \"#utility.yul\":21273:21274   */\n      0x00\n        /* \"#utility.yul\":21262:21271   */\n      dup4\n        /* \"#utility.yul\":21258:21275   */\n      add\n        /* \"#utility.yul\":21251:21298   */\n      mstore\n        /* \"#utility.yul\":21315:21446   */\n      tag_687\n        /* \"#utility.yul\":21441:21445   */\n      dup2\n        /* \"#utility.yul\":21315:21446   */\n      tag_449\n      jump\t// in\n    tag_687:\n        /* \"#utility.yul\":21307:21446   */\n      swap1\n      pop\n        /* \"#utility.yul\":21034:21453   */\n      swap2\n      swap1\n      pop\n      jump\t// out\n        /* \"#utility.yul\":21459:21628   */\n    tag_450:\n        /* \"#utility.yul\":21599:21620   */\n      0x506f736974696f6e207374696c6c207361666500000000000000000000000000\n        /* \"#utility.yul\":21595:21596   */\n      0x00\n        /* \"#utility.yul\":21587:21593   */\n      dup3\n        /* \"#utility.yul\":21583:21597   */\n      add\n        /* \"#utility.yul\":21576:21621   */\n      mstore\n        /* \"#utility.yul\":21459:21628   */\n      pop\n      jump\t// out\n        /* \"#utility.yul\":21634:22000   */\n    tag_451:\n        /* \"#utility.yul\":21776:21779   */\n      0x00\n        /* \"#utility.yul\":21797:21864   */\n      tag_690\n        /* \"#utility.yul\":21861:21863   */\n      0x13\n        /* \"#utility.yul\":21856:21859   */\n      dup4\n        /* \"#utility.yul\":21797:21864   */\n      tag_423\n      jump\t// in\n    tag_690:\n        /* \"#utility.yul\":21790:21864   */\n      swap2\n      pop\n        /* \"#utility.yul\":21873:21966   */\n      tag_691\n        /* \"#utility.yul\":21962:21965   */\n      dup3\n        /* \"#utility.yul\":21873:21966   */\n      tag_450\n      jump\t// in\n    tag_691:\n        /* \"#utility.yul\":21991:21993   */\n      0x20\n        /* \"#utility.yul\":21986:21989   */\n      dup3\n        /* \"#utility.yul\":21982:21994   */\n      add\n        /* \"#utility.yul\":21975:21994   */\n      swap1\n      pop\n        /* \"#utility.yul\":21634:22000   */\n      swap2\n      swap1\n      pop\n      jump\t// out\n        /* \"#utility.yul\":22006:22425   */\n    tag_276:\n        /* \"#utility.yul\":22172:22176   */\n      0x00\n        /* \"#utility.yul\":22210:22212   */\n      0x20\n        /* \"#utility.yul\":22199:22208   */\n      dup3\n        /* \"#utility.yul\":22195:22213   */\n      add\n        /* \"#utility.yul\":22187:22213   */\n      swap1\n      pop\n        /* \"#utility.yul\":22259:22268   */\n      dup2\n        /* \"#utility.yul\":22253:22257   */\n      dup2\n        /* \"#utility.yul\":22249:22269   */\n      sub\n        /* \"#utility.yul\":22245:22246   */\n      0x00\n        /* \"#utility.yul\":22234:22243   */\n      dup4\n        /* \"#utility.yul\":22230:22247   */\n      add\n        /* \"#utility.yul\":22223:22270   */\n      mstore\n        /* \"#utility.yul\":22287:22418   */\n      tag_693\n        /* \"#utility.yul\":22413:22417   */\n      dup2\n        /* \"#utility.yul\":22287:22418   */\n      tag_451\n      jump\t// in\n    tag_693:\n        /* \"#utility.yul\":22279:22418   */\n      swap1\n      pop\n        /* \"#utility.yul\":22006:22425   */\n      swap2\n      swap1\n      pop\n      jump\t// out\n        /* \"#utility.yul\":22431:22608   */\n    tag_452:\n        /* \"#utility.yul\":22571:22600   */\n      0x4c69717569646174696f6e207472616e73666572206661696c65640000000000\n        /* \"#utility.yul\":22567:22568   */\n      0x00\n        /* \"#utility.yul\":22559:22565   */\n      dup3\n        /* \"#utility.yul\":22555:22569   */\n      add\n        /* \"#utility.yul\":22548:22601   */\n      mstore\n        /* \"#utility.yul\":22431:22608   */\n      pop\n      jump\t// out\n        /* \"#utility.yul\":22614:22980   */\n    tag_453:\n        /* \"#utility.yul\":22756:22759   */\n      0x00\n        /* \"#utility.yul\":22777:22844   */\n      tag_696\n        /* \"#utility.yul\":22841:22843   */\n      0x1b\n        /* \"#utility.yul\":22836:22839   */\n      dup4\n        /* \"#utility.yul\":22777:22844   */\n      tag_423\n      jump\t// in\n    tag_696:\n        /* \"#utility.yul\":22770:22844   */\n      swap2\n      pop\n        /* \"#utility.yul\":22853:22946   */\n      tag_697\n        /* \"#utility.yul\":22942:22945   */\n      dup3\n        /* \"#utility.yul\":22853:22946   */\n      tag_452\n      jump\t// in\n    tag_697:\n        /* \"#utility.yul\":22971:22973   */\n      0x20\n        /* \"#utility.yul\":22966:22969   */\n      dup3\n        /* \"#utility.yul\":22962:22974   */\n      add\n        /* \"#utility.yul\":22955:22974   */\n      swap1\n      pop\n        /* \"#utility.yul\":22614:22980   */\n      swap2\n      swap1\n      pop\n      jump\t// out\n        /* \"#utility.yul\":22986:23405   */\n    tag_285:\n        /* \"#utility.yul\":23152:23156   */\n      0x00\n        /* \"#utility.yul\":23190:23192   */\n      0x20\n        /* \"#utility.yul\":23179:23188   */\n      dup3\n        /* \"#utility.yul\":23175:23193   */\n      add\n        /* \"#utility.yul\":23167:23193   */\n      swap1\n      pop\n        /* \"#utility.yul\":23239:23248   */\n      dup2\n        /* \"#utility.yul\":23233:23237   */\n      dup2\n        /* \"#utility.yul\":23229:23249   */\n      sub\n        /* \"#utility.yul\":23225:23226   */\n      0x00\n        /* \"#utility.yul\":23214:23223   */\n      dup4\n        /* \"#utility.yul\":23210:23227   */\n      add\n        /* \"#utility.yul\":23203:23250   */\n      mstore\n        /* \"#utility.yul\":23267:23398   */\n      tag_699\n        /* \"#utility.yul\":23393:23397   */\n      dup2\n        /* \"#utility.yul\":23267:23398   */\n      tag_453\n      jump\t// in\n    tag_699:\n        /* \"#utility.yul\":23259:23398   */\n      swap1\n      pop\n        /* \"#utility.yul\":22986:23405   */\n      swap2\n      swap1\n      pop\n      jump\t// out\n        /* \"#utility.yul\":23411:23585   */\n    tag_454:\n        /* \"#utility.yul\":23551:23577   */\n      0x5472656173757279207472616e73666572206661696c65640000000000000000\n        /* \"#utility.yul\":23547:23548   */\n      0x00\n        /* \"#utility.yul\":23539:23545   */\n      dup3\n        /* \"#utility.yul\":23535:23549   */\n      add\n        /* \"#utility.yul\":23528:23578   */\n      mstore\n        /* \"#utility.yul\":23411:23585   */\n      pop\n      jump\t// out\n        /* \"#utility.yul\":23591:23957   */\n    tag_455:\n        /* \"#utility.yul\":23733:23736   */\n      0x00\n        /* \"#utility.yul\":23754:23821   */\n      tag_702\n        /* \"#utility.yul\":23818:23820   */\n      0x18\n        /* \"#utility.yul\":23813:23816   */\n      dup4\n        /* \"#utility.yul\":23754:23821   */\n      tag_423\n      jump\t// in\n    tag_702:\n        /* \"#utility.yul\":23747:23821   */\n      swap2\n      pop\n        /* \"#utility.yul\":23830:23923   */\n      tag_703\n        /* \"#utility.yul\":23919:23922   */\n      dup3\n        /* \"#utility.yul\":23830:23923   */\n      tag_454\n      jump\t// in\n    tag_703:\n        /* \"#utility.yul\":23948:23950   */\n      0x20\n        /* \"#utility.yul\":23943:23946   */\n      dup3\n        /* \"#utility.yul\":23939:23951   */\n      add\n        /* \"#utility.yul\":23932:23951   */\n      swap1\n      pop\n        /* \"#utility.yul\":23591:23957   */\n      swap2\n      swap1\n      pop\n      jump\t// out\n        /* \"#utility.yul\":23963:24382   */\n    tag_293:\n        /* \"#utility.yul\":24129:24133   */\n      0x00\n        /* \"#utility.yul\":24167:24169   */\n      0x20\n        /* \"#utility.yul\":24156:24165   */\n      dup3\n        /* \"#utility.yul\":24152:24170   */\n      add\n        /* \"#utility.yul\":24144:24170   */\n      swap1\n      pop\n        /* \"#utility.yul\":24216:24225   */\n      dup2\n        /* \"#utility.yul\":24210:24214   */\n      dup2\n        /* \"#utility.yul\":24206:24226   */\n      sub\n        /* \"#utility.yul\":24202:24203   */\n      0x00\n        /* \"#utility.yul\":24191:24200   */\n      dup4\n        /* \"#utility.yul\":24187:24204   */\n      add\n        /* \"#utility.yul\":24180:24227   */\n      mstore\n        /* \"#utility.yul\":24244:24375   */\n      tag_705\n        /* \"#utility.yul\":24370:24374   */\n      dup2\n        /* \"#utility.yul\":24244:24375   */\n      tag_455\n      jump\t// in\n    tag_705:\n        /* \"#utility.yul\":24236:24375   */\n      swap1\n      pop\n        /* \"#utility.yul\":23963:24382   */\n      swap2\n      swap1\n      pop\n      jump\t// out\n        /* \"#utility.yul\":24388:24559   */\n    tag_456:\n        /* \"#utility.yul\":24528:24551   */\n      0x426f6e7573207472616e73666572206661696c65640000000000000000000000\n        /* \"#utility.yul\":24524:24525   */\n      0x00\n        /* \"#utility.yul\":24516:24522   */\n      dup3\n        /* \"#utility.yul\":24512:24526   */\n      add\n        /* \"#utility.yul\":24505:24552   */\n      mstore\n        /* \"#utility.yul\":24388:24559   */\n      pop\n      jump\t// out\n        /* \"#utility.yul\":24565:24931   */\n    tag_457:\n        /* \"#utility.yul\":24707:24710   */\n      0x00\n        /* \"#utility.yul\":24728:24795   */\n      tag_708\n        /* \"#utility.yul\":24792:24794   */\n      0x15\n        /* \"#utility.yul\":24787:24790   */\n      dup4\n        /* \"#utility.yul\":24728:24795   */\n      tag_423\n      jump\t// in\n    tag_708:\n        /* \"#utility.yul\":24721:24795   */\n      swap2\n      pop\n        /* \"#utility.yul\":24804:24897   */\n      tag_709\n        /* \"#utility.yul\":24893:24896   */\n      dup3\n        /* \"#utility.yul\":24804:24897   */\n      tag_456\n      jump\t// in\n    tag_709:\n        /* \"#utility.yul\":24922:24924   */\n      0x20\n        /* \"#utility.yul\":24917:24920   */\n      dup3\n        /* \"#utility.yul\":24913:24925   */\n      add\n        /* \"#utility.yul\":24906:24925   */\n      swap1\n      pop\n        /* \"#utility.yul\":24565:24931   */\n      swap2\n      swap1\n      pop\n      jump\t// out\n        /* \"#utility.yul\":24937:25356   */\n    tag_303:\n        /* \"#utility.yul\":25103:25107   */\n      0x00\n        /* \"#utility.yul\":25141:25143   */\n      0x20\n        /* \"#utility.yul\":25130:25139   */\n      dup3\n        /* \"#utility.yul\":25126:25144   */\n      add\n        /* \"#utility.yul\":25118:25144   */\n      swap1\n      pop\n        /* \"#utility.yul\":25190:25199   */\n      dup2\n        /* \"#utility.yul\":25184:25188   */\n      dup2\n        /* \"#utility.yul\":25180:25200   */\n      sub\n        /* \"#utility.yul\":25176:25177   */\n      0x00\n        /* \"#utility.yul\":25165:25174   */\n      dup4\n        /* \"#utility.yul\":25161:25178   */\n      add\n        /* \"#utility.yul\":25154:25201   */\n      mstore\n        /* \"#utility.yul\":25218:25349   */\n      tag_711\n        /* \"#utility.yul\":25344:25348   */\n      dup2\n        /* \"#utility.yul\":25218:25349   */\n      tag_457\n      jump\t// in\n    tag_711:\n        /* \"#utility.yul\":25210:25349   */\n      swap1\n      pop\n        /* \"#utility.yul\":24937:25356   */\n      swap2\n      swap1\n      pop\n      jump\t// out\n        /* \"#utility.yul\":25362:25543   */\n    tag_458:\n        /* \"#utility.yul\":25502:25535   */\n      0x436f6f6c646f776e20706572696f6420686173206e6f7420656c617073656400\n        /* \"#utility.yul\":25498:25499   */\n      0x00\n        /* \"#utility.yul\":25490:25496   */\n      dup3\n        /* \"#utility.yul\":25486:25500   */\n      add\n        /* \"#utility.yul\":25479:25536   */\n      mstore\n        /* \"#utility.yul\":25362:25543   */\n      pop\n      jump\t// out\n        /* \"#utility.yul\":25549:25915   */\n    tag_459:\n        /* \"#utility.yul\":25691:25694   */\n      0x00\n        /* \"#utility.yul\":25712:25779   */\n      tag_714\n        /* \"#utility.yul\":25776:25778   */\n      0x1f\n        /* \"#utility.yul\":25771:25774   */\n      dup4\n        /* \"#utility.yul\":25712:25779   */\n      tag_423\n      jump\t// in\n    tag_714:\n        /* \"#utility.yul\":25705:25779   */\n      swap2\n      pop\n        /* \"#utility.yul\":25788:25881   */\n      tag_715\n        /* \"#utility.yul\":25877:25880   */\n      dup3\n        /* \"#utility.yul\":25788:25881   */\n      tag_458\n      jump\t// in\n    tag_715:\n        /* \"#utility.yul\":25906:25908   */\n      0x20\n        /* \"#utility.yul\":25901:25904   */\n      dup3\n        /* \"#utility.yul\":25897:25909   */\n      add\n        /* \"#utility.yul\":25890:25909   */\n      swap1\n      pop\n        /* \"#utility.yul\":25549:25915   */\n      swap2\n      swap1\n      pop\n      jump\t// out\n        /* \"#utility.yul\":25921:26340   */\n    tag_314:\n        /* \"#utility.yul\":26087:26091   */\n      0x00\n        /* \"#utility.yul\":26125:26127   */\n      0x20\n        /* \"#utility.yul\":26114:26123   */\n      dup3\n        /* \"#utility.yul\":26110:26128   */\n      add\n        /* \"#utility.yul\":26102:26128   */\n      swap1\n      pop\n        /* \"#utility.yul\":26174:26183   */\n      dup2\n        /* \"#utility.yul\":26168:26172   */\n      dup2\n        /* \"#utility.yul\":26164:26184   */\n      sub\n        /* \"#utility.yul\":26160:26161   */\n      0x00\n        /* \"#utility.yul\":26149:26158   */\n      dup4\n        /* \"#utility.yul\":26145:26162   */\n      add\n        /* \"#utility.yul\":26138:26185   */\n      mstore\n        /* \"#utility.yul\":26202:26333   */\n      tag_717\n        /* \"#utility.yul\":26328:26332   */\n      dup2\n        /* \"#utility.yul\":26202:26333   */\n      tag_459\n      jump\t// in\n    tag_717:\n        /* \"#utility.yul\":26194:26333   */\n      swap1\n      pop\n        /* \"#utility.yul\":25921:26340   */\n      swap2\n      swap1\n      pop\n      jump\t// out\n        /* \"#utility.yul\":26346:26569   */\n    tag_460:\n        /* \"#utility.yul\":26486:26520   */\n      0x426f72726f7720616d6f756e74206d7573742062652067726561746572207468\n        /* \"#utility.yul\":26482:26483   */\n      0x00\n        /* \"#utility.yul\":26474:26480   */\n      dup3\n        /* \"#utility.yul\":26470:26484   */\n      add\n        /* \"#utility.yul\":26463:26521   */\n      mstore\n        /* \"#utility.yul\":26555:26561   */\n      0x616e203000000000000000000000000000000000000000000000000000000000\n        /* \"#utility.yul\":26550:26552   */\n      0x20\n        /* \"#utility.yul\":26542:26548   */\n      dup3\n        /* \"#utility.yul\":26538:26553   */\n      add\n        /* \"#utility.yul\":26531:26562   */\n      mstore\n        /* \"#utility.yul\":26346:26569   */\n      pop\n      jump\t// out\n        /* \"#utility.yul\":26575:26941   */\n    tag_461:\n        /* \"#utility.yul\":26717:26720   */\n      0x00\n        /* \"#utility.yul\":26738:26805   */\n      tag_720\n        /* \"#utility.yul\":26802:26804   */\n      0x24\n        /* \"#utility.yul\":26797:26800   */\n      dup4\n        /* \"#utility.yul\":26738:26805   */\n      tag_423\n      jump\t// in\n    tag_720:\n        /* \"#utility.yul\":26731:26805   */\n      swap2\n      pop\n        /* \"#utility.yul\":26814:26907   */\n      tag_721\n        /* \"#utility.yul\":26903:26906   */\n      dup3\n        /* \"#utility.yul\":26814:26907   */\n      tag_460\n      jump\t// in\n    tag_721:\n        /* \"#utility.yul\":26932:26934   */\n      0x40\n        /* \"#utility.yul\":26927:26930   */\n      dup3\n        /* \"#utility.yul\":26923:26935   */\n      add\n        /* \"#utility.yul\":26916:26935   */\n      swap1\n      pop\n        /* \"#utility.yul\":26575:26941   */\n      swap2\n      swap1\n      pop\n      jump\t// out\n        /* \"#utility.yul\":26947:27366   */\n    tag_318:\n        /* \"#utility.yul\":27113:27117   */\n      0x00\n        /* \"#utility.yul\":27151:27153   */\n      0x20\n        /* \"#utility.yul\":27140:27149   */\n      dup3\n        /* \"#utility.yul\":27136:27154   */\n      add\n        /* \"#utility.yul\":27128:27154   */\n      swap1\n      pop\n        /* \"#utility.yul\":27200:27209   */\n      dup2\n        /* \"#utility.yul\":27194:27198   */\n      dup2\n        /* \"#utility.yul\":27190:27210   */\n      sub\n        /* \"#utility.yul\":27186:27187   */\n      0x00\n        /* \"#utility.yul\":27175:27184   */\n      dup4\n        /* \"#utility.yul\":27171:27188   */\n      add\n        /* \"#utility.yul\":27164:27211   */\n      mstore\n        /* \"#utility.yul\":27228:27359   */\n      tag_723\n        /* \"#utility.yul\":27354:27358   */\n      dup2\n        /* \"#utility.yul\":27228:27359   */\n      tag_461\n      jump\t// in\n    tag_723:\n        /* \"#utility.yul\":27220:27359   */\n      swap1\n      pop\n        /* \"#utility.yul\":26947:27366   */\n      swap2\n      swap1\n      pop\n      jump\t// out\n        /* \"#utility.yul\":27372:27545   */\n    tag_462:\n        /* \"#utility.yul\":27512:27537   */\n      0x496e73756666696369656e7420636f6c6c61746572616c000000000000000000\n        /* \"#utility.yul\":27508:27509   */\n      0x00\n        /* \"#utility.yul\":27500:27506   */\n      dup3\n        /* \"#utility.yul\":27496:27510   */\n      add\n        /* \"#utility.yul\":27489:27538   */\n      mstore\n        /* \"#utility.yul\":27372:27545   */\n      pop\n      jump\t// out\n        /* \"#utility.yul\":27551:27917   */\n    tag_463:\n        /* \"#utility.yul\":27693:27696   */\n      0x00\n        /* \"#utility.yul\":27714:27781   */\n      tag_726\n        /* \"#utility.yul\":27778:27780   */\n      0x17\n        /* \"#utility.yul\":27773:27776   */\n      dup4\n        /* \"#utility.yul\":27714:27781   */\n      tag_423\n      jump\t// in\n    tag_726:\n        /* \"#utility.yul\":27707:27781   */\n      swap2\n      pop\n        /* \"#utility.yul\":27790:27883   */\n      tag_727\n        /* \"#utility.yul\":27879:27882   */\n      dup3\n        /* \"#utility.yul\":27790:27883   */\n      tag_462\n      jump\t// in\n    tag_727:\n        /* \"#utility.yul\":27908:27910   */\n      0x20\n        /* \"#utility.yul\":27903:27906   */\n      dup3\n        /* \"#utility.yul\":27899:27911   */\n      add\n        /* \"#utility.yul\":27892:27911   */\n      swap1\n      pop\n        /* \"#utility.yul\":27551:27917   */\n      swap2\n      swap1\n      pop\n      jump\t// out\n        /* \"#utility.yul\":27923:28342   */\n    tag_323:\n        /* \"#utility.yul\":28089:28093   */\n      0x00\n        /* \"#utility.yul\":28127:28129   */\n      0x20\n        /* \"#utility.yul\":28116:28125   */\n      dup3\n        /* \"#utility.yul\":28112:28130   */\n      add\n        /* \"#utility.yul\":28104:28130   */\n      swap1\n      pop\n        /* \"#utility.yul\":28176:28185   */\n      dup2\n        /* \"#utility.yul\":28170:28174   */\n      dup2\n        /* \"#utility.yul\":28166:28186   */\n      sub\n        /* \"#utility.yul\":28162:28163   */\n      0x00\n        /* \"#utility.yul\":28151:28160   */\n      dup4\n        /* \"#utility.yul\":28147:28164   */\n      add\n        /* \"#utility.yul\":28140:28187   */\n      mstore\n        /* \"#utility.yul\":28204:28335   */\n      tag_729\n        /* \"#utility.yul\":28330:28334   */\n      dup2\n        /* \"#utility.yul\":28204:28335   */\n      tag_463\n      jump\t// in\n    tag_729:\n        /* \"#utility.yul\":28196:28335   */\n      swap1\n      pop\n        /* \"#utility.yul\":27923:28342   */\n      swap2\n      swap1\n      pop\n      jump\t// out\n        /* \"#utility.yul\":28348:28520   */\n    tag_464:\n        /* \"#utility.yul\":28488:28512   */\n      0x426f72726f77207472616e73666572206661696c656400000000000000000000\n        /* \"#utility.yul\":28484:28485   */\n      0x00\n        /* \"#utility.yul\":28476:28482   */\n      dup3\n        /* \"#utility.yul\":28472:28486   */\n      add\n        /* \"#utility.yul\":28465:28513   */\n      mstore\n        /* \"#utility.yul\":28348:28520   */\n      pop\n      jump\t// out\n        /* \"#utility.yul\":28526:28892   */\n    tag_465:\n        /* \"#utility.yul\":28668:28671   */\n      0x00\n        /* \"#utility.yul\":28689:28756   */\n      tag_732\n        /* \"#utility.yul\":28753:28755   */\n      0x16\n        /* \"#utility.yul\":28748:28751   */\n      dup4\n        /* \"#utility.yul\":28689:28756   */\n      tag_423\n      jump\t// in\n    tag_732:\n        /* \"#utility.yul\":28682:28756   */\n      swap2\n      pop\n        /* \"#utility.yul\":28765:28858   */\n      tag_733\n        /* \"#utility.yul\":28854:28857   */\n      dup3\n        /* \"#utility.yul\":28765:28858   */\n      tag_464\n      jump\t// in\n    tag_733:\n        /* \"#utility.yul\":28883:28885   */\n      0x20\n        /* \"#utility.yul\":28878:28881   */\n      dup3\n        /* \"#utility.yul\":28874:28886   */\n      add\n        /* \"#utility.yul\":28867:28886   */\n      swap1\n      pop\n        /* \"#utility.yul\":28526:28892   */\n      swap2\n      swap1\n      pop\n      jump\t// out\n        /* \"#utility.yul\":28898:29317   */\n    tag_336:\n        /* \"#utility.yul\":29064:29068   */\n      0x00\n        /* \"#utility.yul\":29102:29104   */\n      0x20\n        /* \"#utility.yul\":29091:29100   */\n      dup3\n        /* \"#utility.yul\":29087:29105   */\n      add\n        /* \"#utility.yul\":29079:29105   */\n      swap1\n      pop\n        /* \"#utility.yul\":29151:29160   */\n      dup2\n        /* \"#utility.yul\":29145:29149   */\n      dup2\n        /* \"#utility.yul\":29141:29161   */\n      sub\n        /* \"#utility.yul\":29137:29138   */\n      0x00\n        /* \"#utility.yul\":29126:29135   */\n      dup4\n        /* \"#utility.yul\":29122:29139   */\n      add\n        /* \"#utility.yul\":29115:29162   */\n      mstore\n        /* \"#utility.yul\":29179:29310   */\n      tag_735\n        /* \"#utility.yul\":29305:29309   */\n      dup2\n        /* \"#utility.yul\":29179:29310   */\n      tag_465\n      jump\t// in\n    tag_735:\n        /* \"#utility.yul\":29171:29310   */\n      swap1\n      pop\n        /* \"#utility.yul\":28898:29317   */\n      swap2\n      swap1\n      pop\n      jump\t// out\n        /* \"#utility.yul\":29323:29495   */\n    tag_466:\n        /* \"#utility.yul\":29463:29487   */\n      0x4f7261636c65206461746120697320696e76616c696400000000000000000000\n        /* \"#utility.yul\":29459:29460   */\n      0x00\n        /* \"#utility.yul\":29451:29457   */\n      dup3\n        /* \"#utility.yul\":29447:29461   */\n      add\n        /* \"#utility.yul\":29440:29488   */\n      mstore\n        /* \"#utility.yul\":29323:29495   */\n      pop\n      jump\t// out\n        /* \"#utility.yul\":29501:29867   */\n    tag_467:\n        /* \"#utility.yul\":29643:29646   */\n      0x00\n        /* \"#utility.yul\":29664:29731   */\n      tag_738\n        /* \"#utility.yul\":29728:29730   */\n      0x16\n        /* \"#utility.yul\":29723:29726   */\n      dup4\n        /* \"#utility.yul\":29664:29731   */\n      tag_423\n      jump\t// in\n    tag_738:\n        /* \"#utility.yul\":29657:29731   */\n      swap2\n      pop\n        /* \"#utility.yul\":29740:29833   */\n      tag_739\n        /* \"#utility.yul\":29829:29832   */\n      dup3\n        /* \"#utility.yul\":29740:29833   */\n      tag_466\n      jump\t// in\n    tag_739:\n        /* \"#utility.yul\":29858:29860   */\n      0x20\n        /* \"#utility.yul\":29853:29856   */\n      dup3\n        /* \"#utility.yul\":29849:29861   */\n      add\n        /* \"#utility.yul\":29842:29861   */\n      swap1\n      pop\n        /* \"#utility.yul\":29501:29867   */\n      swap2\n      swap1\n      pop\n      jump\t// out\n        /* \"#utility.yul\":29873:30292   */\n    tag_361:\n        /* \"#utility.yul\":30039:30043   */\n      0x00\n        /* \"#utility.yul\":30077:30079   */\n      0x20\n        /* \"#utility.yul\":30066:30075   */\n      dup3\n        /* \"#utility.yul\":30062:30080   */\n      add\n        /* \"#utility.yul\":30054:30080   */\n      swap1\n      pop\n        /* \"#utility.yul\":30126:30135   */\n      dup2\n        /* \"#utility.yul\":30120:30124   */\n      dup2\n        /* \"#utility.yul\":30116:30136   */\n      sub\n        /* \"#utility.yul\":30112:30113   */\n      0x00\n        /* \"#utility.yul\":30101:30110   */\n      dup4\n        /* \"#utility.yul\":30097:30114   */\n      add\n        /* \"#utility.yul\":30090:30137   */\n      mstore\n        /* \"#utility.yul\":30154:30285   */\n      tag_741\n        /* \"#utility.yul\":30280:30284   */\n      dup2\n        /* \"#utility.yul\":30154:30285   */\n      tag_467\n      jump\t// in\n    tag_741:\n        /* \"#utility.yul\":30146:30285   */\n      swap1\n      pop\n        /* \"#utility.yul\":29873:30292   */\n      swap2\n      swap1\n      pop\n      jump\t// out\n        /* \"#utility.yul\":30298:30479   */\n    tag_468:\n        /* \"#utility.yul\":30438:30471   */\n      0x5265656e7472616e637947756172643a207265656e7472616e742063616c6c00\n        /* \"#utility.yul\":30434:30435   */\n      0x00\n        /* \"#utility.yul\":30426:30432   */\n      dup3\n        /* \"#utility.yul\":30422:30436   */\n      add\n        /* \"#utility.yul\":30415:30472   */\n      mstore\n        /* \"#utility.yul\":30298:30479   */\n      pop\n      jump\t// out\n        /* \"#utility.yul\":30485:30851   */\n    tag_469:\n        /* \"#utility.yul\":30627:30630   */\n      0x00\n        /* \"#utility.yul\":30648:30715   */\n      tag_744\n        /* \"#utility.yul\":30712:30714   */\n      0x1f\n        /* \"#utility.yul\":30707:30710   */\n      dup4\n        /* \"#utility.yul\":30648:30715   */\n      tag_423\n      jump\t// in\n    tag_744:\n        /* \"#utility.yul\":30641:30715   */\n      swap2\n      pop\n        /* \"#utility.yul\":30724:30817   */\n      tag_745\n        /* \"#utility.yul\":30813:30816   */\n      dup3\n        /* \"#utility.yul\":30724:30817   */\n      tag_468\n      jump\t// in\n    tag_745:\n        /* \"#utility.yul\":30842:30844   */\n      0x20\n        /* \"#utility.yul\":30837:30840   */\n      dup3\n        /* \"#utility.yul\":30833:30845   */\n      add\n        /* \"#utility.yul\":30826:30845   */\n      swap1\n      pop\n        /* \"#utility.yul\":30485:30851   */\n      swap2\n      swap1\n      pop\n      jump\t// out\n        /* \"#utility.yul\":30857:31276   */\n    tag_386:\n        /* \"#utility.yul\":31023:31027   */\n      0x00\n        /* \"#utility.yul\":31061:31063   */\n      0x20\n        /* \"#utility.yul\":31050:31059   */\n      dup3\n        /* \"#utility.yul\":31046:31064   */\n      add\n        /* \"#utility.yul\":31038:31064   */\n      swap1\n      pop\n        /* \"#utility.yul\":31110:31119   */\n      dup2\n        /* \"#utility.yul\":31104:31108   */\n      dup2\n        /* \"#utility.yul\":31100:31120   */\n      sub\n        /* \"#utility.yul\":31096:31097   */\n      0x00\n        /* \"#utility.yul\":31085:31094   */\n      dup4\n        /* \"#utility.yul\":31081:31098   */\n      add\n        /* \"#utility.yul\":31074:31121   */\n      mstore\n        /* \"#utility.yul\":31138:31269   */\n      tag_747\n        /* \"#utility.yul\":31264:31268   */\n      dup2\n        /* \"#utility.yul\":31138:31269   */\n      tag_469\n      jump\t// in\n    tag_747:\n        /* \"#utility.yul\":31130:31269   */\n      swap1\n      pop\n        /* \"#utility.yul\":30857:31276   */\n      swap2\n      swap1\n      pop\n      jump\t// out\n        /* \"#utility.yul\":31282:31614   */\n    tag_392:\n        /* \"#utility.yul\":31403:31407   */\n      0x00\n        /* \"#utility.yul\":31441:31443   */\n      0x40\n        /* \"#utility.yul\":31430:31439   */\n      dup3\n        /* \"#utility.yul\":31426:31444   */\n      add\n        /* \"#utility.yul\":31418:31444   */\n      swap1\n      pop\n        /* \"#utility.yul\":31454:31525   */\n      tag_749\n        /* \"#utility.yul\":31522:31523   */\n      0x00\n        /* \"#utility.yul\":31511:31520   */\n      dup4\n        /* \"#utility.yul\":31507:31524   */\n      add\n        /* \"#utility.yul\":31498:31504   */\n      dup6\n        /* \"#utility.yul\":31454:31525   */\n      tag_418\n      jump\t// in\n    tag_749:\n        /* \"#utility.yul\":31535:31607   */\n      tag_750\n        /* \"#utility.yul\":31603:31605   */\n      0x20\n        /* \"#utility.yul\":31592:31601   */\n      dup4\n        /* \"#utility.yul\":31588:31606   */\n      add\n        /* \"#utility.yul\":31579:31585   */\n      dup5\n        /* \"#utility.yul\":31535:31607   */\n      tag_406\n      jump\t// in\n    tag_750:\n        /* \"#utility.yul\":31282:31614   */\n      swap4\n      swap3\n      pop\n      pop\n      pop\n      jump\t// out\n\n    auxdata: 0xa26469706673582212205a5f6f49ef95caafd6f2840da582d30afbd5168947365c986829d6c161bacc8c64736f6c634300081c0033\n}\n",
				"bytecode": {
					"linkReferences": {},
					"object": "6080604052670de0b6b3a764000060035562015180600455348015610022575f5ffd5b5060405161324b38038061324b83398181016040528101906100449190610374565b60015f8190555061007b7fa49807205ce4d355092ef5a8a18f56e8913cf4a201fbe287825b095693c21775336101b660201b60201c565b506100ac7f5e17fc5225d4a099df75359ce1f405503ca79498a8dc46a7d583235a0ee45c16336101b660201b60201c565b508060025f6101000a81548173ffffffffffffffffffffffffffffffffffffffff021916908373ffffffffffffffffffffffffffffffffffffffff1602179055508360055f6101000a81548173ffffffffffffffffffffffffffffffffffffffff021916908373ffffffffffffffffffffffffffffffffffffffff1602179055508260065f6101000a81548173ffffffffffffffffffffffffffffffffffffffff021916908373ffffffffffffffffffffffffffffffffffffffff1602179055508160075f6101000a81548173ffffffffffffffffffffffffffffffffffffffff021916908373ffffffffffffffffffffffffffffffffffffffff160217905550505050506103d8565b5f6101c783836102ab60201b60201c565b6102a1576001805f8581526020019081526020015f205f015f8473ffffffffffffffffffffffffffffffffffffffff1673ffffffffffffffffffffffffffffffffffffffff1681526020019081526020015f205f6101000a81548160ff02191690831515021790555061023e61030f60201b60201c565b73ffffffffffffffffffffffffffffffffffffffff168273ffffffffffffffffffffffffffffffffffffffff16847f2f8788117e7eff1d82e926ec794901d17c78024a50270940304540a733656f0d60405160405180910390a4600190506102a5565b5f90505b92915050565b5f60015f8481526020019081526020015f205f015f8373ffffffffffffffffffffffffffffffffffffffff1673ffffffffffffffffffffffffffffffffffffffff1681526020019081526020015f205f9054906101000a900460ff16905092915050565b5f33905090565b5f5ffd5b5f73ffffffffffffffffffffffffffffffffffffffff82169050919050565b5f6103438261031a565b9050919050565b61035381610339565b811461035d575f5ffd5b50565b5f8151905061036e8161034a565b92915050565b5f5f5f5f6080858703121561038c5761038b610316565b5b5f61039987828801610360565b94505060206103aa87828801610360565b93505060406103bb87828801610360565b92505060606103cc87828801610360565b91505092959194509250565b612e66806103e55f395ff3fe608060405234801561000f575f5ffd5b50600436106101f9575f3560e01c806375b238fc11610118578063bad4a01f116100ab578063dbf624891161007a578063dbf62489146105c4578063e1b4264c146105ce578063f0f44260146105ec578063f41719aa14610608578063f93b6be514610626576101f9565b8063bad4a01f14610554578063bcbaf48714610570578063c5ebeaec1461058c578063d547741f146105a8576101f9565b806390d3b379116100e757806390d3b379146104a657806391d14854146104d657806397904e4214610506578063a217fddf14610536576101f9565b806375b238fc14610430578063809207181461044e57806380ea3de11461046c5780638c1b682014610488576101f9565b8063456dc17a116101905780635c975abb1161015f5780635c975abb146103a557806361d027b3146103c35780636cbf7f91146103e1578063741bef1a14610412576101f9565b8063456dc17a1461032f5780634ac8eb5f1461034d5780634c19386c1461036b5780635312ea8e14610389576101f9565b8063248a9ca3116101cc578063248a9ca3146102975780632f2ff15d146102c757806336568abe146102e35780633eff4e03146102ff576101f9565b806301b08d58146101fd57806301f728841461021957806301ffc9a71461024957806316d8887a14610279575b5f5ffd5b61021760048036038101906102129190611f64565b610630565b005b610233600480360381019061022e9190611f8f565b6106a3565b6040516102409190611fdc565b60405180910390f35b610263600480360381019061025e919061204a565b610707565b604051610270919061208f565b60405180910390f35b610281610780565b60405161028e91906120c0565b60405180910390f35b6102b160048036038101906102ac9190612103565b6107a4565b6040516102be91906120c0565b60405180910390f35b6102e160048036038101906102dc9190612188565b6107c1565b005b6102fd60048036038101906102f89190612188565b6107e3565b005b610319600480360381019061031491906121c6565b61085e565b6040516103269190611fdc565b60405180910390f35b610337610878565b604051610344919061224c565b60405180910390f35b61035561089d565b6040516103629190611fdc565b60405180910390f35b6103736108a3565b6040516103809190611fdc565b60405180910390f35b6103a3600480360381019061039e9190611f64565b6108a9565b005b6103ad610acb565b6040516103ba919061208f565b60405180910390f35b6103cb610ade565b6040516103d89190612274565b60405180910390f35b6103fb60048036038101906103f691906121c6565b610b03565b60405161040992919061228d565b60405180910390f35b61041a610b23565b60405161042791906122d4565b60405180910390f35b610438610b48565b60405161044591906120c0565b60405180910390f35b610456610b6c565b604051610463919061224c565b60405180910390f35b61048660048036038101906104819190611f64565b610b91565b005b610490610c04565b60405161049d9190611fdc565b60405180910390f35b6104c060048036038101906104bb9190611f64565b610c0a565b6040516104cd9190611fdc565b60405180910390f35b6104f060048036038101906104eb9190612188565b610c3e565b6040516104fd919061208f565b60405180910390f35b610520600480360381019061051b91906121c6565b610ca2565b60405161052d9190611fdc565b60405180910390f35b61053e610de1565b60405161054b91906120c0565b60405180910390f35b61056e60048036038101906105699190611f64565b610de7565b005b61058a600480360381019061058591906122ed565b611014565b005b6105a660048036038101906105a19190611f64565b6115bc565b005b6105c260048036038101906105bd9190612188565b611971565b005b6105cc611993565b005b6105d6611a19565b6040516105e39190611fdc565b60405180910390f35b610606600480360381019061060191906121c6565b611a1f565b005b610610611acb565b60405161061d9190612343565b60405180910390f35b61062e611baa565b005b61065a7fa49807205ce4d355092ef5a8a18f56e8913cf4a201fbe287825b095693c2177533610c3e565b610699576040517f08c379a0000000000000000000000000000000000000000000000000000000008152600401610690906123b6565b60405180910390fd5b8060038190555050565b5f5f82036106d3577fffffffffffffffffffffffffffffffffffffffffffffffffffffffffffffffff9050610701565b60c8826106e09190612401565b670de0b6b3a7640000846106f49190612401565b6106fe919061246f565b90505b92915050565b5f7f7965db0b000000000000000000000000000000000000000000000000000000007bffffffffffffffffffffffffffffffffffffffffffffffffffffffff1916827bffffffffffffffffffffffffffffffffffffffffffffffffffffffff19161480610779575061077882611c2f565b5b9050919050565b7f5e17fc5225d4a099df75359ce1f405503ca79498a8dc46a7d583235a0ee45c1681565b5f60015f8381526020019081526020015f20600101549050919050565b6107ca826107a4565b6107d381611c98565b6107dd8383611cac565b50505050565b6107eb611d95565b73ffffffffffffffffffffffffffffffffffffffff168173ffffffffffffffffffffffffffffffffffffffff161461084f576040517f6697b23200000000000000000000000000000000000000000000000000000000815260040160405180910390fd5b6108598282611d9c565b505050565b600b602052805f5260405f205f91509050805f0154905081565b60065f9054906101000a900473ffffffffffffffffffffffffffffffffffffffff1681565b60085481565b60095481565b6108d37fa49807205ce4d355092ef5a8a18f56e8913cf4a201fbe287825b095693c2177533610c3e565b610912576040517f08c379a0000000000000000000000000000000000000000000000000000000008152600401610909906123b6565b60405180910390fd5b60055f9054906101000a900473ffffffffffffffffffffffffffffffffffffffff1673ffffffffffffffffffffffffffffffffffffffff166370a08231306040518263ffffffff1660e01b815260040161096c9190612274565b602060405180830381865afa158015610987573d5f5f3e3d5ffd5b505050506040513d601f19601f820116820180604052508101906109ab91906124b3565b8111156109ed576040517f08c379a00000000000000000000000000000000000000000000000000000000081526004016109e490612528565b60405180910390fd5b60055f9054906101000a900473ffffffffffffffffffffffffffffffffffffffff1673ffffffffffffffffffffffffffffffffffffffff1663a9059cbb33836040518363ffffffff1660e01b8152600401610a49929190612546565b6020604051808303815f875af1158015610a65573d5f5f3e3d5ffd5b505050506040513d601f19601f82011682018060405250810190610a899190612597565b610ac8576040517f08c379a0000000000000000000000000000000000000000000000000000000008152600401610abf9061260c565b60405180910390fd5b50565b600260149054906101000a900460ff1681565b60025f9054906101000a900473ffffffffffffffffffffffffffffffffffffffff1681565b600a602052805f5260405f205f91509050805f0154908060010154905082565b60075f9054906101000a900473ffffffffffffffffffffffffffffffffffffffff1681565b7fa49807205ce4d355092ef5a8a18f56e8913cf4a201fbe287825b095693c2177581565b60055f9054906101000a900473ffffffffffffffffffffffffffffffffffffffff1681565b610bbb7fa49807205ce4d355092ef5a8a18f56e8913cf4a201fbe287825b095693c2177533610c3e565b610bfa576040517f08c379a0000000000000000000000000000000000000000000000000000000008152600401610bf1906123b6565b60405180910390fd5b8060048190555050565b60045481565b5f6050821015610c1d5760059050610c39565b605082610c2a919061262a565b600a610c36919061265d565b90505b919050565b5f60015f8481526020019081526020015f205f015f8373ffffffffffffffffffffffffffffffffffffffff1673ffffffffffffffffffffffffffffffffffffffff1681526020019081526020015f205f9054906101000a900460ff16905092915050565b5f5f600a5f8473ffffffffffffffffffffffffffffffffffffffff1673ffffffffffffffffffffffffffffffffffffffff1681526020019081526020015f205f015490505f60075f9054906101000a900473ffffffffffffffffffffffffffffffffffffffff1673ffffffffffffffffffffffffffffffffffffffff1663feaf968c6040518163ffffffff1660e01b815260040160a060405180830381865afa158015610d51573d5f5f3e3d5ffd5b505050506040513d601f19601f82011682018060405250810190610d7591906126f9565b5050509150505f8113610dbd576040517f08c379a0000000000000000000000000000000000000000000000000000000008152600401610db4906127ba565b60405180910390fd5b6305f5e1008183610dce9190612401565b610dd8919061246f565b92505050919050565b5f5f1b81565b600260149054906101000a900460ff1615610e37576040517f08c379a0000000000000000000000000000000000000000000000000000000008152600401610e2e90612822565b60405180910390fd5b5f8111610e79576040517f08c379a0000000000000000000000000000000000000000000000000000000008152600401610e709061288a565b60405180910390fd5b60055f9054906101000a900473ffffffffffffffffffffffffffffffffffffffff1673ffffffffffffffffffffffffffffffffffffffff166323b872dd3330846040518463ffffffff1660e01b8152600401610ed7939291906128a8565b6020604051808303815f875af1158015610ef3573d5f5f3e3d5ffd5b505050506040513d601f19601f82011682018060405250810190610f179190612597565b610f56576040517f08c379a0000000000000000000000000000000000000000000000000000000008152600401610f4d9061260c565b60405180910390fd5b80600a5f3373ffffffffffffffffffffffffffffffffffffffff1673ffffffffffffffffffffffffffffffffffffffff1681526020019081526020015f205f015f828254610fa4919061265d565b925050819055508060085f828254610fbc919061265d565b925050819055503373ffffffffffffffffffffffffffffffffffffffff167fd7243f6f8212d5188fd054141cf6ea89cfc0d91facb8c3afe2f88a1358480142826040516110099190611fdc565b60405180910390a250565b600260149054906101000a900460ff1615611064576040517f08c379a000000000000000000000000000000000000000000000000000000000815260040161105b90612822565b60405180910390fd5b61108e7f5e17fc5225d4a099df75359ce1f405503ca79498a8dc46a7d583235a0ee45c1633610c3e565b6110cd576040517f08c379a00000000000000000000000000000000000000000000000000000000081526004016110c490612927565b60405180910390fd5b6110d5611e86565b5f8111611117576040517f08c379a000000000000000000000000000000000000000000000000000000000815260040161110e906129b5565b60405180910390fd5b5f61112183610ca2565b90505f600b5f8573ffffffffffffffffffffffffffffffffffffffff1673ffffffffffffffffffffffffffffffffffffffff1681526020019081526020015f205f015490505f61117183836106a3565b905060035481106111b7576040517f08c379a00000000000000000000000000000000000000000000000000000000081526004016111ae90612a1d565b60405180910390fd5b5f8285106111c557826111c7565b845b905060055f9054906101000a900473ffffffffffffffffffffffffffffffffffffffff1673ffffffffffffffffffffffffffffffffffffffff1663a9059cbb33836040518363ffffffff1660e01b8152600401611225929190612546565b6020604051808303815f875af1158015611241573d5f5f3e3d5ffd5b505050506040513d601f19601f820116820180604052508101906112659190612597565b6112a4576040517f08c379a000000000000000000000000000000000000000000000000000000000815260040161129b90612a85565b60405180910390fd5b5f600a826112b2919061246f565b905060055f9054906101000a900473ffffffffffffffffffffffffffffffffffffffff1673ffffffffffffffffffffffffffffffffffffffff1663a9059cbb60025f9054906101000a900473ffffffffffffffffffffffffffffffffffffffff16836040518363ffffffff1660e01b8152600401611331929190612546565b6020604051808303815f875af115801561134d573d5f5f3e3d5ffd5b505050506040513d601f19601f820116820180604052508101906113719190612597565b6113b0576040517f08c379a00000000000000000000000000000000000000000000000000000000081526004016113a790612aed565b60405180910390fd5b81600b5f8973ffffffffffffffffffffffffffffffffffffffff1673ffffffffffffffffffffffffffffffffffffffff1681526020019081526020015f205f015f8282546113fe919061262a565b9250508190555081600a5f8973ffffffffffffffffffffffffffffffffffffffff1673ffffffffffffffffffffffffffffffffffffffff1681526020019081526020015f205f015f828254611453919061262a565b925050819055505f606483611468919061246f565b905060055f9054906101000a900473ffffffffffffffffffffffffffffffffffffffff1673ffffffffffffffffffffffffffffffffffffffff1663a9059cbb33836040518363ffffffff1660e01b81526004016114c6929190612546565b6020604051808303815f875af11580156114e2573d5f5f3e3d5ffd5b505050506040513d601f19601f820116820180604052508101906115069190612597565b611545576040517f08c379a000000000000000000000000000000000000000000000000000000000815260040161153c90612b55565b60405180910390fd5b3373ffffffffffffffffffffffffffffffffffffffff168873ffffffffffffffffffffffffffffffffffffffff167ff2f51441117ac1865376b3f32be7c7b7f01c5a67fbcf4e44f3ae8bacc03b5a90856040516115a29190611fdc565b60405180910390a35050505050506115b8611ed3565b5050565b600260149054906101000a900460ff161561160c576040517f08c379a000000000000000000000000000000000000000000000000000000000815260040161160390612822565b60405180910390fd5b600454600a5f3373ffffffffffffffffffffffffffffffffffffffff1673ffffffffffffffffffffffffffffffffffffffff1681526020019081526020015f206001015461165a919061265d565b42101561169c576040517f08c379a000000000000000000000000000000000000000000000000000000000815260040161169390612bbd565b60405180910390fd5b5f81116116de576040517f08c379a00000000000000000000000000000000000000000000000000000000081526004016116d590612c4b565b60405180910390fd5b5f6116e833610ca2565b90505f6002836116f89190612401565b90508082101561173d576040517f08c379a000000000000000000000000000000000000000000000000000000000815260040161173490612cb3565b60405180910390fd5b5f60085460646009546117509190612401565b61175a919061246f565b90505f61176682610c0a565b90505f606482876117779190612401565b611781919061246f565b8661178c919061265d565b905060065f9054906101000a900473ffffffffffffffffffffffffffffffffffffffff1673ffffffffffffffffffffffffffffffffffffffff1663a9059cbb33886040518363ffffffff1660e01b81526004016117ea929190612546565b6020604051808303815f875af1158015611806573d5f5f3e3d5ffd5b505050506040513d601f19601f8201168201806040525081019061182a9190612597565b611869576040517f08c379a000000000000000000000000000000000000000000000000000000000815260040161186090612d1b565b60405180910390fd5b80600b5f3373ffffffffffffffffffffffffffffffffffffffff1673ffffffffffffffffffffffffffffffffffffffff1681526020019081526020015f205f015f8282546118b7919061265d565b925050819055508560095f8282546118cf919061265d565b9250508190555042600a5f3373ffffffffffffffffffffffffffffffffffffffff1673ffffffffffffffffffffffffffffffffffffffff1681526020019081526020015f20600101819055503373ffffffffffffffffffffffffffffffffffffffff167f03c44a7ddb65ca5f1bbeffda35ba96457c370e957138d14005ff3e55551ab50f876040516119619190611fdc565b60405180910390a2505050505050565b61197a826107a4565b61198381611c98565b61198d8383611d9c565b50505050565b6119bd7fa49807205ce4d355092ef5a8a18f56e8913cf4a201fbe287825b095693c2177533610c3e565b6119fc576040517f08c379a00000000000000000000000000000000000000000000000000000000081526004016119f3906123b6565b60405180910390fd5b6001600260146101000a81548160ff021916908315150217905550565b60035481565b611a497fa49807205ce4d355092ef5a8a18f56e8913cf4a201fbe287825b095693c2177533610c3e565b611a88576040517f08c379a0000000000000000000000000000000000000000000000000000000008152600401611a7f906123b6565b60405180910390fd5b8060025f6101000a81548173ffffffffffffffffffffffffffffffffffffffff021916908373ffffffffffffffffffffffffffffffffffffffff16021790555050565b5f5f60075f9054906101000a900473ffffffffffffffffffffffffffffffffffffffff1673ffffffffffffffffffffffffffffffffffffffff1663feaf968c6040518163ffffffff1660e01b815260040160a060405180830381865afa158015611b37573d5f5f3e3d5ffd5b505050506040513d601f19601f82011682018060405250810190611b5b91906126f9565b5050509150505f8113611ba3576040517f08c379a0000000000000000000000000000000000000000000000000000000008152600401611b9a90612d83565b60405180910390fd5b8091505090565b611bd47fa49807205ce4d355092ef5a8a18f56e8913cf4a201fbe287825b095693c2177533610c3e565b611c13576040517f08c379a0000000000000000000000000000000000000000000000000000000008152600401611c0a906123b6565b60405180910390fd5b5f600260146101000a81548160ff021916908315150217905550565b5f7f01ffc9a7000000000000000000000000000000000000000000000000000000007bffffffffffffffffffffffffffffffffffffffffffffffffffffffff1916827bffffffffffffffffffffffffffffffffffffffffffffffffffffffff1916149050919050565b611ca981611ca4611d95565b611edc565b50565b5f611cb78383610c3e565b611d8b576001805f8581526020019081526020015f205f015f8473ffffffffffffffffffffffffffffffffffffffff1673ffffffffffffffffffffffffffffffffffffffff1681526020019081526020015f205f6101000a81548160ff021916908315150217905550611d28611d95565b73ffffffffffffffffffffffffffffffffffffffff168273ffffffffffffffffffffffffffffffffffffffff16847f2f8788117e7eff1d82e926ec794901d17c78024a50270940304540a733656f0d60405160405180910390a460019050611d8f565b5f90505b92915050565b5f33905090565b5f611da78383610c3e565b15611e7c575f60015f8581526020019081526020015f205f015f8473ffffffffffffffffffffffffffffffffffffffff1673ffffffffffffffffffffffffffffffffffffffff1681526020019081526020015f205f6101000a81548160ff021916908315150217905550611e19611d95565b73ffffffffffffffffffffffffffffffffffffffff168273ffffffffffffffffffffffffffffffffffffffff16847ff6391f5c32d9c69d2a47ea670b442974b53935d1edc7fd64eb21e047a839171b60405160405180910390a460019050611e80565b5f90505b92915050565b60025f5403611eca576040517f08c379a0000000000000000000000000000000000000000000000000000000008152600401611ec190612deb565b60405180910390fd5b60025f81905550565b60015f81905550565b611ee68282610c3e565b611f295780826040517fe2517d3f000000000000000000000000000000000000000000000000000000008152600401611f20929190612e09565b60405180910390fd5b5050565b5f5ffd5b5f819050919050565b611f4381611f31565b8114611f4d575f5ffd5b50565b5f81359050611f5e81611f3a565b92915050565b5f60208284031215611f7957611f78611f2d565b5b5f611f8684828501611f50565b91505092915050565b5f5f60408385031215611fa557611fa4611f2d565b5b5f611fb285828601611f50565b9250506020611fc385828601611f50565b9150509250929050565b611fd681611f31565b82525050565b5f602082019050611fef5f830184611fcd565b92915050565b5f7fffffffff0000000000000000000000000000000000000000000000000000000082169050919050565b61202981611ff5565b8114612033575f5ffd5b50565b5f8135905061204481612020565b92915050565b5f6020828403121561205f5761205e611f2d565b5b5f61206c84828501612036565b91505092915050565b5f8115159050919050565b61208981612075565b82525050565b5f6020820190506120a25f830184612080565b92915050565b5f819050919050565b6120ba816120a8565b82525050565b5f6020820190506120d35f8301846120b1565b92915050565b6120e2816120a8565b81146120ec575f5ffd5b50565b5f813590506120fd816120d9565b92915050565b5f6020828403121561211857612117611f2d565b5b5f612125848285016120ef565b91505092915050565b5f73ffffffffffffffffffffffffffffffffffffffff82169050919050565b5f6121578261212e565b9050919050565b6121678161214d565b8114612171575f5ffd5b50565b5f813590506121828161215e565b92915050565b5f5f6040838503121561219e5761219d611f2d565b5b5f6121ab858286016120ef565b92505060206121bc85828601612174565b9150509250929050565b5f602082840312156121db576121da611f2d565b5b5f6121e884828501612174565b91505092915050565b5f819050919050565b5f61221461220f61220a8461212e565b6121f1565b61212e565b9050919050565b5f612225826121fa565b9050919050565b5f6122368261221b565b9050919050565b6122468161222c565b82525050565b5f60208201905061225f5f83018461223d565b92915050565b61226e8161214d565b82525050565b5f6020820190506122875f830184612265565b92915050565b5f6040820190506122a05f830185611fcd565b6122ad6020830184611fcd565b9392505050565b5f6122be8261221b565b9050919050565b6122ce816122b4565b82525050565b5f6020820190506122e75f8301846122c5565b92915050565b5f5f6040838503121561230357612302611f2d565b5b5f61231085828601612174565b925050602061232185828601611f50565b9150509250929050565b5f819050919050565b61233d8161232b565b82525050565b5f6020820190506123565f830184612334565b92915050565b5f82825260208201905092915050565b7f4e6f742061646d696e00000000000000000000000000000000000000000000005f82015250565b5f6123a060098361235c565b91506123ab8261236c565b602082019050919050565b5f6020820190508181035f8301526123cd81612394565b9050919050565b7f4e487b71000000000000000000000000000000000000000000000000000000005f52601160045260245ffd5b5f61240b82611f31565b915061241683611f31565b925082820261242481611f31565b9150828204841483151761243b5761243a6123d4565b5b5092915050565b7f4e487b71000000000000000000000000000000000000000000000000000000005f52601260045260245ffd5b5f61247982611f31565b915061248483611f31565b92508261249457612493612442565b5b828204905092915050565b5f815190506124ad81611f3a565b92915050565b5f602082840312156124c8576124c7611f2d565b5b5f6124d58482850161249f565b91505092915050565b7f496e73756666696369656e742066756e647300000000000000000000000000005f82015250565b5f61251260128361235c565b915061251d826124de565b602082019050919050565b5f6020820190508181035f83015261253f81612506565b9050919050565b5f6040820190506125595f830185612265565b6125666020830184611fcd565b9392505050565b61257681612075565b8114612580575f5ffd5b50565b5f815190506125918161256d565b92915050565b5f602082840312156125ac576125ab611f2d565b5b5f6125b984828501612583565b91505092915050565b7f5472616e73666572206661696c656400000000000000000000000000000000005f82015250565b5f6125f6600f8361235c565b9150612601826125c2565b602082019050919050565b5f6020820190508181035f830152612623816125ea565b9050919050565b5f61263482611f31565b915061263f83611f31565b9250828203905081811115612657576126566123d4565b5b92915050565b5f61266782611f31565b915061267283611f31565b925082820190508082111561268a576126896123d4565b5b92915050565b5f69ffffffffffffffffffff82169050919050565b6126ae81612690565b81146126b8575f5ffd5b50565b5f815190506126c9816126a5565b92915050565b6126d88161232b565b81146126e2575f5ffd5b50565b5f815190506126f3816126cf565b92915050565b5f5f5f5f5f60a0868803121561271257612711611f2d565b5b5f61271f888289016126bb565b9550506020612730888289016126e5565b94505060406127418882890161249f565b93505060606127528882890161249f565b9250506080612763888289016126bb565b9150509295509295909350565b7f496e76616c6964207072696365206665656400000000000000000000000000005f82015250565b5f6127a460128361235c565b91506127af82612770565b602082019050919050565b5f6020820190508181035f8301526127d181612798565b9050919050565b7f50726f746f636f6c2070617573656400000000000000000000000000000000005f82015250565b5f61280c600f8361235c565b9150612817826127d8565b602082019050919050565b5f6020820190508181035f83015261283981612800565b9050919050565b7f416d6f756e74206d7573742062652067726561746572207468616e20300000005f82015250565b5f612874601d8361235c565b915061287f82612840565b602082019050919050565b5f6020820190508181035f8301526128a181612868565b9050919050565b5f6060820190506128bb5f830186612265565b6128c86020830185612265565b6128d56040830184611fcd565b949350505050565b7f4e6f74206c697175696461746f720000000000000000000000000000000000005f82015250565b5f612911600e8361235c565b915061291c826128dd565b602082019050919050565b5f6020820190508181035f83015261293e81612905565b9050919050565b7f526570617920616d6f756e74206d7573742062652067726561746572207468615f8201527f6e20300000000000000000000000000000000000000000000000000000000000602082015250565b5f61299f60238361235c565b91506129aa82612945565b604082019050919050565b5f6020820190508181035f8301526129cc81612993565b9050919050565b7f506f736974696f6e207374696c6c2073616665000000000000000000000000005f82015250565b5f612a0760138361235c565b9150612a12826129d3565b602082019050919050565b5f6020820190508181035f830152612a34816129fb565b9050919050565b7f4c69717569646174696f6e207472616e73666572206661696c656400000000005f82015250565b5f612a6f601b8361235c565b9150612a7a82612a3b565b602082019050919050565b5f6020820190508181035f830152612a9c81612a63565b9050919050565b7f5472656173757279207472616e73666572206661696c656400000000000000005f82015250565b5f612ad760188361235c565b9150612ae282612aa3565b602082019050919050565b5f6020820190508181035f830152612b0481612acb565b9050919050565b7f426f6e7573207472616e73666572206661696c656400000000000000000000005f82015250565b5f612b3f60158361235c565b9150612b4a82612b0b565b602082019050919050565b5f6020820190508181035f830152612b6c81612b33565b9050919050565b7f436f6f6c646f776e20706572696f6420686173206e6f7420656c6170736564005f82015250565b5f612ba7601f8361235c565b9150612bb282612b73565b602082019050919050565b5f6020820190508181035f830152612bd481612b9b565b9050919050565b7f426f72726f7720616d6f756e74206d75737420626520677265617465722074685f8201527f616e203000000000000000000000000000000000000000000000000000000000602082015250565b5f612c3560248361235c565b9150612c4082612bdb565b604082019050919050565b5f6020820190508181035f830152612c6281612c29565b9050919050565b7f496e73756666696369656e7420636f6c6c61746572616c0000000000000000005f82015250565b5f612c9d60178361235c565b9150612ca882612c69565b602082019050919050565b5f6020820190508181035f830152612cca81612c91565b9050919050565b7f426f72726f77207472616e73666572206661696c6564000000000000000000005f82015250565b5f612d0560168361235c565b9150612d1082612cd1565b602082019050919050565b5f6020820190508181035f830152612d3281612cf9565b9050919050565b7f4f7261636c65206461746120697320696e76616c6964000000000000000000005f82015250565b5f612d6d60168361235c565b9150612d7882612d39565b602082019050919050565b5f6020820190508181035f830152612d9a81612d61565b9050919050565b7f5265656e7472616e637947756172643a207265656e7472616e742063616c6c005f82015250565b5f612dd5601f8361235c565b9150612de082612da1565b602082019050919050565b5f6020820190508181035f830152612e0281612dc9565b9050919050565b5f604082019050612e1c5f830185612265565b612e2960208301846120b1565b939250505056fea26469706673582212205a5f6f49ef95caafd6f2840da582d30afbd5168947365c986829d6c161bacc8c64736f6c634300081c0033",
					"opcodes": "PUSH1 0x80 PUSH1 0x40 MSTORE PUSH8 0xDE0B6B3A7640000 PUSH1 0x3 SSTORE PUSH3 0x15180 PUSH1 0x4 SSTORE CALLVALUE DUP1 ISZERO PUSH2 0x22 JUMPI PUSH0 PUSH0 REVERT JUMPDEST POP PUSH1 0x40 MLOAD PUSH2 0x324B CODESIZE SUB DUP1 PUSH2 0x324B DUP4 CODECOPY DUP2 DUP2 ADD PUSH1 0x40 MSTORE DUP2 ADD SWAP1 PUSH2 0x44 SWAP2 SWAP1 PUSH2 0x374 JUMP JUMPDEST PUSH1 0x1 PUSH0 DUP2 SWAP1 SSTORE POP PUSH2 0x7B PUSH32 0xA49807205CE4D355092EF5A8A18F56E8913CF4A201FBE287825B095693C21775 CALLER PUSH2 0x1B6 PUSH1 0x20 SHL PUSH1 0x20 SHR JUMP JUMPDEST POP PUSH2 0xAC PUSH32 0x5E17FC5225D4A099DF75359CE1F405503CA79498A8DC46A7D583235A0EE45C16 CALLER PUSH2 0x1B6 PUSH1 0x20 SHL PUSH1 0x20 SHR JUMP JUMPDEST POP DUP1 PUSH1 0x2 PUSH0 PUSH2 0x100 EXP DUP2 SLOAD DUP2 PUSH20 0xFFFFFFFFFFFFFFFFFFFFFFFFFFFFFFFFFFFFFFFF MUL NOT AND SWAP1 DUP4 PUSH20 0xFFFFFFFFFFFFFFFFFFFFFFFFFFFFFFFFFFFFFFFF AND MUL OR SWAP1 SSTORE POP DUP4 PUSH1 0x5 PUSH0 PUSH2 0x100 EXP DUP2 SLOAD DUP2 PUSH20 0xFFFFFFFFFFFFFFFFFFFFFFFFFFFFFFFFFFFFFFFF MUL NOT AND SWAP1 DUP4 PUSH20 0xFFFFFFFFFFFFFFFFFFFFFFFFFFFFFFFFFFFFFFFF AND MUL OR SWAP1 SSTORE POP DUP3 PUSH1 0x6 PUSH0 PUSH2 0x100 EXP DUP2 SLOAD DUP2 PUSH20 0xFFFFFFFFFFFFFFFFFFFFFFFFFFFFFFFFFFFFFFFF MUL NOT AND SWAP1 DUP4 PUSH20 0xFFFFFFFFFFFFFFFFFFFFFFFFFFFFFFFFFFFFFFFF AND MUL OR SWAP1 SSTORE POP DUP2 PUSH1 0x7 PUSH0 PUSH2 0x100 EXP DUP2 SLOAD DUP2 PUSH20 0xFFFFFFFFFFFFFFFFFFFFFFFFFFFFFFFFFFFFFFFF MUL NOT AND SWAP1 DUP4 PUSH20 0xFFFFFFFFFFFFFFFFFFFFFFFFFFFFFFFFFFFFFFFF AND MUL OR SWAP1 SSTORE POP POP POP POP POP PUSH2 0x3D8 JUMP JUMPDEST PUSH0 PUSH2 0x1C7 DUP4 DUP4 PUSH2 0x2AB PUSH1 0x20 SHL PUSH1 0x20 SHR JUMP JUMPDEST PUSH2 0x2A1 JUMPI PUSH1 0x1 DUP1 PUSH0 DUP6 DUP2 MSTORE PUSH1 0x20 ADD SWAP1 DUP2 MSTORE PUSH1 0x20 ADD PUSH0 KECCAK256 PUSH0 ADD PUSH0 DUP5 PUSH20 0xFFFFFFFFFFFFFFFFFFFFFFFFFFFFFFFFFFFFFFFF AND PUSH20 0xFFFFFFFFFFFFFFFFFFFFFFFFFFFFFFFFFFFFFFFF AND DUP2 MSTORE PUSH1 0x20 ADD SWAP1 DUP2 MSTORE PUSH1 0x20 ADD PUSH0 KECCAK256 PUSH0 PUSH2 0x100 EXP DUP2 SLOAD DUP2 PUSH1 0xFF MUL NOT AND SWAP1 DUP4 ISZERO ISZERO MUL OR SWAP1 SSTORE POP PUSH2 0x23E PUSH2 0x30F PUSH1 0x20 SHL PUSH1 0x20 SHR JUMP JUMPDEST PUSH20 0xFFFFFFFFFFFFFFFFFFFFFFFFFFFFFFFFFFFFFFFF AND DUP3 PUSH20 0xFFFFFFFFFFFFFFFFFFFFFFFFFFFFFFFFFFFFFFFF AND DUP5 PUSH32 0x2F8788117E7EFF1D82E926EC794901D17C78024A50270940304540A733656F0D PUSH1 0x40 MLOAD PUSH1 0x40 MLOAD DUP1 SWAP2 SUB SWAP1 LOG4 PUSH1 0x1 SWAP1 POP PUSH2 0x2A5 JUMP JUMPDEST PUSH0 SWAP1 POP JUMPDEST SWAP3 SWAP2 POP POP JUMP JUMPDEST PUSH0 PUSH1 0x1 PUSH0 DUP5 DUP2 MSTORE PUSH1 0x20 ADD SWAP1 DUP2 MSTORE PUSH1 0x20 ADD PUSH0 KECCAK256 PUSH0 ADD PUSH0 DUP4 PUSH20 0xFFFFFFFFFFFFFFFFFFFFFFFFFFFFFFFFFFFFFFFF AND PUSH20 0xFFFFFFFFFFFFFFFFFFFFFFFFFFFFFFFFFFFFFFFF AND DUP2 MSTORE PUSH1 0x20 ADD SWAP1 DUP2 MSTORE PUSH1 0x20 ADD PUSH0 KECCAK256 PUSH0 SWAP1 SLOAD SWAP1 PUSH2 0x100 EXP SWAP1 DIV PUSH1 0xFF AND SWAP1 POP SWAP3 SWAP2 POP POP JUMP JUMPDEST PUSH0 CALLER SWAP1 POP SWAP1 JUMP JUMPDEST PUSH0 PUSH0 REVERT JUMPDEST PUSH0 PUSH20 0xFFFFFFFFFFFFFFFFFFFFFFFFFFFFFFFFFFFFFFFF DUP3 AND SWAP1 POP SWAP2 SWAP1 POP JUMP JUMPDEST PUSH0 PUSH2 0x343 DUP3 PUSH2 0x31A JUMP JUMPDEST SWAP1 POP SWAP2 SWAP1 POP JUMP JUMPDEST PUSH2 0x353 DUP2 PUSH2 0x339 JUMP JUMPDEST DUP2 EQ PUSH2 0x35D JUMPI PUSH0 PUSH0 REVERT JUMPDEST POP JUMP JUMPDEST PUSH0 DUP2 MLOAD SWAP1 POP PUSH2 0x36E DUP2 PUSH2 0x34A JUMP JUMPDEST SWAP3 SWAP2 POP POP JUMP JUMPDEST PUSH0 PUSH0 PUSH0 PUSH0 PUSH1 0x80 DUP6 DUP8 SUB SLT ISZERO PUSH2 0x38C JUMPI PUSH2 0x38B PUSH2 0x316 JUMP JUMPDEST JUMPDEST PUSH0 PUSH2 0x399 DUP8 DUP3 DUP9 ADD PUSH2 0x360 JUMP JUMPDEST SWAP5 POP POP PUSH1 0x20 PUSH2 0x3AA DUP8 DUP3 DUP9 ADD PUSH2 0x360 JUMP JUMPDEST SWAP4 POP POP PUSH1 0x40 PUSH2 0x3BB DUP8 DUP3 DUP9 ADD PUSH2 0x360 JUMP JUMPDEST SWAP3 POP POP PUSH1 0x60 PUSH2 0x3CC DUP8 DUP3 DUP9 ADD PUSH2 0x360 JUMP JUMPDEST SWAP2 POP POP SWAP3 SWAP6 SWAP2 SWAP5 POP SWAP3 POP JUMP JUMPDEST PUSH2 0x2E66 DUP1 PUSH2 0x3E5 PUSH0 CODECOPY PUSH0 RETURN INVALID PUSH1 0x80 PUSH1 0x40 MSTORE CALLVALUE DUP1 ISZERO PUSH2 0xF JUMPI PUSH0 PUSH0 REVERT JUMPDEST POP PUSH1 0x4 CALLDATASIZE LT PUSH2 0x1F9 JUMPI PUSH0 CALLDATALOAD PUSH1 0xE0 SHR DUP1 PUSH4 0x75B238FC GT PUSH2 0x118 JUMPI DUP1 PUSH4 0xBAD4A01F GT PUSH2 0xAB JUMPI DUP1 PUSH4 0xDBF62489 GT PUSH2 0x7A JUMPI DUP1 PUSH4 0xDBF62489 EQ PUSH2 0x5C4 JUMPI DUP1 PUSH4 0xE1B4264C EQ PUSH2 0x5CE JUMPI DUP1 PUSH4 0xF0F44260 EQ PUSH2 0x5EC JUMPI DUP1 PUSH4 0xF41719AA EQ PUSH2 0x608 JUMPI DUP1 PUSH4 0xF93B6BE5 EQ PUSH2 0x626 JUMPI PUSH2 0x1F9 JUMP JUMPDEST DUP1 PUSH4 0xBAD4A01F EQ PUSH2 0x554 JUMPI DUP1 PUSH4 0xBCBAF487 EQ PUSH2 0x570 JUMPI DUP1 PUSH4 0xC5EBEAEC EQ PUSH2 0x58C JUMPI DUP1 PUSH4 0xD547741F EQ PUSH2 0x5A8 JUMPI PUSH2 0x1F9 JUMP JUMPDEST DUP1 PUSH4 0x90D3B379 GT PUSH2 0xE7 JUMPI DUP1 PUSH4 0x90D3B379 EQ PUSH2 0x4A6 JUMPI DUP1 PUSH4 0x91D14854 EQ PUSH2 0x4D6 JUMPI DUP1 PUSH4 0x97904E42 EQ PUSH2 0x506 JUMPI DUP1 PUSH4 0xA217FDDF EQ PUSH2 0x536 JUMPI PUSH2 0x1F9 JUMP JUMPDEST DUP1 PUSH4 0x75B238FC EQ PUSH2 0x430 JUMPI DUP1 PUSH4 0x80920718 EQ PUSH2 0x44E JUMPI DUP1 PUSH4 0x80EA3DE1 EQ PUSH2 0x46C JUMPI DUP1 PUSH4 0x8C1B6820 EQ PUSH2 0x488 JUMPI PUSH2 0x1F9 JUMP JUMPDEST DUP1 PUSH4 0x456DC17A GT PUSH2 0x190 JUMPI DUP1 PUSH4 0x5C975ABB GT PUSH2 0x15F JUMPI DUP1 PUSH4 0x5C975ABB EQ PUSH2 0x3A5 JUMPI DUP1 PUSH4 0x61D027B3 EQ PUSH2 0x3C3 JUMPI DUP1 PUSH4 0x6CBF7F91 EQ PUSH2 0x3E1 JUMPI DUP1 PUSH4 0x741BEF1A EQ PUSH2 0x412 JUMPI PUSH2 0x1F9 JUMP JUMPDEST DUP1 PUSH4 0x456DC17A EQ PUSH2 0x32F JUMPI DUP1 PUSH4 0x4AC8EB5F EQ PUSH2 0x34D JUMPI DUP1 PUSH4 0x4C19386C EQ PUSH2 0x36B JUMPI DUP1 PUSH4 0x5312EA8E EQ PUSH2 0x389 JUMPI PUSH2 0x1F9 JUMP JUMPDEST DUP1 PUSH4 0x248A9CA3 GT PUSH2 0x1CC JUMPI DUP1 PUSH4 0x248A9CA3 EQ PUSH2 0x297 JUMPI DUP1 PUSH4 0x2F2FF15D EQ PUSH2 0x2C7 JUMPI DUP1 PUSH4 0x36568ABE EQ PUSH2 0x2E3 JUMPI DUP1 PUSH4 0x3EFF4E03 EQ PUSH2 0x2FF JUMPI PUSH2 0x1F9 JUMP JUMPDEST DUP1 PUSH4 0x1B08D58 EQ PUSH2 0x1FD JUMPI DUP1 PUSH4 0x1F72884 EQ PUSH2 0x219 JUMPI DUP1 PUSH4 0x1FFC9A7 EQ PUSH2 0x249 JUMPI DUP1 PUSH4 0x16D8887A EQ PUSH2 0x279 JUMPI JUMPDEST PUSH0 PUSH0 REVERT JUMPDEST PUSH2 0x217 PUSH1 0x4 DUP1 CALLDATASIZE SUB DUP2 ADD SWAP1 PUSH2 0x212 SWAP2 SWAP1 PUSH2 0x1F64 JUMP JUMPDEST PUSH2 0x630 JUMP JUMPDEST STOP JUMPDEST PUSH2 0x233 PUSH1 0x4 DUP1 CALLDATASIZE SUB DUP2 ADD SWAP1 PUSH2 0x22E SWAP2 SWAP1 PUSH2 0x1F8F JUMP JUMPDEST PUSH2 0x6A3 JUMP JUMPDEST PUSH1 0x40 MLOAD PUSH2 0x240 SWAP2 SWAP1 PUSH2 0x1FDC JUMP JUMPDEST PUSH1 0x40 MLOAD DUP1 SWAP2 SUB SWAP1 RETURN JUMPDEST PUSH2 0x263 PUSH1 0x4 DUP1 CALLDATASIZE SUB DUP2 ADD SWAP1 PUSH2 0x25E SWAP2 SWAP1 PUSH2 0x204A JUMP JUMPDEST PUSH2 0x707 JUMP JUMPDEST PUSH1 0x40 MLOAD PUSH2 0x270 SWAP2 SWAP1 PUSH2 0x208F JUMP JUMPDEST PUSH1 0x40 MLOAD DUP1 SWAP2 SUB SWAP1 RETURN JUMPDEST PUSH2 0x281 PUSH2 0x780 JUMP JUMPDEST PUSH1 0x40 MLOAD PUSH2 0x28E SWAP2 SWAP1 PUSH2 0x20C0 JUMP JUMPDEST PUSH1 0x40 MLOAD DUP1 SWAP2 SUB SWAP1 RETURN JUMPDEST PUSH2 0x2B1 PUSH1 0x4 DUP1 CALLDATASIZE SUB DUP2 ADD SWAP1 PUSH2 0x2AC SWAP2 SWAP1 PUSH2 0x2103 JUMP JUMPDEST PUSH2 0x7A4 JUMP JUMPDEST PUSH1 0x40 MLOAD PUSH2 0x2BE SWAP2 SWAP1 PUSH2 0x20C0 JUMP JUMPDEST PUSH1 0x40 MLOAD DUP1 SWAP2 SUB SWAP1 RETURN JUMPDEST PUSH2 0x2E1 PUSH1 0x4 DUP1 CALLDATASIZE SUB DUP2 ADD SWAP1 PUSH2 0x2DC SWAP2 SWAP1 PUSH2 0x2188 JUMP JUMPDEST PUSH2 0x7C1 JUMP JUMPDEST STOP JUMPDEST PUSH2 0x2FD PUSH1 0x4 DUP1 CALLDATASIZE SUB DUP2 ADD SWAP1 PUSH2 0x2F8 SWAP2 SWAP1 PUSH2 0x2188 JUMP JUMPDEST PUSH2 0x7E3 JUMP JUMPDEST STOP JUMPDEST PUSH2 0x319 PUSH1 0x4 DUP1 CALLDATASIZE SUB DUP2 ADD SWAP1 PUSH2 0x314 SWAP2 SWAP1 PUSH2 0x21C6 JUMP JUMPDEST PUSH2 0x85E JUMP JUMPDEST PUSH1 0x40 MLOAD PUSH2 0x326 SWAP2 SWAP1 PUSH2 0x1FDC JUMP JUMPDEST PUSH1 0x40 MLOAD DUP1 SWAP2 SUB SWAP1 RETURN JUMPDEST PUSH2 0x337 PUSH2 0x878 JUMP JUMPDEST PUSH1 0x40 MLOAD PUSH2 0x344 SWAP2 SWAP1 PUSH2 0x224C JUMP JUMPDEST PUSH1 0x40 MLOAD DUP1 SWAP2 SUB SWAP1 RETURN JUMPDEST PUSH2 0x355 PUSH2 0x89D JUMP JUMPDEST PUSH1 0x40 MLOAD PUSH2 0x362 SWAP2 SWAP1 PUSH2 0x1FDC JUMP JUMPDEST PUSH1 0x40 MLOAD DUP1 SWAP2 SUB SWAP1 RETURN JUMPDEST PUSH2 0x373 PUSH2 0x8A3 JUMP JUMPDEST PUSH1 0x40 MLOAD PUSH2 0x380 SWAP2 SWAP1 PUSH2 0x1FDC JUMP JUMPDEST PUSH1 0x40 MLOAD DUP1 SWAP2 SUB SWAP1 RETURN JUMPDEST PUSH2 0x3A3 PUSH1 0x4 DUP1 CALLDATASIZE SUB DUP2 ADD SWAP1 PUSH2 0x39E SWAP2 SWAP1 PUSH2 0x1F64 JUMP JUMPDEST PUSH2 0x8A9 JUMP JUMPDEST STOP JUMPDEST PUSH2 0x3AD PUSH2 0xACB JUMP JUMPDEST PUSH1 0x40 MLOAD PUSH2 0x3BA SWAP2 SWAP1 PUSH2 0x208F JUMP JUMPDEST PUSH1 0x40 MLOAD DUP1 SWAP2 SUB SWAP1 RETURN JUMPDEST PUSH2 0x3CB PUSH2 0xADE JUMP JUMPDEST PUSH1 0x40 MLOAD PUSH2 0x3D8 SWAP2 SWAP1 PUSH2 0x2274 JUMP JUMPDEST PUSH1 0x40 MLOAD DUP1 SWAP2 SUB SWAP1 RETURN JUMPDEST PUSH2 0x3FB PUSH1 0x4 DUP1 CALLDATASIZE SUB DUP2 ADD SWAP1 PUSH2 0x3F6 SWAP2 SWAP1 PUSH2 0x21C6 JUMP JUMPDEST PUSH2 0xB03 JUMP JUMPDEST PUSH1 0x40 MLOAD PUSH2 0x409 SWAP3 SWAP2 SWAP1 PUSH2 0x228D JUMP JUMPDEST PUSH1 0x40 MLOAD DUP1 SWAP2 SUB SWAP1 RETURN JUMPDEST PUSH2 0x41A PUSH2 0xB23 JUMP JUMPDEST PUSH1 0x40 MLOAD PUSH2 0x427 SWAP2 SWAP1 PUSH2 0x22D4 JUMP JUMPDEST PUSH1 0x40 MLOAD DUP1 SWAP2 SUB SWAP1 RETURN JUMPDEST PUSH2 0x438 PUSH2 0xB48 JUMP JUMPDEST PUSH1 0x40 MLOAD PUSH2 0x445 SWAP2 SWAP1 PUSH2 0x20C0 JUMP JUMPDEST PUSH1 0x40 MLOAD DUP1 SWAP2 SUB SWAP1 RETURN JUMPDEST PUSH2 0x456 PUSH2 0xB6C JUMP JUMPDEST PUSH1 0x40 MLOAD PUSH2 0x463 SWAP2 SWAP1 PUSH2 0x224C JUMP JUMPDEST PUSH1 0x40 MLOAD DUP1 SWAP2 SUB SWAP1 RETURN JUMPDEST PUSH2 0x486 PUSH1 0x4 DUP1 CALLDATASIZE SUB DUP2 ADD SWAP1 PUSH2 0x481 SWAP2 SWAP1 PUSH2 0x1F64 JUMP JUMPDEST PUSH2 0xB91 JUMP JUMPDEST STOP JUMPDEST PUSH2 0x490 PUSH2 0xC04 JUMP JUMPDEST PUSH1 0x40 MLOAD PUSH2 0x49D SWAP2 SWAP1 PUSH2 0x1FDC JUMP JUMPDEST PUSH1 0x40 MLOAD DUP1 SWAP2 SUB SWAP1 RETURN JUMPDEST PUSH2 0x4C0 PUSH1 0x4 DUP1 CALLDATASIZE SUB DUP2 ADD SWAP1 PUSH2 0x4BB SWAP2 SWAP1 PUSH2 0x1F64 JUMP JUMPDEST PUSH2 0xC0A JUMP JUMPDEST PUSH1 0x40 MLOAD PUSH2 0x4CD SWAP2 SWAP1 PUSH2 0x1FDC JUMP JUMPDEST PUSH1 0x40 MLOAD DUP1 SWAP2 SUB SWAP1 RETURN JUMPDEST PUSH2 0x4F0 PUSH1 0x4 DUP1 CALLDATASIZE SUB DUP2 ADD SWAP1 PUSH2 0x4EB SWAP2 SWAP1 PUSH2 0x2188 JUMP JUMPDEST PUSH2 0xC3E JUMP JUMPDEST PUSH1 0x40 MLOAD PUSH2 0x4FD SWAP2 SWAP1 PUSH2 0x208F JUMP JUMPDEST PUSH1 0x40 MLOAD DUP1 SWAP2 SUB SWAP1 RETURN JUMPDEST PUSH2 0x520 PUSH1 0x4 DUP1 CALLDATASIZE SUB DUP2 ADD SWAP1 PUSH2 0x51B SWAP2 SWAP1 PUSH2 0x21C6 JUMP JUMPDEST PUSH2 0xCA2 JUMP JUMPDEST PUSH1 0x40 MLOAD PUSH2 0x52D SWAP2 SWAP1 PUSH2 0x1FDC JUMP JUMPDEST PUSH1 0x40 MLOAD DUP1 SWAP2 SUB SWAP1 RETURN JUMPDEST PUSH2 0x53E PUSH2 0xDE1 JUMP JUMPDEST PUSH1 0x40 MLOAD PUSH2 0x54B SWAP2 SWAP1 PUSH2 0x20C0 JUMP JUMPDEST PUSH1 0x40 MLOAD DUP1 SWAP2 SUB SWAP1 RETURN JUMPDEST PUSH2 0x56E PUSH1 0x4 DUP1 CALLDATASIZE SUB DUP2 ADD SWAP1 PUSH2 0x569 SWAP2 SWAP1 PUSH2 0x1F64 JUMP JUMPDEST PUSH2 0xDE7 JUMP JUMPDEST STOP JUMPDEST PUSH2 0x58A PUSH1 0x4 DUP1 CALLDATASIZE SUB DUP2 ADD SWAP1 PUSH2 0x585 SWAP2 SWAP1 PUSH2 0x22ED JUMP JUMPDEST PUSH2 0x1014 JUMP JUMPDEST STOP JUMPDEST PUSH2 0x5A6 PUSH1 0x4 DUP1 CALLDATASIZE SUB DUP2 ADD SWAP1 PUSH2 0x5A1 SWAP2 SWAP1 PUSH2 0x1F64 JUMP JUMPDEST PUSH2 0x15BC JUMP JUMPDEST STOP JUMPDEST PUSH2 0x5C2 PUSH1 0x4 DUP1 CALLDATASIZE SUB DUP2 ADD SWAP1 PUSH2 0x5BD SWAP2 SWAP1 PUSH2 0x2188 JUMP JUMPDEST PUSH2 0x1971 JUMP JUMPDEST STOP JUMPDEST PUSH2 0x5CC PUSH2 0x1993 JUMP JUMPDEST STOP JUMPDEST PUSH2 0x5D6 PUSH2 0x1A19 JUMP JUMPDEST PUSH1 0x40 MLOAD PUSH2 0x5E3 SWAP2 SWAP1 PUSH2 0x1FDC JUMP JUMPDEST PUSH1 0x40 MLOAD DUP1 SWAP2 SUB SWAP1 RETURN JUMPDEST PUSH2 0x606 PUSH1 0x4 DUP1 CALLDATASIZE SUB DUP2 ADD SWAP1 PUSH2 0x601 SWAP2 SWAP1 PUSH2 0x21C6 JUMP JUMPDEST PUSH2 0x1A1F JUMP JUMPDEST STOP JUMPDEST PUSH2 0x610 PUSH2 0x1ACB JUMP JUMPDEST PUSH1 0x40 MLOAD PUSH2 0x61D SWAP2 SWAP1 PUSH2 0x2343 JUMP JUMPDEST PUSH1 0x40 MLOAD DUP1 SWAP2 SUB SWAP1 RETURN JUMPDEST PUSH2 0x62E PUSH2 0x1BAA JUMP JUMPDEST STOP JUMPDEST PUSH2 0x65A PUSH32 0xA49807205CE4D355092EF5A8A18F56E8913CF4A201FBE287825B095693C21775 CALLER PUSH2 0xC3E JUMP JUMPDEST PUSH2 0x699 JUMPI PUSH1 0x40 MLOAD PUSH32 0x8C379A000000000000000000000000000000000000000000000000000000000 DUP2 MSTORE PUSH1 0x4 ADD PUSH2 0x690 SWAP1 PUSH2 0x23B6 JUMP JUMPDEST PUSH1 0x40 MLOAD DUP1 SWAP2 SUB SWAP1 REVERT JUMPDEST DUP1 PUSH1 0x3 DUP2 SWAP1 SSTORE POP POP JUMP JUMPDEST PUSH0 PUSH0 DUP3 SUB PUSH2 0x6D3 JUMPI PUSH32 0xFFFFFFFFFFFFFFFFFFFFFFFFFFFFFFFFFFFFFFFFFFFFFFFFFFFFFFFFFFFFFFFF SWAP1 POP PUSH2 0x701 JUMP JUMPDEST PUSH1 0xC8 DUP3 PUSH2 0x6E0 SWAP2 SWAP1 PUSH2 0x2401 JUMP JUMPDEST PUSH8 0xDE0B6B3A7640000 DUP5 PUSH2 0x6F4 SWAP2 SWAP1 PUSH2 0x2401 JUMP JUMPDEST PUSH2 0x6FE SWAP2 SWAP1 PUSH2 0x246F JUMP JUMPDEST SWAP1 POP JUMPDEST SWAP3 SWAP2 POP POP JUMP JUMPDEST PUSH0 PUSH32 0x7965DB0B00000000000000000000000000000000000000000000000000000000 PUSH28 0xFFFFFFFFFFFFFFFFFFFFFFFFFFFFFFFFFFFFFFFFFFFFFFFFFFFFFFFF NOT AND DUP3 PUSH28 0xFFFFFFFFFFFFFFFFFFFFFFFFFFFFFFFFFFFFFFFFFFFFFFFFFFFFFFFF NOT AND EQ DUP1 PUSH2 0x779 JUMPI POP PUSH2 0x778 DUP3 PUSH2 0x1C2F JUMP JUMPDEST JUMPDEST SWAP1 POP SWAP2 SWAP1 POP JUMP JUMPDEST PUSH32 0x5E17FC5225D4A099DF75359CE1F405503CA79498A8DC46A7D583235A0EE45C16 DUP2 JUMP JUMPDEST PUSH0 PUSH1 0x1 PUSH0 DUP4 DUP2 MSTORE PUSH1 0x20 ADD SWAP1 DUP2 MSTORE PUSH1 0x20 ADD PUSH0 KECCAK256 PUSH1 0x1 ADD SLOAD SWAP1 POP SWAP2 SWAP1 POP JUMP JUMPDEST PUSH2 0x7CA DUP3 PUSH2 0x7A4 JUMP JUMPDEST PUSH2 0x7D3 DUP2 PUSH2 0x1C98 JUMP JUMPDEST PUSH2 0x7DD DUP4 DUP4 PUSH2 0x1CAC JUMP JUMPDEST POP POP POP POP JUMP JUMPDEST PUSH2 0x7EB PUSH2 0x1D95 JUMP JUMPDEST PUSH20 0xFFFFFFFFFFFFFFFFFFFFFFFFFFFFFFFFFFFFFFFF AND DUP2 PUSH20 0xFFFFFFFFFFFFFFFFFFFFFFFFFFFFFFFFFFFFFFFF AND EQ PUSH2 0x84F JUMPI PUSH1 0x40 MLOAD PUSH32 0x6697B23200000000000000000000000000000000000000000000000000000000 DUP2 MSTORE PUSH1 0x4 ADD PUSH1 0x40 MLOAD DUP1 SWAP2 SUB SWAP1 REVERT JUMPDEST PUSH2 0x859 DUP3 DUP3 PUSH2 0x1D9C JUMP JUMPDEST POP POP POP JUMP JUMPDEST PUSH1 0xB PUSH1 0x20 MSTORE DUP1 PUSH0 MSTORE PUSH1 0x40 PUSH0 KECCAK256 PUSH0 SWAP2 POP SWAP1 POP DUP1 PUSH0 ADD SLOAD SWAP1 POP DUP2 JUMP JUMPDEST PUSH1 0x6 PUSH0 SWAP1 SLOAD SWAP1 PUSH2 0x100 EXP SWAP1 DIV PUSH20 0xFFFFFFFFFFFFFFFFFFFFFFFFFFFFFFFFFFFFFFFF AND DUP2 JUMP JUMPDEST PUSH1 0x8 SLOAD DUP2 JUMP JUMPDEST PUSH1 0x9 SLOAD DUP2 JUMP JUMPDEST PUSH2 0x8D3 PUSH32 0xA49807205CE4D355092EF5A8A18F56E8913CF4A201FBE287825B095693C21775 CALLER PUSH2 0xC3E JUMP JUMPDEST PUSH2 0x912 JUMPI PUSH1 0x40 MLOAD PUSH32 0x8C379A000000000000000000000000000000000000000000000000000000000 DUP2 MSTORE PUSH1 0x4 ADD PUSH2 0x909 SWAP1 PUSH2 0x23B6 JUMP JUMPDEST PUSH1 0x40 MLOAD DUP1 SWAP2 SUB SWAP1 REVERT JUMPDEST PUSH1 0x5 PUSH0 SWAP1 SLOAD SWAP1 PUSH2 0x100 EXP SWAP1 DIV PUSH20 0xFFFFFFFFFFFFFFFFFFFFFFFFFFFFFFFFFFFFFFFF AND PUSH20 0xFFFFFFFFFFFFFFFFFFFFFFFFFFFFFFFFFFFFFFFF AND PUSH4 0x70A08231 ADDRESS PUSH1 0x40 MLOAD DUP3 PUSH4 0xFFFFFFFF AND PUSH1 0xE0 SHL DUP2 MSTORE PUSH1 0x4 ADD PUSH2 0x96C SWAP2 SWAP1 PUSH2 0x2274 JUMP JUMPDEST PUSH1 0x20 PUSH1 0x40 MLOAD DUP1 DUP4 SUB DUP2 DUP7 GAS STATICCALL ISZERO DUP1 ISZERO PUSH2 0x987 JUMPI RETURNDATASIZE PUSH0 PUSH0 RETURNDATACOPY RETURNDATASIZE PUSH0 REVERT JUMPDEST POP POP POP POP PUSH1 0x40 MLOAD RETURNDATASIZE PUSH1 0x1F NOT PUSH1 0x1F DUP3 ADD AND DUP3 ADD DUP1 PUSH1 0x40 MSTORE POP DUP2 ADD SWAP1 PUSH2 0x9AB SWAP2 SWAP1 PUSH2 0x24B3 JUMP JUMPDEST DUP2 GT ISZERO PUSH2 0x9ED JUMPI PUSH1 0x40 MLOAD PUSH32 0x8C379A000000000000000000000000000000000000000000000000000000000 DUP2 MSTORE PUSH1 0x4 ADD PUSH2 0x9E4 SWAP1 PUSH2 0x2528 JUMP JUMPDEST PUSH1 0x40 MLOAD DUP1 SWAP2 SUB SWAP1 REVERT JUMPDEST PUSH1 0x5 PUSH0 SWAP1 SLOAD SWAP1 PUSH2 0x100 EXP SWAP1 DIV PUSH20 0xFFFFFFFFFFFFFFFFFFFFFFFFFFFFFFFFFFFFFFFF AND PUSH20 0xFFFFFFFFFFFFFFFFFFFFFFFFFFFFFFFFFFFFFFFF AND PUSH4 0xA9059CBB CALLER DUP4 PUSH1 0x40 MLOAD DUP4 PUSH4 0xFFFFFFFF AND PUSH1 0xE0 SHL DUP2 MSTORE PUSH1 0x4 ADD PUSH2 0xA49 SWAP3 SWAP2 SWAP1 PUSH2 0x2546 JUMP JUMPDEST PUSH1 0x20 PUSH1 0x40 MLOAD DUP1 DUP4 SUB DUP2 PUSH0 DUP8 GAS CALL ISZERO DUP1 ISZERO PUSH2 0xA65 JUMPI RETURNDATASIZE PUSH0 PUSH0 RETURNDATACOPY RETURNDATASIZE PUSH0 REVERT JUMPDEST POP POP POP POP PUSH1 0x40 MLOAD RETURNDATASIZE PUSH1 0x1F NOT PUSH1 0x1F DUP3 ADD AND DUP3 ADD DUP1 PUSH1 0x40 MSTORE POP DUP2 ADD SWAP1 PUSH2 0xA89 SWAP2 SWAP1 PUSH2 0x2597 JUMP JUMPDEST PUSH2 0xAC8 JUMPI PUSH1 0x40 MLOAD PUSH32 0x8C379A000000000000000000000000000000000000000000000000000000000 DUP2 MSTORE PUSH1 0x4 ADD PUSH2 0xABF SWAP1 PUSH2 0x260C JUMP JUMPDEST PUSH1 0x40 MLOAD DUP1 SWAP2 SUB SWAP1 REVERT JUMPDEST POP JUMP JUMPDEST PUSH1 0x2 PUSH1 0x14 SWAP1 SLOAD SWAP1 PUSH2 0x100 EXP SWAP1 DIV PUSH1 0xFF AND DUP2 JUMP JUMPDEST PUSH1 0x2 PUSH0 SWAP1 SLOAD SWAP1 PUSH2 0x100 EXP SWAP1 DIV PUSH20 0xFFFFFFFFFFFFFFFFFFFFFFFFFFFFFFFFFFFFFFFF AND DUP2 JUMP JUMPDEST PUSH1 0xA PUSH1 0x20 MSTORE DUP1 PUSH0 MSTORE PUSH1 0x40 PUSH0 KECCAK256 PUSH0 SWAP2 POP SWAP1 POP DUP1 PUSH0 ADD SLOAD SWAP1 DUP1 PUSH1 0x1 ADD SLOAD SWAP1 POP DUP3 JUMP JUMPDEST PUSH1 0x7 PUSH0 SWAP1 SLOAD SWAP1 PUSH2 0x100 EXP SWAP1 DIV PUSH20 0xFFFFFFFFFFFFFFFFFFFFFFFFFFFFFFFFFFFFFFFF AND DUP2 JUMP JUMPDEST PUSH32 0xA49807205CE4D355092EF5A8A18F56E8913CF4A201FBE287825B095693C21775 DUP2 JUMP JUMPDEST PUSH1 0x5 PUSH0 SWAP1 SLOAD SWAP1 PUSH2 0x100 EXP SWAP1 DIV PUSH20 0xFFFFFFFFFFFFFFFFFFFFFFFFFFFFFFFFFFFFFFFF AND DUP2 JUMP JUMPDEST PUSH2 0xBBB PUSH32 0xA49807205CE4D355092EF5A8A18F56E8913CF4A201FBE287825B095693C21775 CALLER PUSH2 0xC3E JUMP JUMPDEST PUSH2 0xBFA JUMPI PUSH1 0x40 MLOAD PUSH32 0x8C379A000000000000000000000000000000000000000000000000000000000 DUP2 MSTORE PUSH1 0x4 ADD PUSH2 0xBF1 SWAP1 PUSH2 0x23B6 JUMP JUMPDEST PUSH1 0x40 MLOAD DUP1 SWAP2 SUB SWAP1 REVERT JUMPDEST DUP1 PUSH1 0x4 DUP2 SWAP1 SSTORE POP POP JUMP JUMPDEST PUSH1 0x4 SLOAD DUP2 JUMP JUMPDEST PUSH0 PUSH1 0x50 DUP3 LT ISZERO PUSH2 0xC1D JUMPI PUSH1 0x5 SWAP1 POP PUSH2 0xC39 JUMP JUMPDEST PUSH1 0x50 DUP3 PUSH2 0xC2A SWAP2 SWAP1 PUSH2 0x262A JUMP JUMPDEST PUSH1 0xA PUSH2 0xC36 SWAP2 SWAP1 PUSH2 0x265D JUMP JUMPDEST SWAP1 POP JUMPDEST SWAP2 SWAP1 POP JUMP JUMPDEST PUSH0 PUSH1 0x1 PUSH0 DUP5 DUP2 MSTORE PUSH1 0x20 ADD SWAP1 DUP2 MSTORE PUSH1 0x20 ADD PUSH0 KECCAK256 PUSH0 ADD PUSH0 DUP4 PUSH20 0xFFFFFFFFFFFFFFFFFFFFFFFFFFFFFFFFFFFFFFFF AND PUSH20 0xFFFFFFFFFFFFFFFFFFFFFFFFFFFFFFFFFFFFFFFF AND DUP2 MSTORE PUSH1 0x20 ADD SWAP1 DUP2 MSTORE PUSH1 0x20 ADD PUSH0 KECCAK256 PUSH0 SWAP1 SLOAD SWAP1 PUSH2 0x100 EXP SWAP1 DIV PUSH1 0xFF AND SWAP1 POP SWAP3 SWAP2 POP POP JUMP JUMPDEST PUSH0 PUSH0 PUSH1 0xA PUSH0 DUP5 PUSH20 0xFFFFFFFFFFFFFFFFFFFFFFFFFFFFFFFFFFFFFFFF AND PUSH20 0xFFFFFFFFFFFFFFFFFFFFFFFFFFFFFFFFFFFFFFFF AND DUP2 MSTORE PUSH1 0x20 ADD SWAP1 DUP2 MSTORE PUSH1 0x20 ADD PUSH0 KECCAK256 PUSH0 ADD SLOAD SWAP1 POP PUSH0 PUSH1 0x7 PUSH0 SWAP1 SLOAD SWAP1 PUSH2 0x100 EXP SWAP1 DIV PUSH20 0xFFFFFFFFFFFFFFFFFFFFFFFFFFFFFFFFFFFFFFFF AND PUSH20 0xFFFFFFFFFFFFFFFFFFFFFFFFFFFFFFFFFFFFFFFF AND PUSH4 0xFEAF968C PUSH1 0x40 MLOAD DUP2 PUSH4 0xFFFFFFFF AND PUSH1 0xE0 SHL DUP2 MSTORE PUSH1 0x4 ADD PUSH1 0xA0 PUSH1 0x40 MLOAD DUP1 DUP4 SUB DUP2 DUP7 GAS STATICCALL ISZERO DUP1 ISZERO PUSH2 0xD51 JUMPI RETURNDATASIZE PUSH0 PUSH0 RETURNDATACOPY RETURNDATASIZE PUSH0 REVERT JUMPDEST POP POP POP POP PUSH1 0x40 MLOAD RETURNDATASIZE PUSH1 0x1F NOT PUSH1 0x1F DUP3 ADD AND DUP3 ADD DUP1 PUSH1 0x40 MSTORE POP DUP2 ADD SWAP1 PUSH2 0xD75 SWAP2 SWAP1 PUSH2 0x26F9 JUMP JUMPDEST POP POP POP SWAP2 POP POP PUSH0 DUP2 SGT PUSH2 0xDBD JUMPI PUSH1 0x40 MLOAD PUSH32 0x8C379A000000000000000000000000000000000000000000000000000000000 DUP2 MSTORE PUSH1 0x4 ADD PUSH2 0xDB4 SWAP1 PUSH2 0x27BA JUMP JUMPDEST PUSH1 0x40 MLOAD DUP1 SWAP2 SUB SWAP1 REVERT JUMPDEST PUSH4 0x5F5E100 DUP2 DUP4 PUSH2 0xDCE SWAP2 SWAP1 PUSH2 0x2401 JUMP JUMPDEST PUSH2 0xDD8 SWAP2 SWAP1 PUSH2 0x246F JUMP JUMPDEST SWAP3 POP POP POP SWAP2 SWAP1 POP JUMP JUMPDEST PUSH0 PUSH0 SHL DUP2 JUMP JUMPDEST PUSH1 0x2 PUSH1 0x14 SWAP1 SLOAD SWAP1 PUSH2 0x100 EXP SWAP1 DIV PUSH1 0xFF AND ISZERO PUSH2 0xE37 JUMPI PUSH1 0x40 MLOAD PUSH32 0x8C379A000000000000000000000000000000000000000000000000000000000 DUP2 MSTORE PUSH1 0x4 ADD PUSH2 0xE2E SWAP1 PUSH2 0x2822 JUMP JUMPDEST PUSH1 0x40 MLOAD DUP1 SWAP2 SUB SWAP1 REVERT JUMPDEST PUSH0 DUP2 GT PUSH2 0xE79 JUMPI PUSH1 0x40 MLOAD PUSH32 0x8C379A000000000000000000000000000000000000000000000000000000000 DUP2 MSTORE PUSH1 0x4 ADD PUSH2 0xE70 SWAP1 PUSH2 0x288A JUMP JUMPDEST PUSH1 0x40 MLOAD DUP1 SWAP2 SUB SWAP1 REVERT JUMPDEST PUSH1 0x5 PUSH0 SWAP1 SLOAD SWAP1 PUSH2 0x100 EXP SWAP1 DIV PUSH20 0xFFFFFFFFFFFFFFFFFFFFFFFFFFFFFFFFFFFFFFFF AND PUSH20 0xFFFFFFFFFFFFFFFFFFFFFFFFFFFFFFFFFFFFFFFF AND PUSH4 0x23B872DD CALLER ADDRESS DUP5 PUSH1 0x40 MLOAD DUP5 PUSH4 0xFFFFFFFF AND PUSH1 0xE0 SHL DUP2 MSTORE PUSH1 0x4 ADD PUSH2 0xED7 SWAP4 SWAP3 SWAP2 SWAP1 PUSH2 0x28A8 JUMP JUMPDEST PUSH1 0x20 PUSH1 0x40 MLOAD DUP1 DUP4 SUB DUP2 PUSH0 DUP8 GAS CALL ISZERO DUP1 ISZERO PUSH2 0xEF3 JUMPI RETURNDATASIZE PUSH0 PUSH0 RETURNDATACOPY RETURNDATASIZE PUSH0 REVERT JUMPDEST POP POP POP POP PUSH1 0x40 MLOAD RETURNDATASIZE PUSH1 0x1F NOT PUSH1 0x1F DUP3 ADD AND DUP3 ADD DUP1 PUSH1 0x40 MSTORE POP DUP2 ADD SWAP1 PUSH2 0xF17 SWAP2 SWAP1 PUSH2 0x2597 JUMP JUMPDEST PUSH2 0xF56 JUMPI PUSH1 0x40 MLOAD PUSH32 0x8C379A000000000000000000000000000000000000000000000000000000000 DUP2 MSTORE PUSH1 0x4 ADD PUSH2 0xF4D SWAP1 PUSH2 0x260C JUMP JUMPDEST PUSH1 0x40 MLOAD DUP1 SWAP2 SUB SWAP1 REVERT JUMPDEST DUP1 PUSH1 0xA PUSH0 CALLER PUSH20 0xFFFFFFFFFFFFFFFFFFFFFFFFFFFFFFFFFFFFFFFF AND PUSH20 0xFFFFFFFFFFFFFFFFFFFFFFFFFFFFFFFFFFFFFFFF AND DUP2 MSTORE PUSH1 0x20 ADD SWAP1 DUP2 MSTORE PUSH1 0x20 ADD PUSH0 KECCAK256 PUSH0 ADD PUSH0 DUP3 DUP3 SLOAD PUSH2 0xFA4 SWAP2 SWAP1 PUSH2 0x265D JUMP JUMPDEST SWAP3 POP POP DUP2 SWAP1 SSTORE POP DUP1 PUSH1 0x8 PUSH0 DUP3 DUP3 SLOAD PUSH2 0xFBC SWAP2 SWAP1 PUSH2 0x265D JUMP JUMPDEST SWAP3 POP POP DUP2 SWAP1 SSTORE POP CALLER PUSH20 0xFFFFFFFFFFFFFFFFFFFFFFFFFFFFFFFFFFFFFFFF AND PUSH32 0xD7243F6F8212D5188FD054141CF6EA89CFC0D91FACB8C3AFE2F88A1358480142 DUP3 PUSH1 0x40 MLOAD PUSH2 0x1009 SWAP2 SWAP1 PUSH2 0x1FDC JUMP JUMPDEST PUSH1 0x40 MLOAD DUP1 SWAP2 SUB SWAP1 LOG2 POP JUMP JUMPDEST PUSH1 0x2 PUSH1 0x14 SWAP1 SLOAD SWAP1 PUSH2 0x100 EXP SWAP1 DIV PUSH1 0xFF AND ISZERO PUSH2 0x1064 JUMPI PUSH1 0x40 MLOAD PUSH32 0x8C379A000000000000000000000000000000000000000000000000000000000 DUP2 MSTORE PUSH1 0x4 ADD PUSH2 0x105B SWAP1 PUSH2 0x2822 JUMP JUMPDEST PUSH1 0x40 MLOAD DUP1 SWAP2 SUB SWAP1 REVERT JUMPDEST PUSH2 0x108E PUSH32 0x5E17FC5225D4A099DF75359CE1F405503CA79498A8DC46A7D583235A0EE45C16 CALLER PUSH2 0xC3E JUMP JUMPDEST PUSH2 0x10CD JUMPI PUSH1 0x40 MLOAD PUSH32 0x8C379A000000000000000000000000000000000000000000000000000000000 DUP2 MSTORE PUSH1 0x4 ADD PUSH2 0x10C4 SWAP1 PUSH2 0x2927 JUMP JUMPDEST PUSH1 0x40 MLOAD DUP1 SWAP2 SUB SWAP1 REVERT JUMPDEST PUSH2 0x10D5 PUSH2 0x1E86 JUMP JUMPDEST PUSH0 DUP2 GT PUSH2 0x1117 JUMPI PUSH1 0x40 MLOAD PUSH32 0x8C379A000000000000000000000000000000000000000000000000000000000 DUP2 MSTORE PUSH1 0x4 ADD PUSH2 0x110E SWAP1 PUSH2 0x29B5 JUMP JUMPDEST PUSH1 0x40 MLOAD DUP1 SWAP2 SUB SWAP1 REVERT JUMPDEST PUSH0 PUSH2 0x1121 DUP4 PUSH2 0xCA2 JUMP JUMPDEST SWAP1 POP PUSH0 PUSH1 0xB PUSH0 DUP6 PUSH20 0xFFFFFFFFFFFFFFFFFFFFFFFFFFFFFFFFFFFFFFFF AND PUSH20 0xFFFFFFFFFFFFFFFFFFFFFFFFFFFFFFFFFFFFFFFF AND DUP2 MSTORE PUSH1 0x20 ADD SWAP1 DUP2 MSTORE PUSH1 0x20 ADD PUSH0 KECCAK256 PUSH0 ADD SLOAD SWAP1 POP PUSH0 PUSH2 0x1171 DUP4 DUP4 PUSH2 0x6A3 JUMP JUMPDEST SWAP1 POP PUSH1 0x3 SLOAD DUP2 LT PUSH2 0x11B7 JUMPI PUSH1 0x40 MLOAD PUSH32 0x8C379A000000000000000000000000000000000000000000000000000000000 DUP2 MSTORE PUSH1 0x4 ADD PUSH2 0x11AE SWAP1 PUSH2 0x2A1D JUMP JUMPDEST PUSH1 0x40 MLOAD DUP1 SWAP2 SUB SWAP1 REVERT JUMPDEST PUSH0 DUP3 DUP6 LT PUSH2 0x11C5 JUMPI DUP3 PUSH2 0x11C7 JUMP JUMPDEST DUP5 JUMPDEST SWAP1 POP PUSH1 0x5 PUSH0 SWAP1 SLOAD SWAP1 PUSH2 0x100 EXP SWAP1 DIV PUSH20 0xFFFFFFFFFFFFFFFFFFFFFFFFFFFFFFFFFFFFFFFF AND PUSH20 0xFFFFFFFFFFFFFFFFFFFFFFFFFFFFFFFFFFFFFFFF AND PUSH4 0xA9059CBB CALLER DUP4 PUSH1 0x40 MLOAD DUP4 PUSH4 0xFFFFFFFF AND PUSH1 0xE0 SHL DUP2 MSTORE PUSH1 0x4 ADD PUSH2 0x1225 SWAP3 SWAP2 SWAP1 PUSH2 0x2546 JUMP JUMPDEST PUSH1 0x20 PUSH1 0x40 MLOAD DUP1 DUP4 SUB DUP2 PUSH0 DUP8 GAS CALL ISZERO DUP1 ISZERO PUSH2 0x1241 JUMPI RETURNDATASIZE PUSH0 PUSH0 RETURNDATACOPY RETURNDATASIZE PUSH0 REVERT JUMPDEST POP POP POP POP PUSH1 0x40 MLOAD RETURNDATASIZE PUSH1 0x1F NOT PUSH1 0x1F DUP3 ADD AND DUP3 ADD DUP1 PUSH1 0x40 MSTORE POP DUP2 ADD SWAP1 PUSH2 0x1265 SWAP2 SWAP1 PUSH2 0x2597 JUMP JUMPDEST PUSH2 0x12A4 JUMPI PUSH1 0x40 MLOAD PUSH32 0x8C379A000000000000000000000000000000000000000000000000000000000 DUP2 MSTORE PUSH1 0x4 ADD PUSH2 0x129B SWAP1 PUSH2 0x2A85 JUMP JUMPDEST PUSH1 0x40 MLOAD DUP1 SWAP2 SUB SWAP1 REVERT JUMPDEST PUSH0 PUSH1 0xA DUP3 PUSH2 0x12B2 SWAP2 SWAP1 PUSH2 0x246F JUMP JUMPDEST SWAP1 POP PUSH1 0x5 PUSH0 SWAP1 SLOAD SWAP1 PUSH2 0x100 EXP SWAP1 DIV PUSH20 0xFFFFFFFFFFFFFFFFFFFFFFFFFFFFFFFFFFFFFFFF AND PUSH20 0xFFFFFFFFFFFFFFFFFFFFFFFFFFFFFFFFFFFFFFFF AND PUSH4 0xA9059CBB PUSH1 0x2 PUSH0 SWAP1 SLOAD SWAP1 PUSH2 0x100 EXP SWAP1 DIV PUSH20 0xFFFFFFFFFFFFFFFFFFFFFFFFFFFFFFFFFFFFFFFF AND DUP4 PUSH1 0x40 MLOAD DUP4 PUSH4 0xFFFFFFFF AND PUSH1 0xE0 SHL DUP2 MSTORE PUSH1 0x4 ADD PUSH2 0x1331 SWAP3 SWAP2 SWAP1 PUSH2 0x2546 JUMP JUMPDEST PUSH1 0x20 PUSH1 0x40 MLOAD DUP1 DUP4 SUB DUP2 PUSH0 DUP8 GAS CALL ISZERO DUP1 ISZERO PUSH2 0x134D JUMPI RETURNDATASIZE PUSH0 PUSH0 RETURNDATACOPY RETURNDATASIZE PUSH0 REVERT JUMPDEST POP POP POP POP PUSH1 0x40 MLOAD RETURNDATASIZE PUSH1 0x1F NOT PUSH1 0x1F DUP3 ADD AND DUP3 ADD DUP1 PUSH1 0x40 MSTORE POP DUP2 ADD SWAP1 PUSH2 0x1371 SWAP2 SWAP1 PUSH2 0x2597 JUMP JUMPDEST PUSH2 0x13B0 JUMPI PUSH1 0x40 MLOAD PUSH32 0x8C379A000000000000000000000000000000000000000000000000000000000 DUP2 MSTORE PUSH1 0x4 ADD PUSH2 0x13A7 SWAP1 PUSH2 0x2AED JUMP JUMPDEST PUSH1 0x40 MLOAD DUP1 SWAP2 SUB SWAP1 REVERT JUMPDEST DUP2 PUSH1 0xB PUSH0 DUP10 PUSH20 0xFFFFFFFFFFFFFFFFFFFFFFFFFFFFFFFFFFFFFFFF AND PUSH20 0xFFFFFFFFFFFFFFFFFFFFFFFFFFFFFFFFFFFFFFFF AND DUP2 MSTORE PUSH1 0x20 ADD SWAP1 DUP2 MSTORE PUSH1 0x20 ADD PUSH0 KECCAK256 PUSH0 ADD PUSH0 DUP3 DUP3 SLOAD PUSH2 0x13FE SWAP2 SWAP1 PUSH2 0x262A JUMP JUMPDEST SWAP3 POP POP DUP2 SWAP1 SSTORE POP DUP2 PUSH1 0xA PUSH0 DUP10 PUSH20 0xFFFFFFFFFFFFFFFFFFFFFFFFFFFFFFFFFFFFFFFF AND PUSH20 0xFFFFFFFFFFFFFFFFFFFFFFFFFFFFFFFFFFFFFFFF AND DUP2 MSTORE PUSH1 0x20 ADD SWAP1 DUP2 MSTORE PUSH1 0x20 ADD PUSH0 KECCAK256 PUSH0 ADD PUSH0 DUP3 DUP3 SLOAD PUSH2 0x1453 SWAP2 SWAP1 PUSH2 0x262A JUMP JUMPDEST SWAP3 POP POP DUP2 SWAP1 SSTORE POP PUSH0 PUSH1 0x64 DUP4 PUSH2 0x1468 SWAP2 SWAP1 PUSH2 0x246F JUMP JUMPDEST SWAP1 POP PUSH1 0x5 PUSH0 SWAP1 SLOAD SWAP1 PUSH2 0x100 EXP SWAP1 DIV PUSH20 0xFFFFFFFFFFFFFFFFFFFFFFFFFFFFFFFFFFFFFFFF AND PUSH20 0xFFFFFFFFFFFFFFFFFFFFFFFFFFFFFFFFFFFFFFFF AND PUSH4 0xA9059CBB CALLER DUP4 PUSH1 0x40 MLOAD DUP4 PUSH4 0xFFFFFFFF AND PUSH1 0xE0 SHL DUP2 MSTORE PUSH1 0x4 ADD PUSH2 0x14C6 SWAP3 SWAP2 SWAP1 PUSH2 0x2546 JUMP JUMPDEST PUSH1 0x20 PUSH1 0x40 MLOAD DUP1 DUP4 SUB DUP2 PUSH0 DUP8 GAS CALL ISZERO DUP1 ISZERO PUSH2 0x14E2 JUMPI RETURNDATASIZE PUSH0 PUSH0 RETURNDATACOPY RETURNDATASIZE PUSH0 REVERT JUMPDEST POP POP POP POP PUSH1 0x40 MLOAD RETURNDATASIZE PUSH1 0x1F NOT PUSH1 0x1F DUP3 ADD AND DUP3 ADD DUP1 PUSH1 0x40 MSTORE POP DUP2 ADD SWAP1 PUSH2 0x1506 SWAP2 SWAP1 PUSH2 0x2597 JUMP JUMPDEST PUSH2 0x1545 JUMPI PUSH1 0x40 MLOAD PUSH32 0x8C379A000000000000000000000000000000000000000000000000000000000 DUP2 MSTORE PUSH1 0x4 ADD PUSH2 0x153C SWAP1 PUSH2 0x2B55 JUMP JUMPDEST PUSH1 0x40 MLOAD DUP1 SWAP2 SUB SWAP1 REVERT JUMPDEST CALLER PUSH20 0xFFFFFFFFFFFFFFFFFFFFFFFFFFFFFFFFFFFFFFFF AND DUP9 PUSH20 0xFFFFFFFFFFFFFFFFFFFFFFFFFFFFFFFFFFFFFFFF AND PUSH32 0xF2F51441117AC1865376B3F32BE7C7B7F01C5A67FBCF4E44F3AE8BACC03B5A90 DUP6 PUSH1 0x40 MLOAD PUSH2 0x15A2 SWAP2 SWAP1 PUSH2 0x1FDC JUMP JUMPDEST PUSH1 0x40 MLOAD DUP1 SWAP2 SUB SWAP1 LOG3 POP POP POP POP POP POP PUSH2 0x15B8 PUSH2 0x1ED3 JUMP JUMPDEST POP POP JUMP JUMPDEST PUSH1 0x2 PUSH1 0x14 SWAP1 SLOAD SWAP1 PUSH2 0x100 EXP SWAP1 DIV PUSH1 0xFF AND ISZERO PUSH2 0x160C JUMPI PUSH1 0x40 MLOAD PUSH32 0x8C379A000000000000000000000000000000000000000000000000000000000 DUP2 MSTORE PUSH1 0x4 ADD PUSH2 0x1603 SWAP1 PUSH2 0x2822 JUMP JUMPDEST PUSH1 0x40 MLOAD DUP1 SWAP2 SUB SWAP1 REVERT JUMPDEST PUSH1 0x4 SLOAD PUSH1 0xA PUSH0 CALLER PUSH20 0xFFFFFFFFFFFFFFFFFFFFFFFFFFFFFFFFFFFFFFFF AND PUSH20 0xFFFFFFFFFFFFFFFFFFFFFFFFFFFFFFFFFFFFFFFF AND DUP2 MSTORE PUSH1 0x20 ADD SWAP1 DUP2 MSTORE PUSH1 0x20 ADD PUSH0 KECCAK256 PUSH1 0x1 ADD SLOAD PUSH2 0x165A SWAP2 SWAP1 PUSH2 0x265D JUMP JUMPDEST TIMESTAMP LT ISZERO PUSH2 0x169C JUMPI PUSH1 0x40 MLOAD PUSH32 0x8C379A000000000000000000000000000000000000000000000000000000000 DUP2 MSTORE PUSH1 0x4 ADD PUSH2 0x1693 SWAP1 PUSH2 0x2BBD JUMP JUMPDEST PUSH1 0x40 MLOAD DUP1 SWAP2 SUB SWAP1 REVERT JUMPDEST PUSH0 DUP2 GT PUSH2 0x16DE JUMPI PUSH1 0x40 MLOAD PUSH32 0x8C379A000000000000000000000000000000000000000000000000000000000 DUP2 MSTORE PUSH1 0x4 ADD PUSH2 0x16D5 SWAP1 PUSH2 0x2C4B JUMP JUMPDEST PUSH1 0x40 MLOAD DUP1 SWAP2 SUB SWAP1 REVERT JUMPDEST PUSH0 PUSH2 0x16E8 CALLER PUSH2 0xCA2 JUMP JUMPDEST SWAP1 POP PUSH0 PUSH1 0x2 DUP4 PUSH2 0x16F8 SWAP2 SWAP1 PUSH2 0x2401 JUMP JUMPDEST SWAP1 POP DUP1 DUP3 LT ISZERO PUSH2 0x173D JUMPI PUSH1 0x40 MLOAD PUSH32 0x8C379A000000000000000000000000000000000000000000000000000000000 DUP2 MSTORE PUSH1 0x4 ADD PUSH2 0x1734 SWAP1 PUSH2 0x2CB3 JUMP JUMPDEST PUSH1 0x40 MLOAD DUP1 SWAP2 SUB SWAP1 REVERT JUMPDEST PUSH0 PUSH1 0x8 SLOAD PUSH1 0x64 PUSH1 0x9 SLOAD PUSH2 0x1750 SWAP2 SWAP1 PUSH2 0x2401 JUMP JUMPDEST PUSH2 0x175A SWAP2 SWAP1 PUSH2 0x246F JUMP JUMPDEST SWAP1 POP PUSH0 PUSH2 0x1766 DUP3 PUSH2 0xC0A JUMP JUMPDEST SWAP1 POP PUSH0 PUSH1 0x64 DUP3 DUP8 PUSH2 0x1777 SWAP2 SWAP1 PUSH2 0x2401 JUMP JUMPDEST PUSH2 0x1781 SWAP2 SWAP1 PUSH2 0x246F JUMP JUMPDEST DUP7 PUSH2 0x178C SWAP2 SWAP1 PUSH2 0x265D JUMP JUMPDEST SWAP1 POP PUSH1 0x6 PUSH0 SWAP1 SLOAD SWAP1 PUSH2 0x100 EXP SWAP1 DIV PUSH20 0xFFFFFFFFFFFFFFFFFFFFFFFFFFFFFFFFFFFFFFFF AND PUSH20 0xFFFFFFFFFFFFFFFFFFFFFFFFFFFFFFFFFFFFFFFF AND PUSH4 0xA9059CBB CALLER DUP9 PUSH1 0x40 MLOAD DUP4 PUSH4 0xFFFFFFFF AND PUSH1 0xE0 SHL DUP2 MSTORE PUSH1 0x4 ADD PUSH2 0x17EA SWAP3 SWAP2 SWAP1 PUSH2 0x2546 JUMP JUMPDEST PUSH1 0x20 PUSH1 0x40 MLOAD DUP1 DUP4 SUB DUP2 PUSH0 DUP8 GAS CALL ISZERO DUP1 ISZERO PUSH2 0x1806 JUMPI RETURNDATASIZE PUSH0 PUSH0 RETURNDATACOPY RETURNDATASIZE PUSH0 REVERT JUMPDEST POP POP POP POP PUSH1 0x40 MLOAD RETURNDATASIZE PUSH1 0x1F NOT PUSH1 0x1F DUP3 ADD AND DUP3 ADD DUP1 PUSH1 0x40 MSTORE POP DUP2 ADD SWAP1 PUSH2 0x182A SWAP2 SWAP1 PUSH2 0x2597 JUMP JUMPDEST PUSH2 0x1869 JUMPI PUSH1 0x40 MLOAD PUSH32 0x8C379A000000000000000000000000000000000000000000000000000000000 DUP2 MSTORE PUSH1 0x4 ADD PUSH2 0x1860 SWAP1 PUSH2 0x2D1B JUMP JUMPDEST PUSH1 0x40 MLOAD DUP1 SWAP2 SUB SWAP1 REVERT JUMPDEST DUP1 PUSH1 0xB PUSH0 CALLER PUSH20 0xFFFFFFFFFFFFFFFFFFFFFFFFFFFFFFFFFFFFFFFF AND PUSH20 0xFFFFFFFFFFFFFFFFFFFFFFFFFFFFFFFFFFFFFFFF AND DUP2 MSTORE PUSH1 0x20 ADD SWAP1 DUP2 MSTORE PUSH1 0x20 ADD PUSH0 KECCAK256 PUSH0 ADD PUSH0 DUP3 DUP3 SLOAD PUSH2 0x18B7 SWAP2 SWAP1 PUSH2 0x265D JUMP JUMPDEST SWAP3 POP POP DUP2 SWAP1 SSTORE POP DUP6 PUSH1 0x9 PUSH0 DUP3 DUP3 SLOAD PUSH2 0x18CF SWAP2 SWAP1 PUSH2 0x265D JUMP JUMPDEST SWAP3 POP POP DUP2 SWAP1 SSTORE POP TIMESTAMP PUSH1 0xA PUSH0 CALLER PUSH20 0xFFFFFFFFFFFFFFFFFFFFFFFFFFFFFFFFFFFFFFFF AND PUSH20 0xFFFFFFFFFFFFFFFFFFFFFFFFFFFFFFFFFFFFFFFF AND DUP2 MSTORE PUSH1 0x20 ADD SWAP1 DUP2 MSTORE PUSH1 0x20 ADD PUSH0 KECCAK256 PUSH1 0x1 ADD DUP2 SWAP1 SSTORE POP CALLER PUSH20 0xFFFFFFFFFFFFFFFFFFFFFFFFFFFFFFFFFFFFFFFF AND PUSH32 0x3C44A7DDB65CA5F1BBEFFDA35BA96457C370E957138D14005FF3E55551AB50F DUP8 PUSH1 0x40 MLOAD PUSH2 0x1961 SWAP2 SWAP1 PUSH2 0x1FDC JUMP JUMPDEST PUSH1 0x40 MLOAD DUP1 SWAP2 SUB SWAP1 LOG2 POP POP POP POP POP POP JUMP JUMPDEST PUSH2 0x197A DUP3 PUSH2 0x7A4 JUMP JUMPDEST PUSH2 0x1983 DUP2 PUSH2 0x1C98 JUMP JUMPDEST PUSH2 0x198D DUP4 DUP4 PUSH2 0x1D9C JUMP JUMPDEST POP POP POP POP JUMP JUMPDEST PUSH2 0x19BD PUSH32 0xA49807205CE4D355092EF5A8A18F56E8913CF4A201FBE287825B095693C21775 CALLER PUSH2 0xC3E JUMP JUMPDEST PUSH2 0x19FC JUMPI PUSH1 0x40 MLOAD PUSH32 0x8C379A000000000000000000000000000000000000000000000000000000000 DUP2 MSTORE PUSH1 0x4 ADD PUSH2 0x19F3 SWAP1 PUSH2 0x23B6 JUMP JUMPDEST PUSH1 0x40 MLOAD DUP1 SWAP2 SUB SWAP1 REVERT JUMPDEST PUSH1 0x1 PUSH1 0x2 PUSH1 0x14 PUSH2 0x100 EXP DUP2 SLOAD DUP2 PUSH1 0xFF MUL NOT AND SWAP1 DUP4 ISZERO ISZERO MUL OR SWAP1 SSTORE POP JUMP JUMPDEST PUSH1 0x3 SLOAD DUP2 JUMP JUMPDEST PUSH2 0x1A49 PUSH32 0xA49807205CE4D355092EF5A8A18F56E8913CF4A201FBE287825B095693C21775 CALLER PUSH2 0xC3E JUMP JUMPDEST PUSH2 0x1A88 JUMPI PUSH1 0x40 MLOAD PUSH32 0x8C379A000000000000000000000000000000000000000000000000000000000 DUP2 MSTORE PUSH1 0x4 ADD PUSH2 0x1A7F SWAP1 PUSH2 0x23B6 JUMP JUMPDEST PUSH1 0x40 MLOAD DUP1 SWAP2 SUB SWAP1 REVERT JUMPDEST DUP1 PUSH1 0x2 PUSH0 PUSH2 0x100 EXP DUP2 SLOAD DUP2 PUSH20 0xFFFFFFFFFFFFFFFFFFFFFFFFFFFFFFFFFFFFFFFF MUL NOT AND SWAP1 DUP4 PUSH20 0xFFFFFFFFFFFFFFFFFFFFFFFFFFFFFFFFFFFFFFFF AND MUL OR SWAP1 SSTORE POP POP JUMP JUMPDEST PUSH0 PUSH0 PUSH1 0x7 PUSH0 SWAP1 SLOAD SWAP1 PUSH2 0x100 EXP SWAP1 DIV PUSH20 0xFFFFFFFFFFFFFFFFFFFFFFFFFFFFFFFFFFFFFFFF AND PUSH20 0xFFFFFFFFFFFFFFFFFFFFFFFFFFFFFFFFFFFFFFFF AND PUSH4 0xFEAF968C PUSH1 0x40 MLOAD DUP2 PUSH4 0xFFFFFFFF AND PUSH1 0xE0 SHL DUP2 MSTORE PUSH1 0x4 ADD PUSH1 0xA0 PUSH1 0x40 MLOAD DUP1 DUP4 SUB DUP2 DUP7 GAS STATICCALL ISZERO DUP1 ISZERO PUSH2 0x1B37 JUMPI RETURNDATASIZE PUSH0 PUSH0 RETURNDATACOPY RETURNDATASIZE PUSH0 REVERT JUMPDEST POP POP POP POP PUSH1 0x40 MLOAD RETURNDATASIZE PUSH1 0x1F NOT PUSH1 0x1F DUP3 ADD AND DUP3 ADD DUP1 PUSH1 0x40 MSTORE POP DUP2 ADD SWAP1 PUSH2 0x1B5B SWAP2 SWAP1 PUSH2 0x26F9 JUMP JUMPDEST POP POP POP SWAP2 POP POP PUSH0 DUP2 SGT PUSH2 0x1BA3 JUMPI PUSH1 0x40 MLOAD PUSH32 0x8C379A000000000000000000000000000000000000000000000000000000000 DUP2 MSTORE PUSH1 0x4 ADD PUSH2 0x1B9A SWAP1 PUSH2 0x2D83 JUMP JUMPDEST PUSH1 0x40 MLOAD DUP1 SWAP2 SUB SWAP1 REVERT JUMPDEST DUP1 SWAP2 POP POP SWAP1 JUMP JUMPDEST PUSH2 0x1BD4 PUSH32 0xA49807205CE4D355092EF5A8A18F56E8913CF4A201FBE287825B095693C21775 CALLER PUSH2 0xC3E JUMP JUMPDEST PUSH2 0x1C13 JUMPI PUSH1 0x40 MLOAD PUSH32 0x8C379A000000000000000000000000000000000000000000000000000000000 DUP2 MSTORE PUSH1 0x4 ADD PUSH2 0x1C0A SWAP1 PUSH2 0x23B6 JUMP JUMPDEST PUSH1 0x40 MLOAD DUP1 SWAP2 SUB SWAP1 REVERT JUMPDEST PUSH0 PUSH1 0x2 PUSH1 0x14 PUSH2 0x100 EXP DUP2 SLOAD DUP2 PUSH1 0xFF MUL NOT AND SWAP1 DUP4 ISZERO ISZERO MUL OR SWAP1 SSTORE POP JUMP JUMPDEST PUSH0 PUSH32 0x1FFC9A700000000000000000000000000000000000000000000000000000000 PUSH28 0xFFFFFFFFFFFFFFFFFFFFFFFFFFFFFFFFFFFFFFFFFFFFFFFFFFFFFFFF NOT AND DUP3 PUSH28 0xFFFFFFFFFFFFFFFFFFFFFFFFFFFFFFFFFFFFFFFFFFFFFFFFFFFFFFFF NOT AND EQ SWAP1 POP SWAP2 SWAP1 POP JUMP JUMPDEST PUSH2 0x1CA9 DUP2 PUSH2 0x1CA4 PUSH2 0x1D95 JUMP JUMPDEST PUSH2 0x1EDC JUMP JUMPDEST POP JUMP JUMPDEST PUSH0 PUSH2 0x1CB7 DUP4 DUP4 PUSH2 0xC3E JUMP JUMPDEST PUSH2 0x1D8B JUMPI PUSH1 0x1 DUP1 PUSH0 DUP6 DUP2 MSTORE PUSH1 0x20 ADD SWAP1 DUP2 MSTORE PUSH1 0x20 ADD PUSH0 KECCAK256 PUSH0 ADD PUSH0 DUP5 PUSH20 0xFFFFFFFFFFFFFFFFFFFFFFFFFFFFFFFFFFFFFFFF AND PUSH20 0xFFFFFFFFFFFFFFFFFFFFFFFFFFFFFFFFFFFFFFFF AND DUP2 MSTORE PUSH1 0x20 ADD SWAP1 DUP2 MSTORE PUSH1 0x20 ADD PUSH0 KECCAK256 PUSH0 PUSH2 0x100 EXP DUP2 SLOAD DUP2 PUSH1 0xFF MUL NOT AND SWAP1 DUP4 ISZERO ISZERO MUL OR SWAP1 SSTORE POP PUSH2 0x1D28 PUSH2 0x1D95 JUMP JUMPDEST PUSH20 0xFFFFFFFFFFFFFFFFFFFFFFFFFFFFFFFFFFFFFFFF AND DUP3 PUSH20 0xFFFFFFFFFFFFFFFFFFFFFFFFFFFFFFFFFFFFFFFF AND DUP5 PUSH32 0x2F8788117E7EFF1D82E926EC794901D17C78024A50270940304540A733656F0D PUSH1 0x40 MLOAD PUSH1 0x40 MLOAD DUP1 SWAP2 SUB SWAP1 LOG4 PUSH1 0x1 SWAP1 POP PUSH2 0x1D8F JUMP JUMPDEST PUSH0 SWAP1 POP JUMPDEST SWAP3 SWAP2 POP POP JUMP JUMPDEST PUSH0 CALLER SWAP1 POP SWAP1 JUMP JUMPDEST PUSH0 PUSH2 0x1DA7 DUP4 DUP4 PUSH2 0xC3E JUMP JUMPDEST ISZERO PUSH2 0x1E7C JUMPI PUSH0 PUSH1 0x1 PUSH0 DUP6 DUP2 MSTORE PUSH1 0x20 ADD SWAP1 DUP2 MSTORE PUSH1 0x20 ADD PUSH0 KECCAK256 PUSH0 ADD PUSH0 DUP5 PUSH20 0xFFFFFFFFFFFFFFFFFFFFFFFFFFFFFFFFFFFFFFFF AND PUSH20 0xFFFFFFFFFFFFFFFFFFFFFFFFFFFFFFFFFFFFFFFF AND DUP2 MSTORE PUSH1 0x20 ADD SWAP1 DUP2 MSTORE PUSH1 0x20 ADD PUSH0 KECCAK256 PUSH0 PUSH2 0x100 EXP DUP2 SLOAD DUP2 PUSH1 0xFF MUL NOT AND SWAP1 DUP4 ISZERO ISZERO MUL OR SWAP1 SSTORE POP PUSH2 0x1E19 PUSH2 0x1D95 JUMP JUMPDEST PUSH20 0xFFFFFFFFFFFFFFFFFFFFFFFFFFFFFFFFFFFFFFFF AND DUP3 PUSH20 0xFFFFFFFFFFFFFFFFFFFFFFFFFFFFFFFFFFFFFFFF AND DUP5 PUSH32 0xF6391F5C32D9C69D2A47EA670B442974B53935D1EDC7FD64EB21E047A839171B PUSH1 0x40 MLOAD PUSH1 0x40 MLOAD DUP1 SWAP2 SUB SWAP1 LOG4 PUSH1 0x1 SWAP1 POP PUSH2 0x1E80 JUMP JUMPDEST PUSH0 SWAP1 POP JUMPDEST SWAP3 SWAP2 POP POP JUMP JUMPDEST PUSH1 0x2 PUSH0 SLOAD SUB PUSH2 0x1ECA JUMPI PUSH1 0x40 MLOAD PUSH32 0x8C379A000000000000000000000000000000000000000000000000000000000 DUP2 MSTORE PUSH1 0x4 ADD PUSH2 0x1EC1 SWAP1 PUSH2 0x2DEB JUMP JUMPDEST PUSH1 0x40 MLOAD DUP1 SWAP2 SUB SWAP1 REVERT JUMPDEST PUSH1 0x2 PUSH0 DUP2 SWAP1 SSTORE POP JUMP JUMPDEST PUSH1 0x1 PUSH0 DUP2 SWAP1 SSTORE POP JUMP JUMPDEST PUSH2 0x1EE6 DUP3 DUP3 PUSH2 0xC3E JUMP JUMPDEST PUSH2 0x1F29 JUMPI DUP1 DUP3 PUSH1 0x40 MLOAD PUSH32 0xE2517D3F00000000000000000000000000000000000000000000000000000000 DUP2 MSTORE PUSH1 0x4 ADD PUSH2 0x1F20 SWAP3 SWAP2 SWAP1 PUSH2 0x2E09 JUMP JUMPDEST PUSH1 0x40 MLOAD DUP1 SWAP2 SUB SWAP1 REVERT JUMPDEST POP POP JUMP JUMPDEST PUSH0 PUSH0 REVERT JUMPDEST PUSH0 DUP2 SWAP1 POP SWAP2 SWAP1 POP JUMP JUMPDEST PUSH2 0x1F43 DUP2 PUSH2 0x1F31 JUMP JUMPDEST DUP2 EQ PUSH2 0x1F4D JUMPI PUSH0 PUSH0 REVERT JUMPDEST POP JUMP JUMPDEST PUSH0 DUP2 CALLDATALOAD SWAP1 POP PUSH2 0x1F5E DUP2 PUSH2 0x1F3A JUMP JUMPDEST SWAP3 SWAP2 POP POP JUMP JUMPDEST PUSH0 PUSH1 0x20 DUP3 DUP5 SUB SLT ISZERO PUSH2 0x1F79 JUMPI PUSH2 0x1F78 PUSH2 0x1F2D JUMP JUMPDEST JUMPDEST PUSH0 PUSH2 0x1F86 DUP5 DUP3 DUP6 ADD PUSH2 0x1F50 JUMP JUMPDEST SWAP2 POP POP SWAP3 SWAP2 POP POP JUMP JUMPDEST PUSH0 PUSH0 PUSH1 0x40 DUP4 DUP6 SUB SLT ISZERO PUSH2 0x1FA5 JUMPI PUSH2 0x1FA4 PUSH2 0x1F2D JUMP JUMPDEST JUMPDEST PUSH0 PUSH2 0x1FB2 DUP6 DUP3 DUP7 ADD PUSH2 0x1F50 JUMP JUMPDEST SWAP3 POP POP PUSH1 0x20 PUSH2 0x1FC3 DUP6 DUP3 DUP7 ADD PUSH2 0x1F50 JUMP JUMPDEST SWAP2 POP POP SWAP3 POP SWAP3 SWAP1 POP JUMP JUMPDEST PUSH2 0x1FD6 DUP2 PUSH2 0x1F31 JUMP JUMPDEST DUP3 MSTORE POP POP JUMP JUMPDEST PUSH0 PUSH1 0x20 DUP3 ADD SWAP1 POP PUSH2 0x1FEF PUSH0 DUP4 ADD DUP5 PUSH2 0x1FCD JUMP JUMPDEST SWAP3 SWAP2 POP POP JUMP JUMPDEST PUSH0 PUSH32 0xFFFFFFFF00000000000000000000000000000000000000000000000000000000 DUP3 AND SWAP1 POP SWAP2 SWAP1 POP JUMP JUMPDEST PUSH2 0x2029 DUP2 PUSH2 0x1FF5 JUMP JUMPDEST DUP2 EQ PUSH2 0x2033 JUMPI PUSH0 PUSH0 REVERT JUMPDEST POP JUMP JUMPDEST PUSH0 DUP2 CALLDATALOAD SWAP1 POP PUSH2 0x2044 DUP2 PUSH2 0x2020 JUMP JUMPDEST SWAP3 SWAP2 POP POP JUMP JUMPDEST PUSH0 PUSH1 0x20 DUP3 DUP5 SUB SLT ISZERO PUSH2 0x205F JUMPI PUSH2 0x205E PUSH2 0x1F2D JUMP JUMPDEST JUMPDEST PUSH0 PUSH2 0x206C DUP5 DUP3 DUP6 ADD PUSH2 0x2036 JUMP JUMPDEST SWAP2 POP POP SWAP3 SWAP2 POP POP JUMP JUMPDEST PUSH0 DUP2 ISZERO ISZERO SWAP1 POP SWAP2 SWAP1 POP JUMP JUMPDEST PUSH2 0x2089 DUP2 PUSH2 0x2075 JUMP JUMPDEST DUP3 MSTORE POP POP JUMP JUMPDEST PUSH0 PUSH1 0x20 DUP3 ADD SWAP1 POP PUSH2 0x20A2 PUSH0 DUP4 ADD DUP5 PUSH2 0x2080 JUMP JUMPDEST SWAP3 SWAP2 POP POP JUMP JUMPDEST PUSH0 DUP2 SWAP1 POP SWAP2 SWAP1 POP JUMP JUMPDEST PUSH2 0x20BA DUP2 PUSH2 0x20A8 JUMP JUMPDEST DUP3 MSTORE POP POP JUMP JUMPDEST PUSH0 PUSH1 0x20 DUP3 ADD SWAP1 POP PUSH2 0x20D3 PUSH0 DUP4 ADD DUP5 PUSH2 0x20B1 JUMP JUMPDEST SWAP3 SWAP2 POP POP JUMP JUMPDEST PUSH2 0x20E2 DUP2 PUSH2 0x20A8 JUMP JUMPDEST DUP2 EQ PUSH2 0x20EC JUMPI PUSH0 PUSH0 REVERT JUMPDEST POP JUMP JUMPDEST PUSH0 DUP2 CALLDATALOAD SWAP1 POP PUSH2 0x20FD DUP2 PUSH2 0x20D9 JUMP JUMPDEST SWAP3 SWAP2 POP POP JUMP JUMPDEST PUSH0 PUSH1 0x20 DUP3 DUP5 SUB SLT ISZERO PUSH2 0x2118 JUMPI PUSH2 0x2117 PUSH2 0x1F2D JUMP JUMPDEST JUMPDEST PUSH0 PUSH2 0x2125 DUP5 DUP3 DUP6 ADD PUSH2 0x20EF JUMP JUMPDEST SWAP2 POP POP SWAP3 SWAP2 POP POP JUMP JUMPDEST PUSH0 PUSH20 0xFFFFFFFFFFFFFFFFFFFFFFFFFFFFFFFFFFFFFFFF DUP3 AND SWAP1 POP SWAP2 SWAP1 POP JUMP JUMPDEST PUSH0 PUSH2 0x2157 DUP3 PUSH2 0x212E JUMP JUMPDEST SWAP1 POP SWAP2 SWAP1 POP JUMP JUMPDEST PUSH2 0x2167 DUP2 PUSH2 0x214D JUMP JUMPDEST DUP2 EQ PUSH2 0x2171 JUMPI PUSH0 PUSH0 REVERT JUMPDEST POP JUMP JUMPDEST PUSH0 DUP2 CALLDATALOAD SWAP1 POP PUSH2 0x2182 DUP2 PUSH2 0x215E JUMP JUMPDEST SWAP3 SWAP2 POP POP JUMP JUMPDEST PUSH0 PUSH0 PUSH1 0x40 DUP4 DUP6 SUB SLT ISZERO PUSH2 0x219E JUMPI PUSH2 0x219D PUSH2 0x1F2D JUMP JUMPDEST JUMPDEST PUSH0 PUSH2 0x21AB DUP6 DUP3 DUP7 ADD PUSH2 0x20EF JUMP JUMPDEST SWAP3 POP POP PUSH1 0x20 PUSH2 0x21BC DUP6 DUP3 DUP7 ADD PUSH2 0x2174 JUMP JUMPDEST SWAP2 POP POP SWAP3 POP SWAP3 SWAP1 POP JUMP JUMPDEST PUSH0 PUSH1 0x20 DUP3 DUP5 SUB SLT ISZERO PUSH2 0x21DB JUMPI PUSH2 0x21DA PUSH2 0x1F2D JUMP JUMPDEST JUMPDEST PUSH0 PUSH2 0x21E8 DUP5 DUP3 DUP6 ADD PUSH2 0x2174 JUMP JUMPDEST SWAP2 POP POP SWAP3 SWAP2 POP POP JUMP JUMPDEST PUSH0 DUP2 SWAP1 POP SWAP2 SWAP1 POP JUMP JUMPDEST PUSH0 PUSH2 0x2214 PUSH2 0x220F PUSH2 0x220A DUP5 PUSH2 0x212E JUMP JUMPDEST PUSH2 0x21F1 JUMP JUMPDEST PUSH2 0x212E JUMP JUMPDEST SWAP1 POP SWAP2 SWAP1 POP JUMP JUMPDEST PUSH0 PUSH2 0x2225 DUP3 PUSH2 0x21FA JUMP JUMPDEST SWAP1 POP SWAP2 SWAP1 POP JUMP JUMPDEST PUSH0 PUSH2 0x2236 DUP3 PUSH2 0x221B JUMP JUMPDEST SWAP1 POP SWAP2 SWAP1 POP JUMP JUMPDEST PUSH2 0x2246 DUP2 PUSH2 0x222C JUMP JUMPDEST DUP3 MSTORE POP POP JUMP JUMPDEST PUSH0 PUSH1 0x20 DUP3 ADD SWAP1 POP PUSH2 0x225F PUSH0 DUP4 ADD DUP5 PUSH2 0x223D JUMP JUMPDEST SWAP3 SWAP2 POP POP JUMP JUMPDEST PUSH2 0x226E DUP2 PUSH2 0x214D JUMP JUMPDEST DUP3 MSTORE POP POP JUMP JUMPDEST PUSH0 PUSH1 0x20 DUP3 ADD SWAP1 POP PUSH2 0x2287 PUSH0 DUP4 ADD DUP5 PUSH2 0x2265 JUMP JUMPDEST SWAP3 SWAP2 POP POP JUMP JUMPDEST PUSH0 PUSH1 0x40 DUP3 ADD SWAP1 POP PUSH2 0x22A0 PUSH0 DUP4 ADD DUP6 PUSH2 0x1FCD JUMP JUMPDEST PUSH2 0x22AD PUSH1 0x20 DUP4 ADD DUP5 PUSH2 0x1FCD JUMP JUMPDEST SWAP4 SWAP3 POP POP POP JUMP JUMPDEST PUSH0 PUSH2 0x22BE DUP3 PUSH2 0x221B JUMP JUMPDEST SWAP1 POP SWAP2 SWAP1 POP JUMP JUMPDEST PUSH2 0x22CE DUP2 PUSH2 0x22B4 JUMP JUMPDEST DUP3 MSTORE POP POP JUMP JUMPDEST PUSH0 PUSH1 0x20 DUP3 ADD SWAP1 POP PUSH2 0x22E7 PUSH0 DUP4 ADD DUP5 PUSH2 0x22C5 JUMP JUMPDEST SWAP3 SWAP2 POP POP JUMP JUMPDEST PUSH0 PUSH0 PUSH1 0x40 DUP4 DUP6 SUB SLT ISZERO PUSH2 0x2303 JUMPI PUSH2 0x2302 PUSH2 0x1F2D JUMP JUMPDEST JUMPDEST PUSH0 PUSH2 0x2310 DUP6 DUP3 DUP7 ADD PUSH2 0x2174 JUMP JUMPDEST SWAP3 POP POP PUSH1 0x20 PUSH2 0x2321 DUP6 DUP3 DUP7 ADD PUSH2 0x1F50 JUMP JUMPDEST SWAP2 POP POP SWAP3 POP SWAP3 SWAP1 POP JUMP JUMPDEST PUSH0 DUP2 SWAP1 POP SWAP2 SWAP1 POP JUMP JUMPDEST PUSH2 0x233D DUP2 PUSH2 0x232B JUMP JUMPDEST DUP3 MSTORE POP POP JUMP JUMPDEST PUSH0 PUSH1 0x20 DUP3 ADD SWAP1 POP PUSH2 0x2356 PUSH0 DUP4 ADD DUP5 PUSH2 0x2334 JUMP JUMPDEST SWAP3 SWAP2 POP POP JUMP JUMPDEST PUSH0 DUP3 DUP3 MSTORE PUSH1 0x20 DUP3 ADD SWAP1 POP SWAP3 SWAP2 POP POP JUMP JUMPDEST PUSH32 0x4E6F742061646D696E0000000000000000000000000000000000000000000000 PUSH0 DUP3 ADD MSTORE POP JUMP JUMPDEST PUSH0 PUSH2 0x23A0 PUSH1 0x9 DUP4 PUSH2 0x235C JUMP JUMPDEST SWAP2 POP PUSH2 0x23AB DUP3 PUSH2 0x236C JUMP JUMPDEST PUSH1 0x20 DUP3 ADD SWAP1 POP SWAP2 SWAP1 POP JUMP JUMPDEST PUSH0 PUSH1 0x20 DUP3 ADD SWAP1 POP DUP2 DUP2 SUB PUSH0 DUP4 ADD MSTORE PUSH2 0x23CD DUP2 PUSH2 0x2394 JUMP JUMPDEST SWAP1 POP SWAP2 SWAP1 POP JUMP JUMPDEST PUSH32 0x4E487B7100000000000000000000000000000000000000000000000000000000 PUSH0 MSTORE PUSH1 0x11 PUSH1 0x4 MSTORE PUSH1 0x24 PUSH0 REVERT JUMPDEST PUSH0 PUSH2 0x240B DUP3 PUSH2 0x1F31 JUMP JUMPDEST SWAP2 POP PUSH2 0x2416 DUP4 PUSH2 0x1F31 JUMP JUMPDEST SWAP3 POP DUP3 DUP3 MUL PUSH2 0x2424 DUP2 PUSH2 0x1F31 JUMP JUMPDEST SWAP2 POP DUP3 DUP3 DIV DUP5 EQ DUP4 ISZERO OR PUSH2 0x243B JUMPI PUSH2 0x243A PUSH2 0x23D4 JUMP JUMPDEST JUMPDEST POP SWAP3 SWAP2 POP POP JUMP JUMPDEST PUSH32 0x4E487B7100000000000000000000000000000000000000000000000000000000 PUSH0 MSTORE PUSH1 0x12 PUSH1 0x4 MSTORE PUSH1 0x24 PUSH0 REVERT JUMPDEST PUSH0 PUSH2 0x2479 DUP3 PUSH2 0x1F31 JUMP JUMPDEST SWAP2 POP PUSH2 0x2484 DUP4 PUSH2 0x1F31 JUMP JUMPDEST SWAP3 POP DUP3 PUSH2 0x2494 JUMPI PUSH2 0x2493 PUSH2 0x2442 JUMP JUMPDEST JUMPDEST DUP3 DUP3 DIV SWAP1 POP SWAP3 SWAP2 POP POP JUMP JUMPDEST PUSH0 DUP2 MLOAD SWAP1 POP PUSH2 0x24AD DUP2 PUSH2 0x1F3A JUMP JUMPDEST SWAP3 SWAP2 POP POP JUMP JUMPDEST PUSH0 PUSH1 0x20 DUP3 DUP5 SUB SLT ISZERO PUSH2 0x24C8 JUMPI PUSH2 0x24C7 PUSH2 0x1F2D JUMP JUMPDEST JUMPDEST PUSH0 PUSH2 0x24D5 DUP5 DUP3 DUP6 ADD PUSH2 0x249F JUMP JUMPDEST SWAP2 POP POP SWAP3 SWAP2 POP POP JUMP JUMPDEST PUSH32 0x496E73756666696369656E742066756E64730000000000000000000000000000 PUSH0 DUP3 ADD MSTORE POP JUMP JUMPDEST PUSH0 PUSH2 0x2512 PUSH1 0x12 DUP4 PUSH2 0x235C JUMP JUMPDEST SWAP2 POP PUSH2 0x251D DUP3 PUSH2 0x24DE JUMP JUMPDEST PUSH1 0x20 DUP3 ADD SWAP1 POP SWAP2 SWAP1 POP JUMP JUMPDEST PUSH0 PUSH1 0x20 DUP3 ADD SWAP1 POP DUP2 DUP2 SUB PUSH0 DUP4 ADD MSTORE PUSH2 0x253F DUP2 PUSH2 0x2506 JUMP JUMPDEST SWAP1 POP SWAP2 SWAP1 POP JUMP JUMPDEST PUSH0 PUSH1 0x40 DUP3 ADD SWAP1 POP PUSH2 0x2559 PUSH0 DUP4 ADD DUP6 PUSH2 0x2265 JUMP JUMPDEST PUSH2 0x2566 PUSH1 0x20 DUP4 ADD DUP5 PUSH2 0x1FCD JUMP JUMPDEST SWAP4 SWAP3 POP POP POP JUMP JUMPDEST PUSH2 0x2576 DUP2 PUSH2 0x2075 JUMP JUMPDEST DUP2 EQ PUSH2 0x2580 JUMPI PUSH0 PUSH0 REVERT JUMPDEST POP JUMP JUMPDEST PUSH0 DUP2 MLOAD SWAP1 POP PUSH2 0x2591 DUP2 PUSH2 0x256D JUMP JUMPDEST SWAP3 SWAP2 POP POP JUMP JUMPDEST PUSH0 PUSH1 0x20 DUP3 DUP5 SUB SLT ISZERO PUSH2 0x25AC JUMPI PUSH2 0x25AB PUSH2 0x1F2D JUMP JUMPDEST JUMPDEST PUSH0 PUSH2 0x25B9 DUP5 DUP3 DUP6 ADD PUSH2 0x2583 JUMP JUMPDEST SWAP2 POP POP SWAP3 SWAP2 POP POP JUMP JUMPDEST PUSH32 0x5472616E73666572206661696C65640000000000000000000000000000000000 PUSH0 DUP3 ADD MSTORE POP JUMP JUMPDEST PUSH0 PUSH2 0x25F6 PUSH1 0xF DUP4 PUSH2 0x235C JUMP JUMPDEST SWAP2 POP PUSH2 0x2601 DUP3 PUSH2 0x25C2 JUMP JUMPDEST PUSH1 0x20 DUP3 ADD SWAP1 POP SWAP2 SWAP1 POP JUMP JUMPDEST PUSH0 PUSH1 0x20 DUP3 ADD SWAP1 POP DUP2 DUP2 SUB PUSH0 DUP4 ADD MSTORE PUSH2 0x2623 DUP2 PUSH2 0x25EA JUMP JUMPDEST SWAP1 POP SWAP2 SWAP1 POP JUMP JUMPDEST PUSH0 PUSH2 0x2634 DUP3 PUSH2 0x1F31 JUMP JUMPDEST SWAP2 POP PUSH2 0x263F DUP4 PUSH2 0x1F31 JUMP JUMPDEST SWAP3 POP DUP3 DUP3 SUB SWAP1 POP DUP2 DUP2 GT ISZERO PUSH2 0x2657 JUMPI PUSH2 0x2656 PUSH2 0x23D4 JUMP JUMPDEST JUMPDEST SWAP3 SWAP2 POP POP JUMP JUMPDEST PUSH0 PUSH2 0x2667 DUP3 PUSH2 0x1F31 JUMP JUMPDEST SWAP2 POP PUSH2 0x2672 DUP4 PUSH2 0x1F31 JUMP JUMPDEST SWAP3 POP DUP3 DUP3 ADD SWAP1 POP DUP1 DUP3 GT ISZERO PUSH2 0x268A JUMPI PUSH2 0x2689 PUSH2 0x23D4 JUMP JUMPDEST JUMPDEST SWAP3 SWAP2 POP POP JUMP JUMPDEST PUSH0 PUSH10 0xFFFFFFFFFFFFFFFFFFFF DUP3 AND SWAP1 POP SWAP2 SWAP1 POP JUMP JUMPDEST PUSH2 0x26AE DUP2 PUSH2 0x2690 JUMP JUMPDEST DUP2 EQ PUSH2 0x26B8 JUMPI PUSH0 PUSH0 REVERT JUMPDEST POP JUMP JUMPDEST PUSH0 DUP2 MLOAD SWAP1 POP PUSH2 0x26C9 DUP2 PUSH2 0x26A5 JUMP JUMPDEST SWAP3 SWAP2 POP POP JUMP JUMPDEST PUSH2 0x26D8 DUP2 PUSH2 0x232B JUMP JUMPDEST DUP2 EQ PUSH2 0x26E2 JUMPI PUSH0 PUSH0 REVERT JUMPDEST POP JUMP JUMPDEST PUSH0 DUP2 MLOAD SWAP1 POP PUSH2 0x26F3 DUP2 PUSH2 0x26CF JUMP JUMPDEST SWAP3 SWAP2 POP POP JUMP JUMPDEST PUSH0 PUSH0 PUSH0 PUSH0 PUSH0 PUSH1 0xA0 DUP7 DUP9 SUB SLT ISZERO PUSH2 0x2712 JUMPI PUSH2 0x2711 PUSH2 0x1F2D JUMP JUMPDEST JUMPDEST PUSH0 PUSH2 0x271F DUP9 DUP3 DUP10 ADD PUSH2 0x26BB JUMP JUMPDEST SWAP6 POP POP PUSH1 0x20 PUSH2 0x2730 DUP9 DUP3 DUP10 ADD PUSH2 0x26E5 JUMP JUMPDEST SWAP5 POP POP PUSH1 0x40 PUSH2 0x2741 DUP9 DUP3 DUP10 ADD PUSH2 0x249F JUMP JUMPDEST SWAP4 POP POP PUSH1 0x60 PUSH2 0x2752 DUP9 DUP3 DUP10 ADD PUSH2 0x249F JUMP JUMPDEST SWAP3 POP POP PUSH1 0x80 PUSH2 0x2763 DUP9 DUP3 DUP10 ADD PUSH2 0x26BB JUMP JUMPDEST SWAP2 POP POP SWAP3 SWAP6 POP SWAP3 SWAP6 SWAP1 SWAP4 POP JUMP JUMPDEST PUSH32 0x496E76616C696420707269636520666565640000000000000000000000000000 PUSH0 DUP3 ADD MSTORE POP JUMP JUMPDEST PUSH0 PUSH2 0x27A4 PUSH1 0x12 DUP4 PUSH2 0x235C JUMP JUMPDEST SWAP2 POP PUSH2 0x27AF DUP3 PUSH2 0x2770 JUMP JUMPDEST PUSH1 0x20 DUP3 ADD SWAP1 POP SWAP2 SWAP1 POP JUMP JUMPDEST PUSH0 PUSH1 0x20 DUP3 ADD SWAP1 POP DUP2 DUP2 SUB PUSH0 DUP4 ADD MSTORE PUSH2 0x27D1 DUP2 PUSH2 0x2798 JUMP JUMPDEST SWAP1 POP SWAP2 SWAP1 POP JUMP JUMPDEST PUSH32 0x50726F746F636F6C207061757365640000000000000000000000000000000000 PUSH0 DUP3 ADD MSTORE POP JUMP JUMPDEST PUSH0 PUSH2 0x280C PUSH1 0xF DUP4 PUSH2 0x235C JUMP JUMPDEST SWAP2 POP PUSH2 0x2817 DUP3 PUSH2 0x27D8 JUMP JUMPDEST PUSH1 0x20 DUP3 ADD SWAP1 POP SWAP2 SWAP1 POP JUMP JUMPDEST PUSH0 PUSH1 0x20 DUP3 ADD SWAP1 POP DUP2 DUP2 SUB PUSH0 DUP4 ADD MSTORE PUSH2 0x2839 DUP2 PUSH2 0x2800 JUMP JUMPDEST SWAP1 POP SWAP2 SWAP1 POP JUMP JUMPDEST PUSH32 0x416D6F756E74206D7573742062652067726561746572207468616E2030000000 PUSH0 DUP3 ADD MSTORE POP JUMP JUMPDEST PUSH0 PUSH2 0x2874 PUSH1 0x1D DUP4 PUSH2 0x235C JUMP JUMPDEST SWAP2 POP PUSH2 0x287F DUP3 PUSH2 0x2840 JUMP JUMPDEST PUSH1 0x20 DUP3 ADD SWAP1 POP SWAP2 SWAP1 POP JUMP JUMPDEST PUSH0 PUSH1 0x20 DUP3 ADD SWAP1 POP DUP2 DUP2 SUB PUSH0 DUP4 ADD MSTORE PUSH2 0x28A1 DUP2 PUSH2 0x2868 JUMP JUMPDEST SWAP1 POP SWAP2 SWAP1 POP JUMP JUMPDEST PUSH0 PUSH1 0x60 DUP3 ADD SWAP1 POP PUSH2 0x28BB PUSH0 DUP4 ADD DUP7 PUSH2 0x2265 JUMP JUMPDEST PUSH2 0x28C8 PUSH1 0x20 DUP4 ADD DUP6 PUSH2 0x2265 JUMP JUMPDEST PUSH2 0x28D5 PUSH1 0x40 DUP4 ADD DUP5 PUSH2 0x1FCD JUMP JUMPDEST SWAP5 SWAP4 POP POP POP POP JUMP JUMPDEST PUSH32 0x4E6F74206C697175696461746F72000000000000000000000000000000000000 PUSH0 DUP3 ADD MSTORE POP JUMP JUMPDEST PUSH0 PUSH2 0x2911 PUSH1 0xE DUP4 PUSH2 0x235C JUMP JUMPDEST SWAP2 POP PUSH2 0x291C DUP3 PUSH2 0x28DD JUMP JUMPDEST PUSH1 0x20 DUP3 ADD SWAP1 POP SWAP2 SWAP1 POP JUMP JUMPDEST PUSH0 PUSH1 0x20 DUP3 ADD SWAP1 POP DUP2 DUP2 SUB PUSH0 DUP4 ADD MSTORE PUSH2 0x293E DUP2 PUSH2 0x2905 JUMP JUMPDEST SWAP1 POP SWAP2 SWAP1 POP JUMP JUMPDEST PUSH32 0x526570617920616D6F756E74206D757374206265206772656174657220746861 PUSH0 DUP3 ADD MSTORE PUSH32 0x6E20300000000000000000000000000000000000000000000000000000000000 PUSH1 0x20 DUP3 ADD MSTORE POP JUMP JUMPDEST PUSH0 PUSH2 0x299F PUSH1 0x23 DUP4 PUSH2 0x235C JUMP JUMPDEST SWAP2 POP PUSH2 0x29AA DUP3 PUSH2 0x2945 JUMP JUMPDEST PUSH1 0x40 DUP3 ADD SWAP1 POP SWAP2 SWAP1 POP JUMP JUMPDEST PUSH0 PUSH1 0x20 DUP3 ADD SWAP1 POP DUP2 DUP2 SUB PUSH0 DUP4 ADD MSTORE PUSH2 0x29CC DUP2 PUSH2 0x2993 JUMP JUMPDEST SWAP1 POP SWAP2 SWAP1 POP JUMP JUMPDEST PUSH32 0x506F736974696F6E207374696C6C207361666500000000000000000000000000 PUSH0 DUP3 ADD MSTORE POP JUMP JUMPDEST PUSH0 PUSH2 0x2A07 PUSH1 0x13 DUP4 PUSH2 0x235C JUMP JUMPDEST SWAP2 POP PUSH2 0x2A12 DUP3 PUSH2 0x29D3 JUMP JUMPDEST PUSH1 0x20 DUP3 ADD SWAP1 POP SWAP2 SWAP1 POP JUMP JUMPDEST PUSH0 PUSH1 0x20 DUP3 ADD SWAP1 POP DUP2 DUP2 SUB PUSH0 DUP4 ADD MSTORE PUSH2 0x2A34 DUP2 PUSH2 0x29FB JUMP JUMPDEST SWAP1 POP SWAP2 SWAP1 POP JUMP JUMPDEST PUSH32 0x4C69717569646174696F6E207472616E73666572206661696C65640000000000 PUSH0 DUP3 ADD MSTORE POP JUMP JUMPDEST PUSH0 PUSH2 0x2A6F PUSH1 0x1B DUP4 PUSH2 0x235C JUMP JUMPDEST SWAP2 POP PUSH2 0x2A7A DUP3 PUSH2 0x2A3B JUMP JUMPDEST PUSH1 0x20 DUP3 ADD SWAP1 POP SWAP2 SWAP1 POP JUMP JUMPDEST PUSH0 PUSH1 0x20 DUP3 ADD SWAP1 POP DUP2 DUP2 SUB PUSH0 DUP4 ADD MSTORE PUSH2 0x2A9C DUP2 PUSH2 0x2A63 JUMP JUMPDEST SWAP1 POP SWAP2 SWAP1 POP JUMP JUMPDEST PUSH32 0x5472656173757279207472616E73666572206661696C65640000000000000000 PUSH0 DUP3 ADD MSTORE POP JUMP JUMPDEST PUSH0 PUSH2 0x2AD7 PUSH1 0x18 DUP4 PUSH2 0x235C JUMP JUMPDEST SWAP2 POP PUSH2 0x2AE2 DUP3 PUSH2 0x2AA3 JUMP JUMPDEST PUSH1 0x20 DUP3 ADD SWAP1 POP SWAP2 SWAP1 POP JUMP JUMPDEST PUSH0 PUSH1 0x20 DUP3 ADD SWAP1 POP DUP2 DUP2 SUB PUSH0 DUP4 ADD MSTORE PUSH2 0x2B04 DUP2 PUSH2 0x2ACB JUMP JUMPDEST SWAP1 POP SWAP2 SWAP1 POP JUMP JUMPDEST PUSH32 0x426F6E7573207472616E73666572206661696C65640000000000000000000000 PUSH0 DUP3 ADD MSTORE POP JUMP JUMPDEST PUSH0 PUSH2 0x2B3F PUSH1 0x15 DUP4 PUSH2 0x235C JUMP JUMPDEST SWAP2 POP PUSH2 0x2B4A DUP3 PUSH2 0x2B0B JUMP JUMPDEST PUSH1 0x20 DUP3 ADD SWAP1 POP SWAP2 SWAP1 POP JUMP JUMPDEST PUSH0 PUSH1 0x20 DUP3 ADD SWAP1 POP DUP2 DUP2 SUB PUSH0 DUP4 ADD MSTORE PUSH2 0x2B6C DUP2 PUSH2 0x2B33 JUMP JUMPDEST SWAP1 POP SWAP2 SWAP1 POP JUMP JUMPDEST PUSH32 0x436F6F6C646F776E20706572696F6420686173206E6F7420656C617073656400 PUSH0 DUP3 ADD MSTORE POP JUMP JUMPDEST PUSH0 PUSH2 0x2BA7 PUSH1 0x1F DUP4 PUSH2 0x235C JUMP JUMPDEST SWAP2 POP PUSH2 0x2BB2 DUP3 PUSH2 0x2B73 JUMP JUMPDEST PUSH1 0x20 DUP3 ADD SWAP1 POP SWAP2 SWAP1 POP JUMP JUMPDEST PUSH0 PUSH1 0x20 DUP3 ADD SWAP1 POP DUP2 DUP2 SUB PUSH0 DUP4 ADD MSTORE PUSH2 0x2BD4 DUP2 PUSH2 0x2B9B JUMP JUMPDEST SWAP1 POP SWAP2 SWAP1 POP JUMP JUMPDEST PUSH32 0x426F72726F7720616D6F756E74206D7573742062652067726561746572207468 PUSH0 DUP3 ADD MSTORE PUSH32 0x616E203000000000000000000000000000000000000000000000000000000000 PUSH1 0x20 DUP3 ADD MSTORE POP JUMP JUMPDEST PUSH0 PUSH2 0x2C35 PUSH1 0x24 DUP4 PUSH2 0x235C JUMP JUMPDEST SWAP2 POP PUSH2 0x2C40 DUP3 PUSH2 0x2BDB JUMP JUMPDEST PUSH1 0x40 DUP3 ADD SWAP1 POP SWAP2 SWAP1 POP JUMP JUMPDEST PUSH0 PUSH1 0x20 DUP3 ADD SWAP1 POP DUP2 DUP2 SUB PUSH0 DUP4 ADD MSTORE PUSH2 0x2C62 DUP2 PUSH2 0x2C29 JUMP JUMPDEST SWAP1 POP SWAP2 SWAP1 POP JUMP JUMPDEST PUSH32 0x496E73756666696369656E7420636F6C6C61746572616C000000000000000000 PUSH0 DUP3 ADD MSTORE POP JUMP JUMPDEST PUSH0 PUSH2 0x2C9D PUSH1 0x17 DUP4 PUSH2 0x235C JUMP JUMPDEST SWAP2 POP PUSH2 0x2CA8 DUP3 PUSH2 0x2C69 JUMP JUMPDEST PUSH1 0x20 DUP3 ADD SWAP1 POP SWAP2 SWAP1 POP JUMP JUMPDEST PUSH0 PUSH1 0x20 DUP3 ADD SWAP1 POP DUP2 DUP2 SUB PUSH0 DUP4 ADD MSTORE PUSH2 0x2CCA DUP2 PUSH2 0x2C91 JUMP JUMPDEST SWAP1 POP SWAP2 SWAP1 POP JUMP JUMPDEST PUSH32 0x426F72726F77207472616E73666572206661696C656400000000000000000000 PUSH0 DUP3 ADD MSTORE POP JUMP JUMPDEST PUSH0 PUSH2 0x2D05 PUSH1 0x16 DUP4 PUSH2 0x235C JUMP JUMPDEST SWAP2 POP PUSH2 0x2D10 DUP3 PUSH2 0x2CD1 JUMP JUMPDEST PUSH1 0x20 DUP3 ADD SWAP1 POP SWAP2 SWAP1 POP JUMP JUMPDEST PUSH0 PUSH1 0x20 DUP3 ADD SWAP1 POP DUP2 DUP2 SUB PUSH0 DUP4 ADD MSTORE PUSH2 0x2D32 DUP2 PUSH2 0x2CF9 JUMP JUMPDEST SWAP1 POP SWAP2 SWAP1 POP JUMP JUMPDEST PUSH32 0x4F7261636C65206461746120697320696E76616C696400000000000000000000 PUSH0 DUP3 ADD MSTORE POP JUMP JUMPDEST PUSH0 PUSH2 0x2D6D PUSH1 0x16 DUP4 PUSH2 0x235C JUMP JUMPDEST SWAP2 POP PUSH2 0x2D78 DUP3 PUSH2 0x2D39 JUMP JUMPDEST PUSH1 0x20 DUP3 ADD SWAP1 POP SWAP2 SWAP1 POP JUMP JUMPDEST PUSH0 PUSH1 0x20 DUP3 ADD SWAP1 POP DUP2 DUP2 SUB PUSH0 DUP4 ADD MSTORE PUSH2 0x2D9A DUP2 PUSH2 0x2D61 JUMP JUMPDEST SWAP1 POP SWAP2 SWAP1 POP JUMP JUMPDEST PUSH32 0x5265656E7472616E637947756172643A207265656E7472616E742063616C6C00 PUSH0 DUP3 ADD MSTORE POP JUMP JUMPDEST PUSH0 PUSH2 0x2DD5 PUSH1 0x1F DUP4 PUSH2 0x235C JUMP JUMPDEST SWAP2 POP PUSH2 0x2DE0 DUP3 PUSH2 0x2DA1 JUMP JUMPDEST PUSH1 0x20 DUP3 ADD SWAP1 POP SWAP2 SWAP1 POP JUMP JUMPDEST PUSH0 PUSH1 0x20 DUP3 ADD SWAP1 POP DUP2 DUP2 SUB PUSH0 DUP4 ADD MSTORE PUSH2 0x2E02 DUP2 PUSH2 0x2DC9 JUMP JUMPDEST SWAP1 POP SWAP2 SWAP1 POP JUMP JUMPDEST PUSH0 PUSH1 0x40 DUP3 ADD SWAP1 POP PUSH2 0x2E1C PUSH0 DUP4 ADD DUP6 PUSH2 0x2265 JUMP JUMPDEST PUSH2 0x2E29 PUSH1 0x20 DUP4 ADD DUP5 PUSH2 0x20B1 JUMP JUMPDEST SWAP4 SWAP3 POP POP POP JUMP INVALID LOG2 PUSH5 0x6970667358 0x22 SLT KECCAK256 GAS PUSH0 PUSH16 0x49EF95CAAFD6F2840DA582D30AFBD516 DUP10 SELFBALANCE CALLDATASIZE TLOAD SWAP9 PUSH9 0x29D6C161BACC8C6473 PUSH16 0x6C634300081C00330000000000000000 "
				},
				"gasEstimates": {
					"creation": {
						"codeDepositCost": "2375600",
						"executionCost": "infinite",
						"totalCost": "infinite"
					},
					"external": {
						"ADMIN_ROLE()": "371",
						"DEFAULT_ADMIN_ROLE()": "440",
						"LIQUIDATOR_ROLE()": "438",
						"borrow(uint256)": "infinite",
						"borrowCooldown()": "2537",
						"borrowToken()": "infinite",
						"calculateHealthFactor(uint256,uint256)": "infinite",
						"calculateInterestRate(uint256)": "infinite",
						"collateralAccounts(address)": "infinite",
						"debtAccounts(address)": "2927",
						"depositCollateral(uint256)": "infinite",
						"emergencyWithdraw(uint256)": "infinite",
						"getCollateralValue(address)": "infinite",
						"getRoleAdmin(bytes32)": "infinite",
						"grantRole(bytes32,address)": "infinite",
						"hasRole(bytes32,address)": "3188",
						"liquidate(address,uint256)": "infinite",
						"lstToken()": "infinite",
						"minHealthFactor()": "2491",
						"pauseProtocol()": "26871",
						"paused()": "2562",
						"priceFeed()": "infinite",
						"recoverOracleData()": "infinite",
						"renounceRole(bytes32,address)": "infinite",
						"revokeRole(bytes32,address)": "infinite",
						"setCooldownPeriod(uint256)": "24972",
						"setMinHealthFactor(uint256)": "24929",
						"setTreasury(address)": "27170",
						"supportsInterface(bytes4)": "808",
						"totalBorrowed()": "2515",
						"totalCollateral()": "2493",
						"treasury()": "2575",
						"unpauseProtocol()": "26958"
					}
				},
				"methodIdentifiers": {
					"ADMIN_ROLE()": "75b238fc",
					"DEFAULT_ADMIN_ROLE()": "a217fddf",
					"LIQUIDATOR_ROLE()": "16d8887a",
					"borrow(uint256)": "c5ebeaec",
					"borrowCooldown()": "8c1b6820",
					"borrowToken()": "456dc17a",
					"calculateHealthFactor(uint256,uint256)": "01f72884",
					"calculateInterestRate(uint256)": "90d3b379",
					"collateralAccounts(address)": "6cbf7f91",
					"debtAccounts(address)": "3eff4e03",
					"depositCollateral(uint256)": "bad4a01f",
					"emergencyWithdraw(uint256)": "5312ea8e",
					"getCollateralValue(address)": "97904e42",
					"getRoleAdmin(bytes32)": "248a9ca3",
					"grantRole(bytes32,address)": "2f2ff15d",
					"hasRole(bytes32,address)": "91d14854",
					"liquidate(address,uint256)": "bcbaf487",
					"lstToken()": "80920718",
					"minHealthFactor()": "e1b4264c",
					"pauseProtocol()": "dbf62489",
					"paused()": "5c975abb",
					"priceFeed()": "741bef1a",
					"recoverOracleData()": "f41719aa",
					"renounceRole(bytes32,address)": "36568abe",
					"revokeRole(bytes32,address)": "d547741f",
					"setCooldownPeriod(uint256)": "80ea3de1",
					"setMinHealthFactor(uint256)": "01b08d58",
					"setTreasury(address)": "f0f44260",
					"supportsInterface(bytes4)": "01ffc9a7",
					"totalBorrowed()": "4c19386c",
					"totalCollateral()": "4ac8eb5f",
					"treasury()": "61d027b3",
					"unpauseProtocol()": "f93b6be5"
				}
			},
			"storageLayout": {
				"storage": [
					{
						"astId": 435,
						"contract": "contracts/LSTLendingAMM.sol:LSTLendingAMM",
						"label": "_status",
						"offset": 0,
						"slot": "0",
						"type": "t_uint256"
					},
					{
						"astId": 72,
						"contract": "contracts/LSTLendingAMM.sol:LSTLendingAMM",
						"label": "_roles",
						"offset": 0,
						"slot": "1",
						"type": "t_mapping(t_bytes32,t_struct(RoleData)67_storage)"
					},
					{
						"astId": 656,
						"contract": "contracts/LSTLendingAMM.sol:LSTLendingAMM",
						"label": "treasury",
						"offset": 0,
						"slot": "2",
						"type": "t_address"
					},
					{
						"astId": 658,
						"contract": "contracts/LSTLendingAMM.sol:LSTLendingAMM",
						"label": "paused",
						"offset": 20,
						"slot": "2",
						"type": "t_bool"
					},
					{
						"astId": 661,
						"contract": "contracts/LSTLendingAMM.sol:LSTLendingAMM",
						"label": "minHealthFactor",
						"offset": 0,
						"slot": "3",
						"type": "t_uint256"
					},
					{
						"astId": 664,
						"contract": "contracts/LSTLendingAMM.sol:LSTLendingAMM",
						"label": "borrowCooldown",
						"offset": 0,
						"slot": "4",
						"type": "t_uint256"
					},
					{
						"astId": 667,
						"contract": "contracts/LSTLendingAMM.sol:LSTLendingAMM",
						"label": "lstToken",
						"offset": 0,
						"slot": "5",
						"type": "t_contract(IERC20)567"
					},
					{
						"astId": 670,
						"contract": "contracts/LSTLendingAMM.sol:LSTLendingAMM",
						"label": "borrowToken",
						"offset": 0,
						"slot": "6",
						"type": "t_contract(IERC20)567"
					},
					{
						"astId": 673,
						"contract": "contracts/LSTLendingAMM.sol:LSTLendingAMM",
						"label": "priceFeed",
						"offset": 0,
						"slot": "7",
						"type": "t_contract(AggregatorV3Interface)45"
					},
					{
						"astId": 675,
						"contract": "contracts/LSTLendingAMM.sol:LSTLendingAMM",
						"label": "totalCollateral",
						"offset": 0,
						"slot": "8",
						"type": "t_uint256"
					},
					{
						"astId": 677,
						"contract": "contracts/LSTLendingAMM.sol:LSTLendingAMM",
						"label": "totalBorrowed",
						"offset": 0,
						"slot": "9",
						"type": "t_uint256"
					},
					{
						"astId": 690,
						"contract": "contracts/LSTLendingAMM.sol:LSTLendingAMM",
						"label": "collateralAccounts",
						"offset": 0,
						"slot": "10",
						"type": "t_mapping(t_address,t_struct(CollateralAccount)682_storage)"
					},
					{
						"astId": 695,
						"contract": "contracts/LSTLendingAMM.sol:LSTLendingAMM",
						"label": "debtAccounts",
						"offset": 0,
						"slot": "11",
						"type": "t_mapping(t_address,t_struct(DebtAccount)685_storage)"
					}
				],
				"types": {
					"t_address": {
						"encoding": "inplace",
						"label": "address",
						"numberOfBytes": "20"
					},
					"t_bool": {
						"encoding": "inplace",
						"label": "bool",
						"numberOfBytes": "1"
					},
					"t_bytes32": {
						"encoding": "inplace",
						"label": "bytes32",
						"numberOfBytes": "32"
					},
					"t_contract(AggregatorV3Interface)45": {
						"encoding": "inplace",
						"label": "contract AggregatorV3Interface",
						"numberOfBytes": "20"
					},
					"t_contract(IERC20)567": {
						"encoding": "inplace",
						"label": "contract IERC20",
						"numberOfBytes": "20"
					},
					"t_mapping(t_address,t_bool)": {
						"encoding": "mapping",
						"key": "t_address",
						"label": "mapping(address => bool)",
						"numberOfBytes": "32",
						"value": "t_bool"
					},
					"t_mapping(t_address,t_struct(CollateralAccount)682_storage)": {
						"encoding": "mapping",
						"key": "t_address",
						"label": "mapping(address => struct LSTLendingAMM.CollateralAccount)",
						"numberOfBytes": "32",
						"value": "t_struct(CollateralAccount)682_storage"
					},
					"t_mapping(t_address,t_struct(DebtAccount)685_storage)": {
						"encoding": "mapping",
						"key": "t_address",
						"label": "mapping(address => struct LSTLendingAMM.DebtAccount)",
						"numberOfBytes": "32",
						"value": "t_struct(DebtAccount)685_storage"
					},
					"t_mapping(t_bytes32,t_struct(RoleData)67_storage)": {
						"encoding": "mapping",
						"key": "t_bytes32",
						"label": "mapping(bytes32 => struct AccessControl.RoleData)",
						"numberOfBytes": "32",
						"value": "t_struct(RoleData)67_storage"
					},
					"t_struct(CollateralAccount)682_storage": {
						"encoding": "inplace",
						"label": "struct LSTLendingAMM.CollateralAccount",
						"members": [
							{
								"astId": 679,
								"contract": "contracts/LSTLendingAMM.sol:LSTLendingAMM",
								"label": "collateralAmount",
								"offset": 0,
								"slot": "0",
								"type": "t_uint256"
							},
							{
								"astId": 681,
								"contract": "contracts/LSTLendingAMM.sol:LSTLendingAMM",
								"label": "lastBorrowTimestamp",
								"offset": 0,
								"slot": "1",
								"type": "t_uint256"
							}
						],
						"numberOfBytes": "64"
					},
					"t_struct(DebtAccount)685_storage": {
						"encoding": "inplace",
						"label": "struct LSTLendingAMM.DebtAccount",
						"members": [
							{
								"astId": 684,
								"contract": "contracts/LSTLendingAMM.sol:LSTLendingAMM",
								"label": "debtAmount",
								"offset": 0,
								"slot": "0",
								"type": "t_uint256"
							}
						],
						"numberOfBytes": "32"
					},
					"t_struct(RoleData)67_storage": {
						"encoding": "inplace",
						"label": "struct AccessControl.RoleData",
						"members": [
							{
								"astId": 64,
								"contract": "contracts/LSTLendingAMM.sol:LSTLendingAMM",
								"label": "hasRole",
								"offset": 0,
								"slot": "0",
								"type": "t_mapping(t_address,t_bool)"
							},
							{
								"astId": 66,
								"contract": "contracts/LSTLendingAMM.sol:LSTLendingAMM",
								"label": "adminRole",
								"offset": 0,
								"slot": "1",
								"type": "t_bytes32"
							}
						],
						"numberOfBytes": "64"
					},
					"t_uint256": {
						"encoding": "inplace",
						"label": "uint256",
						"numberOfBytes": "32"
					}
				}
			},
			"userdoc": {
				"kind": "user",
				"methods": {
					"borrow(uint256)": {
						"notice": "Borrow assets using LST collateral"
					},
					"calculateHealthFactor(uint256,uint256)": {
						"notice": "Calculate health factor"
					},
					"calculateInterestRate(uint256)": {
						"notice": "Calculate interest rate based on utilization"
					},
					"depositCollateral(uint256)": {
						"notice": "Deposit LST as collateral"
					},
					"emergencyWithdraw(uint256)": {
						"notice": "Emergency withdrawal for the admin"
					},
					"getCollateralValue(address)": {
						"notice": "Fetch collateral value in USD"
					},
					"liquidate(address,uint256)": {
						"notice": "Liquidate under-collateralized positions"
					},
					"pauseProtocol()": {
						"notice": "Pause the protocol"
					},
					"recoverOracleData()": {
						"notice": "Fallback mechanism to recover failed oracle data"
					},
					"setCooldownPeriod(uint256)": {
						"notice": "Set the cooldown period for borrowing"
					},
					"setMinHealthFactor(uint256)": {
						"notice": "Set the minimum health factor for liquidation"
					},
					"setTreasury(address)": {
						"notice": "Set the treasury address"
					},
					"unpauseProtocol()": {
						"notice": "Unpause the protocol"
					}
				},
				"version": 1
			}
		}
	}
}